{"contracts/finayNFT.sol":{"Finay":{"abi":[{"inputs":[{"internalType":"address","name":"_caller","type":"address"},{"internalType":"address","name":"_validCaller","type":"address"}],"name":"invalidCaller","type":"error"},{"inputs":[{"internalType":"address","name":"_caller","type":"address"},{"internalType":"bool","name":"_isAdmin","type":"bool"}],"name":"notSubAdmin","type":"error"},{"inputs":[{"internalType":"address","name":"_caller","type":"address"},{"internalType":"address","name":"_superAdmin","type":"address"}],"name":"notSuperAdmin","type":"error"},{"anonymous":false,"inputs":[{"indexed":true,"internalType":"address","name":"account","type":"address"},{"indexed":true,"internalType":"address","name":"operator","type":"address"},{"indexed":false,"internalType":"bool","name":"approved","type":"bool"}],"name":"ApprovalForAll","type":"event"},{"anonymous":false,"inputs":[{"indexed":false,"internalType":"uint8","name":"version","type":"uint8"}],"name":"Initialized","type":"event"},{"anonymous":false,"inputs":[{"indexed":false,"internalType":"uint256","name":"_tokenId","type":"uint256"},{"indexed":false,"internalType":"uint256","name":"_amount","type":"uint256"},{"indexed":false,"internalType":"address","name":"_buyer","type":"address"}],"name":"LazyMint","type":"event"},{"anonymous":false,"inputs":[{"indexed":true,"internalType":"address","name":"operator","type":"address"},{"indexed":true,"internalType":"address","name":"from","type":"address"},{"indexed":true,"internalType":"address","name":"to","type":"address"},{"indexed":false,"internalType":"uint256[]","name":"ids","type":"uint256[]"},{"indexed":false,"internalType":"uint256[]","name":"values","type":"uint256[]"}],"name":"TransferBatch","type":"event"},{"anonymous":false,"inputs":[{"indexed":true,"internalType":"address","name":"operator","type":"address"},{"indexed":true,"internalType":"address","name":"from","type":"address"},{"indexed":true,"internalType":"address","name":"to","type":"address"},{"indexed":false,"internalType":"uint256","name":"id","type":"uint256"},{"indexed":false,"internalType":"uint256","name":"value","type":"uint256"}],"name":"TransferSingle","type":"event"},{"anonymous":false,"inputs":[{"indexed":false,"internalType":"string","name":"value","type":"string"},{"indexed":true,"internalType":"uint256","name":"id","type":"uint256"}],"name":"URI","type":"event"},{"inputs":[{"internalType":"address","name":"_admin","type":"address"}],"name":"assignAdmin","outputs":[],"stateMutability":"nonpayable","type":"function"},{"inputs":[{"internalType":"address","name":"account","type":"address"},{"internalType":"uint256","name":"id","type":"uint256"}],"name":"balanceOf","outputs":[{"internalType":"uint256","name":"","type":"uint256"}],"stateMutability":"view","type":"function"},{"inputs":[{"internalType":"address[]","name":"accounts","type":"address[]"},{"internalType":"uint256[]","name":"ids","type":"uint256[]"}],"name":"balanceOfBatch","outputs":[{"internalType":"uint256[]","name":"","type":"uint256[]"}],"stateMutability":"view","type":"function"},{"inputs":[{"internalType":"string","name":"__uri","type":"string"},{"internalType":"address","name":"_marketplace","type":"address"},{"internalType":"address","name":"_admin","type":"address"}],"name":"initialize","outputs":[],"stateMutability":"nonpayable","type":"function"},{"inputs":[{"internalType":"address","name":"account","type":"address"},{"internalType":"address","name":"operator","type":"address"}],"name":"isApprovedForAll","outputs":[{"internalType":"bool","name":"","type":"bool"}],"stateMutability":"view","type":"function"},{"inputs":[{"internalType":"address","name":"","type":"address"}],"name":"isSubAdmin","outputs":[{"internalType":"bool","name":"","type":"bool"}],"stateMutability":"view","type":"function"},{"inputs":[{"internalType":"uint256","name":"_tokenId","type":"uint256"},{"internalType":"uint256","name":"_amount","type":"uint256"},{"internalType":"address","name":"_seller","type":"address"},{"internalType":"address","name":"_buyer","type":"address"},{"internalType":"uint96","name":"_royaltyfee","type":"uint96"},{"internalType":"string","name":"_tokenuri","type":"string"}],"name":"lazyMint","outputs":[],"stateMutability":"nonpayable","type":"function"},{"inputs":[],"name":"marketplace","outputs":[{"internalType":"address","name":"","type":"address"}],"stateMutability":"view","type":"function"},{"inputs":[{"internalType":"address","name":"_admin","type":"address"}],"name":"removeAdmin","outputs":[],"stateMutability":"nonpayable","type":"function"},{"inputs":[{"internalType":"uint256","name":"tokenId","type":"uint256"},{"internalType":"uint256","name":"salePrice","type":"uint256"}],"name":"royaltyInfo","outputs":[{"internalType":"address","name":"","type":"address"},{"internalType":"uint256","name":"","type":"uint256"}],"stateMutability":"view","type":"function"},{"inputs":[{"internalType":"address","name":"from","type":"address"},{"internalType":"address","name":"to","type":"address"},{"internalType":"uint256[]","name":"ids","type":"uint256[]"},{"internalType":"uint256[]","name":"amounts","type":"uint256[]"},{"internalType":"bytes","name":"data","type":"bytes"}],"name":"safeBatchTransferFrom","outputs":[],"stateMutability":"nonpayable","type":"function"},{"inputs":[{"internalType":"address","name":"recipient","type":"address"},{"internalType":"uint256","name":"id","type":"uint256"},{"internalType":"uint256","name":"amount","type":"uint256"},{"internalType":"bytes","name":"data","type":"bytes"}],"name":"safeMint","outputs":[],"stateMutability":"nonpayable","type":"function"},{"inputs":[{"internalType":"address","name":"from","type":"address"},{"internalType":"address","name":"to","type":"address"},{"internalType":"uint256","name":"id","type":"uint256"},{"internalType":"uint256","name":"amount","type":"uint256"},{"internalType":"bytes","name":"data","type":"bytes"}],"name":"safeTransferFrom","outputs":[],"stateMutability":"nonpayable","type":"function"},{"inputs":[{"internalType":"address","name":"operator","type":"address"},{"internalType":"bool","name":"approved","type":"bool"}],"name":"setApprovalForAll","outputs":[],"stateMutability":"nonpayable","type":"function"},{"inputs":[],"name":"superAdmin","outputs":[{"internalType":"address","name":"","type":"address"}],"stateMutability":"view","type":"function"},{"inputs":[{"internalType":"bytes4","name":"interfaceId","type":"bytes4"}],"name":"supportsInterface","outputs":[{"internalType":"bool","name":"","type":"bool"}],"stateMutability":"view","type":"function"},{"inputs":[{"internalType":"uint256","name":"","type":"uint256"}],"name":"tokenMinted","outputs":[{"internalType":"uint256","name":"","type":"uint256"}],"stateMutability":"view","type":"function"},{"inputs":[{"internalType":"address","name":"_admin","type":"address"}],"name":"updateAdmin","outputs":[],"stateMutability":"nonpayable","type":"function"},{"inputs":[{"internalType":"address","name":"_newMarketplace","type":"address"}],"name":"updateMarketplace","outputs":[],"stateMutability":"nonpayable","type":"function"},{"inputs":[{"internalType":"uint256","name":"","type":"uint256"}],"name":"uri","outputs":[{"internalType":"string","name":"","type":"string"}],"stateMutability":"view","type":"function"}],"evm":{"bytecode":{"linkReferences":{},"object":"608060405234801561001057600080fd5b50614b49806100206000396000f3fe608060405234801561001057600080fd5b506004361061012b5760003560e01c80635cfa9297116100ad578063e2f273bd11610071578063e2f273bd14610351578063e985e9c51461036d578063eb6363171461039d578063f242432a146103b9578063ff4078d3146103d55761012b565b80635cfa9297146102af57806391ef38ba146102cb578063a22cb465146102e7578063abc8c7af14610303578063d1c63b21146103215761012b565b80632a55205a116100f45780632a55205a146101fa5780632eb2c2d61461022b5780633da7d2ed14610247578063463fd1af146102635780634e1273f41461027f5761012b565b8062fdd58e1461013057806301ffc9a7146101605780630e89341c146101905780631785f53c146101c057806329575f6a146101dc575b600080fd5b61014a60048036038101906101459190612fce565b610405565b604051610157919061301d565b60405180910390f35b61017a60048036038101906101759190613090565b6104ce565b60405161018791906130d8565b60405180910390f35b6101aa60048036038101906101a591906130f3565b6105bc565b6040516101b791906131b0565b60405180910390f35b6101da60048036038101906101d591906131d2565b61068d565b005b6101e461087d565b6040516101f1919061320e565b60405180910390f35b610214600480360381019061020f9190613229565b6108a4565b604051610222929190613269565b60405180910390f35b6102456004803603810190610240919061348f565b610a8e565b005b610261600480360381019061025c91906131d2565b610b2f565b005b61027d600480360381019061027891906135ff565b610d1f565b005b61029960048036038101906102949190613731565b61100e565b6040516102a69190613867565b60405180910390f35b6102c960048036038101906102c49190613889565b611127565b005b6102e560048036038101906102e09190613950565b611320565b005b61030160048036038101906102fc9190613a25565b611729565b005b61030b61173f565b604051610318919061320e565b60405180910390f35b61033b600480360381019061033691906131d2565b611766565b60405161034891906130d8565b60405180910390f35b61036b600480360381019061036691906131d2565b611787565b005b61038760048036038101906103829190613a65565b611960565b60405161039491906130d8565b60405180910390f35b6103b760048036038101906103b291906131d2565b6119f4565b005b6103d360048036038101906103ce9190613aa5565b611bcd565b005b6103ef60048036038101906103ea91906130f3565b611c6e565b6040516103fc919061301d565b60405180910390f35b60008073ffffffffffffffffffffffffffffffffffffffff168373ffffffffffffffffffffffffffffffffffffffff1603610475576040517f08c379a000000000000000000000000000000000000000000000000000000000815260040161046c90613bae565b60405180910390fd5b6065600083815260200190815260200160002060008473ffffffffffffffffffffffffffffffffffffffff1673ffffffffffffffffffffffffffffffffffffffff16815260200190815260200160002054905092915050565b60006104e4677a104c73dae3861160c01b611c87565b6104f8678e6cbe8104d934aa60c01b611c87565b61050c678fc3b884d9c6e2c060c01b611c87565b7f2a55205a000000000000000000000000000000000000000000000000000000007bffffffffffffffffffffffffffffffffffffffffffffffffffffffff1916827bffffffffffffffffffffffffffffffffffffffffffffffffffffffff1916148015610589575061058867861e973761c73fd960c01b611c8a565b5b806105b5575061059882611c95565b80156105b457506105b36739e91cb7183cce6e60c01b611c8a565b5b5b9050919050565b60606105d2674fe5dade1393c66f60c01b611c87565b6105e6670a2f5a34e01df3bd60c01b611c87565b6105fa67a3abe07f927e06cb60c01b611c87565b61012f805461060890613bfd565b80601f016020809104026020016040519081016040528092919081815260200182805461063490613bfd565b80156106815780601f1061065657610100808354040283529160200191610681565b820191906000526020600020905b81548152906001019060200180831161066457829003601f168201915b50505050509050919050565b6106a167767c5818eb990d1660c01b611c87565b6106b56747df6132c3c1b67060c01b611c87565b6106c9679f72ff67dc7bc51460c01b611c87565b6106dd6709f9c27857ffb4d160c01b611c87565b61012d60009054906101000a900473ffffffffffffffffffffffffffffffffffffffff1673ffffffffffffffffffffffffffffffffffffffff163373ffffffffffffffffffffffffffffffffffffffff16146107bd5761074767268b32dc1840444f60c01b611c87565b61075b6725441561d542e16a60c01b611c87565b3361012d60009054906101000a900473ffffffffffffffffffffffffffffffffffffffff166040517fe0c0b6090000000000000000000000000000000000000000000000000000000081526004016107b4929190613c2e565b60405180910390fd5b6107d167d2a00f199532c97260c01b611c87565b6107e5674ee9735d3ed5a2eb60c01b611c87565b6107f9677b5f98f1cf8cbfeb60c01b611c87565b61080d677a464d14e22b704060c01b611c87565b6108216791c44eb834f0337d60c01b611c87565b600061013060008373ffffffffffffffffffffffffffffffffffffffff1673ffffffffffffffffffffffffffffffffffffffff16815260200190815260200160002060006101000a81548160ff02191690831515021790555050565b61012d60009054906101000a900473ffffffffffffffffffffffffffffffffffffffff1681565b600080600060ca60008681526020019081526020016000206040518060400160405290816000820160009054906101000a900473ffffffffffffffffffffffffffffffffffffffff1673ffffffffffffffffffffffffffffffffffffffff1673ffffffffffffffffffffffffffffffffffffffff1681526020016000820160149054906101000a90046bffffffffffffffffffffffff166bffffffffffffffffffffffff166bffffffffffffffffffffffff16815250509050600073ffffffffffffffffffffffffffffffffffffffff16816000015173ffffffffffffffffffffffffffffffffffffffff1603610a395760c96040518060400160405290816000820160009054906101000a900473ffffffffffffffffffffffffffffffffffffffff1673ffffffffffffffffffffffffffffffffffffffff1673ffffffffffffffffffffffffffffffffffffffff1681526020016000820160149054906101000a90046bffffffffffffffffffffffff166bffffffffffffffffffffffff166bffffffffffffffffffffffff168152505090505b6000610a43611d0f565b6bffffffffffffffffffffffff1682602001516bffffffffffffffffffffffff1686610a6f9190613c86565b610a799190613cf7565b90508160000151819350935050509250929050565b610a96611d19565b73ffffffffffffffffffffffffffffffffffffffff168573ffffffffffffffffffffffffffffffffffffffff161480610adc5750610adb85610ad6611d19565b611960565b5b610b1b576040517f08c379a0000000000000000000000000000000000000000000000000000000008152600401610b1290613d9a565b60405180910390fd5b610b288585858585611d21565b5050505050565b610b4367bfbfb663a44745b760c01b611c87565b610b576747df6132c3c1b67060c01b611c87565b610b6b679f72ff67dc7bc51460c01b611c87565b610b7f6709f9c27857ffb4d160c01b611c87565b61012d60009054906101000a900473ffffffffffffffffffffffffffffffffffffffff1673ffffffffffffffffffffffffffffffffffffffff163373ffffffffffffffffffffffffffffffffffffffff1614610c5f57610be967268b32dc1840444f60c01b611c87565b610bfd6725441561d542e16a60c01b611c87565b3361012d60009054906101000a900473ffffffffffffffffffffffffffffffffffffffff166040517fe0c0b609000000000000000000000000000000000000000000000000000000008152600401610c56929190613c2e565b60405180910390fd5b610c7367d2a00f199532c97260c01b611c87565b610c87674ee9735d3ed5a2eb60c01b611c87565b610c9b670f7743c677c5c07e60c01b611c87565b610caf67719fb2ae854ec58a60c01b611c87565b610cc367653efdf67b20a97660c01b611c87565b600161013060008373ffffffffffffffffffffffffffffffffffffffff1673ffffffffffffffffffffffffffffffffffffffff16815260200190815260200160002060006101000a81548160ff02191690831515021790555050565b610d3367cdc8de602ffdde2e60c01b611c87565b60008060019054906101000a900460ff16159050808015610d645750600160008054906101000a900460ff1660ff16105b80610d915750610d7330612045565b158015610d905750600160008054906101000a900460ff1660ff16145b5b610dd0576040517f08c379a0000000000000000000000000000000000000000000000000000000008152600401610dc790613e2c565b60405180910390fd5b60016000806101000a81548160ff021916908360ff1602179055508015610e0d576001600060016101000a81548160ff0219169083151502179055505b610e216722f2fd41d970e4b560c01b611c87565b610e356773346d1b1404e52760c01b611c87565b610e49673805513a98fe2d6560c01b611c87565b610e5d676b762add1a8a902260c01b611c87565b610e6684612068565b610e7a67817e847acd9c8a9760c01b611c87565b610e8e67f4d462ab0f8367b160c01b611c87565b610e966120c3565b610eaa67c64f34c7b704f7d360c01b611c87565b8261012e60006101000a81548173ffffffffffffffffffffffffffffffffffffffff021916908373ffffffffffffffffffffffffffffffffffffffff160217905550610f00673f35e56f75ac4d3460c01b611c87565b8161012d60006101000a81548173ffffffffffffffffffffffffffffffffffffffff021916908373ffffffffffffffffffffffffffffffffffffffff160217905550610f5667d6af2feb4e41b28460c01b611c87565b600161013060008473ffffffffffffffffffffffffffffffffffffffff1673ffffffffffffffffffffffffffffffffffffffff16815260200190815260200160002060006101000a81548160ff02191690831515021790555080156110085760008060016101000a81548160ff0219169083151502179055507f7f26b83ff96e1f2b6a682f133852f6798a09c465da95921460cefb38474024986001604051610fff9190613e9e565b60405180910390a15b50505050565b60608151835114611054576040517f08c379a000000000000000000000000000000000000000000000000000000000815260040161104b90613f2b565b60405180910390fd5b6000835167ffffffffffffffff81111561107157611070613297565b5b60405190808252806020026020018201604052801561109f5781602001602082028036833780820191505090505b50905060005b845181101561111c576110ec8582815181106110c4576110c3613f4b565b5b60200260200101518583815181106110df576110de613f4b565b5b6020026020010151610405565b8282815181106110ff576110fe613f4b565b5b6020026020010181815250508061111590613f7a565b90506110a5565b508091505092915050565b61113b6747011ce5655f718760c01b611c87565b61114f6747df6132c3c1b67060c01b611c87565b611163679f72ff67dc7bc51460c01b611c87565b6111776709f9c27857ffb4d160c01b611c87565b61012d60009054906101000a900473ffffffffffffffffffffffffffffffffffffffff1673ffffffffffffffffffffffffffffffffffffffff163373ffffffffffffffffffffffffffffffffffffffff1614611257576111e167268b32dc1840444f60c01b611c87565b6111f56725441561d542e16a60c01b611c87565b3361012d60009054906101000a900473ffffffffffffffffffffffffffffffffffffffff166040517fe0c0b60900000000000000000000000000000000000000000000000000000000815260040161124e929190613c2e565b60405180910390fd5b61126b67d2a00f199532c97260c01b611c87565b61127f674ee9735d3ed5a2eb60c01b611c87565b6112936778c64bd0b35c56ba60c01b611c87565b6112a767b8dd36a18266567d60c01b611c87565b6112bb67ab4a7076f5cd581660c01b611c87565b81610131600085815260200190815260200160002060008282546112df9190613fc2565b925050819055506112fa6726bd6a2016ee3d2660c01b611c87565b61130e679c7374f724d74e3e60c01b611c87565b61131a84848484612114565b50505050565b61133467ef6b9fe87a26c25060c01b611c87565b61133c6122c5565b611350679190d255ebdefa7b60c01b611c87565b61136467e6482e1d4ecc35c660c01b611c87565b611378670fa42d33e7f3446c60c01b611c87565b61138c678967037d21206c1c60c01b611c87565b61012e60009054906101000a900473ffffffffffffffffffffffffffffffffffffffff1673ffffffffffffffffffffffffffffffffffffffff163373ffffffffffffffffffffffffffffffffffffffff161415801561143a575061012d60009054906101000a900473ffffffffffffffffffffffffffffffffffffffff1673ffffffffffffffffffffffffffffffffffffffff163373ffffffffffffffffffffffffffffffffffffffff1614155b156114c95761145367e715339292cb23f960c01b611c87565b6114676717756ab500af4fe860c01b611c87565b3361012e60009054906101000a900473ffffffffffffffffffffffffffffffffffffffff166040517f262b5da70000000000000000000000000000000000000000000000000000000081526004016114c0929190613c2e565b60405180910390fd5b6114dd67586305395899dd7a60c01b611c87565b6114f1675dafbea666e3c3af60c01b611c87565b6115056743c82fd923ddbebf60c01b611c87565b61152084878760405180602001604052806000815250612114565b6115346772d176a4415e661c60c01b611c87565b6115486704c3bec50238c18660c01b611c87565b611553868584612314565b61156767704d9a676796700f60c01b611c87565b61157b675714d6aa98d6c5d060c01b611c87565b61158586826124bb565b6115996730de22e991a27bc860c01b611c87565b6115ad67653628726f8ffb0960c01b611c87565b6115dc8461012e60009054906101000a900473ffffffffffffffffffffffffffffffffffffffff166001612520565b6115f067cdc2f7bf97840ecf60c01b611c87565b84610131600088815260200190815260200160002060008282546116149190613fc2565b9250508190555061162f67f5e6250f6fc99c5a60c01b611c87565b61164367c98f629478725e8060c01b611c87565b61165f848488886040518060200160405280600081525061268c565b61167367a58e11024518bdb560c01b611c87565b61168767c46a00298829168b60c01b611c87565b6116b68361012e60009054906101000a900473ffffffffffffffffffffffffffffffffffffffff166001612520565b6116ca67023937fae7fbad5960c01b611c87565b6116de674e32c136200659b360c01b611c87565b7f4ef106d4846257c8cedad2e70211b29c8d7021e41e111654cf4cc8ebcc5577e086868560405161171193929190613ff6565b60405180910390a161172161292a565b505050505050565b61173b611734611d19565b8383612520565b5050565b61012e60009054906101000a900473ffffffffffffffffffffffffffffffffffffffff1681565b6101306020528060005260406000206000915054906101000a900460ff1681565b61179b6704a583f90bd7b33360c01b611c87565b6117af6747df6132c3c1b67060c01b611c87565b6117c3679f72ff67dc7bc51460c01b611c87565b6117d76709f9c27857ffb4d160c01b611c87565b61012d60009054906101000a900473ffffffffffffffffffffffffffffffffffffffff1673ffffffffffffffffffffffffffffffffffffffff163373ffffffffffffffffffffffffffffffffffffffff16146118b75761184167268b32dc1840444f60c01b611c87565b6118556725441561d542e16a60c01b611c87565b3361012d60009054906101000a900473ffffffffffffffffffffffffffffffffffffffff166040517fe0c0b6090000000000000000000000000000000000000000000000000000000081526004016118ae929190613c2e565b60405180910390fd5b6118cb67d2a00f199532c97260c01b611c87565b6118df674ee9735d3ed5a2eb60c01b611c87565b6118f3674bbdfa80a9fd843460c01b611c87565b6119076705fe995856374b0460c01b611c87565b61191b67bb01477519ea5c7060c01b611c87565b8061012d60006101000a81548173ffffffffffffffffffffffffffffffffffffffff021916908373ffffffffffffffffffffffffffffffffffffffff16021790555050565b6000606660008473ffffffffffffffffffffffffffffffffffffffff1673ffffffffffffffffffffffffffffffffffffffff16815260200190815260200160002060008373ffffffffffffffffffffffffffffffffffffffff1673ffffffffffffffffffffffffffffffffffffffff16815260200190815260200160002060009054906101000a900460ff16905092915050565b611a0867057d79b5ce03154460c01b611c87565b611a1c6747df6132c3c1b67060c01b611c87565b611a30679f72ff67dc7bc51460c01b611c87565b611a446709f9c27857ffb4d160c01b611c87565b61012d60009054906101000a900473ffffffffffffffffffffffffffffffffffffffff1673ffffffffffffffffffffffffffffffffffffffff163373ffffffffffffffffffffffffffffffffffffffff1614611b2457611aae67268b32dc1840444f60c01b611c87565b611ac26725441561d542e16a60c01b611c87565b3361012d60009054906101000a900473ffffffffffffffffffffffffffffffffffffffff166040517fe0c0b609000000000000000000000000000000000000000000000000000000008152600401611b1b929190613c2e565b60405180910390fd5b611b3867d2a00f199532c97260c01b611c87565b611b4c674ee9735d3ed5a2eb60c01b611c87565b611b606715762928b4a963f260c01b611c87565b611b7467c71dfa4e1f4faa2160c01b611c87565b611b88678375d4650c31a16160c01b611c87565b8061012e60006101000a81548173ffffffffffffffffffffffffffffffffffffffff021916908373ffffffffffffffffffffffffffffffffffffffff16021790555050565b611bd5611d19565b73ffffffffffffffffffffffffffffffffffffffff168573ffffffffffffffffffffffffffffffffffffffff161480611c1b5750611c1a85611c15611d19565b611960565b5b611c5a576040517f08c379a0000000000000000000000000000000000000000000000000000000008152600401611c5190613d9a565b60405180910390fd5b611c67858585858561268c565b5050505050565b6101316020528060005260406000206000915090505481565b50565b600060019050919050565b60007f2a55205a000000000000000000000000000000000000000000000000000000007bffffffffffffffffffffffffffffffffffffffffffffffffffffffff1916827bffffffffffffffffffffffffffffffffffffffffffffffffffffffff19161480611d085750611d0782612934565b5b9050919050565b6000612710905090565b600033905090565b8151835114611d65576040517f08c379a0000000000000000000000000000000000000000000000000000000008152600401611d5c9061409f565b60405180910390fd5b600073ffffffffffffffffffffffffffffffffffffffff168473ffffffffffffffffffffffffffffffffffffffff1603611dd4576040517f08c379a0000000000000000000000000000000000000000000000000000000008152600401611dcb90614131565b60405180910390fd5b6000611dde611d19565b9050611dee818787878787612a16565b60005b8451811015611fa2576000858281518110611e0f57611e0e613f4b565b5b602002602001015190506000858381518110611e2e57611e2d613f4b565b5b6020026020010151905060006065600084815260200190815260200160002060008b73ffffffffffffffffffffffffffffffffffffffff1673ffffffffffffffffffffffffffffffffffffffff16815260200190815260200160002054905081811015611ed0576040517f08c379a0000000000000000000000000000000000000000000000000000000008152600401611ec7906141c3565b60405180910390fd5b8181036065600085815260200190815260200160002060008c73ffffffffffffffffffffffffffffffffffffffff1673ffffffffffffffffffffffffffffffffffffffff16815260200190815260200160002081905550816065600085815260200190815260200160002060008b73ffffffffffffffffffffffffffffffffffffffff1673ffffffffffffffffffffffffffffffffffffffff1681526020019081526020016000206000828254611f879190613fc2565b9250508190555050505080611f9b90613f7a565b9050611df1565b508473ffffffffffffffffffffffffffffffffffffffff168673ffffffffffffffffffffffffffffffffffffffff168273ffffffffffffffffffffffffffffffffffffffff167f4a39dc06d4c0dbc64b70af90fd698a233a518aa5d07e595d983b8c0526c8f7fb87876040516120199291906141e3565b60405180910390a461202f818787878787612a1e565b61203d818787878787612a26565b505050505050565b6000808273ffffffffffffffffffffffffffffffffffffffff163b119050919050565b600060019054906101000a900460ff166120b7576040517f08c379a00000000000000000000000000000000000000000000000000000000081526004016120ae9061428c565b60405180910390fd5b6120c081612bfd565b50565b600060019054906101000a900460ff16612112576040517f08c379a00000000000000000000000000000000000000000000000000000000081526004016121099061428c565b60405180910390fd5b565b600073ffffffffffffffffffffffffffffffffffffffff168473ffffffffffffffffffffffffffffffffffffffff1603612183576040517f08c379a000000000000000000000000000000000000000000000000000000000815260040161217a9061431e565b60405180910390fd5b600061218d611d19565b9050600061219a85612c58565b905060006121a785612c58565b90506121b883600089858589612a16565b846065600088815260200190815260200160002060008973ffffffffffffffffffffffffffffffffffffffff1673ffffffffffffffffffffffffffffffffffffffff16815260200190815260200160002060008282546122189190613fc2565b925050819055508673ffffffffffffffffffffffffffffffffffffffff16600073ffffffffffffffffffffffffffffffffffffffff168473ffffffffffffffffffffffffffffffffffffffff167fc3d58168c5ae7397731d063d5bbf3d657854427343f4c083240f7aacaa2d0f62898960405161229692919061433e565b60405180910390a46122ad83600089858589612a1e565b6122bc83600089898989612cd2565b50505050505050565b600260fb540361230a576040517f08c379a0000000000000000000000000000000000000000000000000000000008152600401612301906143b3565b60405180910390fd5b600260fb81905550565b61231c611d0f565b6bffffffffffffffffffffffff16816bffffffffffffffffffffffff16111561237a576040517f08c379a000000000000000000000000000000000000000000000000000000000815260040161237190614445565b60405180910390fd5b600073ffffffffffffffffffffffffffffffffffffffff168273ffffffffffffffffffffffffffffffffffffffff16036123e9576040517f08c379a00000000000000000000000000000000000000000000000000000000081526004016123e0906144b1565b60405180910390fd5b60405180604001604052808373ffffffffffffffffffffffffffffffffffffffff168152602001826bffffffffffffffffffffffff1681525060ca600085815260200190815260200160002060008201518160000160006101000a81548173ffffffffffffffffffffffffffffffffffffffff021916908373ffffffffffffffffffffffffffffffffffffffff16021790555060208201518160000160146101000a8154816bffffffffffffffffffffffff02191690836bffffffffffffffffffffffff160217905550905050505050565b806098600084815260200190815260200160002090816124db9190614673565b50817f6bb7ff708619ba0610cba295a58592e0451dee2622938c8755667688daf3529b612507846105bc565b60405161251491906131b0565b60405180910390a25050565b8173ffffffffffffffffffffffffffffffffffffffff168373ffffffffffffffffffffffffffffffffffffffff160361258e576040517f08c379a0000000000000000000000000000000000000000000000000000000008152600401612585906147b7565b60405180910390fd5b80606660008573ffffffffffffffffffffffffffffffffffffffff1673ffffffffffffffffffffffffffffffffffffffff16815260200190815260200160002060008473ffffffffffffffffffffffffffffffffffffffff1673ffffffffffffffffffffffffffffffffffffffff16815260200190815260200160002060006101000a81548160ff0219169083151502179055508173ffffffffffffffffffffffffffffffffffffffff168373ffffffffffffffffffffffffffffffffffffffff167f17307eab39ab6107e8899845ad3d59bd9653f200f220920489ca2b5937696c318360405161267f91906130d8565b60405180910390a3505050565b600073ffffffffffffffffffffffffffffffffffffffff168473ffffffffffffffffffffffffffffffffffffffff16036126fb576040517f08c379a00000000000000000000000000000000000000000000000000000000081526004016126f290614131565b60405180910390fd5b6000612705611d19565b9050600061271285612c58565b9050600061271f85612c58565b905061272f838989858589612a16565b60006065600088815260200190815260200160002060008a73ffffffffffffffffffffffffffffffffffffffff1673ffffffffffffffffffffffffffffffffffffffff168152602001908152602001600020549050858110156127c7576040517f08c379a00000000000000000000000000000000000000000000000000000000081526004016127be906141c3565b60405180910390fd5b8581036065600089815260200190815260200160002060008b73ffffffffffffffffffffffffffffffffffffffff1673ffffffffffffffffffffffffffffffffffffffff16815260200190815260200160002081905550856065600089815260200190815260200160002060008a73ffffffffffffffffffffffffffffffffffffffff1673ffffffffffffffffffffffffffffffffffffffff168152602001908152602001600020600082825461287e9190613fc2565b925050819055508773ffffffffffffffffffffffffffffffffffffffff168973ffffffffffffffffffffffffffffffffffffffff168573ffffffffffffffffffffffffffffffffffffffff167fc3d58168c5ae7397731d063d5bbf3d657854427343f4c083240f7aacaa2d0f628a8a6040516128fb92919061433e565b60405180910390a4612911848a8a86868a612a1e565b61291f848a8a8a8a8a612cd2565b505050505050505050565b600160fb81905550565b60007fd9b67a26000000000000000000000000000000000000000000000000000000007bffffffffffffffffffffffffffffffffffffffffffffffffffffffff1916827bffffffffffffffffffffffffffffffffffffffffffffffffffffffff191614806129ff57507f0e89341c000000000000000000000000000000000000000000000000000000007bffffffffffffffffffffffffffffffffffffffffffffffffffffffff1916827bffffffffffffffffffffffffffffffffffffffffffffffffffffffff1916145b80612a0f5750612a0e82612ea9565b5b9050919050565b505050505050565b505050505050565b612a458473ffffffffffffffffffffffffffffffffffffffff16612045565b15612bf5578373ffffffffffffffffffffffffffffffffffffffff1663bc197c8187878686866040518663ffffffff1660e01b8152600401612a8b95949392919061482c565b6020604051808303816000875af1925050508015612ac757506040513d601f19601f82011682018060405250810190612ac491906148a9565b60015b612b6c57612ad36148e3565b806308c379a003612b2f5750612ae7614905565b80612af25750612b31565b806040517f08c379a0000000000000000000000000000000000000000000000000000000008152600401612b2691906131b0565b60405180910390fd5b505b6040517f08c379a0000000000000000000000000000000000000000000000000000000008152600401612b6390614a07565b60405180910390fd5b63bc197c8160e01b7bffffffffffffffffffffffffffffffffffffffffffffffffffffffff1916817bffffffffffffffffffffffffffffffffffffffffffffffffffffffff191614612bf3576040517f08c379a0000000000000000000000000000000000000000000000000000000008152600401612bea90614a99565b60405180910390fd5b505b505050505050565b600060019054906101000a900460ff16612c4c576040517f08c379a0000000000000000000000000000000000000000000000000000000008152600401612c439061428c565b60405180910390fd5b612c5581612f13565b50565b60606000600167ffffffffffffffff811115612c7757612c76613297565b5b604051908082528060200260200182016040528015612ca55781602001602082028036833780820191505090505b5090508281600081518110612cbd57612cbc613f4b565b5b60200260200101818152505080915050919050565b612cf18473ffffffffffffffffffffffffffffffffffffffff16612045565b15612ea1578373ffffffffffffffffffffffffffffffffffffffff1663f23a6e6187878686866040518663ffffffff1660e01b8152600401612d37959493929190614ab9565b6020604051808303816000875af1925050508015612d7357506040513d601f19601f82011682018060405250810190612d7091906148a9565b60015b612e1857612d7f6148e3565b806308c379a003612ddb5750612d93614905565b80612d9e5750612ddd565b806040517f08c379a0000000000000000000000000000000000000000000000000000000008152600401612dd291906131b0565b60405180910390fd5b505b6040517f08c379a0000000000000000000000000000000000000000000000000000000008152600401612e0f90614a07565b60405180910390fd5b63f23a6e6160e01b7bffffffffffffffffffffffffffffffffffffffffffffffffffffffff1916817bffffffffffffffffffffffffffffffffffffffffffffffffffffffff191614612e9f576040517f08c379a0000000000000000000000000000000000000000000000000000000008152600401612e9690614a99565b60405180910390fd5b505b505050505050565b60007f01ffc9a7000000000000000000000000000000000000000000000000000000007bffffffffffffffffffffffffffffffffffffffffffffffffffffffff1916827bffffffffffffffffffffffffffffffffffffffffffffffffffffffff1916149050919050565b8060679081612f229190614673565b5050565b6000604051905090565b600080fd5b600080fd5b600073ffffffffffffffffffffffffffffffffffffffff82169050919050565b6000612f6582612f3a565b9050919050565b612f7581612f5a565b8114612f8057600080fd5b50565b600081359050612f9281612f6c565b92915050565b6000819050919050565b612fab81612f98565b8114612fb657600080fd5b50565b600081359050612fc881612fa2565b92915050565b60008060408385031215612fe557612fe4612f30565b5b6000612ff385828601612f83565b925050602061300485828601612fb9565b9150509250929050565b61301781612f98565b82525050565b6000602082019050613032600083018461300e565b92915050565b60007fffffffff0000000000000000000000000000000000000000000000000000000082169050919050565b61306d81613038565b811461307857600080fd5b50565b60008135905061308a81613064565b92915050565b6000602082840312156130a6576130a5612f30565b5b60006130b48482850161307b565b91505092915050565b60008115159050919050565b6130d2816130bd565b82525050565b60006020820190506130ed60008301846130c9565b92915050565b60006020828403121561310957613108612f30565b5b600061311784828501612fb9565b91505092915050565b600081519050919050565b600082825260208201905092915050565b60005b8381101561315a57808201518184015260208101905061313f565b60008484015250505050565b6000601f19601f8301169050919050565b600061318282613120565b61318c818561312b565b935061319c81856020860161313c565b6131a581613166565b840191505092915050565b600060208201905081810360008301526131ca8184613177565b905092915050565b6000602082840312156131e8576131e7612f30565b5b60006131f684828501612f83565b91505092915050565b61320881612f5a565b82525050565b600060208201905061322360008301846131ff565b92915050565b600080604083850312156132405761323f612f30565b5b600061324e85828601612fb9565b925050602061325f85828601612fb9565b9150509250929050565b600060408201905061327e60008301856131ff565b61328b602083018461300e565b9392505050565b600080fd5b7f4e487b7100000000000000000000000000000000000000000000000000000000600052604160045260246000fd5b6132cf82613166565b810181811067ffffffffffffffff821117156132ee576132ed613297565b5b80604052505050565b6000613301612f26565b905061330d82826132c6565b919050565b600067ffffffffffffffff82111561332d5761332c613297565b5b602082029050602081019050919050565b600080fd5b600061335661335184613312565b6132f7565b905080838252602082019050602084028301858111156133795761337861333e565b5b835b818110156133a2578061338e8882612fb9565b84526020840193505060208101905061337b565b5050509392505050565b600082601f8301126133c1576133c0613292565b5b81356133d1848260208601613343565b91505092915050565b600080fd5b600067ffffffffffffffff8211156133fa576133f9613297565b5b61340382613166565b9050602081019050919050565b82818337600083830152505050565b600061343261342d846133df565b6132f7565b90508281526020810184848401111561344e5761344d6133da565b5b613459848285613410565b509392505050565b600082601f83011261347657613475613292565b5b813561348684826020860161341f565b91505092915050565b600080600080600060a086880312156134ab576134aa612f30565b5b60006134b988828901612f83565b95505060206134ca88828901612f83565b945050604086013567ffffffffffffffff8111156134eb576134ea612f35565b5b6134f7888289016133ac565b935050606086013567ffffffffffffffff81111561351857613517612f35565b5b613524888289016133ac565b925050608086013567ffffffffffffffff81111561354557613544612f35565b5b61355188828901613461565b9150509295509295909350565b600067ffffffffffffffff82111561357957613578613297565b5b61358282613166565b9050602081019050919050565b60006135a261359d8461355e565b6132f7565b9050828152602081018484840111156135be576135bd6133da565b5b6135c9848285613410565b509392505050565b600082601f8301126135e6576135e5613292565b5b81356135f684826020860161358f565b91505092915050565b60008060006060848603121561361857613617612f30565b5b600084013567ffffffffffffffff81111561363657613635612f35565b5b613642868287016135d1565b935050602061365386828701612f83565b925050604061366486828701612f83565b9150509250925092565b600067ffffffffffffffff82111561368957613688613297565b5b602082029050602081019050919050565b60006136ad6136a88461366e565b6132f7565b905080838252602082019050602084028301858111156136d0576136cf61333e565b5b835b818110156136f957806136e58882612f83565b8452602084019350506020810190506136d2565b5050509392505050565b600082601f83011261371857613717613292565b5b813561372884826020860161369a565b91505092915050565b6000806040838503121561374857613747612f30565b5b600083013567ffffffffffffffff81111561376657613765612f35565b5b61377285828601613703565b925050602083013567ffffffffffffffff81111561379357613792612f35565b5b61379f858286016133ac565b9150509250929050565b600081519050919050565b600082825260208201905092915050565b6000819050602082019050919050565b6137de81612f98565b82525050565b60006137f083836137d5565b60208301905092915050565b6000602082019050919050565b6000613814826137a9565b61381e81856137b4565b9350613829836137c5565b8060005b8381101561385a57815161384188826137e4565b975061384c836137fc565b92505060018101905061382d565b5085935050505092915050565b600060208201905081810360008301526138818184613809565b905092915050565b600080600080608085870312156138a3576138a2612f30565b5b60006138b187828801612f83565b94505060206138c287828801612fb9565b93505060406138d387828801612fb9565b925050606085013567ffffffffffffffff8111156138f4576138f3612f35565b5b61390087828801613461565b91505092959194509250565b60006bffffffffffffffffffffffff82169050919050565b61392d8161390c565b811461393857600080fd5b50565b60008135905061394a81613924565b92915050565b60008060008060008060c0878903121561396d5761396c612f30565b5b600061397b89828a01612fb9565b965050602061398c89828a01612fb9565b955050604061399d89828a01612f83565b94505060606139ae89828a01612f83565b93505060806139bf89828a0161393b565b92505060a087013567ffffffffffffffff8111156139e0576139df612f35565b5b6139ec89828a016135d1565b9150509295509295509295565b613a02816130bd565b8114613a0d57600080fd5b50565b600081359050613a1f816139f9565b92915050565b60008060408385031215613a3c57613a3b612f30565b5b6000613a4a85828601612f83565b9250506020613a5b85828601613a10565b9150509250929050565b60008060408385031215613a7c57613a7b612f30565b5b6000613a8a85828601612f83565b9250506020613a9b85828601612f83565b9150509250929050565b600080600080600060a08688031215613ac157613ac0612f30565b5b6000613acf88828901612f83565b9550506020613ae088828901612f83565b9450506040613af188828901612fb9565b9350506060613b0288828901612fb9565b925050608086013567ffffffffffffffff811115613b2357613b22612f35565b5b613b2f88828901613461565b9150509295509295909350565b7f455243313135353a2061646472657373207a65726f206973206e6f742061207660008201527f616c6964206f776e657200000000000000000000000000000000000000000000602082015250565b6000613b98602a8361312b565b9150613ba382613b3c565b604082019050919050565b60006020820190508181036000830152613bc781613b8b565b9050919050565b7f4e487b7100000000000000000000000000000000000000000000000000000000600052602260045260246000fd5b60006002820490506001821680613c1557607f821691505b602082108103613c2857613c27613bce565b5b50919050565b6000604082019050613c4360008301856131ff565b613c5060208301846131ff565b9392505050565b7f4e487b7100000000000000000000000000000000000000000000000000000000600052601160045260246000fd5b6000613c9182612f98565b9150613c9c83612f98565b9250828202613caa81612f98565b91508282048414831517613cc157613cc0613c57565b5b5092915050565b7f4e487b7100000000000000000000000000000000000000000000000000000000600052601260045260246000fd5b6000613d0282612f98565b9150613d0d83612f98565b925082613d1d57613d1c613cc8565b5b828204905092915050565b7f455243313135353a2063616c6c6572206973206e6f7420746f6b656e206f776e60008201527f6572206f7220617070726f766564000000000000000000000000000000000000602082015250565b6000613d84602e8361312b565b9150613d8f82613d28565b604082019050919050565b60006020820190508181036000830152613db381613d77565b9050919050565b7f496e697469616c697a61626c653a20636f6e747261637420697320616c72656160008201527f647920696e697469616c697a6564000000000000000000000000000000000000602082015250565b6000613e16602e8361312b565b9150613e2182613dba565b604082019050919050565b60006020820190508181036000830152613e4581613e09565b9050919050565b6000819050919050565b600060ff82169050919050565b6000819050919050565b6000613e88613e83613e7e84613e4c565b613e63565b613e56565b9050919050565b613e9881613e6d565b82525050565b6000602082019050613eb36000830184613e8f565b92915050565b7f455243313135353a206163636f756e747320616e6420696473206c656e67746860008201527f206d69736d617463680000000000000000000000000000000000000000000000602082015250565b6000613f1560298361312b565b9150613f2082613eb9565b604082019050919050565b60006020820190508181036000830152613f4481613f08565b9050919050565b7f4e487b7100000000000000000000000000000000000000000000000000000000600052603260045260246000fd5b6000613f8582612f98565b91507fffffffffffffffffffffffffffffffffffffffffffffffffffffffffffffffff8203613fb757613fb6613c57565b5b600182019050919050565b6000613fcd82612f98565b9150613fd883612f98565b9250828201905080821115613ff057613fef613c57565b5b92915050565b600060608201905061400b600083018661300e565b614018602083018561300e565b61402560408301846131ff565b949350505050565b7f455243313135353a2069647320616e6420616d6f756e7473206c656e6774682060008201527f6d69736d61746368000000000000000000000000000000000000000000000000602082015250565b600061408960288361312b565b91506140948261402d565b604082019050919050565b600060208201905081810360008301526140b88161407c565b9050919050565b7f455243313135353a207472616e7366657220746f20746865207a65726f20616460008201527f6472657373000000000000000000000000000000000000000000000000000000602082015250565b600061411b60258361312b565b9150614126826140bf565b604082019050919050565b6000602082019050818103600083015261414a8161410e565b9050919050565b7f455243313135353a20696e73756666696369656e742062616c616e636520666f60008201527f72207472616e7366657200000000000000000000000000000000000000000000602082015250565b60006141ad602a8361312b565b91506141b882614151565b604082019050919050565b600060208201905081810360008301526141dc816141a0565b9050919050565b600060408201905081810360008301526141fd8185613809565b905081810360208301526142118184613809565b90509392505050565b7f496e697469616c697a61626c653a20636f6e7472616374206973206e6f74206960008201527f6e697469616c697a696e67000000000000000000000000000000000000000000602082015250565b6000614276602b8361312b565b91506142818261421a565b604082019050919050565b600060208201905081810360008301526142a581614269565b9050919050565b7f455243313135353a206d696e7420746f20746865207a65726f2061646472657360008201527f7300000000000000000000000000000000000000000000000000000000000000602082015250565b600061430860218361312b565b9150614313826142ac565b604082019050919050565b60006020820190508181036000830152614337816142fb565b9050919050565b6000604082019050614353600083018561300e565b614360602083018461300e565b9392505050565b7f5265656e7472616e637947756172643a207265656e7472616e742063616c6c00600082015250565b600061439d601f8361312b565b91506143a882614367565b602082019050919050565b600060208201905081810360008301526143cc81614390565b9050919050565b7f455243323938313a20726f79616c7479206665652077696c6c2065786365656460008201527f2073616c65507269636500000000000000000000000000000000000000000000602082015250565b600061442f602a8361312b565b915061443a826143d3565b604082019050919050565b6000602082019050818103600083015261445e81614422565b9050919050565b7f455243323938313a20496e76616c696420706172616d65746572730000000000600082015250565b600061449b601b8361312b565b91506144a682614465565b602082019050919050565b600060208201905081810360008301526144ca8161448e565b9050919050565b60008190508160005260206000209050919050565b60006020601f8301049050919050565b600082821b905092915050565b6000600883026145337fffffffffffffffffffffffffffffffffffffffffffffffffffffffffffffffff826144f6565b61453d86836144f6565b95508019841693508086168417925050509392505050565b600061457061456b61456684612f98565b613e63565b612f98565b9050919050565b6000819050919050565b61458a83614555565b61459e61459682614577565b848454614503565b825550505050565b600090565b6145b36145a6565b6145be818484614581565b505050565b5b818110156145e2576145d76000826145ab565b6001810190506145c4565b5050565b601f821115614627576145f8816144d1565b614601846144e6565b81016020851015614610578190505b61462461461c856144e6565b8301826145c3565b50505b505050565b600082821c905092915050565b600061464a6000198460080261462c565b1980831691505092915050565b60006146638383614639565b9150826002028217905092915050565b61467c82613120565b67ffffffffffffffff81111561469557614694613297565b5b61469f8254613bfd565b6146aa8282856145e6565b600060209050601f8311600181146146dd57600084156146cb578287015190505b6146d58582614657565b86555061473d565b601f1984166146eb866144d1565b60005b82811015614713578489015182556001820191506020850194506020810190506146ee565b86831015614730578489015161472c601f891682614639565b8355505b6001600288020188555050505b505050505050565b7f455243313135353a2073657474696e6720617070726f76616c2073746174757360008201527f20666f722073656c660000000000000000000000000000000000000000000000602082015250565b60006147a160298361312b565b91506147ac82614745565b604082019050919050565b600060208201905081810360008301526147d081614794565b9050919050565b600081519050919050565b600082825260208201905092915050565b60006147fe826147d7565b61480881856147e2565b935061481881856020860161313c565b61482181613166565b840191505092915050565b600060a08201905061484160008301886131ff565b61484e60208301876131ff565b81810360408301526148608186613809565b905081810360608301526148748185613809565b9050818103608083015261488881846147f3565b90509695505050505050565b6000815190506148a381613064565b92915050565b6000602082840312156148bf576148be612f30565b5b60006148cd84828501614894565b91505092915050565b60008160e01c9050919050565b600060033d11156149025760046000803e6148ff6000516148d6565b90505b90565b600060443d1061499257614917612f26565b60043d036004823e80513d602482011167ffffffffffffffff8211171561493f575050614992565b808201805167ffffffffffffffff81111561495d5750505050614992565b80602083010160043d03850181111561497a575050505050614992565b614989826020018501866132c6565b82955050505050505b90565b7f455243313135353a207472616e7366657220746f206e6f6e2d4552433131353560008201527f526563656976657220696d706c656d656e746572000000000000000000000000602082015250565b60006149f160348361312b565b91506149fc82614995565b604082019050919050565b60006020820190508181036000830152614a20816149e4565b9050919050565b7f455243313135353a204552433131353552656365697665722072656a6563746560008201527f6420746f6b656e73000000000000000000000000000000000000000000000000602082015250565b6000614a8360288361312b565b9150614a8e82614a27565b604082019050919050565b60006020820190508181036000830152614ab281614a76565b9050919050565b600060a082019050614ace60008301886131ff565b614adb60208301876131ff565b614ae8604083018661300e565b614af5606083018561300e565b8181036080830152614b0781846147f3565b9050969550505050505056fea264697066735822122062e5e28888e3acc2354a55292f7c4177a1abef226cc8cab23b11baa016db5c7264736f6c63430008120033","opcodes":"PUSH1 0x80 PUSH1 0x40 MSTORE CALLVALUE DUP1 ISZERO PUSH2 0x10 JUMPI PUSH1 0x0 DUP1 REVERT JUMPDEST POP PUSH2 0x4B49 DUP1 PUSH2 0x20 PUSH1 0x0 CODECOPY PUSH1 0x0 RETURN INVALID PUSH1 0x80 PUSH1 0x40 MSTORE CALLVALUE DUP1 ISZERO PUSH2 0x10 JUMPI PUSH1 0x0 DUP1 REVERT JUMPDEST POP PUSH1 0x4 CALLDATASIZE LT PUSH2 0x12B JUMPI PUSH1 0x0 CALLDATALOAD PUSH1 0xE0 SHR DUP1 PUSH4 0x5CFA9297 GT PUSH2 0xAD JUMPI DUP1 PUSH4 0xE2F273BD GT PUSH2 0x71 JUMPI DUP1 PUSH4 0xE2F273BD EQ PUSH2 0x351 JUMPI DUP1 PUSH4 0xE985E9C5 EQ PUSH2 0x36D JUMPI DUP1 PUSH4 0xEB636317 EQ PUSH2 0x39D JUMPI DUP1 PUSH4 0xF242432A EQ PUSH2 0x3B9 JUMPI DUP1 PUSH4 0xFF4078D3 EQ PUSH2 0x3D5 JUMPI PUSH2 0x12B JUMP JUMPDEST DUP1 PUSH4 0x5CFA9297 EQ PUSH2 0x2AF JUMPI DUP1 PUSH4 0x91EF38BA EQ PUSH2 0x2CB JUMPI DUP1 PUSH4 0xA22CB465 EQ PUSH2 0x2E7 JUMPI DUP1 PUSH4 0xABC8C7AF EQ PUSH2 0x303 JUMPI DUP1 PUSH4 0xD1C63B21 EQ PUSH2 0x321 JUMPI PUSH2 0x12B JUMP JUMPDEST DUP1 PUSH4 0x2A55205A GT PUSH2 0xF4 JUMPI DUP1 PUSH4 0x2A55205A EQ PUSH2 0x1FA JUMPI DUP1 PUSH4 0x2EB2C2D6 EQ PUSH2 0x22B JUMPI DUP1 PUSH4 0x3DA7D2ED EQ PUSH2 0x247 JUMPI DUP1 PUSH4 0x463FD1AF EQ PUSH2 0x263 JUMPI DUP1 PUSH4 0x4E1273F4 EQ PUSH2 0x27F JUMPI PUSH2 0x12B JUMP JUMPDEST DUP1 PUSH3 0xFDD58E EQ PUSH2 0x130 JUMPI DUP1 PUSH4 0x1FFC9A7 EQ PUSH2 0x160 JUMPI DUP1 PUSH4 0xE89341C EQ PUSH2 0x190 JUMPI DUP1 PUSH4 0x1785F53C EQ PUSH2 0x1C0 JUMPI DUP1 PUSH4 0x29575F6A EQ PUSH2 0x1DC JUMPI JUMPDEST PUSH1 0x0 DUP1 REVERT JUMPDEST PUSH2 0x14A PUSH1 0x4 DUP1 CALLDATASIZE SUB DUP2 ADD SWAP1 PUSH2 0x145 SWAP2 SWAP1 PUSH2 0x2FCE JUMP JUMPDEST PUSH2 0x405 JUMP JUMPDEST PUSH1 0x40 MLOAD PUSH2 0x157 SWAP2 SWAP1 PUSH2 0x301D JUMP JUMPDEST PUSH1 0x40 MLOAD DUP1 SWAP2 SUB SWAP1 RETURN JUMPDEST PUSH2 0x17A PUSH1 0x4 DUP1 CALLDATASIZE SUB DUP2 ADD SWAP1 PUSH2 0x175 SWAP2 SWAP1 PUSH2 0x3090 JUMP JUMPDEST PUSH2 0x4CE JUMP JUMPDEST PUSH1 0x40 MLOAD PUSH2 0x187 SWAP2 SWAP1 PUSH2 0x30D8 JUMP JUMPDEST PUSH1 0x40 MLOAD DUP1 SWAP2 SUB SWAP1 RETURN JUMPDEST PUSH2 0x1AA PUSH1 0x4 DUP1 CALLDATASIZE SUB DUP2 ADD SWAP1 PUSH2 0x1A5 SWAP2 SWAP1 PUSH2 0x30F3 JUMP JUMPDEST PUSH2 0x5BC JUMP JUMPDEST PUSH1 0x40 MLOAD PUSH2 0x1B7 SWAP2 SWAP1 PUSH2 0x31B0 JUMP JUMPDEST PUSH1 0x40 MLOAD DUP1 SWAP2 SUB SWAP1 RETURN JUMPDEST PUSH2 0x1DA PUSH1 0x4 DUP1 CALLDATASIZE SUB DUP2 ADD SWAP1 PUSH2 0x1D5 SWAP2 SWAP1 PUSH2 0x31D2 JUMP JUMPDEST PUSH2 0x68D JUMP JUMPDEST STOP JUMPDEST PUSH2 0x1E4 PUSH2 0x87D JUMP JUMPDEST PUSH1 0x40 MLOAD PUSH2 0x1F1 SWAP2 SWAP1 PUSH2 0x320E JUMP JUMPDEST PUSH1 0x40 MLOAD DUP1 SWAP2 SUB SWAP1 RETURN JUMPDEST PUSH2 0x214 PUSH1 0x4 DUP1 CALLDATASIZE SUB DUP2 ADD SWAP1 PUSH2 0x20F SWAP2 SWAP1 PUSH2 0x3229 JUMP JUMPDEST PUSH2 0x8A4 JUMP JUMPDEST PUSH1 0x40 MLOAD PUSH2 0x222 SWAP3 SWAP2 SWAP1 PUSH2 0x3269 JUMP JUMPDEST PUSH1 0x40 MLOAD DUP1 SWAP2 SUB SWAP1 RETURN JUMPDEST PUSH2 0x245 PUSH1 0x4 DUP1 CALLDATASIZE SUB DUP2 ADD SWAP1 PUSH2 0x240 SWAP2 SWAP1 PUSH2 0x348F JUMP JUMPDEST PUSH2 0xA8E JUMP JUMPDEST STOP JUMPDEST PUSH2 0x261 PUSH1 0x4 DUP1 CALLDATASIZE SUB DUP2 ADD SWAP1 PUSH2 0x25C SWAP2 SWAP1 PUSH2 0x31D2 JUMP JUMPDEST PUSH2 0xB2F JUMP JUMPDEST STOP JUMPDEST PUSH2 0x27D PUSH1 0x4 DUP1 CALLDATASIZE SUB DUP2 ADD SWAP1 PUSH2 0x278 SWAP2 SWAP1 PUSH2 0x35FF JUMP JUMPDEST PUSH2 0xD1F JUMP JUMPDEST STOP JUMPDEST PUSH2 0x299 PUSH1 0x4 DUP1 CALLDATASIZE SUB DUP2 ADD SWAP1 PUSH2 0x294 SWAP2 SWAP1 PUSH2 0x3731 JUMP JUMPDEST PUSH2 0x100E JUMP JUMPDEST PUSH1 0x40 MLOAD PUSH2 0x2A6 SWAP2 SWAP1 PUSH2 0x3867 JUMP JUMPDEST PUSH1 0x40 MLOAD DUP1 SWAP2 SUB SWAP1 RETURN JUMPDEST PUSH2 0x2C9 PUSH1 0x4 DUP1 CALLDATASIZE SUB DUP2 ADD SWAP1 PUSH2 0x2C4 SWAP2 SWAP1 PUSH2 0x3889 JUMP JUMPDEST PUSH2 0x1127 JUMP JUMPDEST STOP JUMPDEST PUSH2 0x2E5 PUSH1 0x4 DUP1 CALLDATASIZE SUB DUP2 ADD SWAP1 PUSH2 0x2E0 SWAP2 SWAP1 PUSH2 0x3950 JUMP JUMPDEST PUSH2 0x1320 JUMP JUMPDEST STOP JUMPDEST PUSH2 0x301 PUSH1 0x4 DUP1 CALLDATASIZE SUB DUP2 ADD SWAP1 PUSH2 0x2FC SWAP2 SWAP1 PUSH2 0x3A25 JUMP JUMPDEST PUSH2 0x1729 JUMP JUMPDEST STOP JUMPDEST PUSH2 0x30B PUSH2 0x173F JUMP JUMPDEST PUSH1 0x40 MLOAD PUSH2 0x318 SWAP2 SWAP1 PUSH2 0x320E JUMP JUMPDEST PUSH1 0x40 MLOAD DUP1 SWAP2 SUB SWAP1 RETURN JUMPDEST PUSH2 0x33B PUSH1 0x4 DUP1 CALLDATASIZE SUB DUP2 ADD SWAP1 PUSH2 0x336 SWAP2 SWAP1 PUSH2 0x31D2 JUMP JUMPDEST PUSH2 0x1766 JUMP JUMPDEST PUSH1 0x40 MLOAD PUSH2 0x348 SWAP2 SWAP1 PUSH2 0x30D8 JUMP JUMPDEST PUSH1 0x40 MLOAD DUP1 SWAP2 SUB SWAP1 RETURN JUMPDEST PUSH2 0x36B PUSH1 0x4 DUP1 CALLDATASIZE SUB DUP2 ADD SWAP1 PUSH2 0x366 SWAP2 SWAP1 PUSH2 0x31D2 JUMP JUMPDEST PUSH2 0x1787 JUMP JUMPDEST STOP JUMPDEST PUSH2 0x387 PUSH1 0x4 DUP1 CALLDATASIZE SUB DUP2 ADD SWAP1 PUSH2 0x382 SWAP2 SWAP1 PUSH2 0x3A65 JUMP JUMPDEST PUSH2 0x1960 JUMP JUMPDEST PUSH1 0x40 MLOAD PUSH2 0x394 SWAP2 SWAP1 PUSH2 0x30D8 JUMP JUMPDEST PUSH1 0x40 MLOAD DUP1 SWAP2 SUB SWAP1 RETURN JUMPDEST PUSH2 0x3B7 PUSH1 0x4 DUP1 CALLDATASIZE SUB DUP2 ADD SWAP1 PUSH2 0x3B2 SWAP2 SWAP1 PUSH2 0x31D2 JUMP JUMPDEST PUSH2 0x19F4 JUMP JUMPDEST STOP JUMPDEST PUSH2 0x3D3 PUSH1 0x4 DUP1 CALLDATASIZE SUB DUP2 ADD SWAP1 PUSH2 0x3CE SWAP2 SWAP1 PUSH2 0x3AA5 JUMP JUMPDEST PUSH2 0x1BCD JUMP JUMPDEST STOP JUMPDEST PUSH2 0x3EF PUSH1 0x4 DUP1 CALLDATASIZE SUB DUP2 ADD SWAP1 PUSH2 0x3EA SWAP2 SWAP1 PUSH2 0x30F3 JUMP JUMPDEST PUSH2 0x1C6E JUMP JUMPDEST PUSH1 0x40 MLOAD PUSH2 0x3FC SWAP2 SWAP1 PUSH2 0x301D JUMP JUMPDEST PUSH1 0x40 MLOAD DUP1 SWAP2 SUB SWAP1 RETURN JUMPDEST PUSH1 0x0 DUP1 PUSH20 0xFFFFFFFFFFFFFFFFFFFFFFFFFFFFFFFFFFFFFFFF AND DUP4 PUSH20 0xFFFFFFFFFFFFFFFFFFFFFFFFFFFFFFFFFFFFFFFF AND SUB PUSH2 0x475 JUMPI PUSH1 0x40 MLOAD PUSH32 0x8C379A000000000000000000000000000000000000000000000000000000000 DUP2 MSTORE PUSH1 0x4 ADD PUSH2 0x46C SWAP1 PUSH2 0x3BAE JUMP JUMPDEST PUSH1 0x40 MLOAD DUP1 SWAP2 SUB SWAP1 REVERT JUMPDEST PUSH1 0x65 PUSH1 0x0 DUP4 DUP2 MSTORE PUSH1 0x20 ADD SWAP1 DUP2 MSTORE PUSH1 0x20 ADD PUSH1 0x0 KECCAK256 PUSH1 0x0 DUP5 PUSH20 0xFFFFFFFFFFFFFFFFFFFFFFFFFFFFFFFFFFFFFFFF AND PUSH20 0xFFFFFFFFFFFFFFFFFFFFFFFFFFFFFFFFFFFFFFFF AND DUP2 MSTORE PUSH1 0x20 ADD SWAP1 DUP2 MSTORE PUSH1 0x20 ADD PUSH1 0x0 KECCAK256 SLOAD SWAP1 POP SWAP3 SWAP2 POP POP JUMP JUMPDEST PUSH1 0x0 PUSH2 0x4E4 PUSH8 0x7A104C73DAE38611 PUSH1 0xC0 SHL PUSH2 0x1C87 JUMP JUMPDEST PUSH2 0x4F8 PUSH8 0x8E6CBE8104D934AA PUSH1 0xC0 SHL PUSH2 0x1C87 JUMP JUMPDEST PUSH2 0x50C PUSH8 0x8FC3B884D9C6E2C0 PUSH1 0xC0 SHL PUSH2 0x1C87 JUMP JUMPDEST PUSH32 0x2A55205A00000000000000000000000000000000000000000000000000000000 PUSH28 0xFFFFFFFFFFFFFFFFFFFFFFFFFFFFFFFFFFFFFFFFFFFFFFFFFFFFFFFF NOT AND DUP3 PUSH28 0xFFFFFFFFFFFFFFFFFFFFFFFFFFFFFFFFFFFFFFFFFFFFFFFFFFFFFFFF NOT AND EQ DUP1 ISZERO PUSH2 0x589 JUMPI POP PUSH2 0x588 PUSH8 0x861E973761C73FD9 PUSH1 0xC0 SHL PUSH2 0x1C8A JUMP JUMPDEST JUMPDEST DUP1 PUSH2 0x5B5 JUMPI POP PUSH2 0x598 DUP3 PUSH2 0x1C95 JUMP JUMPDEST DUP1 ISZERO PUSH2 0x5B4 JUMPI POP PUSH2 0x5B3 PUSH8 0x39E91CB7183CCE6E PUSH1 0xC0 SHL PUSH2 0x1C8A JUMP JUMPDEST JUMPDEST JUMPDEST SWAP1 POP SWAP2 SWAP1 POP JUMP JUMPDEST PUSH1 0x60 PUSH2 0x5D2 PUSH8 0x4FE5DADE1393C66F PUSH1 0xC0 SHL PUSH2 0x1C87 JUMP JUMPDEST PUSH2 0x5E6 PUSH8 0xA2F5A34E01DF3BD PUSH1 0xC0 SHL PUSH2 0x1C87 JUMP JUMPDEST PUSH2 0x5FA PUSH8 0xA3ABE07F927E06CB PUSH1 0xC0 SHL PUSH2 0x1C87 JUMP JUMPDEST PUSH2 0x12F DUP1 SLOAD PUSH2 0x608 SWAP1 PUSH2 0x3BFD JUMP JUMPDEST DUP1 PUSH1 0x1F ADD PUSH1 0x20 DUP1 SWAP2 DIV MUL PUSH1 0x20 ADD PUSH1 0x40 MLOAD SWAP1 DUP2 ADD PUSH1 0x40 MSTORE DUP1 SWAP3 SWAP2 SWAP1 DUP2 DUP2 MSTORE PUSH1 0x20 ADD DUP3 DUP1 SLOAD PUSH2 0x634 SWAP1 PUSH2 0x3BFD JUMP JUMPDEST DUP1 ISZERO PUSH2 0x681 JUMPI DUP1 PUSH1 0x1F LT PUSH2 0x656 JUMPI PUSH2 0x100 DUP1 DUP4 SLOAD DIV MUL DUP4 MSTORE SWAP2 PUSH1 0x20 ADD SWAP2 PUSH2 0x681 JUMP JUMPDEST DUP3 ADD SWAP2 SWAP1 PUSH1 0x0 MSTORE PUSH1 0x20 PUSH1 0x0 KECCAK256 SWAP1 JUMPDEST DUP2 SLOAD DUP2 MSTORE SWAP1 PUSH1 0x1 ADD SWAP1 PUSH1 0x20 ADD DUP1 DUP4 GT PUSH2 0x664 JUMPI DUP3 SWAP1 SUB PUSH1 0x1F AND DUP3 ADD SWAP2 JUMPDEST POP POP POP POP POP SWAP1 POP SWAP2 SWAP1 POP JUMP JUMPDEST PUSH2 0x6A1 PUSH8 0x767C5818EB990D16 PUSH1 0xC0 SHL PUSH2 0x1C87 JUMP JUMPDEST PUSH2 0x6B5 PUSH8 0x47DF6132C3C1B670 PUSH1 0xC0 SHL PUSH2 0x1C87 JUMP JUMPDEST PUSH2 0x6C9 PUSH8 0x9F72FF67DC7BC514 PUSH1 0xC0 SHL PUSH2 0x1C87 JUMP JUMPDEST PUSH2 0x6DD PUSH8 0x9F9C27857FFB4D1 PUSH1 0xC0 SHL PUSH2 0x1C87 JUMP JUMPDEST PUSH2 0x12D PUSH1 0x0 SWAP1 SLOAD SWAP1 PUSH2 0x100 EXP SWAP1 DIV PUSH20 0xFFFFFFFFFFFFFFFFFFFFFFFFFFFFFFFFFFFFFFFF AND PUSH20 0xFFFFFFFFFFFFFFFFFFFFFFFFFFFFFFFFFFFFFFFF AND CALLER PUSH20 0xFFFFFFFFFFFFFFFFFFFFFFFFFFFFFFFFFFFFFFFF AND EQ PUSH2 0x7BD JUMPI PUSH2 0x747 PUSH8 0x268B32DC1840444F PUSH1 0xC0 SHL PUSH2 0x1C87 JUMP JUMPDEST PUSH2 0x75B PUSH8 0x25441561D542E16A PUSH1 0xC0 SHL PUSH2 0x1C87 JUMP JUMPDEST CALLER PUSH2 0x12D PUSH1 0x0 SWAP1 SLOAD SWAP1 PUSH2 0x100 EXP SWAP1 DIV PUSH20 0xFFFFFFFFFFFFFFFFFFFFFFFFFFFFFFFFFFFFFFFF AND PUSH1 0x40 MLOAD PUSH32 0xE0C0B60900000000000000000000000000000000000000000000000000000000 DUP2 MSTORE PUSH1 0x4 ADD PUSH2 0x7B4 SWAP3 SWAP2 SWAP1 PUSH2 0x3C2E JUMP JUMPDEST PUSH1 0x40 MLOAD DUP1 SWAP2 SUB SWAP1 REVERT JUMPDEST PUSH2 0x7D1 PUSH8 0xD2A00F199532C972 PUSH1 0xC0 SHL PUSH2 0x1C87 JUMP JUMPDEST PUSH2 0x7E5 PUSH8 0x4EE9735D3ED5A2EB PUSH1 0xC0 SHL PUSH2 0x1C87 JUMP JUMPDEST PUSH2 0x7F9 PUSH8 0x7B5F98F1CF8CBFEB PUSH1 0xC0 SHL PUSH2 0x1C87 JUMP JUMPDEST PUSH2 0x80D PUSH8 0x7A464D14E22B7040 PUSH1 0xC0 SHL PUSH2 0x1C87 JUMP JUMPDEST PUSH2 0x821 PUSH8 0x91C44EB834F0337D PUSH1 0xC0 SHL PUSH2 0x1C87 JUMP JUMPDEST PUSH1 0x0 PUSH2 0x130 PUSH1 0x0 DUP4 PUSH20 0xFFFFFFFFFFFFFFFFFFFFFFFFFFFFFFFFFFFFFFFF AND PUSH20 0xFFFFFFFFFFFFFFFFFFFFFFFFFFFFFFFFFFFFFFFF AND DUP2 MSTORE PUSH1 0x20 ADD SWAP1 DUP2 MSTORE PUSH1 0x20 ADD PUSH1 0x0 KECCAK256 PUSH1 0x0 PUSH2 0x100 EXP DUP2 SLOAD DUP2 PUSH1 0xFF MUL NOT AND SWAP1 DUP4 ISZERO ISZERO MUL OR SWAP1 SSTORE POP POP JUMP JUMPDEST PUSH2 0x12D PUSH1 0x0 SWAP1 SLOAD SWAP1 PUSH2 0x100 EXP SWAP1 DIV PUSH20 0xFFFFFFFFFFFFFFFFFFFFFFFFFFFFFFFFFFFFFFFF AND DUP2 JUMP JUMPDEST PUSH1 0x0 DUP1 PUSH1 0x0 PUSH1 0xCA PUSH1 0x0 DUP7 DUP2 MSTORE PUSH1 0x20 ADD SWAP1 DUP2 MSTORE PUSH1 0x20 ADD PUSH1 0x0 KECCAK256 PUSH1 0x40 MLOAD DUP1 PUSH1 0x40 ADD PUSH1 0x40 MSTORE SWAP1 DUP2 PUSH1 0x0 DUP3 ADD PUSH1 0x0 SWAP1 SLOAD SWAP1 PUSH2 0x100 EXP SWAP1 DIV PUSH20 0xFFFFFFFFFFFFFFFFFFFFFFFFFFFFFFFFFFFFFFFF AND PUSH20 0xFFFFFFFFFFFFFFFFFFFFFFFFFFFFFFFFFFFFFFFF AND PUSH20 0xFFFFFFFFFFFFFFFFFFFFFFFFFFFFFFFFFFFFFFFF AND DUP2 MSTORE PUSH1 0x20 ADD PUSH1 0x0 DUP3 ADD PUSH1 0x14 SWAP1 SLOAD SWAP1 PUSH2 0x100 EXP SWAP1 DIV PUSH12 0xFFFFFFFFFFFFFFFFFFFFFFFF AND PUSH12 0xFFFFFFFFFFFFFFFFFFFFFFFF AND PUSH12 0xFFFFFFFFFFFFFFFFFFFFFFFF AND DUP2 MSTORE POP POP SWAP1 POP PUSH1 0x0 PUSH20 0xFFFFFFFFFFFFFFFFFFFFFFFFFFFFFFFFFFFFFFFF AND DUP2 PUSH1 0x0 ADD MLOAD PUSH20 0xFFFFFFFFFFFFFFFFFFFFFFFFFFFFFFFFFFFFFFFF AND SUB PUSH2 0xA39 JUMPI PUSH1 0xC9 PUSH1 0x40 MLOAD DUP1 PUSH1 0x40 ADD PUSH1 0x40 MSTORE SWAP1 DUP2 PUSH1 0x0 DUP3 ADD PUSH1 0x0 SWAP1 SLOAD SWAP1 PUSH2 0x100 EXP SWAP1 DIV PUSH20 0xFFFFFFFFFFFFFFFFFFFFFFFFFFFFFFFFFFFFFFFF AND PUSH20 0xFFFFFFFFFFFFFFFFFFFFFFFFFFFFFFFFFFFFFFFF AND PUSH20 0xFFFFFFFFFFFFFFFFFFFFFFFFFFFFFFFFFFFFFFFF AND DUP2 MSTORE PUSH1 0x20 ADD PUSH1 0x0 DUP3 ADD PUSH1 0x14 SWAP1 SLOAD SWAP1 PUSH2 0x100 EXP SWAP1 DIV PUSH12 0xFFFFFFFFFFFFFFFFFFFFFFFF AND PUSH12 0xFFFFFFFFFFFFFFFFFFFFFFFF AND PUSH12 0xFFFFFFFFFFFFFFFFFFFFFFFF AND DUP2 MSTORE POP POP SWAP1 POP JUMPDEST PUSH1 0x0 PUSH2 0xA43 PUSH2 0x1D0F JUMP JUMPDEST PUSH12 0xFFFFFFFFFFFFFFFFFFFFFFFF AND DUP3 PUSH1 0x20 ADD MLOAD PUSH12 0xFFFFFFFFFFFFFFFFFFFFFFFF AND DUP7 PUSH2 0xA6F SWAP2 SWAP1 PUSH2 0x3C86 JUMP JUMPDEST PUSH2 0xA79 SWAP2 SWAP1 PUSH2 0x3CF7 JUMP JUMPDEST SWAP1 POP DUP2 PUSH1 0x0 ADD MLOAD DUP2 SWAP4 POP SWAP4 POP POP POP SWAP3 POP SWAP3 SWAP1 POP JUMP JUMPDEST PUSH2 0xA96 PUSH2 0x1D19 JUMP JUMPDEST PUSH20 0xFFFFFFFFFFFFFFFFFFFFFFFFFFFFFFFFFFFFFFFF AND DUP6 PUSH20 0xFFFFFFFFFFFFFFFFFFFFFFFFFFFFFFFFFFFFFFFF AND EQ DUP1 PUSH2 0xADC JUMPI POP PUSH2 0xADB DUP6 PUSH2 0xAD6 PUSH2 0x1D19 JUMP JUMPDEST PUSH2 0x1960 JUMP JUMPDEST JUMPDEST PUSH2 0xB1B JUMPI PUSH1 0x40 MLOAD PUSH32 0x8C379A000000000000000000000000000000000000000000000000000000000 DUP2 MSTORE PUSH1 0x4 ADD PUSH2 0xB12 SWAP1 PUSH2 0x3D9A JUMP JUMPDEST PUSH1 0x40 MLOAD DUP1 SWAP2 SUB SWAP1 REVERT JUMPDEST PUSH2 0xB28 DUP6 DUP6 DUP6 DUP6 DUP6 PUSH2 0x1D21 JUMP JUMPDEST POP POP POP POP POP JUMP JUMPDEST PUSH2 0xB43 PUSH8 0xBFBFB663A44745B7 PUSH1 0xC0 SHL PUSH2 0x1C87 JUMP JUMPDEST PUSH2 0xB57 PUSH8 0x47DF6132C3C1B670 PUSH1 0xC0 SHL PUSH2 0x1C87 JUMP JUMPDEST PUSH2 0xB6B PUSH8 0x9F72FF67DC7BC514 PUSH1 0xC0 SHL PUSH2 0x1C87 JUMP JUMPDEST PUSH2 0xB7F PUSH8 0x9F9C27857FFB4D1 PUSH1 0xC0 SHL PUSH2 0x1C87 JUMP JUMPDEST PUSH2 0x12D PUSH1 0x0 SWAP1 SLOAD SWAP1 PUSH2 0x100 EXP SWAP1 DIV PUSH20 0xFFFFFFFFFFFFFFFFFFFFFFFFFFFFFFFFFFFFFFFF AND PUSH20 0xFFFFFFFFFFFFFFFFFFFFFFFFFFFFFFFFFFFFFFFF AND CALLER PUSH20 0xFFFFFFFFFFFFFFFFFFFFFFFFFFFFFFFFFFFFFFFF AND EQ PUSH2 0xC5F JUMPI PUSH2 0xBE9 PUSH8 0x268B32DC1840444F PUSH1 0xC0 SHL PUSH2 0x1C87 JUMP JUMPDEST PUSH2 0xBFD PUSH8 0x25441561D542E16A PUSH1 0xC0 SHL PUSH2 0x1C87 JUMP JUMPDEST CALLER PUSH2 0x12D PUSH1 0x0 SWAP1 SLOAD SWAP1 PUSH2 0x100 EXP SWAP1 DIV PUSH20 0xFFFFFFFFFFFFFFFFFFFFFFFFFFFFFFFFFFFFFFFF AND PUSH1 0x40 MLOAD PUSH32 0xE0C0B60900000000000000000000000000000000000000000000000000000000 DUP2 MSTORE PUSH1 0x4 ADD PUSH2 0xC56 SWAP3 SWAP2 SWAP1 PUSH2 0x3C2E JUMP JUMPDEST PUSH1 0x40 MLOAD DUP1 SWAP2 SUB SWAP1 REVERT JUMPDEST PUSH2 0xC73 PUSH8 0xD2A00F199532C972 PUSH1 0xC0 SHL PUSH2 0x1C87 JUMP JUMPDEST PUSH2 0xC87 PUSH8 0x4EE9735D3ED5A2EB PUSH1 0xC0 SHL PUSH2 0x1C87 JUMP JUMPDEST PUSH2 0xC9B PUSH8 0xF7743C677C5C07E PUSH1 0xC0 SHL PUSH2 0x1C87 JUMP JUMPDEST PUSH2 0xCAF PUSH8 0x719FB2AE854EC58A PUSH1 0xC0 SHL PUSH2 0x1C87 JUMP JUMPDEST PUSH2 0xCC3 PUSH8 0x653EFDF67B20A976 PUSH1 0xC0 SHL PUSH2 0x1C87 JUMP JUMPDEST PUSH1 0x1 PUSH2 0x130 PUSH1 0x0 DUP4 PUSH20 0xFFFFFFFFFFFFFFFFFFFFFFFFFFFFFFFFFFFFFFFF AND PUSH20 0xFFFFFFFFFFFFFFFFFFFFFFFFFFFFFFFFFFFFFFFF AND DUP2 MSTORE PUSH1 0x20 ADD SWAP1 DUP2 MSTORE PUSH1 0x20 ADD PUSH1 0x0 KECCAK256 PUSH1 0x0 PUSH2 0x100 EXP DUP2 SLOAD DUP2 PUSH1 0xFF MUL NOT AND SWAP1 DUP4 ISZERO ISZERO MUL OR SWAP1 SSTORE POP POP JUMP JUMPDEST PUSH2 0xD33 PUSH8 0xCDC8DE602FFDDE2E PUSH1 0xC0 SHL PUSH2 0x1C87 JUMP JUMPDEST PUSH1 0x0 DUP1 PUSH1 0x1 SWAP1 SLOAD SWAP1 PUSH2 0x100 EXP SWAP1 DIV PUSH1 0xFF AND ISZERO SWAP1 POP DUP1 DUP1 ISZERO PUSH2 0xD64 JUMPI POP PUSH1 0x1 PUSH1 0x0 DUP1 SLOAD SWAP1 PUSH2 0x100 EXP SWAP1 DIV PUSH1 0xFF AND PUSH1 0xFF AND LT JUMPDEST DUP1 PUSH2 0xD91 JUMPI POP PUSH2 0xD73 ADDRESS PUSH2 0x2045 JUMP JUMPDEST ISZERO DUP1 ISZERO PUSH2 0xD90 JUMPI POP PUSH1 0x1 PUSH1 0x0 DUP1 SLOAD SWAP1 PUSH2 0x100 EXP SWAP1 DIV PUSH1 0xFF AND PUSH1 0xFF AND EQ JUMPDEST JUMPDEST PUSH2 0xDD0 JUMPI PUSH1 0x40 MLOAD PUSH32 0x8C379A000000000000000000000000000000000000000000000000000000000 DUP2 MSTORE PUSH1 0x4 ADD PUSH2 0xDC7 SWAP1 PUSH2 0x3E2C JUMP JUMPDEST PUSH1 0x40 MLOAD DUP1 SWAP2 SUB SWAP1 REVERT JUMPDEST PUSH1 0x1 PUSH1 0x0 DUP1 PUSH2 0x100 EXP DUP2 SLOAD DUP2 PUSH1 0xFF MUL NOT AND SWAP1 DUP4 PUSH1 0xFF AND MUL OR SWAP1 SSTORE POP DUP1 ISZERO PUSH2 0xE0D JUMPI PUSH1 0x1 PUSH1 0x0 PUSH1 0x1 PUSH2 0x100 EXP DUP2 SLOAD DUP2 PUSH1 0xFF MUL NOT AND SWAP1 DUP4 ISZERO ISZERO MUL OR SWAP1 SSTORE POP JUMPDEST PUSH2 0xE21 PUSH8 0x22F2FD41D970E4B5 PUSH1 0xC0 SHL PUSH2 0x1C87 JUMP JUMPDEST PUSH2 0xE35 PUSH8 0x73346D1B1404E527 PUSH1 0xC0 SHL PUSH2 0x1C87 JUMP JUMPDEST PUSH2 0xE49 PUSH8 0x3805513A98FE2D65 PUSH1 0xC0 SHL PUSH2 0x1C87 JUMP JUMPDEST PUSH2 0xE5D PUSH8 0x6B762ADD1A8A9022 PUSH1 0xC0 SHL PUSH2 0x1C87 JUMP JUMPDEST PUSH2 0xE66 DUP5 PUSH2 0x2068 JUMP JUMPDEST PUSH2 0xE7A PUSH8 0x817E847ACD9C8A97 PUSH1 0xC0 SHL PUSH2 0x1C87 JUMP JUMPDEST PUSH2 0xE8E PUSH8 0xF4D462AB0F8367B1 PUSH1 0xC0 SHL PUSH2 0x1C87 JUMP JUMPDEST PUSH2 0xE96 PUSH2 0x20C3 JUMP JUMPDEST PUSH2 0xEAA PUSH8 0xC64F34C7B704F7D3 PUSH1 0xC0 SHL PUSH2 0x1C87 JUMP JUMPDEST DUP3 PUSH2 0x12E PUSH1 0x0 PUSH2 0x100 EXP DUP2 SLOAD DUP2 PUSH20 0xFFFFFFFFFFFFFFFFFFFFFFFFFFFFFFFFFFFFFFFF MUL NOT AND SWAP1 DUP4 PUSH20 0xFFFFFFFFFFFFFFFFFFFFFFFFFFFFFFFFFFFFFFFF AND MUL OR SWAP1 SSTORE POP PUSH2 0xF00 PUSH8 0x3F35E56F75AC4D34 PUSH1 0xC0 SHL PUSH2 0x1C87 JUMP JUMPDEST DUP2 PUSH2 0x12D PUSH1 0x0 PUSH2 0x100 EXP DUP2 SLOAD DUP2 PUSH20 0xFFFFFFFFFFFFFFFFFFFFFFFFFFFFFFFFFFFFFFFF MUL NOT AND SWAP1 DUP4 PUSH20 0xFFFFFFFFFFFFFFFFFFFFFFFFFFFFFFFFFFFFFFFF AND MUL OR SWAP1 SSTORE POP PUSH2 0xF56 PUSH8 0xD6AF2FEB4E41B284 PUSH1 0xC0 SHL PUSH2 0x1C87 JUMP JUMPDEST PUSH1 0x1 PUSH2 0x130 PUSH1 0x0 DUP5 PUSH20 0xFFFFFFFFFFFFFFFFFFFFFFFFFFFFFFFFFFFFFFFF AND PUSH20 0xFFFFFFFFFFFFFFFFFFFFFFFFFFFFFFFFFFFFFFFF AND DUP2 MSTORE PUSH1 0x20 ADD SWAP1 DUP2 MSTORE PUSH1 0x20 ADD PUSH1 0x0 KECCAK256 PUSH1 0x0 PUSH2 0x100 EXP DUP2 SLOAD DUP2 PUSH1 0xFF MUL NOT AND SWAP1 DUP4 ISZERO ISZERO MUL OR SWAP1 SSTORE POP DUP1 ISZERO PUSH2 0x1008 JUMPI PUSH1 0x0 DUP1 PUSH1 0x1 PUSH2 0x100 EXP DUP2 SLOAD DUP2 PUSH1 0xFF MUL NOT AND SWAP1 DUP4 ISZERO ISZERO MUL OR SWAP1 SSTORE POP PUSH32 0x7F26B83FF96E1F2B6A682F133852F6798A09C465DA95921460CEFB3847402498 PUSH1 0x1 PUSH1 0x40 MLOAD PUSH2 0xFFF SWAP2 SWAP1 PUSH2 0x3E9E JUMP JUMPDEST PUSH1 0x40 MLOAD DUP1 SWAP2 SUB SWAP1 LOG1 JUMPDEST POP POP POP POP JUMP JUMPDEST PUSH1 0x60 DUP2 MLOAD DUP4 MLOAD EQ PUSH2 0x1054 JUMPI PUSH1 0x40 MLOAD PUSH32 0x8C379A000000000000000000000000000000000000000000000000000000000 DUP2 MSTORE PUSH1 0x4 ADD PUSH2 0x104B SWAP1 PUSH2 0x3F2B JUMP JUMPDEST PUSH1 0x40 MLOAD DUP1 SWAP2 SUB SWAP1 REVERT JUMPDEST PUSH1 0x0 DUP4 MLOAD PUSH8 0xFFFFFFFFFFFFFFFF DUP2 GT ISZERO PUSH2 0x1071 JUMPI PUSH2 0x1070 PUSH2 0x3297 JUMP JUMPDEST JUMPDEST PUSH1 0x40 MLOAD SWAP1 DUP1 DUP3 MSTORE DUP1 PUSH1 0x20 MUL PUSH1 0x20 ADD DUP3 ADD PUSH1 0x40 MSTORE DUP1 ISZERO PUSH2 0x109F JUMPI DUP2 PUSH1 0x20 ADD PUSH1 0x20 DUP3 MUL DUP1 CALLDATASIZE DUP4 CALLDATACOPY DUP1 DUP3 ADD SWAP2 POP POP SWAP1 POP JUMPDEST POP SWAP1 POP PUSH1 0x0 JUMPDEST DUP5 MLOAD DUP2 LT ISZERO PUSH2 0x111C JUMPI PUSH2 0x10EC DUP6 DUP3 DUP2 MLOAD DUP2 LT PUSH2 0x10C4 JUMPI PUSH2 0x10C3 PUSH2 0x3F4B JUMP JUMPDEST JUMPDEST PUSH1 0x20 MUL PUSH1 0x20 ADD ADD MLOAD DUP6 DUP4 DUP2 MLOAD DUP2 LT PUSH2 0x10DF JUMPI PUSH2 0x10DE PUSH2 0x3F4B JUMP JUMPDEST JUMPDEST PUSH1 0x20 MUL PUSH1 0x20 ADD ADD MLOAD PUSH2 0x405 JUMP JUMPDEST DUP3 DUP3 DUP2 MLOAD DUP2 LT PUSH2 0x10FF JUMPI PUSH2 0x10FE PUSH2 0x3F4B JUMP JUMPDEST JUMPDEST PUSH1 0x20 MUL PUSH1 0x20 ADD ADD DUP2 DUP2 MSTORE POP POP DUP1 PUSH2 0x1115 SWAP1 PUSH2 0x3F7A JUMP JUMPDEST SWAP1 POP PUSH2 0x10A5 JUMP JUMPDEST POP DUP1 SWAP2 POP POP SWAP3 SWAP2 POP POP JUMP JUMPDEST PUSH2 0x113B PUSH8 0x47011CE5655F7187 PUSH1 0xC0 SHL PUSH2 0x1C87 JUMP JUMPDEST PUSH2 0x114F PUSH8 0x47DF6132C3C1B670 PUSH1 0xC0 SHL PUSH2 0x1C87 JUMP JUMPDEST PUSH2 0x1163 PUSH8 0x9F72FF67DC7BC514 PUSH1 0xC0 SHL PUSH2 0x1C87 JUMP JUMPDEST PUSH2 0x1177 PUSH8 0x9F9C27857FFB4D1 PUSH1 0xC0 SHL PUSH2 0x1C87 JUMP JUMPDEST PUSH2 0x12D PUSH1 0x0 SWAP1 SLOAD SWAP1 PUSH2 0x100 EXP SWAP1 DIV PUSH20 0xFFFFFFFFFFFFFFFFFFFFFFFFFFFFFFFFFFFFFFFF AND PUSH20 0xFFFFFFFFFFFFFFFFFFFFFFFFFFFFFFFFFFFFFFFF AND CALLER PUSH20 0xFFFFFFFFFFFFFFFFFFFFFFFFFFFFFFFFFFFFFFFF AND EQ PUSH2 0x1257 JUMPI PUSH2 0x11E1 PUSH8 0x268B32DC1840444F PUSH1 0xC0 SHL PUSH2 0x1C87 JUMP JUMPDEST PUSH2 0x11F5 PUSH8 0x25441561D542E16A PUSH1 0xC0 SHL PUSH2 0x1C87 JUMP JUMPDEST CALLER PUSH2 0x12D PUSH1 0x0 SWAP1 SLOAD SWAP1 PUSH2 0x100 EXP SWAP1 DIV PUSH20 0xFFFFFFFFFFFFFFFFFFFFFFFFFFFFFFFFFFFFFFFF AND PUSH1 0x40 MLOAD PUSH32 0xE0C0B60900000000000000000000000000000000000000000000000000000000 DUP2 MSTORE PUSH1 0x4 ADD PUSH2 0x124E SWAP3 SWAP2 SWAP1 PUSH2 0x3C2E JUMP JUMPDEST PUSH1 0x40 MLOAD DUP1 SWAP2 SUB SWAP1 REVERT JUMPDEST PUSH2 0x126B PUSH8 0xD2A00F199532C972 PUSH1 0xC0 SHL PUSH2 0x1C87 JUMP JUMPDEST PUSH2 0x127F PUSH8 0x4EE9735D3ED5A2EB PUSH1 0xC0 SHL PUSH2 0x1C87 JUMP JUMPDEST PUSH2 0x1293 PUSH8 0x78C64BD0B35C56BA PUSH1 0xC0 SHL PUSH2 0x1C87 JUMP JUMPDEST PUSH2 0x12A7 PUSH8 0xB8DD36A18266567D PUSH1 0xC0 SHL PUSH2 0x1C87 JUMP JUMPDEST PUSH2 0x12BB PUSH8 0xAB4A7076F5CD5816 PUSH1 0xC0 SHL PUSH2 0x1C87 JUMP JUMPDEST DUP2 PUSH2 0x131 PUSH1 0x0 DUP6 DUP2 MSTORE PUSH1 0x20 ADD SWAP1 DUP2 MSTORE PUSH1 0x20 ADD PUSH1 0x0 KECCAK256 PUSH1 0x0 DUP3 DUP3 SLOAD PUSH2 0x12DF SWAP2 SWAP1 PUSH2 0x3FC2 JUMP JUMPDEST SWAP3 POP POP DUP2 SWAP1 SSTORE POP PUSH2 0x12FA PUSH8 0x26BD6A2016EE3D26 PUSH1 0xC0 SHL PUSH2 0x1C87 JUMP JUMPDEST PUSH2 0x130E PUSH8 0x9C7374F724D74E3E PUSH1 0xC0 SHL PUSH2 0x1C87 JUMP JUMPDEST PUSH2 0x131A DUP5 DUP5 DUP5 DUP5 PUSH2 0x2114 JUMP JUMPDEST POP POP POP POP JUMP JUMPDEST PUSH2 0x1334 PUSH8 0xEF6B9FE87A26C250 PUSH1 0xC0 SHL PUSH2 0x1C87 JUMP JUMPDEST PUSH2 0x133C PUSH2 0x22C5 JUMP JUMPDEST PUSH2 0x1350 PUSH8 0x9190D255EBDEFA7B PUSH1 0xC0 SHL PUSH2 0x1C87 JUMP JUMPDEST PUSH2 0x1364 PUSH8 0xE6482E1D4ECC35C6 PUSH1 0xC0 SHL PUSH2 0x1C87 JUMP JUMPDEST PUSH2 0x1378 PUSH8 0xFA42D33E7F3446C PUSH1 0xC0 SHL PUSH2 0x1C87 JUMP JUMPDEST PUSH2 0x138C PUSH8 0x8967037D21206C1C PUSH1 0xC0 SHL PUSH2 0x1C87 JUMP JUMPDEST PUSH2 0x12E PUSH1 0x0 SWAP1 SLOAD SWAP1 PUSH2 0x100 EXP SWAP1 DIV PUSH20 0xFFFFFFFFFFFFFFFFFFFFFFFFFFFFFFFFFFFFFFFF AND PUSH20 0xFFFFFFFFFFFFFFFFFFFFFFFFFFFFFFFFFFFFFFFF AND CALLER PUSH20 0xFFFFFFFFFFFFFFFFFFFFFFFFFFFFFFFFFFFFFFFF AND EQ ISZERO DUP1 ISZERO PUSH2 0x143A JUMPI POP PUSH2 0x12D PUSH1 0x0 SWAP1 SLOAD SWAP1 PUSH2 0x100 EXP SWAP1 DIV PUSH20 0xFFFFFFFFFFFFFFFFFFFFFFFFFFFFFFFFFFFFFFFF AND PUSH20 0xFFFFFFFFFFFFFFFFFFFFFFFFFFFFFFFFFFFFFFFF AND CALLER PUSH20 0xFFFFFFFFFFFFFFFFFFFFFFFFFFFFFFFFFFFFFFFF AND EQ ISZERO JUMPDEST ISZERO PUSH2 0x14C9 JUMPI PUSH2 0x1453 PUSH8 0xE715339292CB23F9 PUSH1 0xC0 SHL PUSH2 0x1C87 JUMP JUMPDEST PUSH2 0x1467 PUSH8 0x17756AB500AF4FE8 PUSH1 0xC0 SHL PUSH2 0x1C87 JUMP JUMPDEST CALLER PUSH2 0x12E PUSH1 0x0 SWAP1 SLOAD SWAP1 PUSH2 0x100 EXP SWAP1 DIV PUSH20 0xFFFFFFFFFFFFFFFFFFFFFFFFFFFFFFFFFFFFFFFF AND PUSH1 0x40 MLOAD PUSH32 0x262B5DA700000000000000000000000000000000000000000000000000000000 DUP2 MSTORE PUSH1 0x4 ADD PUSH2 0x14C0 SWAP3 SWAP2 SWAP1 PUSH2 0x3C2E JUMP JUMPDEST PUSH1 0x40 MLOAD DUP1 SWAP2 SUB SWAP1 REVERT JUMPDEST PUSH2 0x14DD PUSH8 0x586305395899DD7A PUSH1 0xC0 SHL PUSH2 0x1C87 JUMP JUMPDEST PUSH2 0x14F1 PUSH8 0x5DAFBEA666E3C3AF PUSH1 0xC0 SHL PUSH2 0x1C87 JUMP JUMPDEST PUSH2 0x1505 PUSH8 0x43C82FD923DDBEBF PUSH1 0xC0 SHL PUSH2 0x1C87 JUMP JUMPDEST PUSH2 0x1520 DUP5 DUP8 DUP8 PUSH1 0x40 MLOAD DUP1 PUSH1 0x20 ADD PUSH1 0x40 MSTORE DUP1 PUSH1 0x0 DUP2 MSTORE POP PUSH2 0x2114 JUMP JUMPDEST PUSH2 0x1534 PUSH8 0x72D176A4415E661C PUSH1 0xC0 SHL PUSH2 0x1C87 JUMP JUMPDEST PUSH2 0x1548 PUSH8 0x4C3BEC50238C186 PUSH1 0xC0 SHL PUSH2 0x1C87 JUMP JUMPDEST PUSH2 0x1553 DUP7 DUP6 DUP5 PUSH2 0x2314 JUMP JUMPDEST PUSH2 0x1567 PUSH8 0x704D9A676796700F PUSH1 0xC0 SHL PUSH2 0x1C87 JUMP JUMPDEST PUSH2 0x157B PUSH8 0x5714D6AA98D6C5D0 PUSH1 0xC0 SHL PUSH2 0x1C87 JUMP JUMPDEST PUSH2 0x1585 DUP7 DUP3 PUSH2 0x24BB JUMP JUMPDEST PUSH2 0x1599 PUSH8 0x30DE22E991A27BC8 PUSH1 0xC0 SHL PUSH2 0x1C87 JUMP JUMPDEST PUSH2 0x15AD PUSH8 0x653628726F8FFB09 PUSH1 0xC0 SHL PUSH2 0x1C87 JUMP JUMPDEST PUSH2 0x15DC DUP5 PUSH2 0x12E PUSH1 0x0 SWAP1 SLOAD SWAP1 PUSH2 0x100 EXP SWAP1 DIV PUSH20 0xFFFFFFFFFFFFFFFFFFFFFFFFFFFFFFFFFFFFFFFF AND PUSH1 0x1 PUSH2 0x2520 JUMP JUMPDEST PUSH2 0x15F0 PUSH8 0xCDC2F7BF97840ECF PUSH1 0xC0 SHL PUSH2 0x1C87 JUMP JUMPDEST DUP5 PUSH2 0x131 PUSH1 0x0 DUP9 DUP2 MSTORE PUSH1 0x20 ADD SWAP1 DUP2 MSTORE PUSH1 0x20 ADD PUSH1 0x0 KECCAK256 PUSH1 0x0 DUP3 DUP3 SLOAD PUSH2 0x1614 SWAP2 SWAP1 PUSH2 0x3FC2 JUMP JUMPDEST SWAP3 POP POP DUP2 SWAP1 SSTORE POP PUSH2 0x162F PUSH8 0xF5E6250F6FC99C5A PUSH1 0xC0 SHL PUSH2 0x1C87 JUMP JUMPDEST PUSH2 0x1643 PUSH8 0xC98F629478725E80 PUSH1 0xC0 SHL PUSH2 0x1C87 JUMP JUMPDEST PUSH2 0x165F DUP5 DUP5 DUP9 DUP9 PUSH1 0x40 MLOAD DUP1 PUSH1 0x20 ADD PUSH1 0x40 MSTORE DUP1 PUSH1 0x0 DUP2 MSTORE POP PUSH2 0x268C JUMP JUMPDEST PUSH2 0x1673 PUSH8 0xA58E11024518BDB5 PUSH1 0xC0 SHL PUSH2 0x1C87 JUMP JUMPDEST PUSH2 0x1687 PUSH8 0xC46A00298829168B PUSH1 0xC0 SHL PUSH2 0x1C87 JUMP JUMPDEST PUSH2 0x16B6 DUP4 PUSH2 0x12E PUSH1 0x0 SWAP1 SLOAD SWAP1 PUSH2 0x100 EXP SWAP1 DIV PUSH20 0xFFFFFFFFFFFFFFFFFFFFFFFFFFFFFFFFFFFFFFFF AND PUSH1 0x1 PUSH2 0x2520 JUMP JUMPDEST PUSH2 0x16CA PUSH8 0x23937FAE7FBAD59 PUSH1 0xC0 SHL PUSH2 0x1C87 JUMP JUMPDEST PUSH2 0x16DE PUSH8 0x4E32C136200659B3 PUSH1 0xC0 SHL PUSH2 0x1C87 JUMP JUMPDEST PUSH32 0x4EF106D4846257C8CEDAD2E70211B29C8D7021E41E111654CF4CC8EBCC5577E0 DUP7 DUP7 DUP6 PUSH1 0x40 MLOAD PUSH2 0x1711 SWAP4 SWAP3 SWAP2 SWAP1 PUSH2 0x3FF6 JUMP JUMPDEST PUSH1 0x40 MLOAD DUP1 SWAP2 SUB SWAP1 LOG1 PUSH2 0x1721 PUSH2 0x292A JUMP JUMPDEST POP POP POP POP POP POP JUMP JUMPDEST PUSH2 0x173B PUSH2 0x1734 PUSH2 0x1D19 JUMP JUMPDEST DUP4 DUP4 PUSH2 0x2520 JUMP JUMPDEST POP POP JUMP JUMPDEST PUSH2 0x12E PUSH1 0x0 SWAP1 SLOAD SWAP1 PUSH2 0x100 EXP SWAP1 DIV PUSH20 0xFFFFFFFFFFFFFFFFFFFFFFFFFFFFFFFFFFFFFFFF AND DUP2 JUMP JUMPDEST PUSH2 0x130 PUSH1 0x20 MSTORE DUP1 PUSH1 0x0 MSTORE PUSH1 0x40 PUSH1 0x0 KECCAK256 PUSH1 0x0 SWAP2 POP SLOAD SWAP1 PUSH2 0x100 EXP SWAP1 DIV PUSH1 0xFF AND DUP2 JUMP JUMPDEST PUSH2 0x179B PUSH8 0x4A583F90BD7B333 PUSH1 0xC0 SHL PUSH2 0x1C87 JUMP JUMPDEST PUSH2 0x17AF PUSH8 0x47DF6132C3C1B670 PUSH1 0xC0 SHL PUSH2 0x1C87 JUMP JUMPDEST PUSH2 0x17C3 PUSH8 0x9F72FF67DC7BC514 PUSH1 0xC0 SHL PUSH2 0x1C87 JUMP JUMPDEST PUSH2 0x17D7 PUSH8 0x9F9C27857FFB4D1 PUSH1 0xC0 SHL PUSH2 0x1C87 JUMP JUMPDEST PUSH2 0x12D PUSH1 0x0 SWAP1 SLOAD SWAP1 PUSH2 0x100 EXP SWAP1 DIV PUSH20 0xFFFFFFFFFFFFFFFFFFFFFFFFFFFFFFFFFFFFFFFF AND PUSH20 0xFFFFFFFFFFFFFFFFFFFFFFFFFFFFFFFFFFFFFFFF AND CALLER PUSH20 0xFFFFFFFFFFFFFFFFFFFFFFFFFFFFFFFFFFFFFFFF AND EQ PUSH2 0x18B7 JUMPI PUSH2 0x1841 PUSH8 0x268B32DC1840444F PUSH1 0xC0 SHL PUSH2 0x1C87 JUMP JUMPDEST PUSH2 0x1855 PUSH8 0x25441561D542E16A PUSH1 0xC0 SHL PUSH2 0x1C87 JUMP JUMPDEST CALLER PUSH2 0x12D PUSH1 0x0 SWAP1 SLOAD SWAP1 PUSH2 0x100 EXP SWAP1 DIV PUSH20 0xFFFFFFFFFFFFFFFFFFFFFFFFFFFFFFFFFFFFFFFF AND PUSH1 0x40 MLOAD PUSH32 0xE0C0B60900000000000000000000000000000000000000000000000000000000 DUP2 MSTORE PUSH1 0x4 ADD PUSH2 0x18AE SWAP3 SWAP2 SWAP1 PUSH2 0x3C2E JUMP JUMPDEST PUSH1 0x40 MLOAD DUP1 SWAP2 SUB SWAP1 REVERT JUMPDEST PUSH2 0x18CB PUSH8 0xD2A00F199532C972 PUSH1 0xC0 SHL PUSH2 0x1C87 JUMP JUMPDEST PUSH2 0x18DF PUSH8 0x4EE9735D3ED5A2EB PUSH1 0xC0 SHL PUSH2 0x1C87 JUMP JUMPDEST PUSH2 0x18F3 PUSH8 0x4BBDFA80A9FD8434 PUSH1 0xC0 SHL PUSH2 0x1C87 JUMP JUMPDEST PUSH2 0x1907 PUSH8 0x5FE995856374B04 PUSH1 0xC0 SHL PUSH2 0x1C87 JUMP JUMPDEST PUSH2 0x191B PUSH8 0xBB01477519EA5C70 PUSH1 0xC0 SHL PUSH2 0x1C87 JUMP JUMPDEST DUP1 PUSH2 0x12D PUSH1 0x0 PUSH2 0x100 EXP DUP2 SLOAD DUP2 PUSH20 0xFFFFFFFFFFFFFFFFFFFFFFFFFFFFFFFFFFFFFFFF MUL NOT AND SWAP1 DUP4 PUSH20 0xFFFFFFFFFFFFFFFFFFFFFFFFFFFFFFFFFFFFFFFF AND MUL OR SWAP1 SSTORE POP POP JUMP JUMPDEST PUSH1 0x0 PUSH1 0x66 PUSH1 0x0 DUP5 PUSH20 0xFFFFFFFFFFFFFFFFFFFFFFFFFFFFFFFFFFFFFFFF AND PUSH20 0xFFFFFFFFFFFFFFFFFFFFFFFFFFFFFFFFFFFFFFFF AND DUP2 MSTORE PUSH1 0x20 ADD SWAP1 DUP2 MSTORE PUSH1 0x20 ADD PUSH1 0x0 KECCAK256 PUSH1 0x0 DUP4 PUSH20 0xFFFFFFFFFFFFFFFFFFFFFFFFFFFFFFFFFFFFFFFF AND PUSH20 0xFFFFFFFFFFFFFFFFFFFFFFFFFFFFFFFFFFFFFFFF AND DUP2 MSTORE PUSH1 0x20 ADD SWAP1 DUP2 MSTORE PUSH1 0x20 ADD PUSH1 0x0 KECCAK256 PUSH1 0x0 SWAP1 SLOAD SWAP1 PUSH2 0x100 EXP SWAP1 DIV PUSH1 0xFF AND SWAP1 POP SWAP3 SWAP2 POP POP JUMP JUMPDEST PUSH2 0x1A08 PUSH8 0x57D79B5CE031544 PUSH1 0xC0 SHL PUSH2 0x1C87 JUMP JUMPDEST PUSH2 0x1A1C PUSH8 0x47DF6132C3C1B670 PUSH1 0xC0 SHL PUSH2 0x1C87 JUMP JUMPDEST PUSH2 0x1A30 PUSH8 0x9F72FF67DC7BC514 PUSH1 0xC0 SHL PUSH2 0x1C87 JUMP JUMPDEST PUSH2 0x1A44 PUSH8 0x9F9C27857FFB4D1 PUSH1 0xC0 SHL PUSH2 0x1C87 JUMP JUMPDEST PUSH2 0x12D PUSH1 0x0 SWAP1 SLOAD SWAP1 PUSH2 0x100 EXP SWAP1 DIV PUSH20 0xFFFFFFFFFFFFFFFFFFFFFFFFFFFFFFFFFFFFFFFF AND PUSH20 0xFFFFFFFFFFFFFFFFFFFFFFFFFFFFFFFFFFFFFFFF AND CALLER PUSH20 0xFFFFFFFFFFFFFFFFFFFFFFFFFFFFFFFFFFFFFFFF AND EQ PUSH2 0x1B24 JUMPI PUSH2 0x1AAE PUSH8 0x268B32DC1840444F PUSH1 0xC0 SHL PUSH2 0x1C87 JUMP JUMPDEST PUSH2 0x1AC2 PUSH8 0x25441561D542E16A PUSH1 0xC0 SHL PUSH2 0x1C87 JUMP JUMPDEST CALLER PUSH2 0x12D PUSH1 0x0 SWAP1 SLOAD SWAP1 PUSH2 0x100 EXP SWAP1 DIV PUSH20 0xFFFFFFFFFFFFFFFFFFFFFFFFFFFFFFFFFFFFFFFF AND PUSH1 0x40 MLOAD PUSH32 0xE0C0B60900000000000000000000000000000000000000000000000000000000 DUP2 MSTORE PUSH1 0x4 ADD PUSH2 0x1B1B SWAP3 SWAP2 SWAP1 PUSH2 0x3C2E JUMP JUMPDEST PUSH1 0x40 MLOAD DUP1 SWAP2 SUB SWAP1 REVERT JUMPDEST PUSH2 0x1B38 PUSH8 0xD2A00F199532C972 PUSH1 0xC0 SHL PUSH2 0x1C87 JUMP JUMPDEST PUSH2 0x1B4C PUSH8 0x4EE9735D3ED5A2EB PUSH1 0xC0 SHL PUSH2 0x1C87 JUMP JUMPDEST PUSH2 0x1B60 PUSH8 0x15762928B4A963F2 PUSH1 0xC0 SHL PUSH2 0x1C87 JUMP JUMPDEST PUSH2 0x1B74 PUSH8 0xC71DFA4E1F4FAA21 PUSH1 0xC0 SHL PUSH2 0x1C87 JUMP JUMPDEST PUSH2 0x1B88 PUSH8 0x8375D4650C31A161 PUSH1 0xC0 SHL PUSH2 0x1C87 JUMP JUMPDEST DUP1 PUSH2 0x12E PUSH1 0x0 PUSH2 0x100 EXP DUP2 SLOAD DUP2 PUSH20 0xFFFFFFFFFFFFFFFFFFFFFFFFFFFFFFFFFFFFFFFF MUL NOT AND SWAP1 DUP4 PUSH20 0xFFFFFFFFFFFFFFFFFFFFFFFFFFFFFFFFFFFFFFFF AND MUL OR SWAP1 SSTORE POP POP JUMP JUMPDEST PUSH2 0x1BD5 PUSH2 0x1D19 JUMP JUMPDEST PUSH20 0xFFFFFFFFFFFFFFFFFFFFFFFFFFFFFFFFFFFFFFFF AND DUP6 PUSH20 0xFFFFFFFFFFFFFFFFFFFFFFFFFFFFFFFFFFFFFFFF AND EQ DUP1 PUSH2 0x1C1B JUMPI POP PUSH2 0x1C1A DUP6 PUSH2 0x1C15 PUSH2 0x1D19 JUMP JUMPDEST PUSH2 0x1960 JUMP JUMPDEST JUMPDEST PUSH2 0x1C5A JUMPI PUSH1 0x40 MLOAD PUSH32 0x8C379A000000000000000000000000000000000000000000000000000000000 DUP2 MSTORE PUSH1 0x4 ADD PUSH2 0x1C51 SWAP1 PUSH2 0x3D9A JUMP JUMPDEST PUSH1 0x40 MLOAD DUP1 SWAP2 SUB SWAP1 REVERT JUMPDEST PUSH2 0x1C67 DUP6 DUP6 DUP6 DUP6 DUP6 PUSH2 0x268C JUMP JUMPDEST POP POP POP POP POP JUMP JUMPDEST PUSH2 0x131 PUSH1 0x20 MSTORE DUP1 PUSH1 0x0 MSTORE PUSH1 0x40 PUSH1 0x0 KECCAK256 PUSH1 0x0 SWAP2 POP SWAP1 POP SLOAD DUP2 JUMP JUMPDEST POP JUMP JUMPDEST PUSH1 0x0 PUSH1 0x1 SWAP1 POP SWAP2 SWAP1 POP JUMP JUMPDEST PUSH1 0x0 PUSH32 0x2A55205A00000000000000000000000000000000000000000000000000000000 PUSH28 0xFFFFFFFFFFFFFFFFFFFFFFFFFFFFFFFFFFFFFFFFFFFFFFFFFFFFFFFF NOT AND DUP3 PUSH28 0xFFFFFFFFFFFFFFFFFFFFFFFFFFFFFFFFFFFFFFFFFFFFFFFFFFFFFFFF NOT AND EQ DUP1 PUSH2 0x1D08 JUMPI POP PUSH2 0x1D07 DUP3 PUSH2 0x2934 JUMP JUMPDEST JUMPDEST SWAP1 POP SWAP2 SWAP1 POP JUMP JUMPDEST PUSH1 0x0 PUSH2 0x2710 SWAP1 POP SWAP1 JUMP JUMPDEST PUSH1 0x0 CALLER SWAP1 POP SWAP1 JUMP JUMPDEST DUP2 MLOAD DUP4 MLOAD EQ PUSH2 0x1D65 JUMPI PUSH1 0x40 MLOAD PUSH32 0x8C379A000000000000000000000000000000000000000000000000000000000 DUP2 MSTORE PUSH1 0x4 ADD PUSH2 0x1D5C SWAP1 PUSH2 0x409F JUMP JUMPDEST PUSH1 0x40 MLOAD DUP1 SWAP2 SUB SWAP1 REVERT JUMPDEST PUSH1 0x0 PUSH20 0xFFFFFFFFFFFFFFFFFFFFFFFFFFFFFFFFFFFFFFFF AND DUP5 PUSH20 0xFFFFFFFFFFFFFFFFFFFFFFFFFFFFFFFFFFFFFFFF AND SUB PUSH2 0x1DD4 JUMPI PUSH1 0x40 MLOAD PUSH32 0x8C379A000000000000000000000000000000000000000000000000000000000 DUP2 MSTORE PUSH1 0x4 ADD PUSH2 0x1DCB SWAP1 PUSH2 0x4131 JUMP JUMPDEST PUSH1 0x40 MLOAD DUP1 SWAP2 SUB SWAP1 REVERT JUMPDEST PUSH1 0x0 PUSH2 0x1DDE PUSH2 0x1D19 JUMP JUMPDEST SWAP1 POP PUSH2 0x1DEE DUP2 DUP8 DUP8 DUP8 DUP8 DUP8 PUSH2 0x2A16 JUMP JUMPDEST PUSH1 0x0 JUMPDEST DUP5 MLOAD DUP2 LT ISZERO PUSH2 0x1FA2 JUMPI PUSH1 0x0 DUP6 DUP3 DUP2 MLOAD DUP2 LT PUSH2 0x1E0F JUMPI PUSH2 0x1E0E PUSH2 0x3F4B JUMP JUMPDEST JUMPDEST PUSH1 0x20 MUL PUSH1 0x20 ADD ADD MLOAD SWAP1 POP PUSH1 0x0 DUP6 DUP4 DUP2 MLOAD DUP2 LT PUSH2 0x1E2E JUMPI PUSH2 0x1E2D PUSH2 0x3F4B JUMP JUMPDEST JUMPDEST PUSH1 0x20 MUL PUSH1 0x20 ADD ADD MLOAD SWAP1 POP PUSH1 0x0 PUSH1 0x65 PUSH1 0x0 DUP5 DUP2 MSTORE PUSH1 0x20 ADD SWAP1 DUP2 MSTORE PUSH1 0x20 ADD PUSH1 0x0 KECCAK256 PUSH1 0x0 DUP12 PUSH20 0xFFFFFFFFFFFFFFFFFFFFFFFFFFFFFFFFFFFFFFFF AND PUSH20 0xFFFFFFFFFFFFFFFFFFFFFFFFFFFFFFFFFFFFFFFF AND DUP2 MSTORE PUSH1 0x20 ADD SWAP1 DUP2 MSTORE PUSH1 0x20 ADD PUSH1 0x0 KECCAK256 SLOAD SWAP1 POP DUP2 DUP2 LT ISZERO PUSH2 0x1ED0 JUMPI PUSH1 0x40 MLOAD PUSH32 0x8C379A000000000000000000000000000000000000000000000000000000000 DUP2 MSTORE PUSH1 0x4 ADD PUSH2 0x1EC7 SWAP1 PUSH2 0x41C3 JUMP JUMPDEST PUSH1 0x40 MLOAD DUP1 SWAP2 SUB SWAP1 REVERT JUMPDEST DUP2 DUP2 SUB PUSH1 0x65 PUSH1 0x0 DUP6 DUP2 MSTORE PUSH1 0x20 ADD SWAP1 DUP2 MSTORE PUSH1 0x20 ADD PUSH1 0x0 KECCAK256 PUSH1 0x0 DUP13 PUSH20 0xFFFFFFFFFFFFFFFFFFFFFFFFFFFFFFFFFFFFFFFF AND PUSH20 0xFFFFFFFFFFFFFFFFFFFFFFFFFFFFFFFFFFFFFFFF AND DUP2 MSTORE PUSH1 0x20 ADD SWAP1 DUP2 MSTORE PUSH1 0x20 ADD PUSH1 0x0 KECCAK256 DUP2 SWAP1 SSTORE POP DUP2 PUSH1 0x65 PUSH1 0x0 DUP6 DUP2 MSTORE PUSH1 0x20 ADD SWAP1 DUP2 MSTORE PUSH1 0x20 ADD PUSH1 0x0 KECCAK256 PUSH1 0x0 DUP12 PUSH20 0xFFFFFFFFFFFFFFFFFFFFFFFFFFFFFFFFFFFFFFFF AND PUSH20 0xFFFFFFFFFFFFFFFFFFFFFFFFFFFFFFFFFFFFFFFF AND DUP2 MSTORE PUSH1 0x20 ADD SWAP1 DUP2 MSTORE PUSH1 0x20 ADD PUSH1 0x0 KECCAK256 PUSH1 0x0 DUP3 DUP3 SLOAD PUSH2 0x1F87 SWAP2 SWAP1 PUSH2 0x3FC2 JUMP JUMPDEST SWAP3 POP POP DUP2 SWAP1 SSTORE POP POP POP POP DUP1 PUSH2 0x1F9B SWAP1 PUSH2 0x3F7A JUMP JUMPDEST SWAP1 POP PUSH2 0x1DF1 JUMP JUMPDEST POP DUP5 PUSH20 0xFFFFFFFFFFFFFFFFFFFFFFFFFFFFFFFFFFFFFFFF AND DUP7 PUSH20 0xFFFFFFFFFFFFFFFFFFFFFFFFFFFFFFFFFFFFFFFF AND DUP3 PUSH20 0xFFFFFFFFFFFFFFFFFFFFFFFFFFFFFFFFFFFFFFFF AND PUSH32 0x4A39DC06D4C0DBC64B70AF90FD698A233A518AA5D07E595D983B8C0526C8F7FB DUP8 DUP8 PUSH1 0x40 MLOAD PUSH2 0x2019 SWAP3 SWAP2 SWAP1 PUSH2 0x41E3 JUMP JUMPDEST PUSH1 0x40 MLOAD DUP1 SWAP2 SUB SWAP1 LOG4 PUSH2 0x202F DUP2 DUP8 DUP8 DUP8 DUP8 DUP8 PUSH2 0x2A1E JUMP JUMPDEST PUSH2 0x203D DUP2 DUP8 DUP8 DUP8 DUP8 DUP8 PUSH2 0x2A26 JUMP JUMPDEST POP POP POP POP POP POP JUMP JUMPDEST PUSH1 0x0 DUP1 DUP3 PUSH20 0xFFFFFFFFFFFFFFFFFFFFFFFFFFFFFFFFFFFFFFFF AND EXTCODESIZE GT SWAP1 POP SWAP2 SWAP1 POP JUMP JUMPDEST PUSH1 0x0 PUSH1 0x1 SWAP1 SLOAD SWAP1 PUSH2 0x100 EXP SWAP1 DIV PUSH1 0xFF AND PUSH2 0x20B7 JUMPI PUSH1 0x40 MLOAD PUSH32 0x8C379A000000000000000000000000000000000000000000000000000000000 DUP2 MSTORE PUSH1 0x4 ADD PUSH2 0x20AE SWAP1 PUSH2 0x428C JUMP JUMPDEST PUSH1 0x40 MLOAD DUP1 SWAP2 SUB SWAP1 REVERT JUMPDEST PUSH2 0x20C0 DUP2 PUSH2 0x2BFD JUMP JUMPDEST POP JUMP JUMPDEST PUSH1 0x0 PUSH1 0x1 SWAP1 SLOAD SWAP1 PUSH2 0x100 EXP SWAP1 DIV PUSH1 0xFF AND PUSH2 0x2112 JUMPI PUSH1 0x40 MLOAD PUSH32 0x8C379A000000000000000000000000000000000000000000000000000000000 DUP2 MSTORE PUSH1 0x4 ADD PUSH2 0x2109 SWAP1 PUSH2 0x428C JUMP JUMPDEST PUSH1 0x40 MLOAD DUP1 SWAP2 SUB SWAP1 REVERT JUMPDEST JUMP JUMPDEST PUSH1 0x0 PUSH20 0xFFFFFFFFFFFFFFFFFFFFFFFFFFFFFFFFFFFFFFFF AND DUP5 PUSH20 0xFFFFFFFFFFFFFFFFFFFFFFFFFFFFFFFFFFFFFFFF AND SUB PUSH2 0x2183 JUMPI PUSH1 0x40 MLOAD PUSH32 0x8C379A000000000000000000000000000000000000000000000000000000000 DUP2 MSTORE PUSH1 0x4 ADD PUSH2 0x217A SWAP1 PUSH2 0x431E JUMP JUMPDEST PUSH1 0x40 MLOAD DUP1 SWAP2 SUB SWAP1 REVERT JUMPDEST PUSH1 0x0 PUSH2 0x218D PUSH2 0x1D19 JUMP JUMPDEST SWAP1 POP PUSH1 0x0 PUSH2 0x219A DUP6 PUSH2 0x2C58 JUMP JUMPDEST SWAP1 POP PUSH1 0x0 PUSH2 0x21A7 DUP6 PUSH2 0x2C58 JUMP JUMPDEST SWAP1 POP PUSH2 0x21B8 DUP4 PUSH1 0x0 DUP10 DUP6 DUP6 DUP10 PUSH2 0x2A16 JUMP JUMPDEST DUP5 PUSH1 0x65 PUSH1 0x0 DUP9 DUP2 MSTORE PUSH1 0x20 ADD SWAP1 DUP2 MSTORE PUSH1 0x20 ADD PUSH1 0x0 KECCAK256 PUSH1 0x0 DUP10 PUSH20 0xFFFFFFFFFFFFFFFFFFFFFFFFFFFFFFFFFFFFFFFF AND PUSH20 0xFFFFFFFFFFFFFFFFFFFFFFFFFFFFFFFFFFFFFFFF AND DUP2 MSTORE PUSH1 0x20 ADD SWAP1 DUP2 MSTORE PUSH1 0x20 ADD PUSH1 0x0 KECCAK256 PUSH1 0x0 DUP3 DUP3 SLOAD PUSH2 0x2218 SWAP2 SWAP1 PUSH2 0x3FC2 JUMP JUMPDEST SWAP3 POP POP DUP2 SWAP1 SSTORE POP DUP7 PUSH20 0xFFFFFFFFFFFFFFFFFFFFFFFFFFFFFFFFFFFFFFFF AND PUSH1 0x0 PUSH20 0xFFFFFFFFFFFFFFFFFFFFFFFFFFFFFFFFFFFFFFFF AND DUP5 PUSH20 0xFFFFFFFFFFFFFFFFFFFFFFFFFFFFFFFFFFFFFFFF AND PUSH32 0xC3D58168C5AE7397731D063D5BBF3D657854427343F4C083240F7AACAA2D0F62 DUP10 DUP10 PUSH1 0x40 MLOAD PUSH2 0x2296 SWAP3 SWAP2 SWAP1 PUSH2 0x433E JUMP JUMPDEST PUSH1 0x40 MLOAD DUP1 SWAP2 SUB SWAP1 LOG4 PUSH2 0x22AD DUP4 PUSH1 0x0 DUP10 DUP6 DUP6 DUP10 PUSH2 0x2A1E JUMP JUMPDEST PUSH2 0x22BC DUP4 PUSH1 0x0 DUP10 DUP10 DUP10 DUP10 PUSH2 0x2CD2 JUMP JUMPDEST POP POP POP POP POP POP POP JUMP JUMPDEST PUSH1 0x2 PUSH1 0xFB SLOAD SUB PUSH2 0x230A JUMPI PUSH1 0x40 MLOAD PUSH32 0x8C379A000000000000000000000000000000000000000000000000000000000 DUP2 MSTORE PUSH1 0x4 ADD PUSH2 0x2301 SWAP1 PUSH2 0x43B3 JUMP JUMPDEST PUSH1 0x40 MLOAD DUP1 SWAP2 SUB SWAP1 REVERT JUMPDEST PUSH1 0x2 PUSH1 0xFB DUP2 SWAP1 SSTORE POP JUMP JUMPDEST PUSH2 0x231C PUSH2 0x1D0F JUMP JUMPDEST PUSH12 0xFFFFFFFFFFFFFFFFFFFFFFFF AND DUP2 PUSH12 0xFFFFFFFFFFFFFFFFFFFFFFFF AND GT ISZERO PUSH2 0x237A JUMPI PUSH1 0x40 MLOAD PUSH32 0x8C379A000000000000000000000000000000000000000000000000000000000 DUP2 MSTORE PUSH1 0x4 ADD PUSH2 0x2371 SWAP1 PUSH2 0x4445 JUMP JUMPDEST PUSH1 0x40 MLOAD DUP1 SWAP2 SUB SWAP1 REVERT JUMPDEST PUSH1 0x0 PUSH20 0xFFFFFFFFFFFFFFFFFFFFFFFFFFFFFFFFFFFFFFFF AND DUP3 PUSH20 0xFFFFFFFFFFFFFFFFFFFFFFFFFFFFFFFFFFFFFFFF AND SUB PUSH2 0x23E9 JUMPI PUSH1 0x40 MLOAD PUSH32 0x8C379A000000000000000000000000000000000000000000000000000000000 DUP2 MSTORE PUSH1 0x4 ADD PUSH2 0x23E0 SWAP1 PUSH2 0x44B1 JUMP JUMPDEST PUSH1 0x40 MLOAD DUP1 SWAP2 SUB SWAP1 REVERT JUMPDEST PUSH1 0x40 MLOAD DUP1 PUSH1 0x40 ADD PUSH1 0x40 MSTORE DUP1 DUP4 PUSH20 0xFFFFFFFFFFFFFFFFFFFFFFFFFFFFFFFFFFFFFFFF AND DUP2 MSTORE PUSH1 0x20 ADD DUP3 PUSH12 0xFFFFFFFFFFFFFFFFFFFFFFFF AND DUP2 MSTORE POP PUSH1 0xCA PUSH1 0x0 DUP6 DUP2 MSTORE PUSH1 0x20 ADD SWAP1 DUP2 MSTORE PUSH1 0x20 ADD PUSH1 0x0 KECCAK256 PUSH1 0x0 DUP3 ADD MLOAD DUP2 PUSH1 0x0 ADD PUSH1 0x0 PUSH2 0x100 EXP DUP2 SLOAD DUP2 PUSH20 0xFFFFFFFFFFFFFFFFFFFFFFFFFFFFFFFFFFFFFFFF MUL NOT AND SWAP1 DUP4 PUSH20 0xFFFFFFFFFFFFFFFFFFFFFFFFFFFFFFFFFFFFFFFF AND MUL OR SWAP1 SSTORE POP PUSH1 0x20 DUP3 ADD MLOAD DUP2 PUSH1 0x0 ADD PUSH1 0x14 PUSH2 0x100 EXP DUP2 SLOAD DUP2 PUSH12 0xFFFFFFFFFFFFFFFFFFFFFFFF MUL NOT AND SWAP1 DUP4 PUSH12 0xFFFFFFFFFFFFFFFFFFFFFFFF AND MUL OR SWAP1 SSTORE POP SWAP1 POP POP POP POP POP JUMP JUMPDEST DUP1 PUSH1 0x98 PUSH1 0x0 DUP5 DUP2 MSTORE PUSH1 0x20 ADD SWAP1 DUP2 MSTORE PUSH1 0x20 ADD PUSH1 0x0 KECCAK256 SWAP1 DUP2 PUSH2 0x24DB SWAP2 SWAP1 PUSH2 0x4673 JUMP JUMPDEST POP DUP2 PUSH32 0x6BB7FF708619BA0610CBA295A58592E0451DEE2622938C8755667688DAF3529B PUSH2 0x2507 DUP5 PUSH2 0x5BC JUMP JUMPDEST PUSH1 0x40 MLOAD PUSH2 0x2514 SWAP2 SWAP1 PUSH2 0x31B0 JUMP JUMPDEST PUSH1 0x40 MLOAD DUP1 SWAP2 SUB SWAP1 LOG2 POP POP JUMP JUMPDEST DUP2 PUSH20 0xFFFFFFFFFFFFFFFFFFFFFFFFFFFFFFFFFFFFFFFF AND DUP4 PUSH20 0xFFFFFFFFFFFFFFFFFFFFFFFFFFFFFFFFFFFFFFFF AND SUB PUSH2 0x258E JUMPI PUSH1 0x40 MLOAD PUSH32 0x8C379A000000000000000000000000000000000000000000000000000000000 DUP2 MSTORE PUSH1 0x4 ADD PUSH2 0x2585 SWAP1 PUSH2 0x47B7 JUMP JUMPDEST PUSH1 0x40 MLOAD DUP1 SWAP2 SUB SWAP1 REVERT JUMPDEST DUP1 PUSH1 0x66 PUSH1 0x0 DUP6 PUSH20 0xFFFFFFFFFFFFFFFFFFFFFFFFFFFFFFFFFFFFFFFF AND PUSH20 0xFFFFFFFFFFFFFFFFFFFFFFFFFFFFFFFFFFFFFFFF AND DUP2 MSTORE PUSH1 0x20 ADD SWAP1 DUP2 MSTORE PUSH1 0x20 ADD PUSH1 0x0 KECCAK256 PUSH1 0x0 DUP5 PUSH20 0xFFFFFFFFFFFFFFFFFFFFFFFFFFFFFFFFFFFFFFFF AND PUSH20 0xFFFFFFFFFFFFFFFFFFFFFFFFFFFFFFFFFFFFFFFF AND DUP2 MSTORE PUSH1 0x20 ADD SWAP1 DUP2 MSTORE PUSH1 0x20 ADD PUSH1 0x0 KECCAK256 PUSH1 0x0 PUSH2 0x100 EXP DUP2 SLOAD DUP2 PUSH1 0xFF MUL NOT AND SWAP1 DUP4 ISZERO ISZERO MUL OR SWAP1 SSTORE POP DUP2 PUSH20 0xFFFFFFFFFFFFFFFFFFFFFFFFFFFFFFFFFFFFFFFF AND DUP4 PUSH20 0xFFFFFFFFFFFFFFFFFFFFFFFFFFFFFFFFFFFFFFFF AND PUSH32 0x17307EAB39AB6107E8899845AD3D59BD9653F200F220920489CA2B5937696C31 DUP4 PUSH1 0x40 MLOAD PUSH2 0x267F SWAP2 SWAP1 PUSH2 0x30D8 JUMP JUMPDEST PUSH1 0x40 MLOAD DUP1 SWAP2 SUB SWAP1 LOG3 POP POP POP JUMP JUMPDEST PUSH1 0x0 PUSH20 0xFFFFFFFFFFFFFFFFFFFFFFFFFFFFFFFFFFFFFFFF AND DUP5 PUSH20 0xFFFFFFFFFFFFFFFFFFFFFFFFFFFFFFFFFFFFFFFF AND SUB PUSH2 0x26FB JUMPI PUSH1 0x40 MLOAD PUSH32 0x8C379A000000000000000000000000000000000000000000000000000000000 DUP2 MSTORE PUSH1 0x4 ADD PUSH2 0x26F2 SWAP1 PUSH2 0x4131 JUMP JUMPDEST PUSH1 0x40 MLOAD DUP1 SWAP2 SUB SWAP1 REVERT JUMPDEST PUSH1 0x0 PUSH2 0x2705 PUSH2 0x1D19 JUMP JUMPDEST SWAP1 POP PUSH1 0x0 PUSH2 0x2712 DUP6 PUSH2 0x2C58 JUMP JUMPDEST SWAP1 POP PUSH1 0x0 PUSH2 0x271F DUP6 PUSH2 0x2C58 JUMP JUMPDEST SWAP1 POP PUSH2 0x272F DUP4 DUP10 DUP10 DUP6 DUP6 DUP10 PUSH2 0x2A16 JUMP JUMPDEST PUSH1 0x0 PUSH1 0x65 PUSH1 0x0 DUP9 DUP2 MSTORE PUSH1 0x20 ADD SWAP1 DUP2 MSTORE PUSH1 0x20 ADD PUSH1 0x0 KECCAK256 PUSH1 0x0 DUP11 PUSH20 0xFFFFFFFFFFFFFFFFFFFFFFFFFFFFFFFFFFFFFFFF AND PUSH20 0xFFFFFFFFFFFFFFFFFFFFFFFFFFFFFFFFFFFFFFFF AND DUP2 MSTORE PUSH1 0x20 ADD SWAP1 DUP2 MSTORE PUSH1 0x20 ADD PUSH1 0x0 KECCAK256 SLOAD SWAP1 POP DUP6 DUP2 LT ISZERO PUSH2 0x27C7 JUMPI PUSH1 0x40 MLOAD PUSH32 0x8C379A000000000000000000000000000000000000000000000000000000000 DUP2 MSTORE PUSH1 0x4 ADD PUSH2 0x27BE SWAP1 PUSH2 0x41C3 JUMP JUMPDEST PUSH1 0x40 MLOAD DUP1 SWAP2 SUB SWAP1 REVERT JUMPDEST DUP6 DUP2 SUB PUSH1 0x65 PUSH1 0x0 DUP10 DUP2 MSTORE PUSH1 0x20 ADD SWAP1 DUP2 MSTORE PUSH1 0x20 ADD PUSH1 0x0 KECCAK256 PUSH1 0x0 DUP12 PUSH20 0xFFFFFFFFFFFFFFFFFFFFFFFFFFFFFFFFFFFFFFFF AND PUSH20 0xFFFFFFFFFFFFFFFFFFFFFFFFFFFFFFFFFFFFFFFF AND DUP2 MSTORE PUSH1 0x20 ADD SWAP1 DUP2 MSTORE PUSH1 0x20 ADD PUSH1 0x0 KECCAK256 DUP2 SWAP1 SSTORE POP DUP6 PUSH1 0x65 PUSH1 0x0 DUP10 DUP2 MSTORE PUSH1 0x20 ADD SWAP1 DUP2 MSTORE PUSH1 0x20 ADD PUSH1 0x0 KECCAK256 PUSH1 0x0 DUP11 PUSH20 0xFFFFFFFFFFFFFFFFFFFFFFFFFFFFFFFFFFFFFFFF AND PUSH20 0xFFFFFFFFFFFFFFFFFFFFFFFFFFFFFFFFFFFFFFFF AND DUP2 MSTORE PUSH1 0x20 ADD SWAP1 DUP2 MSTORE PUSH1 0x20 ADD PUSH1 0x0 KECCAK256 PUSH1 0x0 DUP3 DUP3 SLOAD PUSH2 0x287E SWAP2 SWAP1 PUSH2 0x3FC2 JUMP JUMPDEST SWAP3 POP POP DUP2 SWAP1 SSTORE POP DUP8 PUSH20 0xFFFFFFFFFFFFFFFFFFFFFFFFFFFFFFFFFFFFFFFF AND DUP10 PUSH20 0xFFFFFFFFFFFFFFFFFFFFFFFFFFFFFFFFFFFFFFFF AND DUP6 PUSH20 0xFFFFFFFFFFFFFFFFFFFFFFFFFFFFFFFFFFFFFFFF AND PUSH32 0xC3D58168C5AE7397731D063D5BBF3D657854427343F4C083240F7AACAA2D0F62 DUP11 DUP11 PUSH1 0x40 MLOAD PUSH2 0x28FB SWAP3 SWAP2 SWAP1 PUSH2 0x433E JUMP JUMPDEST PUSH1 0x40 MLOAD DUP1 SWAP2 SUB SWAP1 LOG4 PUSH2 0x2911 DUP5 DUP11 DUP11 DUP7 DUP7 DUP11 PUSH2 0x2A1E JUMP JUMPDEST PUSH2 0x291F DUP5 DUP11 DUP11 DUP11 DUP11 DUP11 PUSH2 0x2CD2 JUMP JUMPDEST POP POP POP POP POP POP POP POP POP JUMP JUMPDEST PUSH1 0x1 PUSH1 0xFB DUP2 SWAP1 SSTORE POP JUMP JUMPDEST PUSH1 0x0 PUSH32 0xD9B67A2600000000000000000000000000000000000000000000000000000000 PUSH28 0xFFFFFFFFFFFFFFFFFFFFFFFFFFFFFFFFFFFFFFFFFFFFFFFFFFFFFFFF NOT AND DUP3 PUSH28 0xFFFFFFFFFFFFFFFFFFFFFFFFFFFFFFFFFFFFFFFFFFFFFFFFFFFFFFFF NOT AND EQ DUP1 PUSH2 0x29FF JUMPI POP PUSH32 0xE89341C00000000000000000000000000000000000000000000000000000000 PUSH28 0xFFFFFFFFFFFFFFFFFFFFFFFFFFFFFFFFFFFFFFFFFFFFFFFFFFFFFFFF NOT AND DUP3 PUSH28 0xFFFFFFFFFFFFFFFFFFFFFFFFFFFFFFFFFFFFFFFFFFFFFFFFFFFFFFFF NOT AND EQ JUMPDEST DUP1 PUSH2 0x2A0F JUMPI POP PUSH2 0x2A0E DUP3 PUSH2 0x2EA9 JUMP JUMPDEST JUMPDEST SWAP1 POP SWAP2 SWAP1 POP JUMP JUMPDEST POP POP POP POP POP POP JUMP JUMPDEST POP POP POP POP POP POP JUMP JUMPDEST PUSH2 0x2A45 DUP5 PUSH20 0xFFFFFFFFFFFFFFFFFFFFFFFFFFFFFFFFFFFFFFFF AND PUSH2 0x2045 JUMP JUMPDEST ISZERO PUSH2 0x2BF5 JUMPI DUP4 PUSH20 0xFFFFFFFFFFFFFFFFFFFFFFFFFFFFFFFFFFFFFFFF AND PUSH4 0xBC197C81 DUP8 DUP8 DUP7 DUP7 DUP7 PUSH1 0x40 MLOAD DUP7 PUSH4 0xFFFFFFFF AND PUSH1 0xE0 SHL DUP2 MSTORE PUSH1 0x4 ADD PUSH2 0x2A8B SWAP6 SWAP5 SWAP4 SWAP3 SWAP2 SWAP1 PUSH2 0x482C JUMP JUMPDEST PUSH1 0x20 PUSH1 0x40 MLOAD DUP1 DUP4 SUB DUP2 PUSH1 0x0 DUP8 GAS CALL SWAP3 POP POP POP DUP1 ISZERO PUSH2 0x2AC7 JUMPI POP PUSH1 0x40 MLOAD RETURNDATASIZE PUSH1 0x1F NOT PUSH1 0x1F DUP3 ADD AND DUP3 ADD DUP1 PUSH1 0x40 MSTORE POP DUP2 ADD SWAP1 PUSH2 0x2AC4 SWAP2 SWAP1 PUSH2 0x48A9 JUMP JUMPDEST PUSH1 0x1 JUMPDEST PUSH2 0x2B6C JUMPI PUSH2 0x2AD3 PUSH2 0x48E3 JUMP JUMPDEST DUP1 PUSH4 0x8C379A0 SUB PUSH2 0x2B2F JUMPI POP PUSH2 0x2AE7 PUSH2 0x4905 JUMP JUMPDEST DUP1 PUSH2 0x2AF2 JUMPI POP PUSH2 0x2B31 JUMP JUMPDEST DUP1 PUSH1 0x40 MLOAD PUSH32 0x8C379A000000000000000000000000000000000000000000000000000000000 DUP2 MSTORE PUSH1 0x4 ADD PUSH2 0x2B26 SWAP2 SWAP1 PUSH2 0x31B0 JUMP JUMPDEST PUSH1 0x40 MLOAD DUP1 SWAP2 SUB SWAP1 REVERT JUMPDEST POP JUMPDEST PUSH1 0x40 MLOAD PUSH32 0x8C379A000000000000000000000000000000000000000000000000000000000 DUP2 MSTORE PUSH1 0x4 ADD PUSH2 0x2B63 SWAP1 PUSH2 0x4A07 JUMP JUMPDEST PUSH1 0x40 MLOAD DUP1 SWAP2 SUB SWAP1 REVERT JUMPDEST PUSH4 0xBC197C81 PUSH1 0xE0 SHL PUSH28 0xFFFFFFFFFFFFFFFFFFFFFFFFFFFFFFFFFFFFFFFFFFFFFFFFFFFFFFFF NOT AND DUP2 PUSH28 0xFFFFFFFFFFFFFFFFFFFFFFFFFFFFFFFFFFFFFFFFFFFFFFFFFFFFFFFF NOT AND EQ PUSH2 0x2BF3 JUMPI PUSH1 0x40 MLOAD PUSH32 0x8C379A000000000000000000000000000000000000000000000000000000000 DUP2 MSTORE PUSH1 0x4 ADD PUSH2 0x2BEA SWAP1 PUSH2 0x4A99 JUMP JUMPDEST PUSH1 0x40 MLOAD DUP1 SWAP2 SUB SWAP1 REVERT JUMPDEST POP JUMPDEST POP POP POP POP POP POP JUMP JUMPDEST PUSH1 0x0 PUSH1 0x1 SWAP1 SLOAD SWAP1 PUSH2 0x100 EXP SWAP1 DIV PUSH1 0xFF AND PUSH2 0x2C4C JUMPI PUSH1 0x40 MLOAD PUSH32 0x8C379A000000000000000000000000000000000000000000000000000000000 DUP2 MSTORE PUSH1 0x4 ADD PUSH2 0x2C43 SWAP1 PUSH2 0x428C JUMP JUMPDEST PUSH1 0x40 MLOAD DUP1 SWAP2 SUB SWAP1 REVERT JUMPDEST PUSH2 0x2C55 DUP2 PUSH2 0x2F13 JUMP JUMPDEST POP JUMP JUMPDEST PUSH1 0x60 PUSH1 0x0 PUSH1 0x1 PUSH8 0xFFFFFFFFFFFFFFFF DUP2 GT ISZERO PUSH2 0x2C77 JUMPI PUSH2 0x2C76 PUSH2 0x3297 JUMP JUMPDEST JUMPDEST PUSH1 0x40 MLOAD SWAP1 DUP1 DUP3 MSTORE DUP1 PUSH1 0x20 MUL PUSH1 0x20 ADD DUP3 ADD PUSH1 0x40 MSTORE DUP1 ISZERO PUSH2 0x2CA5 JUMPI DUP2 PUSH1 0x20 ADD PUSH1 0x20 DUP3 MUL DUP1 CALLDATASIZE DUP4 CALLDATACOPY DUP1 DUP3 ADD SWAP2 POP POP SWAP1 POP JUMPDEST POP SWAP1 POP DUP3 DUP2 PUSH1 0x0 DUP2 MLOAD DUP2 LT PUSH2 0x2CBD JUMPI PUSH2 0x2CBC PUSH2 0x3F4B JUMP JUMPDEST JUMPDEST PUSH1 0x20 MUL PUSH1 0x20 ADD ADD DUP2 DUP2 MSTORE POP POP DUP1 SWAP2 POP POP SWAP2 SWAP1 POP JUMP JUMPDEST PUSH2 0x2CF1 DUP5 PUSH20 0xFFFFFFFFFFFFFFFFFFFFFFFFFFFFFFFFFFFFFFFF AND PUSH2 0x2045 JUMP JUMPDEST ISZERO PUSH2 0x2EA1 JUMPI DUP4 PUSH20 0xFFFFFFFFFFFFFFFFFFFFFFFFFFFFFFFFFFFFFFFF AND PUSH4 0xF23A6E61 DUP8 DUP8 DUP7 DUP7 DUP7 PUSH1 0x40 MLOAD DUP7 PUSH4 0xFFFFFFFF AND PUSH1 0xE0 SHL DUP2 MSTORE PUSH1 0x4 ADD PUSH2 0x2D37 SWAP6 SWAP5 SWAP4 SWAP3 SWAP2 SWAP1 PUSH2 0x4AB9 JUMP JUMPDEST PUSH1 0x20 PUSH1 0x40 MLOAD DUP1 DUP4 SUB DUP2 PUSH1 0x0 DUP8 GAS CALL SWAP3 POP POP POP DUP1 ISZERO PUSH2 0x2D73 JUMPI POP PUSH1 0x40 MLOAD RETURNDATASIZE PUSH1 0x1F NOT PUSH1 0x1F DUP3 ADD AND DUP3 ADD DUP1 PUSH1 0x40 MSTORE POP DUP2 ADD SWAP1 PUSH2 0x2D70 SWAP2 SWAP1 PUSH2 0x48A9 JUMP JUMPDEST PUSH1 0x1 JUMPDEST PUSH2 0x2E18 JUMPI PUSH2 0x2D7F PUSH2 0x48E3 JUMP JUMPDEST DUP1 PUSH4 0x8C379A0 SUB PUSH2 0x2DDB JUMPI POP PUSH2 0x2D93 PUSH2 0x4905 JUMP JUMPDEST DUP1 PUSH2 0x2D9E JUMPI POP PUSH2 0x2DDD JUMP JUMPDEST DUP1 PUSH1 0x40 MLOAD PUSH32 0x8C379A000000000000000000000000000000000000000000000000000000000 DUP2 MSTORE PUSH1 0x4 ADD PUSH2 0x2DD2 SWAP2 SWAP1 PUSH2 0x31B0 JUMP JUMPDEST PUSH1 0x40 MLOAD DUP1 SWAP2 SUB SWAP1 REVERT JUMPDEST POP JUMPDEST PUSH1 0x40 MLOAD PUSH32 0x8C379A000000000000000000000000000000000000000000000000000000000 DUP2 MSTORE PUSH1 0x4 ADD PUSH2 0x2E0F SWAP1 PUSH2 0x4A07 JUMP JUMPDEST PUSH1 0x40 MLOAD DUP1 SWAP2 SUB SWAP1 REVERT JUMPDEST PUSH4 0xF23A6E61 PUSH1 0xE0 SHL PUSH28 0xFFFFFFFFFFFFFFFFFFFFFFFFFFFFFFFFFFFFFFFFFFFFFFFFFFFFFFFF NOT AND DUP2 PUSH28 0xFFFFFFFFFFFFFFFFFFFFFFFFFFFFFFFFFFFFFFFFFFFFFFFFFFFFFFFF NOT AND EQ PUSH2 0x2E9F JUMPI PUSH1 0x40 MLOAD PUSH32 0x8C379A000000000000000000000000000000000000000000000000000000000 DUP2 MSTORE PUSH1 0x4 ADD PUSH2 0x2E96 SWAP1 PUSH2 0x4A99 JUMP JUMPDEST PUSH1 0x40 MLOAD DUP1 SWAP2 SUB SWAP1 REVERT JUMPDEST POP JUMPDEST POP POP POP POP POP POP JUMP JUMPDEST PUSH1 0x0 PUSH32 0x1FFC9A700000000000000000000000000000000000000000000000000000000 PUSH28 0xFFFFFFFFFFFFFFFFFFFFFFFFFFFFFFFFFFFFFFFFFFFFFFFFFFFFFFFF NOT AND DUP3 PUSH28 0xFFFFFFFFFFFFFFFFFFFFFFFFFFFFFFFFFFFFFFFFFFFFFFFFFFFFFFFF NOT AND EQ SWAP1 POP SWAP2 SWAP1 POP JUMP JUMPDEST DUP1 PUSH1 0x67 SWAP1 DUP2 PUSH2 0x2F22 SWAP2 SWAP1 PUSH2 0x4673 JUMP JUMPDEST POP POP JUMP JUMPDEST PUSH1 0x0 PUSH1 0x40 MLOAD SWAP1 POP SWAP1 JUMP JUMPDEST PUSH1 0x0 DUP1 REVERT JUMPDEST PUSH1 0x0 DUP1 REVERT JUMPDEST PUSH1 0x0 PUSH20 0xFFFFFFFFFFFFFFFFFFFFFFFFFFFFFFFFFFFFFFFF DUP3 AND SWAP1 POP SWAP2 SWAP1 POP JUMP JUMPDEST PUSH1 0x0 PUSH2 0x2F65 DUP3 PUSH2 0x2F3A JUMP JUMPDEST SWAP1 POP SWAP2 SWAP1 POP JUMP JUMPDEST PUSH2 0x2F75 DUP2 PUSH2 0x2F5A JUMP JUMPDEST DUP2 EQ PUSH2 0x2F80 JUMPI PUSH1 0x0 DUP1 REVERT JUMPDEST POP JUMP JUMPDEST PUSH1 0x0 DUP2 CALLDATALOAD SWAP1 POP PUSH2 0x2F92 DUP2 PUSH2 0x2F6C JUMP JUMPDEST SWAP3 SWAP2 POP POP JUMP JUMPDEST PUSH1 0x0 DUP2 SWAP1 POP SWAP2 SWAP1 POP JUMP JUMPDEST PUSH2 0x2FAB DUP2 PUSH2 0x2F98 JUMP JUMPDEST DUP2 EQ PUSH2 0x2FB6 JUMPI PUSH1 0x0 DUP1 REVERT JUMPDEST POP JUMP JUMPDEST PUSH1 0x0 DUP2 CALLDATALOAD SWAP1 POP PUSH2 0x2FC8 DUP2 PUSH2 0x2FA2 JUMP JUMPDEST SWAP3 SWAP2 POP POP JUMP JUMPDEST PUSH1 0x0 DUP1 PUSH1 0x40 DUP4 DUP6 SUB SLT ISZERO PUSH2 0x2FE5 JUMPI PUSH2 0x2FE4 PUSH2 0x2F30 JUMP JUMPDEST JUMPDEST PUSH1 0x0 PUSH2 0x2FF3 DUP6 DUP3 DUP7 ADD PUSH2 0x2F83 JUMP JUMPDEST SWAP3 POP POP PUSH1 0x20 PUSH2 0x3004 DUP6 DUP3 DUP7 ADD PUSH2 0x2FB9 JUMP JUMPDEST SWAP2 POP POP SWAP3 POP SWAP3 SWAP1 POP JUMP JUMPDEST PUSH2 0x3017 DUP2 PUSH2 0x2F98 JUMP JUMPDEST DUP3 MSTORE POP POP JUMP JUMPDEST PUSH1 0x0 PUSH1 0x20 DUP3 ADD SWAP1 POP PUSH2 0x3032 PUSH1 0x0 DUP4 ADD DUP5 PUSH2 0x300E JUMP JUMPDEST SWAP3 SWAP2 POP POP JUMP JUMPDEST PUSH1 0x0 PUSH32 0xFFFFFFFF00000000000000000000000000000000000000000000000000000000 DUP3 AND SWAP1 POP SWAP2 SWAP1 POP JUMP JUMPDEST PUSH2 0x306D DUP2 PUSH2 0x3038 JUMP JUMPDEST DUP2 EQ PUSH2 0x3078 JUMPI PUSH1 0x0 DUP1 REVERT JUMPDEST POP JUMP JUMPDEST PUSH1 0x0 DUP2 CALLDATALOAD SWAP1 POP PUSH2 0x308A DUP2 PUSH2 0x3064 JUMP JUMPDEST SWAP3 SWAP2 POP POP JUMP JUMPDEST PUSH1 0x0 PUSH1 0x20 DUP3 DUP5 SUB SLT ISZERO PUSH2 0x30A6 JUMPI PUSH2 0x30A5 PUSH2 0x2F30 JUMP JUMPDEST JUMPDEST PUSH1 0x0 PUSH2 0x30B4 DUP5 DUP3 DUP6 ADD PUSH2 0x307B JUMP JUMPDEST SWAP2 POP POP SWAP3 SWAP2 POP POP JUMP JUMPDEST PUSH1 0x0 DUP2 ISZERO ISZERO SWAP1 POP SWAP2 SWAP1 POP JUMP JUMPDEST PUSH2 0x30D2 DUP2 PUSH2 0x30BD JUMP JUMPDEST DUP3 MSTORE POP POP JUMP JUMPDEST PUSH1 0x0 PUSH1 0x20 DUP3 ADD SWAP1 POP PUSH2 0x30ED PUSH1 0x0 DUP4 ADD DUP5 PUSH2 0x30C9 JUMP JUMPDEST SWAP3 SWAP2 POP POP JUMP JUMPDEST PUSH1 0x0 PUSH1 0x20 DUP3 DUP5 SUB SLT ISZERO PUSH2 0x3109 JUMPI PUSH2 0x3108 PUSH2 0x2F30 JUMP JUMPDEST JUMPDEST PUSH1 0x0 PUSH2 0x3117 DUP5 DUP3 DUP6 ADD PUSH2 0x2FB9 JUMP JUMPDEST SWAP2 POP POP SWAP3 SWAP2 POP POP JUMP JUMPDEST PUSH1 0x0 DUP2 MLOAD SWAP1 POP SWAP2 SWAP1 POP JUMP JUMPDEST PUSH1 0x0 DUP3 DUP3 MSTORE PUSH1 0x20 DUP3 ADD SWAP1 POP SWAP3 SWAP2 POP POP JUMP JUMPDEST PUSH1 0x0 JUMPDEST DUP4 DUP2 LT ISZERO PUSH2 0x315A JUMPI DUP1 DUP3 ADD MLOAD DUP2 DUP5 ADD MSTORE PUSH1 0x20 DUP2 ADD SWAP1 POP PUSH2 0x313F JUMP JUMPDEST PUSH1 0x0 DUP5 DUP5 ADD MSTORE POP POP POP POP JUMP JUMPDEST PUSH1 0x0 PUSH1 0x1F NOT PUSH1 0x1F DUP4 ADD AND SWAP1 POP SWAP2 SWAP1 POP JUMP JUMPDEST PUSH1 0x0 PUSH2 0x3182 DUP3 PUSH2 0x3120 JUMP JUMPDEST PUSH2 0x318C DUP2 DUP6 PUSH2 0x312B JUMP JUMPDEST SWAP4 POP PUSH2 0x319C DUP2 DUP6 PUSH1 0x20 DUP7 ADD PUSH2 0x313C JUMP JUMPDEST PUSH2 0x31A5 DUP2 PUSH2 0x3166 JUMP JUMPDEST DUP5 ADD SWAP2 POP POP SWAP3 SWAP2 POP POP JUMP JUMPDEST PUSH1 0x0 PUSH1 0x20 DUP3 ADD SWAP1 POP DUP2 DUP2 SUB PUSH1 0x0 DUP4 ADD MSTORE PUSH2 0x31CA DUP2 DUP5 PUSH2 0x3177 JUMP JUMPDEST SWAP1 POP SWAP3 SWAP2 POP POP JUMP JUMPDEST PUSH1 0x0 PUSH1 0x20 DUP3 DUP5 SUB SLT ISZERO PUSH2 0x31E8 JUMPI PUSH2 0x31E7 PUSH2 0x2F30 JUMP JUMPDEST JUMPDEST PUSH1 0x0 PUSH2 0x31F6 DUP5 DUP3 DUP6 ADD PUSH2 0x2F83 JUMP JUMPDEST SWAP2 POP POP SWAP3 SWAP2 POP POP JUMP JUMPDEST PUSH2 0x3208 DUP2 PUSH2 0x2F5A JUMP JUMPDEST DUP3 MSTORE POP POP JUMP JUMPDEST PUSH1 0x0 PUSH1 0x20 DUP3 ADD SWAP1 POP PUSH2 0x3223 PUSH1 0x0 DUP4 ADD DUP5 PUSH2 0x31FF JUMP JUMPDEST SWAP3 SWAP2 POP POP JUMP JUMPDEST PUSH1 0x0 DUP1 PUSH1 0x40 DUP4 DUP6 SUB SLT ISZERO PUSH2 0x3240 JUMPI PUSH2 0x323F PUSH2 0x2F30 JUMP JUMPDEST JUMPDEST PUSH1 0x0 PUSH2 0x324E DUP6 DUP3 DUP7 ADD PUSH2 0x2FB9 JUMP JUMPDEST SWAP3 POP POP PUSH1 0x20 PUSH2 0x325F DUP6 DUP3 DUP7 ADD PUSH2 0x2FB9 JUMP JUMPDEST SWAP2 POP POP SWAP3 POP SWAP3 SWAP1 POP JUMP JUMPDEST PUSH1 0x0 PUSH1 0x40 DUP3 ADD SWAP1 POP PUSH2 0x327E PUSH1 0x0 DUP4 ADD DUP6 PUSH2 0x31FF JUMP JUMPDEST PUSH2 0x328B PUSH1 0x20 DUP4 ADD DUP5 PUSH2 0x300E JUMP JUMPDEST SWAP4 SWAP3 POP POP POP JUMP JUMPDEST PUSH1 0x0 DUP1 REVERT JUMPDEST PUSH32 0x4E487B7100000000000000000000000000000000000000000000000000000000 PUSH1 0x0 MSTORE PUSH1 0x41 PUSH1 0x4 MSTORE PUSH1 0x24 PUSH1 0x0 REVERT JUMPDEST PUSH2 0x32CF DUP3 PUSH2 0x3166 JUMP JUMPDEST DUP2 ADD DUP2 DUP2 LT PUSH8 0xFFFFFFFFFFFFFFFF DUP3 GT OR ISZERO PUSH2 0x32EE JUMPI PUSH2 0x32ED PUSH2 0x3297 JUMP JUMPDEST JUMPDEST DUP1 PUSH1 0x40 MSTORE POP POP POP JUMP JUMPDEST PUSH1 0x0 PUSH2 0x3301 PUSH2 0x2F26 JUMP JUMPDEST SWAP1 POP PUSH2 0x330D DUP3 DUP3 PUSH2 0x32C6 JUMP JUMPDEST SWAP2 SWAP1 POP JUMP JUMPDEST PUSH1 0x0 PUSH8 0xFFFFFFFFFFFFFFFF DUP3 GT ISZERO PUSH2 0x332D JUMPI PUSH2 0x332C PUSH2 0x3297 JUMP JUMPDEST JUMPDEST PUSH1 0x20 DUP3 MUL SWAP1 POP PUSH1 0x20 DUP2 ADD SWAP1 POP SWAP2 SWAP1 POP JUMP JUMPDEST PUSH1 0x0 DUP1 REVERT JUMPDEST PUSH1 0x0 PUSH2 0x3356 PUSH2 0x3351 DUP5 PUSH2 0x3312 JUMP JUMPDEST PUSH2 0x32F7 JUMP JUMPDEST SWAP1 POP DUP1 DUP4 DUP3 MSTORE PUSH1 0x20 DUP3 ADD SWAP1 POP PUSH1 0x20 DUP5 MUL DUP4 ADD DUP6 DUP2 GT ISZERO PUSH2 0x3379 JUMPI PUSH2 0x3378 PUSH2 0x333E JUMP JUMPDEST JUMPDEST DUP4 JUMPDEST DUP2 DUP2 LT ISZERO PUSH2 0x33A2 JUMPI DUP1 PUSH2 0x338E DUP9 DUP3 PUSH2 0x2FB9 JUMP JUMPDEST DUP5 MSTORE PUSH1 0x20 DUP5 ADD SWAP4 POP POP PUSH1 0x20 DUP2 ADD SWAP1 POP PUSH2 0x337B JUMP JUMPDEST POP POP POP SWAP4 SWAP3 POP POP POP JUMP JUMPDEST PUSH1 0x0 DUP3 PUSH1 0x1F DUP4 ADD SLT PUSH2 0x33C1 JUMPI PUSH2 0x33C0 PUSH2 0x3292 JUMP JUMPDEST JUMPDEST DUP2 CALLDATALOAD PUSH2 0x33D1 DUP5 DUP3 PUSH1 0x20 DUP7 ADD PUSH2 0x3343 JUMP JUMPDEST SWAP2 POP POP SWAP3 SWAP2 POP POP JUMP JUMPDEST PUSH1 0x0 DUP1 REVERT JUMPDEST PUSH1 0x0 PUSH8 0xFFFFFFFFFFFFFFFF DUP3 GT ISZERO PUSH2 0x33FA JUMPI PUSH2 0x33F9 PUSH2 0x3297 JUMP JUMPDEST JUMPDEST PUSH2 0x3403 DUP3 PUSH2 0x3166 JUMP JUMPDEST SWAP1 POP PUSH1 0x20 DUP2 ADD SWAP1 POP SWAP2 SWAP1 POP JUMP JUMPDEST DUP3 DUP2 DUP4 CALLDATACOPY PUSH1 0x0 DUP4 DUP4 ADD MSTORE POP POP POP JUMP JUMPDEST PUSH1 0x0 PUSH2 0x3432 PUSH2 0x342D DUP5 PUSH2 0x33DF JUMP JUMPDEST PUSH2 0x32F7 JUMP JUMPDEST SWAP1 POP DUP3 DUP2 MSTORE PUSH1 0x20 DUP2 ADD DUP5 DUP5 DUP5 ADD GT ISZERO PUSH2 0x344E JUMPI PUSH2 0x344D PUSH2 0x33DA JUMP JUMPDEST JUMPDEST PUSH2 0x3459 DUP5 DUP3 DUP6 PUSH2 0x3410 JUMP JUMPDEST POP SWAP4 SWAP3 POP POP POP JUMP JUMPDEST PUSH1 0x0 DUP3 PUSH1 0x1F DUP4 ADD SLT PUSH2 0x3476 JUMPI PUSH2 0x3475 PUSH2 0x3292 JUMP JUMPDEST JUMPDEST DUP2 CALLDATALOAD PUSH2 0x3486 DUP5 DUP3 PUSH1 0x20 DUP7 ADD PUSH2 0x341F JUMP JUMPDEST SWAP2 POP POP SWAP3 SWAP2 POP POP JUMP JUMPDEST PUSH1 0x0 DUP1 PUSH1 0x0 DUP1 PUSH1 0x0 PUSH1 0xA0 DUP7 DUP9 SUB SLT ISZERO PUSH2 0x34AB JUMPI PUSH2 0x34AA PUSH2 0x2F30 JUMP JUMPDEST JUMPDEST PUSH1 0x0 PUSH2 0x34B9 DUP9 DUP3 DUP10 ADD PUSH2 0x2F83 JUMP JUMPDEST SWAP6 POP POP PUSH1 0x20 PUSH2 0x34CA DUP9 DUP3 DUP10 ADD PUSH2 0x2F83 JUMP JUMPDEST SWAP5 POP POP PUSH1 0x40 DUP7 ADD CALLDATALOAD PUSH8 0xFFFFFFFFFFFFFFFF DUP2 GT ISZERO PUSH2 0x34EB JUMPI PUSH2 0x34EA PUSH2 0x2F35 JUMP JUMPDEST JUMPDEST PUSH2 0x34F7 DUP9 DUP3 DUP10 ADD PUSH2 0x33AC JUMP JUMPDEST SWAP4 POP POP PUSH1 0x60 DUP7 ADD CALLDATALOAD PUSH8 0xFFFFFFFFFFFFFFFF DUP2 GT ISZERO PUSH2 0x3518 JUMPI PUSH2 0x3517 PUSH2 0x2F35 JUMP JUMPDEST JUMPDEST PUSH2 0x3524 DUP9 DUP3 DUP10 ADD PUSH2 0x33AC JUMP JUMPDEST SWAP3 POP POP PUSH1 0x80 DUP7 ADD CALLDATALOAD PUSH8 0xFFFFFFFFFFFFFFFF DUP2 GT ISZERO PUSH2 0x3545 JUMPI PUSH2 0x3544 PUSH2 0x2F35 JUMP JUMPDEST JUMPDEST PUSH2 0x3551 DUP9 DUP3 DUP10 ADD PUSH2 0x3461 JUMP JUMPDEST SWAP2 POP POP SWAP3 SWAP6 POP SWAP3 SWAP6 SWAP1 SWAP4 POP JUMP JUMPDEST PUSH1 0x0 PUSH8 0xFFFFFFFFFFFFFFFF DUP3 GT ISZERO PUSH2 0x3579 JUMPI PUSH2 0x3578 PUSH2 0x3297 JUMP JUMPDEST JUMPDEST PUSH2 0x3582 DUP3 PUSH2 0x3166 JUMP JUMPDEST SWAP1 POP PUSH1 0x20 DUP2 ADD SWAP1 POP SWAP2 SWAP1 POP JUMP JUMPDEST PUSH1 0x0 PUSH2 0x35A2 PUSH2 0x359D DUP5 PUSH2 0x355E JUMP JUMPDEST PUSH2 0x32F7 JUMP JUMPDEST SWAP1 POP DUP3 DUP2 MSTORE PUSH1 0x20 DUP2 ADD DUP5 DUP5 DUP5 ADD GT ISZERO PUSH2 0x35BE JUMPI PUSH2 0x35BD PUSH2 0x33DA JUMP JUMPDEST JUMPDEST PUSH2 0x35C9 DUP5 DUP3 DUP6 PUSH2 0x3410 JUMP JUMPDEST POP SWAP4 SWAP3 POP POP POP JUMP JUMPDEST PUSH1 0x0 DUP3 PUSH1 0x1F DUP4 ADD SLT PUSH2 0x35E6 JUMPI PUSH2 0x35E5 PUSH2 0x3292 JUMP JUMPDEST JUMPDEST DUP2 CALLDATALOAD PUSH2 0x35F6 DUP5 DUP3 PUSH1 0x20 DUP7 ADD PUSH2 0x358F JUMP JUMPDEST SWAP2 POP POP SWAP3 SWAP2 POP POP JUMP JUMPDEST PUSH1 0x0 DUP1 PUSH1 0x0 PUSH1 0x60 DUP5 DUP7 SUB SLT ISZERO PUSH2 0x3618 JUMPI PUSH2 0x3617 PUSH2 0x2F30 JUMP JUMPDEST JUMPDEST PUSH1 0x0 DUP5 ADD CALLDATALOAD PUSH8 0xFFFFFFFFFFFFFFFF DUP2 GT ISZERO PUSH2 0x3636 JUMPI PUSH2 0x3635 PUSH2 0x2F35 JUMP JUMPDEST JUMPDEST PUSH2 0x3642 DUP7 DUP3 DUP8 ADD PUSH2 0x35D1 JUMP JUMPDEST SWAP4 POP POP PUSH1 0x20 PUSH2 0x3653 DUP7 DUP3 DUP8 ADD PUSH2 0x2F83 JUMP JUMPDEST SWAP3 POP POP PUSH1 0x40 PUSH2 0x3664 DUP7 DUP3 DUP8 ADD PUSH2 0x2F83 JUMP JUMPDEST SWAP2 POP POP SWAP3 POP SWAP3 POP SWAP3 JUMP JUMPDEST PUSH1 0x0 PUSH8 0xFFFFFFFFFFFFFFFF DUP3 GT ISZERO PUSH2 0x3689 JUMPI PUSH2 0x3688 PUSH2 0x3297 JUMP JUMPDEST JUMPDEST PUSH1 0x20 DUP3 MUL SWAP1 POP PUSH1 0x20 DUP2 ADD SWAP1 POP SWAP2 SWAP1 POP JUMP JUMPDEST PUSH1 0x0 PUSH2 0x36AD PUSH2 0x36A8 DUP5 PUSH2 0x366E JUMP JUMPDEST PUSH2 0x32F7 JUMP JUMPDEST SWAP1 POP DUP1 DUP4 DUP3 MSTORE PUSH1 0x20 DUP3 ADD SWAP1 POP PUSH1 0x20 DUP5 MUL DUP4 ADD DUP6 DUP2 GT ISZERO PUSH2 0x36D0 JUMPI PUSH2 0x36CF PUSH2 0x333E JUMP JUMPDEST JUMPDEST DUP4 JUMPDEST DUP2 DUP2 LT ISZERO PUSH2 0x36F9 JUMPI DUP1 PUSH2 0x36E5 DUP9 DUP3 PUSH2 0x2F83 JUMP JUMPDEST DUP5 MSTORE PUSH1 0x20 DUP5 ADD SWAP4 POP POP PUSH1 0x20 DUP2 ADD SWAP1 POP PUSH2 0x36D2 JUMP JUMPDEST POP POP POP SWAP4 SWAP3 POP POP POP JUMP JUMPDEST PUSH1 0x0 DUP3 PUSH1 0x1F DUP4 ADD SLT PUSH2 0x3718 JUMPI PUSH2 0x3717 PUSH2 0x3292 JUMP JUMPDEST JUMPDEST DUP2 CALLDATALOAD PUSH2 0x3728 DUP5 DUP3 PUSH1 0x20 DUP7 ADD PUSH2 0x369A JUMP JUMPDEST SWAP2 POP POP SWAP3 SWAP2 POP POP JUMP JUMPDEST PUSH1 0x0 DUP1 PUSH1 0x40 DUP4 DUP6 SUB SLT ISZERO PUSH2 0x3748 JUMPI PUSH2 0x3747 PUSH2 0x2F30 JUMP JUMPDEST JUMPDEST PUSH1 0x0 DUP4 ADD CALLDATALOAD PUSH8 0xFFFFFFFFFFFFFFFF DUP2 GT ISZERO PUSH2 0x3766 JUMPI PUSH2 0x3765 PUSH2 0x2F35 JUMP JUMPDEST JUMPDEST PUSH2 0x3772 DUP6 DUP3 DUP7 ADD PUSH2 0x3703 JUMP JUMPDEST SWAP3 POP POP PUSH1 0x20 DUP4 ADD CALLDATALOAD PUSH8 0xFFFFFFFFFFFFFFFF DUP2 GT ISZERO PUSH2 0x3793 JUMPI PUSH2 0x3792 PUSH2 0x2F35 JUMP JUMPDEST JUMPDEST PUSH2 0x379F DUP6 DUP3 DUP7 ADD PUSH2 0x33AC JUMP JUMPDEST SWAP2 POP POP SWAP3 POP SWAP3 SWAP1 POP JUMP JUMPDEST PUSH1 0x0 DUP2 MLOAD SWAP1 POP SWAP2 SWAP1 POP JUMP JUMPDEST PUSH1 0x0 DUP3 DUP3 MSTORE PUSH1 0x20 DUP3 ADD SWAP1 POP SWAP3 SWAP2 POP POP JUMP JUMPDEST PUSH1 0x0 DUP2 SWAP1 POP PUSH1 0x20 DUP3 ADD SWAP1 POP SWAP2 SWAP1 POP JUMP JUMPDEST PUSH2 0x37DE DUP2 PUSH2 0x2F98 JUMP JUMPDEST DUP3 MSTORE POP POP JUMP JUMPDEST PUSH1 0x0 PUSH2 0x37F0 DUP4 DUP4 PUSH2 0x37D5 JUMP JUMPDEST PUSH1 0x20 DUP4 ADD SWAP1 POP SWAP3 SWAP2 POP POP JUMP JUMPDEST PUSH1 0x0 PUSH1 0x20 DUP3 ADD SWAP1 POP SWAP2 SWAP1 POP JUMP JUMPDEST PUSH1 0x0 PUSH2 0x3814 DUP3 PUSH2 0x37A9 JUMP JUMPDEST PUSH2 0x381E DUP2 DUP6 PUSH2 0x37B4 JUMP JUMPDEST SWAP4 POP PUSH2 0x3829 DUP4 PUSH2 0x37C5 JUMP JUMPDEST DUP1 PUSH1 0x0 JUMPDEST DUP4 DUP2 LT ISZERO PUSH2 0x385A JUMPI DUP2 MLOAD PUSH2 0x3841 DUP9 DUP3 PUSH2 0x37E4 JUMP JUMPDEST SWAP8 POP PUSH2 0x384C DUP4 PUSH2 0x37FC JUMP JUMPDEST SWAP3 POP POP PUSH1 0x1 DUP2 ADD SWAP1 POP PUSH2 0x382D JUMP JUMPDEST POP DUP6 SWAP4 POP POP POP POP SWAP3 SWAP2 POP POP JUMP JUMPDEST PUSH1 0x0 PUSH1 0x20 DUP3 ADD SWAP1 POP DUP2 DUP2 SUB PUSH1 0x0 DUP4 ADD MSTORE PUSH2 0x3881 DUP2 DUP5 PUSH2 0x3809 JUMP JUMPDEST SWAP1 POP SWAP3 SWAP2 POP POP JUMP JUMPDEST PUSH1 0x0 DUP1 PUSH1 0x0 DUP1 PUSH1 0x80 DUP6 DUP8 SUB SLT ISZERO PUSH2 0x38A3 JUMPI PUSH2 0x38A2 PUSH2 0x2F30 JUMP JUMPDEST JUMPDEST PUSH1 0x0 PUSH2 0x38B1 DUP8 DUP3 DUP9 ADD PUSH2 0x2F83 JUMP JUMPDEST SWAP5 POP POP PUSH1 0x20 PUSH2 0x38C2 DUP8 DUP3 DUP9 ADD PUSH2 0x2FB9 JUMP JUMPDEST SWAP4 POP POP PUSH1 0x40 PUSH2 0x38D3 DUP8 DUP3 DUP9 ADD PUSH2 0x2FB9 JUMP JUMPDEST SWAP3 POP POP PUSH1 0x60 DUP6 ADD CALLDATALOAD PUSH8 0xFFFFFFFFFFFFFFFF DUP2 GT ISZERO PUSH2 0x38F4 JUMPI PUSH2 0x38F3 PUSH2 0x2F35 JUMP JUMPDEST JUMPDEST PUSH2 0x3900 DUP8 DUP3 DUP9 ADD PUSH2 0x3461 JUMP JUMPDEST SWAP2 POP POP SWAP3 SWAP6 SWAP2 SWAP5 POP SWAP3 POP JUMP JUMPDEST PUSH1 0x0 PUSH12 0xFFFFFFFFFFFFFFFFFFFFFFFF DUP3 AND SWAP1 POP SWAP2 SWAP1 POP JUMP JUMPDEST PUSH2 0x392D DUP2 PUSH2 0x390C JUMP JUMPDEST DUP2 EQ PUSH2 0x3938 JUMPI PUSH1 0x0 DUP1 REVERT JUMPDEST POP JUMP JUMPDEST PUSH1 0x0 DUP2 CALLDATALOAD SWAP1 POP PUSH2 0x394A DUP2 PUSH2 0x3924 JUMP JUMPDEST SWAP3 SWAP2 POP POP JUMP JUMPDEST PUSH1 0x0 DUP1 PUSH1 0x0 DUP1 PUSH1 0x0 DUP1 PUSH1 0xC0 DUP8 DUP10 SUB SLT ISZERO PUSH2 0x396D JUMPI PUSH2 0x396C PUSH2 0x2F30 JUMP JUMPDEST JUMPDEST PUSH1 0x0 PUSH2 0x397B DUP10 DUP3 DUP11 ADD PUSH2 0x2FB9 JUMP JUMPDEST SWAP7 POP POP PUSH1 0x20 PUSH2 0x398C DUP10 DUP3 DUP11 ADD PUSH2 0x2FB9 JUMP JUMPDEST SWAP6 POP POP PUSH1 0x40 PUSH2 0x399D DUP10 DUP3 DUP11 ADD PUSH2 0x2F83 JUMP JUMPDEST SWAP5 POP POP PUSH1 0x60 PUSH2 0x39AE DUP10 DUP3 DUP11 ADD PUSH2 0x2F83 JUMP JUMPDEST SWAP4 POP POP PUSH1 0x80 PUSH2 0x39BF DUP10 DUP3 DUP11 ADD PUSH2 0x393B JUMP JUMPDEST SWAP3 POP POP PUSH1 0xA0 DUP8 ADD CALLDATALOAD PUSH8 0xFFFFFFFFFFFFFFFF DUP2 GT ISZERO PUSH2 0x39E0 JUMPI PUSH2 0x39DF PUSH2 0x2F35 JUMP JUMPDEST JUMPDEST PUSH2 0x39EC DUP10 DUP3 DUP11 ADD PUSH2 0x35D1 JUMP JUMPDEST SWAP2 POP POP SWAP3 SWAP6 POP SWAP3 SWAP6 POP SWAP3 SWAP6 JUMP JUMPDEST PUSH2 0x3A02 DUP2 PUSH2 0x30BD JUMP JUMPDEST DUP2 EQ PUSH2 0x3A0D JUMPI PUSH1 0x0 DUP1 REVERT JUMPDEST POP JUMP JUMPDEST PUSH1 0x0 DUP2 CALLDATALOAD SWAP1 POP PUSH2 0x3A1F DUP2 PUSH2 0x39F9 JUMP JUMPDEST SWAP3 SWAP2 POP POP JUMP JUMPDEST PUSH1 0x0 DUP1 PUSH1 0x40 DUP4 DUP6 SUB SLT ISZERO PUSH2 0x3A3C JUMPI PUSH2 0x3A3B PUSH2 0x2F30 JUMP JUMPDEST JUMPDEST PUSH1 0x0 PUSH2 0x3A4A DUP6 DUP3 DUP7 ADD PUSH2 0x2F83 JUMP JUMPDEST SWAP3 POP POP PUSH1 0x20 PUSH2 0x3A5B DUP6 DUP3 DUP7 ADD PUSH2 0x3A10 JUMP JUMPDEST SWAP2 POP POP SWAP3 POP SWAP3 SWAP1 POP JUMP JUMPDEST PUSH1 0x0 DUP1 PUSH1 0x40 DUP4 DUP6 SUB SLT ISZERO PUSH2 0x3A7C JUMPI PUSH2 0x3A7B PUSH2 0x2F30 JUMP JUMPDEST JUMPDEST PUSH1 0x0 PUSH2 0x3A8A DUP6 DUP3 DUP7 ADD PUSH2 0x2F83 JUMP JUMPDEST SWAP3 POP POP PUSH1 0x20 PUSH2 0x3A9B DUP6 DUP3 DUP7 ADD PUSH2 0x2F83 JUMP JUMPDEST SWAP2 POP POP SWAP3 POP SWAP3 SWAP1 POP JUMP JUMPDEST PUSH1 0x0 DUP1 PUSH1 0x0 DUP1 PUSH1 0x0 PUSH1 0xA0 DUP7 DUP9 SUB SLT ISZERO PUSH2 0x3AC1 JUMPI PUSH2 0x3AC0 PUSH2 0x2F30 JUMP JUMPDEST JUMPDEST PUSH1 0x0 PUSH2 0x3ACF DUP9 DUP3 DUP10 ADD PUSH2 0x2F83 JUMP JUMPDEST SWAP6 POP POP PUSH1 0x20 PUSH2 0x3AE0 DUP9 DUP3 DUP10 ADD PUSH2 0x2F83 JUMP JUMPDEST SWAP5 POP POP PUSH1 0x40 PUSH2 0x3AF1 DUP9 DUP3 DUP10 ADD PUSH2 0x2FB9 JUMP JUMPDEST SWAP4 POP POP PUSH1 0x60 PUSH2 0x3B02 DUP9 DUP3 DUP10 ADD PUSH2 0x2FB9 JUMP JUMPDEST SWAP3 POP POP PUSH1 0x80 DUP7 ADD CALLDATALOAD PUSH8 0xFFFFFFFFFFFFFFFF DUP2 GT ISZERO PUSH2 0x3B23 JUMPI PUSH2 0x3B22 PUSH2 0x2F35 JUMP JUMPDEST JUMPDEST PUSH2 0x3B2F DUP9 DUP3 DUP10 ADD PUSH2 0x3461 JUMP JUMPDEST SWAP2 POP POP SWAP3 SWAP6 POP SWAP3 SWAP6 SWAP1 SWAP4 POP JUMP JUMPDEST PUSH32 0x455243313135353A2061646472657373207A65726F206973206E6F7420612076 PUSH1 0x0 DUP3 ADD MSTORE PUSH32 0x616C6964206F776E657200000000000000000000000000000000000000000000 PUSH1 0x20 DUP3 ADD MSTORE POP JUMP JUMPDEST PUSH1 0x0 PUSH2 0x3B98 PUSH1 0x2A DUP4 PUSH2 0x312B JUMP JUMPDEST SWAP2 POP PUSH2 0x3BA3 DUP3 PUSH2 0x3B3C JUMP JUMPDEST PUSH1 0x40 DUP3 ADD SWAP1 POP SWAP2 SWAP1 POP JUMP JUMPDEST PUSH1 0x0 PUSH1 0x20 DUP3 ADD SWAP1 POP DUP2 DUP2 SUB PUSH1 0x0 DUP4 ADD MSTORE PUSH2 0x3BC7 DUP2 PUSH2 0x3B8B JUMP JUMPDEST SWAP1 POP SWAP2 SWAP1 POP JUMP JUMPDEST PUSH32 0x4E487B7100000000000000000000000000000000000000000000000000000000 PUSH1 0x0 MSTORE PUSH1 0x22 PUSH1 0x4 MSTORE PUSH1 0x24 PUSH1 0x0 REVERT JUMPDEST PUSH1 0x0 PUSH1 0x2 DUP3 DIV SWAP1 POP PUSH1 0x1 DUP3 AND DUP1 PUSH2 0x3C15 JUMPI PUSH1 0x7F DUP3 AND SWAP2 POP JUMPDEST PUSH1 0x20 DUP3 LT DUP2 SUB PUSH2 0x3C28 JUMPI PUSH2 0x3C27 PUSH2 0x3BCE JUMP JUMPDEST JUMPDEST POP SWAP2 SWAP1 POP JUMP JUMPDEST PUSH1 0x0 PUSH1 0x40 DUP3 ADD SWAP1 POP PUSH2 0x3C43 PUSH1 0x0 DUP4 ADD DUP6 PUSH2 0x31FF JUMP JUMPDEST PUSH2 0x3C50 PUSH1 0x20 DUP4 ADD DUP5 PUSH2 0x31FF JUMP JUMPDEST SWAP4 SWAP3 POP POP POP JUMP JUMPDEST PUSH32 0x4E487B7100000000000000000000000000000000000000000000000000000000 PUSH1 0x0 MSTORE PUSH1 0x11 PUSH1 0x4 MSTORE PUSH1 0x24 PUSH1 0x0 REVERT JUMPDEST PUSH1 0x0 PUSH2 0x3C91 DUP3 PUSH2 0x2F98 JUMP JUMPDEST SWAP2 POP PUSH2 0x3C9C DUP4 PUSH2 0x2F98 JUMP JUMPDEST SWAP3 POP DUP3 DUP3 MUL PUSH2 0x3CAA DUP2 PUSH2 0x2F98 JUMP JUMPDEST SWAP2 POP DUP3 DUP3 DIV DUP5 EQ DUP4 ISZERO OR PUSH2 0x3CC1 JUMPI PUSH2 0x3CC0 PUSH2 0x3C57 JUMP JUMPDEST JUMPDEST POP SWAP3 SWAP2 POP POP JUMP JUMPDEST PUSH32 0x4E487B7100000000000000000000000000000000000000000000000000000000 PUSH1 0x0 MSTORE PUSH1 0x12 PUSH1 0x4 MSTORE PUSH1 0x24 PUSH1 0x0 REVERT JUMPDEST PUSH1 0x0 PUSH2 0x3D02 DUP3 PUSH2 0x2F98 JUMP JUMPDEST SWAP2 POP PUSH2 0x3D0D DUP4 PUSH2 0x2F98 JUMP JUMPDEST SWAP3 POP DUP3 PUSH2 0x3D1D JUMPI PUSH2 0x3D1C PUSH2 0x3CC8 JUMP JUMPDEST JUMPDEST DUP3 DUP3 DIV SWAP1 POP SWAP3 SWAP2 POP POP JUMP JUMPDEST PUSH32 0x455243313135353A2063616C6C6572206973206E6F7420746F6B656E206F776E PUSH1 0x0 DUP3 ADD MSTORE PUSH32 0x6572206F7220617070726F766564000000000000000000000000000000000000 PUSH1 0x20 DUP3 ADD MSTORE POP JUMP JUMPDEST PUSH1 0x0 PUSH2 0x3D84 PUSH1 0x2E DUP4 PUSH2 0x312B JUMP JUMPDEST SWAP2 POP PUSH2 0x3D8F DUP3 PUSH2 0x3D28 JUMP JUMPDEST PUSH1 0x40 DUP3 ADD SWAP1 POP SWAP2 SWAP1 POP JUMP JUMPDEST PUSH1 0x0 PUSH1 0x20 DUP3 ADD SWAP1 POP DUP2 DUP2 SUB PUSH1 0x0 DUP4 ADD MSTORE PUSH2 0x3DB3 DUP2 PUSH2 0x3D77 JUMP JUMPDEST SWAP1 POP SWAP2 SWAP1 POP JUMP JUMPDEST PUSH32 0x496E697469616C697A61626C653A20636F6E747261637420697320616C726561 PUSH1 0x0 DUP3 ADD MSTORE PUSH32 0x647920696E697469616C697A6564000000000000000000000000000000000000 PUSH1 0x20 DUP3 ADD MSTORE POP JUMP JUMPDEST PUSH1 0x0 PUSH2 0x3E16 PUSH1 0x2E DUP4 PUSH2 0x312B JUMP JUMPDEST SWAP2 POP PUSH2 0x3E21 DUP3 PUSH2 0x3DBA JUMP JUMPDEST PUSH1 0x40 DUP3 ADD SWAP1 POP SWAP2 SWAP1 POP JUMP JUMPDEST PUSH1 0x0 PUSH1 0x20 DUP3 ADD SWAP1 POP DUP2 DUP2 SUB PUSH1 0x0 DUP4 ADD MSTORE PUSH2 0x3E45 DUP2 PUSH2 0x3E09 JUMP JUMPDEST SWAP1 POP SWAP2 SWAP1 POP JUMP JUMPDEST PUSH1 0x0 DUP2 SWAP1 POP SWAP2 SWAP1 POP JUMP JUMPDEST PUSH1 0x0 PUSH1 0xFF DUP3 AND SWAP1 POP SWAP2 SWAP1 POP JUMP JUMPDEST PUSH1 0x0 DUP2 SWAP1 POP SWAP2 SWAP1 POP JUMP JUMPDEST PUSH1 0x0 PUSH2 0x3E88 PUSH2 0x3E83 PUSH2 0x3E7E DUP5 PUSH2 0x3E4C JUMP JUMPDEST PUSH2 0x3E63 JUMP JUMPDEST PUSH2 0x3E56 JUMP JUMPDEST SWAP1 POP SWAP2 SWAP1 POP JUMP JUMPDEST PUSH2 0x3E98 DUP2 PUSH2 0x3E6D JUMP JUMPDEST DUP3 MSTORE POP POP JUMP JUMPDEST PUSH1 0x0 PUSH1 0x20 DUP3 ADD SWAP1 POP PUSH2 0x3EB3 PUSH1 0x0 DUP4 ADD DUP5 PUSH2 0x3E8F JUMP JUMPDEST SWAP3 SWAP2 POP POP JUMP JUMPDEST PUSH32 0x455243313135353A206163636F756E747320616E6420696473206C656E677468 PUSH1 0x0 DUP3 ADD MSTORE PUSH32 0x206D69736D617463680000000000000000000000000000000000000000000000 PUSH1 0x20 DUP3 ADD MSTORE POP JUMP JUMPDEST PUSH1 0x0 PUSH2 0x3F15 PUSH1 0x29 DUP4 PUSH2 0x312B JUMP JUMPDEST SWAP2 POP PUSH2 0x3F20 DUP3 PUSH2 0x3EB9 JUMP JUMPDEST PUSH1 0x40 DUP3 ADD SWAP1 POP SWAP2 SWAP1 POP JUMP JUMPDEST PUSH1 0x0 PUSH1 0x20 DUP3 ADD SWAP1 POP DUP2 DUP2 SUB PUSH1 0x0 DUP4 ADD MSTORE PUSH2 0x3F44 DUP2 PUSH2 0x3F08 JUMP JUMPDEST SWAP1 POP SWAP2 SWAP1 POP JUMP JUMPDEST PUSH32 0x4E487B7100000000000000000000000000000000000000000000000000000000 PUSH1 0x0 MSTORE PUSH1 0x32 PUSH1 0x4 MSTORE PUSH1 0x24 PUSH1 0x0 REVERT JUMPDEST PUSH1 0x0 PUSH2 0x3F85 DUP3 PUSH2 0x2F98 JUMP JUMPDEST SWAP2 POP PUSH32 0xFFFFFFFFFFFFFFFFFFFFFFFFFFFFFFFFFFFFFFFFFFFFFFFFFFFFFFFFFFFFFFFF DUP3 SUB PUSH2 0x3FB7 JUMPI PUSH2 0x3FB6 PUSH2 0x3C57 JUMP JUMPDEST JUMPDEST PUSH1 0x1 DUP3 ADD SWAP1 POP SWAP2 SWAP1 POP JUMP JUMPDEST PUSH1 0x0 PUSH2 0x3FCD DUP3 PUSH2 0x2F98 JUMP JUMPDEST SWAP2 POP PUSH2 0x3FD8 DUP4 PUSH2 0x2F98 JUMP JUMPDEST SWAP3 POP DUP3 DUP3 ADD SWAP1 POP DUP1 DUP3 GT ISZERO PUSH2 0x3FF0 JUMPI PUSH2 0x3FEF PUSH2 0x3C57 JUMP JUMPDEST JUMPDEST SWAP3 SWAP2 POP POP JUMP JUMPDEST PUSH1 0x0 PUSH1 0x60 DUP3 ADD SWAP1 POP PUSH2 0x400B PUSH1 0x0 DUP4 ADD DUP7 PUSH2 0x300E JUMP JUMPDEST PUSH2 0x4018 PUSH1 0x20 DUP4 ADD DUP6 PUSH2 0x300E JUMP JUMPDEST PUSH2 0x4025 PUSH1 0x40 DUP4 ADD DUP5 PUSH2 0x31FF JUMP JUMPDEST SWAP5 SWAP4 POP POP POP POP JUMP JUMPDEST PUSH32 0x455243313135353A2069647320616E6420616D6F756E7473206C656E67746820 PUSH1 0x0 DUP3 ADD MSTORE PUSH32 0x6D69736D61746368000000000000000000000000000000000000000000000000 PUSH1 0x20 DUP3 ADD MSTORE POP JUMP JUMPDEST PUSH1 0x0 PUSH2 0x4089 PUSH1 0x28 DUP4 PUSH2 0x312B JUMP JUMPDEST SWAP2 POP PUSH2 0x4094 DUP3 PUSH2 0x402D JUMP JUMPDEST PUSH1 0x40 DUP3 ADD SWAP1 POP SWAP2 SWAP1 POP JUMP JUMPDEST PUSH1 0x0 PUSH1 0x20 DUP3 ADD SWAP1 POP DUP2 DUP2 SUB PUSH1 0x0 DUP4 ADD MSTORE PUSH2 0x40B8 DUP2 PUSH2 0x407C JUMP JUMPDEST SWAP1 POP SWAP2 SWAP1 POP JUMP JUMPDEST PUSH32 0x455243313135353A207472616E7366657220746F20746865207A65726F206164 PUSH1 0x0 DUP3 ADD MSTORE PUSH32 0x6472657373000000000000000000000000000000000000000000000000000000 PUSH1 0x20 DUP3 ADD MSTORE POP JUMP JUMPDEST PUSH1 0x0 PUSH2 0x411B PUSH1 0x25 DUP4 PUSH2 0x312B JUMP JUMPDEST SWAP2 POP PUSH2 0x4126 DUP3 PUSH2 0x40BF JUMP JUMPDEST PUSH1 0x40 DUP3 ADD SWAP1 POP SWAP2 SWAP1 POP JUMP JUMPDEST PUSH1 0x0 PUSH1 0x20 DUP3 ADD SWAP1 POP DUP2 DUP2 SUB PUSH1 0x0 DUP4 ADD MSTORE PUSH2 0x414A DUP2 PUSH2 0x410E JUMP JUMPDEST SWAP1 POP SWAP2 SWAP1 POP JUMP JUMPDEST PUSH32 0x455243313135353A20696E73756666696369656E742062616C616E636520666F PUSH1 0x0 DUP3 ADD MSTORE PUSH32 0x72207472616E7366657200000000000000000000000000000000000000000000 PUSH1 0x20 DUP3 ADD MSTORE POP JUMP JUMPDEST PUSH1 0x0 PUSH2 0x41AD PUSH1 0x2A DUP4 PUSH2 0x312B JUMP JUMPDEST SWAP2 POP PUSH2 0x41B8 DUP3 PUSH2 0x4151 JUMP JUMPDEST PUSH1 0x40 DUP3 ADD SWAP1 POP SWAP2 SWAP1 POP JUMP JUMPDEST PUSH1 0x0 PUSH1 0x20 DUP3 ADD SWAP1 POP DUP2 DUP2 SUB PUSH1 0x0 DUP4 ADD MSTORE PUSH2 0x41DC DUP2 PUSH2 0x41A0 JUMP JUMPDEST SWAP1 POP SWAP2 SWAP1 POP JUMP JUMPDEST PUSH1 0x0 PUSH1 0x40 DUP3 ADD SWAP1 POP DUP2 DUP2 SUB PUSH1 0x0 DUP4 ADD MSTORE PUSH2 0x41FD DUP2 DUP6 PUSH2 0x3809 JUMP JUMPDEST SWAP1 POP DUP2 DUP2 SUB PUSH1 0x20 DUP4 ADD MSTORE PUSH2 0x4211 DUP2 DUP5 PUSH2 0x3809 JUMP JUMPDEST SWAP1 POP SWAP4 SWAP3 POP POP POP JUMP JUMPDEST PUSH32 0x496E697469616C697A61626C653A20636F6E7472616374206973206E6F742069 PUSH1 0x0 DUP3 ADD MSTORE PUSH32 0x6E697469616C697A696E67000000000000000000000000000000000000000000 PUSH1 0x20 DUP3 ADD MSTORE POP JUMP JUMPDEST PUSH1 0x0 PUSH2 0x4276 PUSH1 0x2B DUP4 PUSH2 0x312B JUMP JUMPDEST SWAP2 POP PUSH2 0x4281 DUP3 PUSH2 0x421A JUMP JUMPDEST PUSH1 0x40 DUP3 ADD SWAP1 POP SWAP2 SWAP1 POP JUMP JUMPDEST PUSH1 0x0 PUSH1 0x20 DUP3 ADD SWAP1 POP DUP2 DUP2 SUB PUSH1 0x0 DUP4 ADD MSTORE PUSH2 0x42A5 DUP2 PUSH2 0x4269 JUMP JUMPDEST SWAP1 POP SWAP2 SWAP1 POP JUMP JUMPDEST PUSH32 0x455243313135353A206D696E7420746F20746865207A65726F20616464726573 PUSH1 0x0 DUP3 ADD MSTORE PUSH32 0x7300000000000000000000000000000000000000000000000000000000000000 PUSH1 0x20 DUP3 ADD MSTORE POP JUMP JUMPDEST PUSH1 0x0 PUSH2 0x4308 PUSH1 0x21 DUP4 PUSH2 0x312B JUMP JUMPDEST SWAP2 POP PUSH2 0x4313 DUP3 PUSH2 0x42AC JUMP JUMPDEST PUSH1 0x40 DUP3 ADD SWAP1 POP SWAP2 SWAP1 POP JUMP JUMPDEST PUSH1 0x0 PUSH1 0x20 DUP3 ADD SWAP1 POP DUP2 DUP2 SUB PUSH1 0x0 DUP4 ADD MSTORE PUSH2 0x4337 DUP2 PUSH2 0x42FB JUMP JUMPDEST SWAP1 POP SWAP2 SWAP1 POP JUMP JUMPDEST PUSH1 0x0 PUSH1 0x40 DUP3 ADD SWAP1 POP PUSH2 0x4353 PUSH1 0x0 DUP4 ADD DUP6 PUSH2 0x300E JUMP JUMPDEST PUSH2 0x4360 PUSH1 0x20 DUP4 ADD DUP5 PUSH2 0x300E JUMP JUMPDEST SWAP4 SWAP3 POP POP POP JUMP JUMPDEST PUSH32 0x5265656E7472616E637947756172643A207265656E7472616E742063616C6C00 PUSH1 0x0 DUP3 ADD MSTORE POP JUMP JUMPDEST PUSH1 0x0 PUSH2 0x439D PUSH1 0x1F DUP4 PUSH2 0x312B JUMP JUMPDEST SWAP2 POP PUSH2 0x43A8 DUP3 PUSH2 0x4367 JUMP JUMPDEST PUSH1 0x20 DUP3 ADD SWAP1 POP SWAP2 SWAP1 POP JUMP JUMPDEST PUSH1 0x0 PUSH1 0x20 DUP3 ADD SWAP1 POP DUP2 DUP2 SUB PUSH1 0x0 DUP4 ADD MSTORE PUSH2 0x43CC DUP2 PUSH2 0x4390 JUMP JUMPDEST SWAP1 POP SWAP2 SWAP1 POP JUMP JUMPDEST PUSH32 0x455243323938313A20726F79616C7479206665652077696C6C20657863656564 PUSH1 0x0 DUP3 ADD MSTORE PUSH32 0x2073616C65507269636500000000000000000000000000000000000000000000 PUSH1 0x20 DUP3 ADD MSTORE POP JUMP JUMPDEST PUSH1 0x0 PUSH2 0x442F PUSH1 0x2A DUP4 PUSH2 0x312B JUMP JUMPDEST SWAP2 POP PUSH2 0x443A DUP3 PUSH2 0x43D3 JUMP JUMPDEST PUSH1 0x40 DUP3 ADD SWAP1 POP SWAP2 SWAP1 POP JUMP JUMPDEST PUSH1 0x0 PUSH1 0x20 DUP3 ADD SWAP1 POP DUP2 DUP2 SUB PUSH1 0x0 DUP4 ADD MSTORE PUSH2 0x445E DUP2 PUSH2 0x4422 JUMP JUMPDEST SWAP1 POP SWAP2 SWAP1 POP JUMP JUMPDEST PUSH32 0x455243323938313A20496E76616C696420706172616D65746572730000000000 PUSH1 0x0 DUP3 ADD MSTORE POP JUMP JUMPDEST PUSH1 0x0 PUSH2 0x449B PUSH1 0x1B DUP4 PUSH2 0x312B JUMP JUMPDEST SWAP2 POP PUSH2 0x44A6 DUP3 PUSH2 0x4465 JUMP JUMPDEST PUSH1 0x20 DUP3 ADD SWAP1 POP SWAP2 SWAP1 POP JUMP JUMPDEST PUSH1 0x0 PUSH1 0x20 DUP3 ADD SWAP1 POP DUP2 DUP2 SUB PUSH1 0x0 DUP4 ADD MSTORE PUSH2 0x44CA DUP2 PUSH2 0x448E JUMP JUMPDEST SWAP1 POP SWAP2 SWAP1 POP JUMP JUMPDEST PUSH1 0x0 DUP2 SWAP1 POP DUP2 PUSH1 0x0 MSTORE PUSH1 0x20 PUSH1 0x0 KECCAK256 SWAP1 POP SWAP2 SWAP1 POP JUMP JUMPDEST PUSH1 0x0 PUSH1 0x20 PUSH1 0x1F DUP4 ADD DIV SWAP1 POP SWAP2 SWAP1 POP JUMP JUMPDEST PUSH1 0x0 DUP3 DUP3 SHL SWAP1 POP SWAP3 SWAP2 POP POP JUMP JUMPDEST PUSH1 0x0 PUSH1 0x8 DUP4 MUL PUSH2 0x4533 PUSH32 0xFFFFFFFFFFFFFFFFFFFFFFFFFFFFFFFFFFFFFFFFFFFFFFFFFFFFFFFFFFFFFFFF DUP3 PUSH2 0x44F6 JUMP JUMPDEST PUSH2 0x453D DUP7 DUP4 PUSH2 0x44F6 JUMP JUMPDEST SWAP6 POP DUP1 NOT DUP5 AND SWAP4 POP DUP1 DUP7 AND DUP5 OR SWAP3 POP POP POP SWAP4 SWAP3 POP POP POP JUMP JUMPDEST PUSH1 0x0 PUSH2 0x4570 PUSH2 0x456B PUSH2 0x4566 DUP5 PUSH2 0x2F98 JUMP JUMPDEST PUSH2 0x3E63 JUMP JUMPDEST PUSH2 0x2F98 JUMP JUMPDEST SWAP1 POP SWAP2 SWAP1 POP JUMP JUMPDEST PUSH1 0x0 DUP2 SWAP1 POP SWAP2 SWAP1 POP JUMP JUMPDEST PUSH2 0x458A DUP4 PUSH2 0x4555 JUMP JUMPDEST PUSH2 0x459E PUSH2 0x4596 DUP3 PUSH2 0x4577 JUMP JUMPDEST DUP5 DUP5 SLOAD PUSH2 0x4503 JUMP JUMPDEST DUP3 SSTORE POP POP POP POP JUMP JUMPDEST PUSH1 0x0 SWAP1 JUMP JUMPDEST PUSH2 0x45B3 PUSH2 0x45A6 JUMP JUMPDEST PUSH2 0x45BE DUP2 DUP5 DUP5 PUSH2 0x4581 JUMP JUMPDEST POP POP POP JUMP JUMPDEST JUMPDEST DUP2 DUP2 LT ISZERO PUSH2 0x45E2 JUMPI PUSH2 0x45D7 PUSH1 0x0 DUP3 PUSH2 0x45AB JUMP JUMPDEST PUSH1 0x1 DUP2 ADD SWAP1 POP PUSH2 0x45C4 JUMP JUMPDEST POP POP JUMP JUMPDEST PUSH1 0x1F DUP3 GT ISZERO PUSH2 0x4627 JUMPI PUSH2 0x45F8 DUP2 PUSH2 0x44D1 JUMP JUMPDEST PUSH2 0x4601 DUP5 PUSH2 0x44E6 JUMP JUMPDEST DUP2 ADD PUSH1 0x20 DUP6 LT ISZERO PUSH2 0x4610 JUMPI DUP2 SWAP1 POP JUMPDEST PUSH2 0x4624 PUSH2 0x461C DUP6 PUSH2 0x44E6 JUMP JUMPDEST DUP4 ADD DUP3 PUSH2 0x45C3 JUMP JUMPDEST POP POP JUMPDEST POP POP POP JUMP JUMPDEST PUSH1 0x0 DUP3 DUP3 SHR SWAP1 POP SWAP3 SWAP2 POP POP JUMP JUMPDEST PUSH1 0x0 PUSH2 0x464A PUSH1 0x0 NOT DUP5 PUSH1 0x8 MUL PUSH2 0x462C JUMP JUMPDEST NOT DUP1 DUP4 AND SWAP2 POP POP SWAP3 SWAP2 POP POP JUMP JUMPDEST PUSH1 0x0 PUSH2 0x4663 DUP4 DUP4 PUSH2 0x4639 JUMP JUMPDEST SWAP2 POP DUP3 PUSH1 0x2 MUL DUP3 OR SWAP1 POP SWAP3 SWAP2 POP POP JUMP JUMPDEST PUSH2 0x467C DUP3 PUSH2 0x3120 JUMP JUMPDEST PUSH8 0xFFFFFFFFFFFFFFFF DUP2 GT ISZERO PUSH2 0x4695 JUMPI PUSH2 0x4694 PUSH2 0x3297 JUMP JUMPDEST JUMPDEST PUSH2 0x469F DUP3 SLOAD PUSH2 0x3BFD JUMP JUMPDEST PUSH2 0x46AA DUP3 DUP3 DUP6 PUSH2 0x45E6 JUMP JUMPDEST PUSH1 0x0 PUSH1 0x20 SWAP1 POP PUSH1 0x1F DUP4 GT PUSH1 0x1 DUP2 EQ PUSH2 0x46DD JUMPI PUSH1 0x0 DUP5 ISZERO PUSH2 0x46CB JUMPI DUP3 DUP8 ADD MLOAD SWAP1 POP JUMPDEST PUSH2 0x46D5 DUP6 DUP3 PUSH2 0x4657 JUMP JUMPDEST DUP7 SSTORE POP PUSH2 0x473D JUMP JUMPDEST PUSH1 0x1F NOT DUP5 AND PUSH2 0x46EB DUP7 PUSH2 0x44D1 JUMP JUMPDEST PUSH1 0x0 JUMPDEST DUP3 DUP2 LT ISZERO PUSH2 0x4713 JUMPI DUP5 DUP10 ADD MLOAD DUP3 SSTORE PUSH1 0x1 DUP3 ADD SWAP2 POP PUSH1 0x20 DUP6 ADD SWAP5 POP PUSH1 0x20 DUP2 ADD SWAP1 POP PUSH2 0x46EE JUMP JUMPDEST DUP7 DUP4 LT ISZERO PUSH2 0x4730 JUMPI DUP5 DUP10 ADD MLOAD PUSH2 0x472C PUSH1 0x1F DUP10 AND DUP3 PUSH2 0x4639 JUMP JUMPDEST DUP4 SSTORE POP JUMPDEST PUSH1 0x1 PUSH1 0x2 DUP9 MUL ADD DUP9 SSTORE POP POP POP JUMPDEST POP POP POP POP POP POP JUMP JUMPDEST PUSH32 0x455243313135353A2073657474696E6720617070726F76616C20737461747573 PUSH1 0x0 DUP3 ADD MSTORE PUSH32 0x20666F722073656C660000000000000000000000000000000000000000000000 PUSH1 0x20 DUP3 ADD MSTORE POP JUMP JUMPDEST PUSH1 0x0 PUSH2 0x47A1 PUSH1 0x29 DUP4 PUSH2 0x312B JUMP JUMPDEST SWAP2 POP PUSH2 0x47AC DUP3 PUSH2 0x4745 JUMP JUMPDEST PUSH1 0x40 DUP3 ADD SWAP1 POP SWAP2 SWAP1 POP JUMP JUMPDEST PUSH1 0x0 PUSH1 0x20 DUP3 ADD SWAP1 POP DUP2 DUP2 SUB PUSH1 0x0 DUP4 ADD MSTORE PUSH2 0x47D0 DUP2 PUSH2 0x4794 JUMP JUMPDEST SWAP1 POP SWAP2 SWAP1 POP JUMP JUMPDEST PUSH1 0x0 DUP2 MLOAD SWAP1 POP SWAP2 SWAP1 POP JUMP JUMPDEST PUSH1 0x0 DUP3 DUP3 MSTORE PUSH1 0x20 DUP3 ADD SWAP1 POP SWAP3 SWAP2 POP POP JUMP JUMPDEST PUSH1 0x0 PUSH2 0x47FE DUP3 PUSH2 0x47D7 JUMP JUMPDEST PUSH2 0x4808 DUP2 DUP6 PUSH2 0x47E2 JUMP JUMPDEST SWAP4 POP PUSH2 0x4818 DUP2 DUP6 PUSH1 0x20 DUP7 ADD PUSH2 0x313C JUMP JUMPDEST PUSH2 0x4821 DUP2 PUSH2 0x3166 JUMP JUMPDEST DUP5 ADD SWAP2 POP POP SWAP3 SWAP2 POP POP JUMP JUMPDEST PUSH1 0x0 PUSH1 0xA0 DUP3 ADD SWAP1 POP PUSH2 0x4841 PUSH1 0x0 DUP4 ADD DUP9 PUSH2 0x31FF JUMP JUMPDEST PUSH2 0x484E PUSH1 0x20 DUP4 ADD DUP8 PUSH2 0x31FF JUMP JUMPDEST DUP2 DUP2 SUB PUSH1 0x40 DUP4 ADD MSTORE PUSH2 0x4860 DUP2 DUP7 PUSH2 0x3809 JUMP JUMPDEST SWAP1 POP DUP2 DUP2 SUB PUSH1 0x60 DUP4 ADD MSTORE PUSH2 0x4874 DUP2 DUP6 PUSH2 0x3809 JUMP JUMPDEST SWAP1 POP DUP2 DUP2 SUB PUSH1 0x80 DUP4 ADD MSTORE PUSH2 0x4888 DUP2 DUP5 PUSH2 0x47F3 JUMP JUMPDEST SWAP1 POP SWAP7 SWAP6 POP POP POP POP POP POP JUMP JUMPDEST PUSH1 0x0 DUP2 MLOAD SWAP1 POP PUSH2 0x48A3 DUP2 PUSH2 0x3064 JUMP JUMPDEST SWAP3 SWAP2 POP POP JUMP JUMPDEST PUSH1 0x0 PUSH1 0x20 DUP3 DUP5 SUB SLT ISZERO PUSH2 0x48BF JUMPI PUSH2 0x48BE PUSH2 0x2F30 JUMP JUMPDEST JUMPDEST PUSH1 0x0 PUSH2 0x48CD DUP5 DUP3 DUP6 ADD PUSH2 0x4894 JUMP JUMPDEST SWAP2 POP POP SWAP3 SWAP2 POP POP JUMP JUMPDEST PUSH1 0x0 DUP2 PUSH1 0xE0 SHR SWAP1 POP SWAP2 SWAP1 POP JUMP JUMPDEST PUSH1 0x0 PUSH1 0x3 RETURNDATASIZE GT ISZERO PUSH2 0x4902 JUMPI PUSH1 0x4 PUSH1 0x0 DUP1 RETURNDATACOPY PUSH2 0x48FF PUSH1 0x0 MLOAD PUSH2 0x48D6 JUMP JUMPDEST SWAP1 POP JUMPDEST SWAP1 JUMP JUMPDEST PUSH1 0x0 PUSH1 0x44 RETURNDATASIZE LT PUSH2 0x4992 JUMPI PUSH2 0x4917 PUSH2 0x2F26 JUMP JUMPDEST PUSH1 0x4 RETURNDATASIZE SUB PUSH1 0x4 DUP3 RETURNDATACOPY DUP1 MLOAD RETURNDATASIZE PUSH1 0x24 DUP3 ADD GT PUSH8 0xFFFFFFFFFFFFFFFF DUP3 GT OR ISZERO PUSH2 0x493F JUMPI POP POP PUSH2 0x4992 JUMP JUMPDEST DUP1 DUP3 ADD DUP1 MLOAD PUSH8 0xFFFFFFFFFFFFFFFF DUP2 GT ISZERO PUSH2 0x495D JUMPI POP POP POP POP PUSH2 0x4992 JUMP JUMPDEST DUP1 PUSH1 0x20 DUP4 ADD ADD PUSH1 0x4 RETURNDATASIZE SUB DUP6 ADD DUP2 GT ISZERO PUSH2 0x497A JUMPI POP POP POP POP POP PUSH2 0x4992 JUMP JUMPDEST PUSH2 0x4989 DUP3 PUSH1 0x20 ADD DUP6 ADD DUP7 PUSH2 0x32C6 JUMP JUMPDEST DUP3 SWAP6 POP POP POP POP POP POP JUMPDEST SWAP1 JUMP JUMPDEST PUSH32 0x455243313135353A207472616E7366657220746F206E6F6E2D45524331313535 PUSH1 0x0 DUP3 ADD MSTORE PUSH32 0x526563656976657220696D706C656D656E746572000000000000000000000000 PUSH1 0x20 DUP3 ADD MSTORE POP JUMP JUMPDEST PUSH1 0x0 PUSH2 0x49F1 PUSH1 0x34 DUP4 PUSH2 0x312B JUMP JUMPDEST SWAP2 POP PUSH2 0x49FC DUP3 PUSH2 0x4995 JUMP JUMPDEST PUSH1 0x40 DUP3 ADD SWAP1 POP SWAP2 SWAP1 POP JUMP JUMPDEST PUSH1 0x0 PUSH1 0x20 DUP3 ADD SWAP1 POP DUP2 DUP2 SUB PUSH1 0x0 DUP4 ADD MSTORE PUSH2 0x4A20 DUP2 PUSH2 0x49E4 JUMP JUMPDEST SWAP1 POP SWAP2 SWAP1 POP JUMP JUMPDEST PUSH32 0x455243313135353A204552433131353552656365697665722072656A65637465 PUSH1 0x0 DUP3 ADD MSTORE PUSH32 0x6420746F6B656E73000000000000000000000000000000000000000000000000 PUSH1 0x20 DUP3 ADD MSTORE POP JUMP JUMPDEST PUSH1 0x0 PUSH2 0x4A83 PUSH1 0x28 DUP4 PUSH2 0x312B JUMP JUMPDEST SWAP2 POP PUSH2 0x4A8E DUP3 PUSH2 0x4A27 JUMP JUMPDEST PUSH1 0x40 DUP3 ADD SWAP1 POP SWAP2 SWAP1 POP JUMP JUMPDEST PUSH1 0x0 PUSH1 0x20 DUP3 ADD SWAP1 POP DUP2 DUP2 SUB PUSH1 0x0 DUP4 ADD MSTORE PUSH2 0x4AB2 DUP2 PUSH2 0x4A76 JUMP JUMPDEST SWAP1 POP SWAP2 SWAP1 POP JUMP JUMPDEST PUSH1 0x0 PUSH1 0xA0 DUP3 ADD SWAP1 POP PUSH2 0x4ACE PUSH1 0x0 DUP4 ADD DUP9 PUSH2 0x31FF JUMP JUMPDEST PUSH2 0x4ADB PUSH1 0x20 DUP4 ADD DUP8 PUSH2 0x31FF JUMP JUMPDEST PUSH2 0x4AE8 PUSH1 0x40 DUP4 ADD DUP7 PUSH2 0x300E JUMP JUMPDEST PUSH2 0x4AF5 PUSH1 0x60 DUP4 ADD DUP6 PUSH2 0x300E JUMP JUMPDEST DUP2 DUP2 SUB PUSH1 0x80 DUP4 ADD MSTORE PUSH2 0x4B07 DUP2 DUP5 PUSH2 0x47F3 JUMP JUMPDEST SWAP1 POP SWAP7 SWAP6 POP POP POP POP POP POP JUMP INVALID LOG2 PUSH5 0x6970667358 0x22 SLT KECCAK256 PUSH3 0xE5E288 DUP9 0xE3 0xAC 0xC2 CALLDATALOAD 0x4A SSTORE 0x29 0x2F PUSH29 0x4177A1ABEF226CC8CAB23B11BAA016DB5C7264736F6C63430008120033 "},"methodIdentifiers":{"assignAdmin(address)":"3da7d2ed","balanceOf(address,uint256)":"00fdd58e","balanceOfBatch(address[],uint256[])":"4e1273f4","initialize(string,address,address)":"463fd1af","isApprovedForAll(address,address)":"e985e9c5","isSubAdmin(address)":"d1c63b21","lazyMint(uint256,uint256,address,address,uint96,string)":"91ef38ba","marketplace()":"abc8c7af","removeAdmin(address)":"1785f53c","royaltyInfo(uint256,uint256)":"2a55205a","safeBatchTransferFrom(address,address,uint256[],uint256[],bytes)":"2eb2c2d6","safeMint(address,uint256,uint256,bytes)":"5cfa9297","safeTransferFrom(address,address,uint256,uint256,bytes)":"f242432a","setApprovalForAll(address,bool)":"a22cb465","superAdmin()":"29575f6a","supportsInterface(bytes4)":"01ffc9a7","tokenMinted(uint256)":"ff4078d3","updateAdmin(address)":"e2f273bd","updateMarketplace(address)":"eb636317","uri(uint256)":"0e89341c"}}}}}