{"contracts/OwnedUpgradeableProxy.sol":{"OwnedUpgradeabilityProxy":{"abi":[{"inputs":[],"stateMutability":"nonpayable","type":"constructor"},{"anonymous":false,"inputs":[{"indexed":false,"internalType":"address","name":"previousOwner","type":"address"},{"indexed":false,"internalType":"address","name":"newOwner","type":"address"}],"name":"ProxyOwnershipTransferred","type":"event"},{"anonymous":false,"inputs":[{"indexed":true,"internalType":"address","name":"implementation","type":"address"}],"name":"Upgraded","type":"event"},{"stateMutability":"payable","type":"fallback"},{"inputs":[],"name":"implementation","outputs":[{"internalType":"address","name":"impl","type":"address"}],"stateMutability":"view","type":"function"},{"inputs":[],"name":"maintenance","outputs":[{"internalType":"bool","name":"_maintenance","type":"bool"}],"stateMutability":"view","type":"function"},{"inputs":[],"name":"proxyOwner","outputs":[{"internalType":"address","name":"owner","type":"address"}],"stateMutability":"view","type":"function"},{"inputs":[{"internalType":"bool","name":"_maintenance","type":"bool"}],"name":"setMaintenance","outputs":[],"stateMutability":"nonpayable","type":"function"},{"inputs":[{"internalType":"address","name":"newOwner","type":"address"}],"name":"transferProxyOwnership","outputs":[],"stateMutability":"nonpayable","type":"function"},{"inputs":[{"internalType":"address","name":"newImplementation","type":"address"}],"name":"upgradeTo","outputs":[],"stateMutability":"nonpayable","type":"function"},{"inputs":[{"internalType":"address","name":"newImplementation","type":"address"},{"internalType":"bytes","name":"data","type":"bytes"}],"name":"upgradeToAndCall","outputs":[],"stateMutability":"payable","type":"function"},{"stateMutability":"payable","type":"receive"}],"evm":{"bytecode":{"linkReferences":{},"object":"60806040523480156200001157600080fd5b506200002e6763c6d673781655a960c01b6200007d60201b60201c565b6200004a67eb02a9bec6f1c92d60c01b6200007d60201b60201c565b6200006667a08a0a8a772c04df60c01b6200007d60201b60201c565b62000077336200008060201b60201c565b6200011c565b50565b6200009c67039993ab7feadc7c60c01b6200007d60201b60201c565b620000b8671dea32b6f0f0566f60c01b6200007d60201b60201c565b620000d46749a14db6efc92c2b60c01b6200007d60201b60201c565b60007fa840eb9e2aea75d352f044fb50af0661d0f0786ee056d03f5b1c91e7291fec9590506200011567232f3ad4e7bd726360c01b6200007d60201b60201c565b8181555050565b61158a806200012c6000396000f3fe6080604052600436106100745760003560e01c80635c60da1b1161004e5780635c60da1b1461014d578063612f2f37146101785780636c376cc5146101a1578063f1739cae146101cc57610097565b8063025313a2146100dd5780633659cfe6146101085780634f1ef2861461013157610097565b366100975761008d67215210560fc4777460c01b6101f5565b6100956101f8565b005b6100ab673f093e3cef4ca2e760c01b6101f5565b6100bf67ca1d96826efb1aff60c01b6101f5565b6100d367c6ce3e0a0092176160c01b6101f5565b6100db6101f8565b005b3480156100e957600080fd5b506100f2610462565b6040516100ff91906110b5565b60405180910390f35b34801561011457600080fd5b5061012f600480360381019061012a9190611110565b6104e1565b005b61014b60048036038101906101469190611283565b61063e565b005b34801561015957600080fd5b506101626108c3565b60405161016f91906110b5565b60405180910390f35b34801561018457600080fd5b5061019f600480360381019061019a9190611317565b610942565b005b3480156101ad57600080fd5b506101b6610ad3565b6040516101c39190611353565b60405180910390f35b3480156101d857600080fd5b506101f360048036038101906101ee9190611110565b610b52565b005b50565b61020c67189916bbabad608a60c01b6101f5565b6102206792f63ab75fb5d4e260c01b6101f5565b6102346715a011513f07fa1b60c01b6101f5565b61023c610ad3565b1561031f57610255670cc9ae76eed81a0d60c01b6101f5565b61026967949d856c1e4a526a60c01b6101f5565b61027d67a7f6dc98c106e9e160c01b6101f5565b6102916742fa34ccc69095e860c01b6101f5565b610299610462565b73ffffffffffffffffffffffffffffffffffffffff163373ffffffffffffffffffffffffffffffffffffffff1614610306576040517f08c379a00000000000000000000000000000000000000000000000000000000081526004016102fd906113f1565b60405180910390fd5b61031a673df5cc19e9ec684b60c01b6101f5565b610334565b610333675ba2ad9675c26b7d60c01b6101f5565b5b6103486787ee2506702d7a9160c01b6101f5565b61035c67ca071e2748480f9e60c01b6101f5565b60006103666108c3565b905061037c67894e75ebd630edb360c01b6101f5565b610390670363d88e8603d48260c01b6101f5565b6103a467b2f7545ca7e6870d60c01b6101f5565b600073ffffffffffffffffffffffffffffffffffffffff168173ffffffffffffffffffffffffffffffffffffffff1603610413576040517f08c379a000000000000000000000000000000000000000000000000000000000815260040161040a90611483565b60405180910390fd5b610427677852a2dc24352c1b60c01b6101f5565b61043b678144da87fdd72aa560c01b6101f5565b60405136600082376000803683855af43d806000843e816000811461045e578184f35b8184fd5b6000610478673eeafe8ecf22eb4260c01b6101f5565b61048c67e0aaeeb2be55e60160c01b6101f5565b6104a067e1d8894d31695c0360c01b6101f5565b60007fa840eb9e2aea75d352f044fb50af0661d0f0786ee056d03f5b1c91e7291fec9590506104d9672708e6eeb365a79860c01b6101f5565b805491505090565b6104f56722828deca5f267df60c01b6101f5565b6105096709de52b5db2a7dc660c01b6101f5565b61051d678f255373b0bc4fbd60c01b6101f5565b61053167f00c0e48eb0c84ca60c01b6101f5565b61054567cbcd4f5a6683bdbf60c01b6101f5565b61054d610462565b73ffffffffffffffffffffffffffffffffffffffff163373ffffffffffffffffffffffffffffffffffffffff16146105ba576040517f08c379a00000000000000000000000000000000000000000000000000000000081526004016105b1906113f1565b60405180910390fd5b6105ce676492ae4d3e1a0e6a60c01b6101f5565b6105e267ff9c96546047b8a060c01b6101f5565b6105f66734a76ed027bec35760c01b6101f5565b61060a6712ede752aaa15c4660c01b6101f5565b61061e67fe45642a80adb23160c01b6101f5565b6106326749803e7d725f580d60c01b6101f5565b61063b81610dd6565b50565b61065267ba725468e97c44a360c01b6101f5565b6106666709de52b5db2a7dc660c01b6101f5565b61067a678f255373b0bc4fbd60c01b6101f5565b61068e67f00c0e48eb0c84ca60c01b6101f5565b6106a267cbcd4f5a6683bdbf60c01b6101f5565b6106aa610462565b73ffffffffffffffffffffffffffffffffffffffff163373ffffffffffffffffffffffffffffffffffffffff1614610717576040517f08c379a000000000000000000000000000000000000000000000000000000000815260040161070e906113f1565b60405180910390fd5b61072b676492ae4d3e1a0e6a60c01b6101f5565b61073f67ff9c96546047b8a060c01b6101f5565b6107536768d1808bff95474b60c01b6101f5565b61076767ced49e2044789dbb60c01b6101f5565b61077b67ce574429dd773a9960c01b6101f5565b61078f67cffcbe42354ef5a860c01b6101f5565b610798826104e1565b6107ac6770e7e7f3d443700c60c01b6101f5565b6107c067066eaf6be141ebbf60c01b6101f5565b60003073ffffffffffffffffffffffffffffffffffffffff1634836040516107e89190611514565b60006040518083038185875af1925050503d8060008114610825576040519150601f19603f3d011682016040523d82523d6000602084013e61082a565b606091505b50509050610842672feadbe42bf6d7ec60c01b6101f5565b610856674e687907e523953360c01b6101f5565b61086a67b2cd0a9d92eeeb5360c01b6101f5565b806108aa576040517f08c379a00000000000000000000000000000000000000000000000000000000081526004016108a190611483565b60405180910390fd5b6108be677abcab788890d40060c01b6101f5565b505050565b60006108d9676ca04d7f908cd3b160c01b6101f5565b6108ed670bba0a526039709460c01b6101f5565b6109016781aec2aa85202e0360c01b6101f5565b60007f025beaa34bebd480d4e804fc571f1ecd9f6ac6bb44fd53bd8d562fc09c3b11c7905061093a67646a7da925d51b5360c01b6101f5565b805491505090565b6109566722be9a6a677ba82560c01b6101f5565b61096a6709de52b5db2a7dc660c01b6101f5565b61097e678f255373b0bc4fbd60c01b6101f5565b61099267f00c0e48eb0c84ca60c01b6101f5565b6109a667cbcd4f5a6683bdbf60c01b6101f5565b6109ae610462565b73ffffffffffffffffffffffffffffffffffffffff163373ffffffffffffffffffffffffffffffffffffffff1614610a1b576040517f08c379a0000000000000000000000000000000000000000000000000000000008152600401610a12906113f1565b60405180910390fd5b610a2f676492ae4d3e1a0e6a60c01b6101f5565b610a4367ff9c96546047b8a060c01b6101f5565b610a57672562e53728807ea960c01b6101f5565b610a6b67144f0a35aa64f88c60c01b6101f5565b610a7f67e0601320486e0e7660c01b6101f5565b610a93678899bded13fc1b2c60c01b6101f5565b60007fb1c4bee93542b24b1b443bd7eb1f26034cc7331cdcfc4a7ffc786ae1b6928f819050610acc67b469157de1d8035f60c01b6101f5565b8181555050565b6000610ae9671863a4c49904666d60c01b6101f5565b610afd6798428d2c865f81fa60c01b6101f5565b610b1167c3b080f4d3e99ac860c01b6101f5565b60007fb1c4bee93542b24b1b443bd7eb1f26034cc7331cdcfc4a7ffc786ae1b6928f819050610b4a678143349b09062c9760c01b6101f5565b805491505090565b610b6667f11c058b79b9698060c01b6101f5565b610b7a6709de52b5db2a7dc660c01b6101f5565b610b8e678f255373b0bc4fbd60c01b6101f5565b610ba267f00c0e48eb0c84ca60c01b6101f5565b610bb667cbcd4f5a6683bdbf60c01b6101f5565b610bbe610462565b73ffffffffffffffffffffffffffffffffffffffff163373ffffffffffffffffffffffffffffffffffffffff1614610c2b576040517f08c379a0000000000000000000000000000000000000000000000000000000008152600401610c22906113f1565b60405180910390fd5b610c3f676492ae4d3e1a0e6a60c01b6101f5565b610c5367ff9c96546047b8a060c01b6101f5565b610c6767b7ed8c5372db2b7a60c01b6101f5565b610c7b67bdc5bccb91f0008a60c01b6101f5565b610c8f675df6245b52b5d5b760c01b6101f5565b610ca3670c84fd280e4c2cde60c01b6101f5565b610cb767e23650fe6b86d20960c01b6101f5565b600073ffffffffffffffffffffffffffffffffffffffff168173ffffffffffffffffffffffffffffffffffffffff1603610d26576040517f08c379a0000000000000000000000000000000000000000000000000000000008152600401610d1d90611483565b60405180910390fd5b610d3a67aa979c6665b169fb60c01b6101f5565b610d4e67bbd61bd8d591eee260c01b6101f5565b610d62675d0e2fd0c7eb7be760c01b6101f5565b7f5a3e66efaa1e445ebd894728a69d6959842ea1e97bd79b892797106e270efcd9610d8b610462565b82604051610d9a92919061152b565b60405180910390a1610db6678d1326cf71c166cf60c01b6101f5565b610dca67722aa2ce7b00f7b860c01b6101f5565b610dd381610f7c565b50565b610dea677930f754ccfd872e60c01b6101f5565b610dfe67f890474efdcb810660c01b6101f5565b610e12673de1bef6e6a7823160c01b6101f5565b6000610e1c6108c3565b9050610e326756ec33eb7098342b60c01b6101f5565b610e4667efcb35f114d60fef60c01b6101f5565b610e5a672a77d596d6a30b8060c01b6101f5565b8173ffffffffffffffffffffffffffffffffffffffff168173ffffffffffffffffffffffffffffffffffffffff1603610ec8576040517f08c379a0000000000000000000000000000000000000000000000000000000008152600401610ebf90611483565b60405180910390fd5b610edc67219f3010ad7b447e60c01b6101f5565b610ef0673da3d5840555529360c01b6101f5565b610f046772b0b468b1ac5ee660c01b6101f5565b610f0d82610ff8565b610f216741bc7526f43ba26760c01b6101f5565b610f356740e85790988d567c60c01b6101f5565b8173ffffffffffffffffffffffffffffffffffffffff167fbc7cd75a20ee27fd9adebab32041f755214dbc6bffa90cc0225b39da2e5c2d3b60405160405180910390a25050565b610f9067039993ab7feadc7c60c01b6101f5565b610fa4671dea32b6f0f0566f60c01b6101f5565b610fb86749a14db6efc92c2b60c01b6101f5565b60007fa840eb9e2aea75d352f044fb50af0661d0f0786ee056d03f5b1c91e7291fec959050610ff167232f3ad4e7bd726360c01b6101f5565b8181555050565b61100c67d86e1526ca49f90b60c01b6101f5565b61102067a10f2988aaa27f0660c01b6101f5565b611034678ceb7180b9639cda60c01b6101f5565b60007f025beaa34bebd480d4e804fc571f1ecd9f6ac6bb44fd53bd8d562fc09c3b11c7905061106d67a13f0557236d365960c01b6101f5565b8181555050565b600073ffffffffffffffffffffffffffffffffffffffff82169050919050565b600061109f82611074565b9050919050565b6110af81611094565b82525050565b60006020820190506110ca60008301846110a6565b92915050565b6000604051905090565b600080fd5b600080fd5b6110ed81611094565b81146110f857600080fd5b50565b60008135905061110a816110e4565b92915050565b600060208284031215611126576111256110da565b5b6000611134848285016110fb565b91505092915050565b600080fd5b600080fd5b6000601f19601f8301169050919050565b7f4e487b7100000000000000000000000000000000000000000000000000000000600052604160045260246000fd5b61119082611147565b810181811067ffffffffffffffff821117156111af576111ae611158565b5b80604052505050565b60006111c26110d0565b90506111ce8282611187565b919050565b600067ffffffffffffffff8211156111ee576111ed611158565b5b6111f782611147565b9050602081019050919050565b82818337600083830152505050565b6000611226611221846111d3565b6111b8565b90508281526020810184848401111561124257611241611142565b5b61124d848285611204565b509392505050565b600082601f83011261126a5761126961113d565b5b813561127a848260208601611213565b91505092915050565b6000806040838503121561129a576112996110da565b5b60006112a8858286016110fb565b925050602083013567ffffffffffffffff8111156112c9576112c86110df565b5b6112d585828601611255565b9150509250929050565b60008115159050919050565b6112f4816112df565b81146112ff57600080fd5b50565b600081359050611311816112eb565b92915050565b60006020828403121561132d5761132c6110da565b5b600061133b84828501611302565b91505092915050565b61134d816112df565b82525050565b60006020820190506113686000830184611344565b92915050565b600082825260208201905092915050565b7f4f776e6564557067726164656162696c69747950726f78793a20464f5242494460008201527f44454e0000000000000000000000000000000000000000000000000000000000602082015250565b60006113db60238361136e565b91506113e68261137f565b604082019050919050565b6000602082019050818103600083015261140a816113ce565b9050919050565b7f4f776e6564557067726164656162696c69747950726f78793a20494e56414c4960008201527f4400000000000000000000000000000000000000000000000000000000000000602082015250565b600061146d60218361136e565b915061147882611411565b604082019050919050565b6000602082019050818103600083015261149c81611460565b9050919050565b600081519050919050565b600081905092915050565b60005b838110156114d75780820151818401526020810190506114bc565b60008484015250505050565b60006114ee826114a3565b6114f881856114ae565b93506115088185602086016114b9565b80840191505092915050565b600061152082846114e3565b915081905092915050565b600060408201905061154060008301856110a6565b61154d60208301846110a6565b939250505056fea2646970667358221220c9d75048a2cefea8e297c66e04a2ed99fc46e7f3bc4889584fae2a79068dc39a64736f6c63430008120033","opcodes":"PUSH1 0x80 PUSH1 0x40 MSTORE CALLVALUE DUP1 ISZERO PUSH3 0x11 JUMPI PUSH1 0x0 DUP1 REVERT JUMPDEST POP PUSH3 0x2E PUSH8 0x63C6D673781655A9 PUSH1 0xC0 SHL PUSH3 0x7D PUSH1 0x20 SHL PUSH1 0x20 SHR JUMP JUMPDEST PUSH3 0x4A PUSH8 0xEB02A9BEC6F1C92D PUSH1 0xC0 SHL PUSH3 0x7D PUSH1 0x20 SHL PUSH1 0x20 SHR JUMP JUMPDEST PUSH3 0x66 PUSH8 0xA08A0A8A772C04DF PUSH1 0xC0 SHL PUSH3 0x7D PUSH1 0x20 SHL PUSH1 0x20 SHR JUMP JUMPDEST PUSH3 0x77 CALLER PUSH3 0x80 PUSH1 0x20 SHL PUSH1 0x20 SHR JUMP JUMPDEST PUSH3 0x11C JUMP JUMPDEST POP JUMP JUMPDEST PUSH3 0x9C PUSH8 0x39993AB7FEADC7C PUSH1 0xC0 SHL PUSH3 0x7D PUSH1 0x20 SHL PUSH1 0x20 SHR JUMP JUMPDEST PUSH3 0xB8 PUSH8 0x1DEA32B6F0F0566F PUSH1 0xC0 SHL PUSH3 0x7D PUSH1 0x20 SHL PUSH1 0x20 SHR JUMP JUMPDEST PUSH3 0xD4 PUSH8 0x49A14DB6EFC92C2B PUSH1 0xC0 SHL PUSH3 0x7D PUSH1 0x20 SHL PUSH1 0x20 SHR JUMP JUMPDEST PUSH1 0x0 PUSH32 0xA840EB9E2AEA75D352F044FB50AF0661D0F0786EE056D03F5B1C91E7291FEC95 SWAP1 POP PUSH3 0x115 PUSH8 0x232F3AD4E7BD7263 PUSH1 0xC0 SHL PUSH3 0x7D PUSH1 0x20 SHL PUSH1 0x20 SHR JUMP JUMPDEST DUP2 DUP2 SSTORE POP POP JUMP JUMPDEST PUSH2 0x158A DUP1 PUSH3 0x12C PUSH1 0x0 CODECOPY PUSH1 0x0 RETURN INVALID PUSH1 0x80 PUSH1 0x40 MSTORE PUSH1 0x4 CALLDATASIZE LT PUSH2 0x74 JUMPI PUSH1 0x0 CALLDATALOAD PUSH1 0xE0 SHR DUP1 PUSH4 0x5C60DA1B GT PUSH2 0x4E JUMPI DUP1 PUSH4 0x5C60DA1B EQ PUSH2 0x14D JUMPI DUP1 PUSH4 0x612F2F37 EQ PUSH2 0x178 JUMPI DUP1 PUSH4 0x6C376CC5 EQ PUSH2 0x1A1 JUMPI DUP1 PUSH4 0xF1739CAE EQ PUSH2 0x1CC JUMPI PUSH2 0x97 JUMP JUMPDEST DUP1 PUSH4 0x25313A2 EQ PUSH2 0xDD JUMPI DUP1 PUSH4 0x3659CFE6 EQ PUSH2 0x108 JUMPI DUP1 PUSH4 0x4F1EF286 EQ PUSH2 0x131 JUMPI PUSH2 0x97 JUMP JUMPDEST CALLDATASIZE PUSH2 0x97 JUMPI PUSH2 0x8D PUSH8 0x215210560FC47774 PUSH1 0xC0 SHL PUSH2 0x1F5 JUMP JUMPDEST PUSH2 0x95 PUSH2 0x1F8 JUMP JUMPDEST STOP JUMPDEST PUSH2 0xAB PUSH8 0x3F093E3CEF4CA2E7 PUSH1 0xC0 SHL PUSH2 0x1F5 JUMP JUMPDEST PUSH2 0xBF PUSH8 0xCA1D96826EFB1AFF PUSH1 0xC0 SHL PUSH2 0x1F5 JUMP JUMPDEST PUSH2 0xD3 PUSH8 0xC6CE3E0A00921761 PUSH1 0xC0 SHL PUSH2 0x1F5 JUMP JUMPDEST PUSH2 0xDB PUSH2 0x1F8 JUMP JUMPDEST STOP JUMPDEST CALLVALUE DUP1 ISZERO PUSH2 0xE9 JUMPI PUSH1 0x0 DUP1 REVERT JUMPDEST POP PUSH2 0xF2 PUSH2 0x462 JUMP JUMPDEST PUSH1 0x40 MLOAD PUSH2 0xFF SWAP2 SWAP1 PUSH2 0x10B5 JUMP JUMPDEST PUSH1 0x40 MLOAD DUP1 SWAP2 SUB SWAP1 RETURN JUMPDEST CALLVALUE DUP1 ISZERO PUSH2 0x114 JUMPI PUSH1 0x0 DUP1 REVERT JUMPDEST POP PUSH2 0x12F PUSH1 0x4 DUP1 CALLDATASIZE SUB DUP2 ADD SWAP1 PUSH2 0x12A SWAP2 SWAP1 PUSH2 0x1110 JUMP JUMPDEST PUSH2 0x4E1 JUMP JUMPDEST STOP JUMPDEST PUSH2 0x14B PUSH1 0x4 DUP1 CALLDATASIZE SUB DUP2 ADD SWAP1 PUSH2 0x146 SWAP2 SWAP1 PUSH2 0x1283 JUMP JUMPDEST PUSH2 0x63E JUMP JUMPDEST STOP JUMPDEST CALLVALUE DUP1 ISZERO PUSH2 0x159 JUMPI PUSH1 0x0 DUP1 REVERT JUMPDEST POP PUSH2 0x162 PUSH2 0x8C3 JUMP JUMPDEST PUSH1 0x40 MLOAD PUSH2 0x16F SWAP2 SWAP1 PUSH2 0x10B5 JUMP JUMPDEST PUSH1 0x40 MLOAD DUP1 SWAP2 SUB SWAP1 RETURN JUMPDEST CALLVALUE DUP1 ISZERO PUSH2 0x184 JUMPI PUSH1 0x0 DUP1 REVERT JUMPDEST POP PUSH2 0x19F PUSH1 0x4 DUP1 CALLDATASIZE SUB DUP2 ADD SWAP1 PUSH2 0x19A SWAP2 SWAP1 PUSH2 0x1317 JUMP JUMPDEST PUSH2 0x942 JUMP JUMPDEST STOP JUMPDEST CALLVALUE DUP1 ISZERO PUSH2 0x1AD JUMPI PUSH1 0x0 DUP1 REVERT JUMPDEST POP PUSH2 0x1B6 PUSH2 0xAD3 JUMP JUMPDEST PUSH1 0x40 MLOAD PUSH2 0x1C3 SWAP2 SWAP1 PUSH2 0x1353 JUMP JUMPDEST PUSH1 0x40 MLOAD DUP1 SWAP2 SUB SWAP1 RETURN JUMPDEST CALLVALUE DUP1 ISZERO PUSH2 0x1D8 JUMPI PUSH1 0x0 DUP1 REVERT JUMPDEST POP PUSH2 0x1F3 PUSH1 0x4 DUP1 CALLDATASIZE SUB DUP2 ADD SWAP1 PUSH2 0x1EE SWAP2 SWAP1 PUSH2 0x1110 JUMP JUMPDEST PUSH2 0xB52 JUMP JUMPDEST STOP JUMPDEST POP JUMP JUMPDEST PUSH2 0x20C PUSH8 0x189916BBABAD608A PUSH1 0xC0 SHL PUSH2 0x1F5 JUMP JUMPDEST PUSH2 0x220 PUSH8 0x92F63AB75FB5D4E2 PUSH1 0xC0 SHL PUSH2 0x1F5 JUMP JUMPDEST PUSH2 0x234 PUSH8 0x15A011513F07FA1B PUSH1 0xC0 SHL PUSH2 0x1F5 JUMP JUMPDEST PUSH2 0x23C PUSH2 0xAD3 JUMP JUMPDEST ISZERO PUSH2 0x31F JUMPI PUSH2 0x255 PUSH8 0xCC9AE76EED81A0D PUSH1 0xC0 SHL PUSH2 0x1F5 JUMP JUMPDEST PUSH2 0x269 PUSH8 0x949D856C1E4A526A PUSH1 0xC0 SHL PUSH2 0x1F5 JUMP JUMPDEST PUSH2 0x27D PUSH8 0xA7F6DC98C106E9E1 PUSH1 0xC0 SHL PUSH2 0x1F5 JUMP JUMPDEST PUSH2 0x291 PUSH8 0x42FA34CCC69095E8 PUSH1 0xC0 SHL PUSH2 0x1F5 JUMP JUMPDEST PUSH2 0x299 PUSH2 0x462 JUMP JUMPDEST PUSH20 0xFFFFFFFFFFFFFFFFFFFFFFFFFFFFFFFFFFFFFFFF AND CALLER PUSH20 0xFFFFFFFFFFFFFFFFFFFFFFFFFFFFFFFFFFFFFFFF AND EQ PUSH2 0x306 JUMPI PUSH1 0x40 MLOAD PUSH32 0x8C379A000000000000000000000000000000000000000000000000000000000 DUP2 MSTORE PUSH1 0x4 ADD PUSH2 0x2FD SWAP1 PUSH2 0x13F1 JUMP JUMPDEST PUSH1 0x40 MLOAD DUP1 SWAP2 SUB SWAP1 REVERT JUMPDEST PUSH2 0x31A PUSH8 0x3DF5CC19E9EC684B PUSH1 0xC0 SHL PUSH2 0x1F5 JUMP JUMPDEST PUSH2 0x334 JUMP JUMPDEST PUSH2 0x333 PUSH8 0x5BA2AD9675C26B7D PUSH1 0xC0 SHL PUSH2 0x1F5 JUMP JUMPDEST JUMPDEST PUSH2 0x348 PUSH8 0x87EE2506702D7A91 PUSH1 0xC0 SHL PUSH2 0x1F5 JUMP JUMPDEST PUSH2 0x35C PUSH8 0xCA071E2748480F9E PUSH1 0xC0 SHL PUSH2 0x1F5 JUMP JUMPDEST PUSH1 0x0 PUSH2 0x366 PUSH2 0x8C3 JUMP JUMPDEST SWAP1 POP PUSH2 0x37C PUSH8 0x894E75EBD630EDB3 PUSH1 0xC0 SHL PUSH2 0x1F5 JUMP JUMPDEST PUSH2 0x390 PUSH8 0x363D88E8603D482 PUSH1 0xC0 SHL PUSH2 0x1F5 JUMP JUMPDEST PUSH2 0x3A4 PUSH8 0xB2F7545CA7E6870D PUSH1 0xC0 SHL PUSH2 0x1F5 JUMP JUMPDEST PUSH1 0x0 PUSH20 0xFFFFFFFFFFFFFFFFFFFFFFFFFFFFFFFFFFFFFFFF AND DUP2 PUSH20 0xFFFFFFFFFFFFFFFFFFFFFFFFFFFFFFFFFFFFFFFF AND SUB PUSH2 0x413 JUMPI PUSH1 0x40 MLOAD PUSH32 0x8C379A000000000000000000000000000000000000000000000000000000000 DUP2 MSTORE PUSH1 0x4 ADD PUSH2 0x40A SWAP1 PUSH2 0x1483 JUMP JUMPDEST PUSH1 0x40 MLOAD DUP1 SWAP2 SUB SWAP1 REVERT JUMPDEST PUSH2 0x427 PUSH8 0x7852A2DC24352C1B PUSH1 0xC0 SHL PUSH2 0x1F5 JUMP JUMPDEST PUSH2 0x43B PUSH8 0x8144DA87FDD72AA5 PUSH1 0xC0 SHL PUSH2 0x1F5 JUMP JUMPDEST PUSH1 0x40 MLOAD CALLDATASIZE PUSH1 0x0 DUP3 CALLDATACOPY PUSH1 0x0 DUP1 CALLDATASIZE DUP4 DUP6 GAS DELEGATECALL RETURNDATASIZE DUP1 PUSH1 0x0 DUP5 RETURNDATACOPY DUP2 PUSH1 0x0 DUP2 EQ PUSH2 0x45E JUMPI DUP2 DUP5 RETURN JUMPDEST DUP2 DUP5 REVERT JUMPDEST PUSH1 0x0 PUSH2 0x478 PUSH8 0x3EEAFE8ECF22EB42 PUSH1 0xC0 SHL PUSH2 0x1F5 JUMP JUMPDEST PUSH2 0x48C PUSH8 0xE0AAEEB2BE55E601 PUSH1 0xC0 SHL PUSH2 0x1F5 JUMP JUMPDEST PUSH2 0x4A0 PUSH8 0xE1D8894D31695C03 PUSH1 0xC0 SHL PUSH2 0x1F5 JUMP JUMPDEST PUSH1 0x0 PUSH32 0xA840EB9E2AEA75D352F044FB50AF0661D0F0786EE056D03F5B1C91E7291FEC95 SWAP1 POP PUSH2 0x4D9 PUSH8 0x2708E6EEB365A798 PUSH1 0xC0 SHL PUSH2 0x1F5 JUMP JUMPDEST DUP1 SLOAD SWAP2 POP POP SWAP1 JUMP JUMPDEST PUSH2 0x4F5 PUSH8 0x22828DECA5F267DF PUSH1 0xC0 SHL PUSH2 0x1F5 JUMP JUMPDEST PUSH2 0x509 PUSH8 0x9DE52B5DB2A7DC6 PUSH1 0xC0 SHL PUSH2 0x1F5 JUMP JUMPDEST PUSH2 0x51D PUSH8 0x8F255373B0BC4FBD PUSH1 0xC0 SHL PUSH2 0x1F5 JUMP JUMPDEST PUSH2 0x531 PUSH8 0xF00C0E48EB0C84CA PUSH1 0xC0 SHL PUSH2 0x1F5 JUMP JUMPDEST PUSH2 0x545 PUSH8 0xCBCD4F5A6683BDBF PUSH1 0xC0 SHL PUSH2 0x1F5 JUMP JUMPDEST PUSH2 0x54D PUSH2 0x462 JUMP JUMPDEST PUSH20 0xFFFFFFFFFFFFFFFFFFFFFFFFFFFFFFFFFFFFFFFF AND CALLER PUSH20 0xFFFFFFFFFFFFFFFFFFFFFFFFFFFFFFFFFFFFFFFF AND EQ PUSH2 0x5BA JUMPI PUSH1 0x40 MLOAD PUSH32 0x8C379A000000000000000000000000000000000000000000000000000000000 DUP2 MSTORE PUSH1 0x4 ADD PUSH2 0x5B1 SWAP1 PUSH2 0x13F1 JUMP JUMPDEST PUSH1 0x40 MLOAD DUP1 SWAP2 SUB SWAP1 REVERT JUMPDEST PUSH2 0x5CE PUSH8 0x6492AE4D3E1A0E6A PUSH1 0xC0 SHL PUSH2 0x1F5 JUMP JUMPDEST PUSH2 0x5E2 PUSH8 0xFF9C96546047B8A0 PUSH1 0xC0 SHL PUSH2 0x1F5 JUMP JUMPDEST PUSH2 0x5F6 PUSH8 0x34A76ED027BEC357 PUSH1 0xC0 SHL PUSH2 0x1F5 JUMP JUMPDEST PUSH2 0x60A PUSH8 0x12EDE752AAA15C46 PUSH1 0xC0 SHL PUSH2 0x1F5 JUMP JUMPDEST PUSH2 0x61E PUSH8 0xFE45642A80ADB231 PUSH1 0xC0 SHL PUSH2 0x1F5 JUMP JUMPDEST PUSH2 0x632 PUSH8 0x49803E7D725F580D PUSH1 0xC0 SHL PUSH2 0x1F5 JUMP JUMPDEST PUSH2 0x63B DUP2 PUSH2 0xDD6 JUMP JUMPDEST POP JUMP JUMPDEST PUSH2 0x652 PUSH8 0xBA725468E97C44A3 PUSH1 0xC0 SHL PUSH2 0x1F5 JUMP JUMPDEST PUSH2 0x666 PUSH8 0x9DE52B5DB2A7DC6 PUSH1 0xC0 SHL PUSH2 0x1F5 JUMP JUMPDEST PUSH2 0x67A PUSH8 0x8F255373B0BC4FBD PUSH1 0xC0 SHL PUSH2 0x1F5 JUMP JUMPDEST PUSH2 0x68E PUSH8 0xF00C0E48EB0C84CA PUSH1 0xC0 SHL PUSH2 0x1F5 JUMP JUMPDEST PUSH2 0x6A2 PUSH8 0xCBCD4F5A6683BDBF PUSH1 0xC0 SHL PUSH2 0x1F5 JUMP JUMPDEST PUSH2 0x6AA PUSH2 0x462 JUMP JUMPDEST PUSH20 0xFFFFFFFFFFFFFFFFFFFFFFFFFFFFFFFFFFFFFFFF AND CALLER PUSH20 0xFFFFFFFFFFFFFFFFFFFFFFFFFFFFFFFFFFFFFFFF AND EQ PUSH2 0x717 JUMPI PUSH1 0x40 MLOAD PUSH32 0x8C379A000000000000000000000000000000000000000000000000000000000 DUP2 MSTORE PUSH1 0x4 ADD PUSH2 0x70E SWAP1 PUSH2 0x13F1 JUMP JUMPDEST PUSH1 0x40 MLOAD DUP1 SWAP2 SUB SWAP1 REVERT JUMPDEST PUSH2 0x72B PUSH8 0x6492AE4D3E1A0E6A PUSH1 0xC0 SHL PUSH2 0x1F5 JUMP JUMPDEST PUSH2 0x73F PUSH8 0xFF9C96546047B8A0 PUSH1 0xC0 SHL PUSH2 0x1F5 JUMP JUMPDEST PUSH2 0x753 PUSH8 0x68D1808BFF95474B PUSH1 0xC0 SHL PUSH2 0x1F5 JUMP JUMPDEST PUSH2 0x767 PUSH8 0xCED49E2044789DBB PUSH1 0xC0 SHL PUSH2 0x1F5 JUMP JUMPDEST PUSH2 0x77B PUSH8 0xCE574429DD773A99 PUSH1 0xC0 SHL PUSH2 0x1F5 JUMP JUMPDEST PUSH2 0x78F PUSH8 0xCFFCBE42354EF5A8 PUSH1 0xC0 SHL PUSH2 0x1F5 JUMP JUMPDEST PUSH2 0x798 DUP3 PUSH2 0x4E1 JUMP JUMPDEST PUSH2 0x7AC PUSH8 0x70E7E7F3D443700C PUSH1 0xC0 SHL PUSH2 0x1F5 JUMP JUMPDEST PUSH2 0x7C0 PUSH8 0x66EAF6BE141EBBF PUSH1 0xC0 SHL PUSH2 0x1F5 JUMP JUMPDEST PUSH1 0x0 ADDRESS PUSH20 0xFFFFFFFFFFFFFFFFFFFFFFFFFFFFFFFFFFFFFFFF AND CALLVALUE DUP4 PUSH1 0x40 MLOAD PUSH2 0x7E8 SWAP2 SWAP1 PUSH2 0x1514 JUMP JUMPDEST PUSH1 0x0 PUSH1 0x40 MLOAD DUP1 DUP4 SUB DUP2 DUP6 DUP8 GAS CALL SWAP3 POP POP POP RETURNDATASIZE DUP1 PUSH1 0x0 DUP2 EQ PUSH2 0x825 JUMPI PUSH1 0x40 MLOAD SWAP2 POP PUSH1 0x1F NOT PUSH1 0x3F RETURNDATASIZE ADD AND DUP3 ADD PUSH1 0x40 MSTORE RETURNDATASIZE DUP3 MSTORE RETURNDATASIZE PUSH1 0x0 PUSH1 0x20 DUP5 ADD RETURNDATACOPY PUSH2 0x82A JUMP JUMPDEST PUSH1 0x60 SWAP2 POP JUMPDEST POP POP SWAP1 POP PUSH2 0x842 PUSH8 0x2FEADBE42BF6D7EC PUSH1 0xC0 SHL PUSH2 0x1F5 JUMP JUMPDEST PUSH2 0x856 PUSH8 0x4E687907E5239533 PUSH1 0xC0 SHL PUSH2 0x1F5 JUMP JUMPDEST PUSH2 0x86A PUSH8 0xB2CD0A9D92EEEB53 PUSH1 0xC0 SHL PUSH2 0x1F5 JUMP JUMPDEST DUP1 PUSH2 0x8AA JUMPI PUSH1 0x40 MLOAD PUSH32 0x8C379A000000000000000000000000000000000000000000000000000000000 DUP2 MSTORE PUSH1 0x4 ADD PUSH2 0x8A1 SWAP1 PUSH2 0x1483 JUMP JUMPDEST PUSH1 0x40 MLOAD DUP1 SWAP2 SUB SWAP1 REVERT JUMPDEST PUSH2 0x8BE PUSH8 0x7ABCAB788890D400 PUSH1 0xC0 SHL PUSH2 0x1F5 JUMP JUMPDEST POP POP POP JUMP JUMPDEST PUSH1 0x0 PUSH2 0x8D9 PUSH8 0x6CA04D7F908CD3B1 PUSH1 0xC0 SHL PUSH2 0x1F5 JUMP JUMPDEST PUSH2 0x8ED PUSH8 0xBBA0A5260397094 PUSH1 0xC0 SHL PUSH2 0x1F5 JUMP JUMPDEST PUSH2 0x901 PUSH8 0x81AEC2AA85202E03 PUSH1 0xC0 SHL PUSH2 0x1F5 JUMP JUMPDEST PUSH1 0x0 PUSH32 0x25BEAA34BEBD480D4E804FC571F1ECD9F6AC6BB44FD53BD8D562FC09C3B11C7 SWAP1 POP PUSH2 0x93A PUSH8 0x646A7DA925D51B53 PUSH1 0xC0 SHL PUSH2 0x1F5 JUMP JUMPDEST DUP1 SLOAD SWAP2 POP POP SWAP1 JUMP JUMPDEST PUSH2 0x956 PUSH8 0x22BE9A6A677BA825 PUSH1 0xC0 SHL PUSH2 0x1F5 JUMP JUMPDEST PUSH2 0x96A PUSH8 0x9DE52B5DB2A7DC6 PUSH1 0xC0 SHL PUSH2 0x1F5 JUMP JUMPDEST PUSH2 0x97E PUSH8 0x8F255373B0BC4FBD PUSH1 0xC0 SHL PUSH2 0x1F5 JUMP JUMPDEST PUSH2 0x992 PUSH8 0xF00C0E48EB0C84CA PUSH1 0xC0 SHL PUSH2 0x1F5 JUMP JUMPDEST PUSH2 0x9A6 PUSH8 0xCBCD4F5A6683BDBF PUSH1 0xC0 SHL PUSH2 0x1F5 JUMP JUMPDEST PUSH2 0x9AE PUSH2 0x462 JUMP JUMPDEST PUSH20 0xFFFFFFFFFFFFFFFFFFFFFFFFFFFFFFFFFFFFFFFF AND CALLER PUSH20 0xFFFFFFFFFFFFFFFFFFFFFFFFFFFFFFFFFFFFFFFF AND EQ PUSH2 0xA1B JUMPI PUSH1 0x40 MLOAD PUSH32 0x8C379A000000000000000000000000000000000000000000000000000000000 DUP2 MSTORE PUSH1 0x4 ADD PUSH2 0xA12 SWAP1 PUSH2 0x13F1 JUMP JUMPDEST PUSH1 0x40 MLOAD DUP1 SWAP2 SUB SWAP1 REVERT JUMPDEST PUSH2 0xA2F PUSH8 0x6492AE4D3E1A0E6A PUSH1 0xC0 SHL PUSH2 0x1F5 JUMP JUMPDEST PUSH2 0xA43 PUSH8 0xFF9C96546047B8A0 PUSH1 0xC0 SHL PUSH2 0x1F5 JUMP JUMPDEST PUSH2 0xA57 PUSH8 0x2562E53728807EA9 PUSH1 0xC0 SHL PUSH2 0x1F5 JUMP JUMPDEST PUSH2 0xA6B PUSH8 0x144F0A35AA64F88C PUSH1 0xC0 SHL PUSH2 0x1F5 JUMP JUMPDEST PUSH2 0xA7F PUSH8 0xE0601320486E0E76 PUSH1 0xC0 SHL PUSH2 0x1F5 JUMP JUMPDEST PUSH2 0xA93 PUSH8 0x8899BDED13FC1B2C PUSH1 0xC0 SHL PUSH2 0x1F5 JUMP JUMPDEST PUSH1 0x0 PUSH32 0xB1C4BEE93542B24B1B443BD7EB1F26034CC7331CDCFC4A7FFC786AE1B6928F81 SWAP1 POP PUSH2 0xACC PUSH8 0xB469157DE1D8035F PUSH1 0xC0 SHL PUSH2 0x1F5 JUMP JUMPDEST DUP2 DUP2 SSTORE POP POP JUMP JUMPDEST PUSH1 0x0 PUSH2 0xAE9 PUSH8 0x1863A4C49904666D PUSH1 0xC0 SHL PUSH2 0x1F5 JUMP JUMPDEST PUSH2 0xAFD PUSH8 0x98428D2C865F81FA PUSH1 0xC0 SHL PUSH2 0x1F5 JUMP JUMPDEST PUSH2 0xB11 PUSH8 0xC3B080F4D3E99AC8 PUSH1 0xC0 SHL PUSH2 0x1F5 JUMP JUMPDEST PUSH1 0x0 PUSH32 0xB1C4BEE93542B24B1B443BD7EB1F26034CC7331CDCFC4A7FFC786AE1B6928F81 SWAP1 POP PUSH2 0xB4A PUSH8 0x8143349B09062C97 PUSH1 0xC0 SHL PUSH2 0x1F5 JUMP JUMPDEST DUP1 SLOAD SWAP2 POP POP SWAP1 JUMP JUMPDEST PUSH2 0xB66 PUSH8 0xF11C058B79B96980 PUSH1 0xC0 SHL PUSH2 0x1F5 JUMP JUMPDEST PUSH2 0xB7A PUSH8 0x9DE52B5DB2A7DC6 PUSH1 0xC0 SHL PUSH2 0x1F5 JUMP JUMPDEST PUSH2 0xB8E PUSH8 0x8F255373B0BC4FBD PUSH1 0xC0 SHL PUSH2 0x1F5 JUMP JUMPDEST PUSH2 0xBA2 PUSH8 0xF00C0E48EB0C84CA PUSH1 0xC0 SHL PUSH2 0x1F5 JUMP JUMPDEST PUSH2 0xBB6 PUSH8 0xCBCD4F5A6683BDBF PUSH1 0xC0 SHL PUSH2 0x1F5 JUMP JUMPDEST PUSH2 0xBBE PUSH2 0x462 JUMP JUMPDEST PUSH20 0xFFFFFFFFFFFFFFFFFFFFFFFFFFFFFFFFFFFFFFFF AND CALLER PUSH20 0xFFFFFFFFFFFFFFFFFFFFFFFFFFFFFFFFFFFFFFFF AND EQ PUSH2 0xC2B JUMPI PUSH1 0x40 MLOAD PUSH32 0x8C379A000000000000000000000000000000000000000000000000000000000 DUP2 MSTORE PUSH1 0x4 ADD PUSH2 0xC22 SWAP1 PUSH2 0x13F1 JUMP JUMPDEST PUSH1 0x40 MLOAD DUP1 SWAP2 SUB SWAP1 REVERT JUMPDEST PUSH2 0xC3F PUSH8 0x6492AE4D3E1A0E6A PUSH1 0xC0 SHL PUSH2 0x1F5 JUMP JUMPDEST PUSH2 0xC53 PUSH8 0xFF9C96546047B8A0 PUSH1 0xC0 SHL PUSH2 0x1F5 JUMP JUMPDEST PUSH2 0xC67 PUSH8 0xB7ED8C5372DB2B7A PUSH1 0xC0 SHL PUSH2 0x1F5 JUMP JUMPDEST PUSH2 0xC7B PUSH8 0xBDC5BCCB91F0008A PUSH1 0xC0 SHL PUSH2 0x1F5 JUMP JUMPDEST PUSH2 0xC8F PUSH8 0x5DF6245B52B5D5B7 PUSH1 0xC0 SHL PUSH2 0x1F5 JUMP JUMPDEST PUSH2 0xCA3 PUSH8 0xC84FD280E4C2CDE PUSH1 0xC0 SHL PUSH2 0x1F5 JUMP JUMPDEST PUSH2 0xCB7 PUSH8 0xE23650FE6B86D209 PUSH1 0xC0 SHL PUSH2 0x1F5 JUMP JUMPDEST PUSH1 0x0 PUSH20 0xFFFFFFFFFFFFFFFFFFFFFFFFFFFFFFFFFFFFFFFF AND DUP2 PUSH20 0xFFFFFFFFFFFFFFFFFFFFFFFFFFFFFFFFFFFFFFFF AND SUB PUSH2 0xD26 JUMPI PUSH1 0x40 MLOAD PUSH32 0x8C379A000000000000000000000000000000000000000000000000000000000 DUP2 MSTORE PUSH1 0x4 ADD PUSH2 0xD1D SWAP1 PUSH2 0x1483 JUMP JUMPDEST PUSH1 0x40 MLOAD DUP1 SWAP2 SUB SWAP1 REVERT JUMPDEST PUSH2 0xD3A PUSH8 0xAA979C6665B169FB PUSH1 0xC0 SHL PUSH2 0x1F5 JUMP JUMPDEST PUSH2 0xD4E PUSH8 0xBBD61BD8D591EEE2 PUSH1 0xC0 SHL PUSH2 0x1F5 JUMP JUMPDEST PUSH2 0xD62 PUSH8 0x5D0E2FD0C7EB7BE7 PUSH1 0xC0 SHL PUSH2 0x1F5 JUMP JUMPDEST PUSH32 0x5A3E66EFAA1E445EBD894728A69D6959842EA1E97BD79B892797106E270EFCD9 PUSH2 0xD8B PUSH2 0x462 JUMP JUMPDEST DUP3 PUSH1 0x40 MLOAD PUSH2 0xD9A SWAP3 SWAP2 SWAP1 PUSH2 0x152B JUMP JUMPDEST PUSH1 0x40 MLOAD DUP1 SWAP2 SUB SWAP1 LOG1 PUSH2 0xDB6 PUSH8 0x8D1326CF71C166CF PUSH1 0xC0 SHL PUSH2 0x1F5 JUMP JUMPDEST PUSH2 0xDCA PUSH8 0x722AA2CE7B00F7B8 PUSH1 0xC0 SHL PUSH2 0x1F5 JUMP JUMPDEST PUSH2 0xDD3 DUP2 PUSH2 0xF7C JUMP JUMPDEST POP JUMP JUMPDEST PUSH2 0xDEA PUSH8 0x7930F754CCFD872E PUSH1 0xC0 SHL PUSH2 0x1F5 JUMP JUMPDEST PUSH2 0xDFE PUSH8 0xF890474EFDCB8106 PUSH1 0xC0 SHL PUSH2 0x1F5 JUMP JUMPDEST PUSH2 0xE12 PUSH8 0x3DE1BEF6E6A78231 PUSH1 0xC0 SHL PUSH2 0x1F5 JUMP JUMPDEST PUSH1 0x0 PUSH2 0xE1C PUSH2 0x8C3 JUMP JUMPDEST SWAP1 POP PUSH2 0xE32 PUSH8 0x56EC33EB7098342B PUSH1 0xC0 SHL PUSH2 0x1F5 JUMP JUMPDEST PUSH2 0xE46 PUSH8 0xEFCB35F114D60FEF PUSH1 0xC0 SHL PUSH2 0x1F5 JUMP JUMPDEST PUSH2 0xE5A PUSH8 0x2A77D596D6A30B80 PUSH1 0xC0 SHL PUSH2 0x1F5 JUMP JUMPDEST DUP2 PUSH20 0xFFFFFFFFFFFFFFFFFFFFFFFFFFFFFFFFFFFFFFFF AND DUP2 PUSH20 0xFFFFFFFFFFFFFFFFFFFFFFFFFFFFFFFFFFFFFFFF AND SUB PUSH2 0xEC8 JUMPI PUSH1 0x40 MLOAD PUSH32 0x8C379A000000000000000000000000000000000000000000000000000000000 DUP2 MSTORE PUSH1 0x4 ADD PUSH2 0xEBF SWAP1 PUSH2 0x1483 JUMP JUMPDEST PUSH1 0x40 MLOAD DUP1 SWAP2 SUB SWAP1 REVERT JUMPDEST PUSH2 0xEDC PUSH8 0x219F3010AD7B447E PUSH1 0xC0 SHL PUSH2 0x1F5 JUMP JUMPDEST PUSH2 0xEF0 PUSH8 0x3DA3D58405555293 PUSH1 0xC0 SHL PUSH2 0x1F5 JUMP JUMPDEST PUSH2 0xF04 PUSH8 0x72B0B468B1AC5EE6 PUSH1 0xC0 SHL PUSH2 0x1F5 JUMP JUMPDEST PUSH2 0xF0D DUP3 PUSH2 0xFF8 JUMP JUMPDEST PUSH2 0xF21 PUSH8 0x41BC7526F43BA267 PUSH1 0xC0 SHL PUSH2 0x1F5 JUMP JUMPDEST PUSH2 0xF35 PUSH8 0x40E85790988D567C PUSH1 0xC0 SHL PUSH2 0x1F5 JUMP JUMPDEST DUP2 PUSH20 0xFFFFFFFFFFFFFFFFFFFFFFFFFFFFFFFFFFFFFFFF AND PUSH32 0xBC7CD75A20EE27FD9ADEBAB32041F755214DBC6BFFA90CC0225B39DA2E5C2D3B PUSH1 0x40 MLOAD PUSH1 0x40 MLOAD DUP1 SWAP2 SUB SWAP1 LOG2 POP POP JUMP JUMPDEST PUSH2 0xF90 PUSH8 0x39993AB7FEADC7C PUSH1 0xC0 SHL PUSH2 0x1F5 JUMP JUMPDEST PUSH2 0xFA4 PUSH8 0x1DEA32B6F0F0566F PUSH1 0xC0 SHL PUSH2 0x1F5 JUMP JUMPDEST PUSH2 0xFB8 PUSH8 0x49A14DB6EFC92C2B PUSH1 0xC0 SHL PUSH2 0x1F5 JUMP JUMPDEST PUSH1 0x0 PUSH32 0xA840EB9E2AEA75D352F044FB50AF0661D0F0786EE056D03F5B1C91E7291FEC95 SWAP1 POP PUSH2 0xFF1 PUSH8 0x232F3AD4E7BD7263 PUSH1 0xC0 SHL PUSH2 0x1F5 JUMP JUMPDEST DUP2 DUP2 SSTORE POP POP JUMP JUMPDEST PUSH2 0x100C PUSH8 0xD86E1526CA49F90B PUSH1 0xC0 SHL PUSH2 0x1F5 JUMP JUMPDEST PUSH2 0x1020 PUSH8 0xA10F2988AAA27F06 PUSH1 0xC0 SHL PUSH2 0x1F5 JUMP JUMPDEST PUSH2 0x1034 PUSH8 0x8CEB7180B9639CDA PUSH1 0xC0 SHL PUSH2 0x1F5 JUMP JUMPDEST PUSH1 0x0 PUSH32 0x25BEAA34BEBD480D4E804FC571F1ECD9F6AC6BB44FD53BD8D562FC09C3B11C7 SWAP1 POP PUSH2 0x106D PUSH8 0xA13F0557236D3659 PUSH1 0xC0 SHL PUSH2 0x1F5 JUMP JUMPDEST DUP2 DUP2 SSTORE POP POP JUMP JUMPDEST PUSH1 0x0 PUSH20 0xFFFFFFFFFFFFFFFFFFFFFFFFFFFFFFFFFFFFFFFF DUP3 AND SWAP1 POP SWAP2 SWAP1 POP JUMP JUMPDEST PUSH1 0x0 PUSH2 0x109F DUP3 PUSH2 0x1074 JUMP JUMPDEST SWAP1 POP SWAP2 SWAP1 POP JUMP JUMPDEST PUSH2 0x10AF DUP2 PUSH2 0x1094 JUMP JUMPDEST DUP3 MSTORE POP POP JUMP JUMPDEST PUSH1 0x0 PUSH1 0x20 DUP3 ADD SWAP1 POP PUSH2 0x10CA PUSH1 0x0 DUP4 ADD DUP5 PUSH2 0x10A6 JUMP JUMPDEST SWAP3 SWAP2 POP POP JUMP JUMPDEST PUSH1 0x0 PUSH1 0x40 MLOAD SWAP1 POP SWAP1 JUMP JUMPDEST PUSH1 0x0 DUP1 REVERT JUMPDEST PUSH1 0x0 DUP1 REVERT JUMPDEST PUSH2 0x10ED DUP2 PUSH2 0x1094 JUMP JUMPDEST DUP2 EQ PUSH2 0x10F8 JUMPI PUSH1 0x0 DUP1 REVERT JUMPDEST POP JUMP JUMPDEST PUSH1 0x0 DUP2 CALLDATALOAD SWAP1 POP PUSH2 0x110A DUP2 PUSH2 0x10E4 JUMP JUMPDEST SWAP3 SWAP2 POP POP JUMP JUMPDEST PUSH1 0x0 PUSH1 0x20 DUP3 DUP5 SUB SLT ISZERO PUSH2 0x1126 JUMPI PUSH2 0x1125 PUSH2 0x10DA JUMP JUMPDEST JUMPDEST PUSH1 0x0 PUSH2 0x1134 DUP5 DUP3 DUP6 ADD PUSH2 0x10FB JUMP JUMPDEST SWAP2 POP POP SWAP3 SWAP2 POP POP JUMP JUMPDEST PUSH1 0x0 DUP1 REVERT JUMPDEST PUSH1 0x0 DUP1 REVERT JUMPDEST PUSH1 0x0 PUSH1 0x1F NOT PUSH1 0x1F DUP4 ADD AND SWAP1 POP SWAP2 SWAP1 POP JUMP JUMPDEST PUSH32 0x4E487B7100000000000000000000000000000000000000000000000000000000 PUSH1 0x0 MSTORE PUSH1 0x41 PUSH1 0x4 MSTORE PUSH1 0x24 PUSH1 0x0 REVERT JUMPDEST PUSH2 0x1190 DUP3 PUSH2 0x1147 JUMP JUMPDEST DUP2 ADD DUP2 DUP2 LT PUSH8 0xFFFFFFFFFFFFFFFF DUP3 GT OR ISZERO PUSH2 0x11AF JUMPI PUSH2 0x11AE PUSH2 0x1158 JUMP JUMPDEST JUMPDEST DUP1 PUSH1 0x40 MSTORE POP POP POP JUMP JUMPDEST PUSH1 0x0 PUSH2 0x11C2 PUSH2 0x10D0 JUMP JUMPDEST SWAP1 POP PUSH2 0x11CE DUP3 DUP3 PUSH2 0x1187 JUMP JUMPDEST SWAP2 SWAP1 POP JUMP JUMPDEST PUSH1 0x0 PUSH8 0xFFFFFFFFFFFFFFFF DUP3 GT ISZERO PUSH2 0x11EE JUMPI PUSH2 0x11ED PUSH2 0x1158 JUMP JUMPDEST JUMPDEST PUSH2 0x11F7 DUP3 PUSH2 0x1147 JUMP JUMPDEST SWAP1 POP PUSH1 0x20 DUP2 ADD SWAP1 POP SWAP2 SWAP1 POP JUMP JUMPDEST DUP3 DUP2 DUP4 CALLDATACOPY PUSH1 0x0 DUP4 DUP4 ADD MSTORE POP POP POP JUMP JUMPDEST PUSH1 0x0 PUSH2 0x1226 PUSH2 0x1221 DUP5 PUSH2 0x11D3 JUMP JUMPDEST PUSH2 0x11B8 JUMP JUMPDEST SWAP1 POP DUP3 DUP2 MSTORE PUSH1 0x20 DUP2 ADD DUP5 DUP5 DUP5 ADD GT ISZERO PUSH2 0x1242 JUMPI PUSH2 0x1241 PUSH2 0x1142 JUMP JUMPDEST JUMPDEST PUSH2 0x124D DUP5 DUP3 DUP6 PUSH2 0x1204 JUMP JUMPDEST POP SWAP4 SWAP3 POP POP POP JUMP JUMPDEST PUSH1 0x0 DUP3 PUSH1 0x1F DUP4 ADD SLT PUSH2 0x126A JUMPI PUSH2 0x1269 PUSH2 0x113D JUMP JUMPDEST JUMPDEST DUP2 CALLDATALOAD PUSH2 0x127A DUP5 DUP3 PUSH1 0x20 DUP7 ADD PUSH2 0x1213 JUMP JUMPDEST SWAP2 POP POP SWAP3 SWAP2 POP POP JUMP JUMPDEST PUSH1 0x0 DUP1 PUSH1 0x40 DUP4 DUP6 SUB SLT ISZERO PUSH2 0x129A JUMPI PUSH2 0x1299 PUSH2 0x10DA JUMP JUMPDEST JUMPDEST PUSH1 0x0 PUSH2 0x12A8 DUP6 DUP3 DUP7 ADD PUSH2 0x10FB JUMP JUMPDEST SWAP3 POP POP PUSH1 0x20 DUP4 ADD CALLDATALOAD PUSH8 0xFFFFFFFFFFFFFFFF DUP2 GT ISZERO PUSH2 0x12C9 JUMPI PUSH2 0x12C8 PUSH2 0x10DF JUMP JUMPDEST JUMPDEST PUSH2 0x12D5 DUP6 DUP3 DUP7 ADD PUSH2 0x1255 JUMP JUMPDEST SWAP2 POP POP SWAP3 POP SWAP3 SWAP1 POP JUMP JUMPDEST PUSH1 0x0 DUP2 ISZERO ISZERO SWAP1 POP SWAP2 SWAP1 POP JUMP JUMPDEST PUSH2 0x12F4 DUP2 PUSH2 0x12DF JUMP JUMPDEST DUP2 EQ PUSH2 0x12FF JUMPI PUSH1 0x0 DUP1 REVERT JUMPDEST POP JUMP JUMPDEST PUSH1 0x0 DUP2 CALLDATALOAD SWAP1 POP PUSH2 0x1311 DUP2 PUSH2 0x12EB JUMP JUMPDEST SWAP3 SWAP2 POP POP JUMP JUMPDEST PUSH1 0x0 PUSH1 0x20 DUP3 DUP5 SUB SLT ISZERO PUSH2 0x132D JUMPI PUSH2 0x132C PUSH2 0x10DA JUMP JUMPDEST JUMPDEST PUSH1 0x0 PUSH2 0x133B DUP5 DUP3 DUP6 ADD PUSH2 0x1302 JUMP JUMPDEST SWAP2 POP POP SWAP3 SWAP2 POP POP JUMP JUMPDEST PUSH2 0x134D DUP2 PUSH2 0x12DF JUMP JUMPDEST DUP3 MSTORE POP POP JUMP JUMPDEST PUSH1 0x0 PUSH1 0x20 DUP3 ADD SWAP1 POP PUSH2 0x1368 PUSH1 0x0 DUP4 ADD DUP5 PUSH2 0x1344 JUMP JUMPDEST SWAP3 SWAP2 POP POP JUMP JUMPDEST PUSH1 0x0 DUP3 DUP3 MSTORE PUSH1 0x20 DUP3 ADD SWAP1 POP SWAP3 SWAP2 POP POP JUMP JUMPDEST PUSH32 0x4F776E6564557067726164656162696C69747950726F78793A20464F52424944 PUSH1 0x0 DUP3 ADD MSTORE PUSH32 0x44454E0000000000000000000000000000000000000000000000000000000000 PUSH1 0x20 DUP3 ADD MSTORE POP JUMP JUMPDEST PUSH1 0x0 PUSH2 0x13DB PUSH1 0x23 DUP4 PUSH2 0x136E JUMP JUMPDEST SWAP2 POP PUSH2 0x13E6 DUP3 PUSH2 0x137F JUMP JUMPDEST PUSH1 0x40 DUP3 ADD SWAP1 POP SWAP2 SWAP1 POP JUMP JUMPDEST PUSH1 0x0 PUSH1 0x20 DUP3 ADD SWAP1 POP DUP2 DUP2 SUB PUSH1 0x0 DUP4 ADD MSTORE PUSH2 0x140A DUP2 PUSH2 0x13CE JUMP JUMPDEST SWAP1 POP SWAP2 SWAP1 POP JUMP JUMPDEST PUSH32 0x4F776E6564557067726164656162696C69747950726F78793A20494E56414C49 PUSH1 0x0 DUP3 ADD MSTORE PUSH32 0x4400000000000000000000000000000000000000000000000000000000000000 PUSH1 0x20 DUP3 ADD MSTORE POP JUMP JUMPDEST PUSH1 0x0 PUSH2 0x146D PUSH1 0x21 DUP4 PUSH2 0x136E JUMP JUMPDEST SWAP2 POP PUSH2 0x1478 DUP3 PUSH2 0x1411 JUMP JUMPDEST PUSH1 0x40 DUP3 ADD SWAP1 POP SWAP2 SWAP1 POP JUMP JUMPDEST PUSH1 0x0 PUSH1 0x20 DUP3 ADD SWAP1 POP DUP2 DUP2 SUB PUSH1 0x0 DUP4 ADD MSTORE PUSH2 0x149C DUP2 PUSH2 0x1460 JUMP JUMPDEST SWAP1 POP SWAP2 SWAP1 POP JUMP JUMPDEST PUSH1 0x0 DUP2 MLOAD SWAP1 POP SWAP2 SWAP1 POP JUMP JUMPDEST PUSH1 0x0 DUP2 SWAP1 POP SWAP3 SWAP2 POP POP JUMP JUMPDEST PUSH1 0x0 JUMPDEST DUP4 DUP2 LT ISZERO PUSH2 0x14D7 JUMPI DUP1 DUP3 ADD MLOAD DUP2 DUP5 ADD MSTORE PUSH1 0x20 DUP2 ADD SWAP1 POP PUSH2 0x14BC JUMP JUMPDEST PUSH1 0x0 DUP5 DUP5 ADD MSTORE POP POP POP POP JUMP JUMPDEST PUSH1 0x0 PUSH2 0x14EE DUP3 PUSH2 0x14A3 JUMP JUMPDEST PUSH2 0x14F8 DUP2 DUP6 PUSH2 0x14AE JUMP JUMPDEST SWAP4 POP PUSH2 0x1508 DUP2 DUP6 PUSH1 0x20 DUP7 ADD PUSH2 0x14B9 JUMP JUMPDEST DUP1 DUP5 ADD SWAP2 POP POP SWAP3 SWAP2 POP POP JUMP JUMPDEST PUSH1 0x0 PUSH2 0x1520 DUP3 DUP5 PUSH2 0x14E3 JUMP JUMPDEST SWAP2 POP DUP2 SWAP1 POP SWAP3 SWAP2 POP POP JUMP JUMPDEST PUSH1 0x0 PUSH1 0x40 DUP3 ADD SWAP1 POP PUSH2 0x1540 PUSH1 0x0 DUP4 ADD DUP6 PUSH2 0x10A6 JUMP JUMPDEST PUSH2 0x154D PUSH1 0x20 DUP4 ADD DUP5 PUSH2 0x10A6 JUMP JUMPDEST SWAP4 SWAP3 POP POP POP JUMP INVALID LOG2 PUSH5 0x6970667358 0x22 SLT KECCAK256 0xC9 0xD7 POP BASEFEE LOG2 0xCE INVALID 0xA8 0xE2 SWAP8 0xC6 PUSH15 0x4A2ED99FC46E7F3BC4889584FAE2A PUSH26 0x68DC39A64736F6C634300081200330000000000000000000000 "},"methodIdentifiers":{"implementation()":"5c60da1b","maintenance()":"6c376cc5","proxyOwner()":"025313a2","setMaintenance(bool)":"612f2f37","transferProxyOwnership(address)":"f1739cae","upgradeTo(address)":"3659cfe6","upgradeToAndCall(address,bytes)":"4f1ef286"}}}}}