{"contracts/Marketplace.sol":{"MarketPlace":{"abi":[{"inputs":[{"internalType":"address","name":"_caller","type":"address"},{"internalType":"bool","name":"_isAdmin","type":"bool"}],"name":"notSubAdmin","type":"error"},{"inputs":[{"internalType":"address","name":"_caller","type":"address"},{"internalType":"address","name":"_superAdmin","type":"address"}],"name":"notSuperAdmin","type":"error"},{"inputs":[],"name":"unmatchedLength","type":"error"},{"inputs":[],"name":"zeroAddress","type":"error"},{"inputs":[],"name":"zeroAmount","type":"error"},{"anonymous":false,"inputs":[{"indexed":false,"internalType":"uint256[]","name":"_tokenIds","type":"uint256[]"},{"indexed":false,"internalType":"uint256[]","name":"_amounts","type":"uint256[]"},{"indexed":false,"internalType":"address","name":"_buyer","type":"address"}],"name":"BuyBatchNFT","type":"event"},{"anonymous":false,"inputs":[{"indexed":false,"internalType":"uint8","name":"version","type":"uint8"}],"name":"Initialized","type":"event"},{"anonymous":false,"inputs":[{"indexed":false,"internalType":"address","name":"userAddress","type":"address"},{"indexed":false,"internalType":"address payable","name":"relayerAddress","type":"address"},{"indexed":false,"internalType":"bytes","name":"functionSignature","type":"bytes"}],"name":"MetaTransactionExecuted","type":"event"},{"inputs":[{"internalType":"uint256","name":"","type":"uint256"}],"name":"amountLeft","outputs":[{"internalType":"uint256","name":"","type":"uint256"}],"stateMutability":"view","type":"function"},{"inputs":[{"internalType":"address","name":"_admin","type":"address"}],"name":"assignAdmin","outputs":[],"stateMutability":"nonpayable","type":"function"},{"inputs":[{"internalType":"address[]","name":"_sellers","type":"address[]"},{"internalType":"address[]","name":"_royaltyKeepers","type":"address[]"},{"internalType":"address","name":"_buyer","type":"address"},{"internalType":"uint256[]","name":"_tokenIds","type":"uint256[]"},{"internalType":"uint256[]","name":"_amounts","type":"uint256[]"},{"internalType":"uint96[]","name":"_royaltyFees","type":"uint96[]"},{"internalType":"string[]","name":"_tokenURIs","type":"string[]"},{"internalType":"bool[]","name":"_isPrimary","type":"bool[]"}],"name":"buyBatchNFT","outputs":[],"stateMutability":"nonpayable","type":"function"},{"inputs":[{"internalType":"address","name":"_seller","type":"address"},{"internalType":"address","name":"_royaltyKeeper","type":"address"},{"internalType":"address","name":"_buyer","type":"address"},{"internalType":"uint256","name":"_tokenId","type":"uint256"},{"internalType":"uint256","name":"_amount","type":"uint256"},{"internalType":"uint96","name":"_royaltyFee","type":"uint96"},{"internalType":"string","name":"_tokenURI","type":"string"},{"internalType":"bool","name":"_isPrimary","type":"bool"}],"name":"buyNFT","outputs":[],"stateMutability":"nonpayable","type":"function"},{"inputs":[{"internalType":"address","name":"userAddress","type":"address"},{"internalType":"bytes","name":"functionSignature","type":"bytes"},{"internalType":"bytes32","name":"sigR","type":"bytes32"},{"internalType":"bytes32","name":"sigS","type":"bytes32"},{"internalType":"uint8","name":"sigV","type":"uint8"}],"name":"executeMetaTransaction","outputs":[{"internalType":"bytes","name":"","type":"bytes"}],"stateMutability":"payable","type":"function"},{"inputs":[],"name":"getChainID","outputs":[{"internalType":"uint256","name":"","type":"uint256"}],"stateMutability":"view","type":"function"},{"inputs":[{"internalType":"address","name":"user","type":"address"}],"name":"getNonce","outputs":[{"internalType":"uint256","name":"nonce","type":"uint256"}],"stateMutability":"view","type":"function"},{"inputs":[{"internalType":"address","name":"_NFT","type":"address"},{"internalType":"address","name":"_admin","type":"address"}],"name":"initialize","outputs":[],"stateMutability":"nonpayable","type":"function"},{"inputs":[{"internalType":"address","name":"","type":"address"}],"name":"isSubAdmin","outputs":[{"internalType":"bool","name":"","type":"bool"}],"stateMutability":"view","type":"function"},{"inputs":[{"internalType":"address","name":"_admin","type":"address"}],"name":"removeAdmin","outputs":[],"stateMutability":"nonpayable","type":"function"},{"inputs":[],"name":"superAdmin","outputs":[{"internalType":"address","name":"","type":"address"}],"stateMutability":"view","type":"function"},{"inputs":[{"internalType":"address","name":"_admin","type":"address"}],"name":"updateAdmin","outputs":[],"stateMutability":"nonpayable","type":"function"},{"inputs":[{"internalType":"uint256","name":"","type":"uint256"}],"name":"usedListingCounters","outputs":[{"internalType":"bool","name":"","type":"bool"}],"stateMutability":"view","type":"function"},{"inputs":[{"internalType":"address","name":"owner","type":"address"},{"internalType":"uint256","name":"nonce","type":"uint256"},{"internalType":"uint256","name":"chainID","type":"uint256"},{"internalType":"bytes","name":"functionSignature","type":"bytes"},{"internalType":"bytes32","name":"sigR","type":"bytes32"},{"internalType":"bytes32","name":"sigS","type":"bytes32"},{"internalType":"uint8","name":"sigV","type":"uint8"}],"name":"verify","outputs":[{"internalType":"bool","name":"","type":"bool"}],"stateMutability":"view","type":"function"}],"evm":{"bytecode":{"linkReferences":{},"object":"608060405234801561001057600080fd5b506135ad806100206000396000f3fe6080604052600436106100dd5760003560e01c8063564b81ef1161007f5780637bde32a5116100595780637bde32a5146102c3578063a8368f33146102ec578063d1c63b2114610329578063e2f273bd14610366576100dd565b8063564b81ef146102325780636281133d1461025d5780636d7db13c1461029a576100dd565b80632d0335ab116100bb5780632d0335ab146101665780633da7d2ed146101a3578063485cc955146101cc5780634d839081146101f5576100dd565b80630c53c51c146100e25780631785f53c1461011257806329575f6a1461013b575b600080fd5b6100fc60048036038101906100f79190612218565b61038f565b604051610109919061232e565b60405180910390f35b34801561011e57600080fd5b5061013960048036038101906101349190612350565b610713565b005b34801561014757600080fd5b50610150610900565b60405161015d919061238c565b60405180910390f35b34801561017257600080fd5b5061018d60048036038101906101889190612350565b610926565b60405161019a91906123c0565b60405180910390f35b3480156101af57600080fd5b506101ca60048036038101906101c59190612350565b610997565b005b3480156101d857600080fd5b506101f360048036038101906101ee91906123db565b610b84565b005b34801561020157600080fd5b5061021c60048036038101906102179190612447565b610e0e565b604051610229919061248f565b60405180910390f35b34801561023e57600080fd5b50610247610e2e565b60405161025491906123c0565b60405180910390f35b34801561026957600080fd5b50610284600480360381019061027f91906124aa565b610eb4565b604051610291919061248f565b60405180910390f35b3480156102a657600080fd5b506102c160048036038101906102bc9190612a6b565b6110cb565b005b3480156102cf57600080fd5b506102ea60048036038101906102e59190612be5565b61156c565b005b3480156102f857600080fd5b50610313600480360381019061030e9190612447565b611b88565b60405161032091906123c0565b60405180910390f35b34801561033557600080fd5b50610350600480360381019061034b9190612350565b611ba0565b60405161035d919061248f565b60405180910390f35b34801561037257600080fd5b5061038d60048036038101906103889190612350565b611bc0565b005b60606103a567513dbce2fc90e45e60c01b611d96565b6103b967590a28232c61349d60c01b611d96565b6103cd67089cd2f2cb4265e860c01b611d96565b6103e16737fd1a78487506cd60c01b611d96565b61043686600160008973ffffffffffffffffffffffffffffffffffffffff1673ffffffffffffffffffffffffffffffffffffffff1681526020019081526020016000205461042d610e2e565b88888888610eb4565b610475576040517f08c379a000000000000000000000000000000000000000000000000000000000815260040161046c90612d3a565b60405180910390fd5b610489673fcd70263a8b244060c01b611d96565b61049d67276eb884b10acb6860c01b611d96565b6104ef60018060008973ffffffffffffffffffffffffffffffffffffffff1673ffffffffffffffffffffffffffffffffffffffff16815260200190815260200160002054611d9990919063ffffffff16565b600160008873ffffffffffffffffffffffffffffffffffffffff1673ffffffffffffffffffffffffffffffffffffffff1681526020019081526020016000208190555061054667492d088303cb613860c01b611d96565b61055a6735a89eaaea7aef1060c01b611d96565b6000803073ffffffffffffffffffffffffffffffffffffffff168789604051602001610587929190612dde565b6040516020818303038152906040526040516105a39190612e06565b6000604051808303816000865af19150503d80600081146105e0576040519150601f19603f3d011682016040523d82523d6000602084013e6105e5565b606091505b50915091506105fe67f0ccc6f61ad78a2060c01b611d96565b61061267d2af4b3097e7572960c01b611d96565b610626677f2625b0ed9c3eba60c01b611d96565b81610666576040517f08c379a000000000000000000000000000000000000000000000000000000000815260040161065d90612e69565b60405180910390fd5b61067a672a067640dbbf31e360c01b611d96565b61068e67486d9fc4a5d7aff260c01b611d96565b6106a267c422c69189914f1d60c01b611d96565b7f5845892132946850460bff5a0083f71031bc5bf9aadcd40f1de79423eac9b10b8833896040516106d593929190612eaa565b60405180910390a16106f1673677b7211155450060c01b611d96565b61070567a1b9117eade5307360c01b611d96565b809250505095945050505050565b6107276776b2023a7af5a20160c01b611daf565b61073b67e3c20a630061e09960c01b611daf565b61074f6755fca310200dd62460c01b611daf565b6107636766bd94ed27746dd060c01b611daf565b600260009054906101000a900473ffffffffffffffffffffffffffffffffffffffff1673ffffffffffffffffffffffffffffffffffffffff163373ffffffffffffffffffffffffffffffffffffffff1614610841576107cc67961bbb5987b9fed560c01b611daf565b6107e0675e170420ccb2b1c460c01b611daf565b33600260009054906101000a900473ffffffffffffffffffffffffffffffffffffffff166040517fe0c0b609000000000000000000000000000000000000000000000000000000008152600401610838929190612ee8565b60405180910390fd5b61085567b456828e0f8e8e0960c01b611daf565b610869670d566844bb31a8cf60c01b611daf565b61087d671c6c1e4eafb1fd5760c01b611daf565b61089167f9af2dc59c98a5dc60c01b611daf565b6108a567834114a22b786e1860c01b611daf565b6000600760008373ffffffffffffffffffffffffffffffffffffffff1673ffffffffffffffffffffffffffffffffffffffff16815260200190815260200160002060006101000a81548160ff02191690831515021790555050565b600260009054906101000a900473ffffffffffffffffffffffffffffffffffffffff1681565b600061093c67e7b80efbcbfaf42160c01b611d96565b6109506707db74373afd9a7860c01b611d96565b600160008373ffffffffffffffffffffffffffffffffffffffff1673ffffffffffffffffffffffffffffffffffffffff168152602001908152602001600020549050919050565b6109ab67f76f9d61cbf927a460c01b611daf565b6109bf67e3c20a630061e09960c01b611daf565b6109d36755fca310200dd62460c01b611daf565b6109e76766bd94ed27746dd060c01b611daf565b600260009054906101000a900473ffffffffffffffffffffffffffffffffffffffff1673ffffffffffffffffffffffffffffffffffffffff163373ffffffffffffffffffffffffffffffffffffffff1614610ac557610a5067961bbb5987b9fed560c01b611daf565b610a64675e170420ccb2b1c460c01b611daf565b33600260009054906101000a900473ffffffffffffffffffffffffffffffffffffffff166040517fe0c0b609000000000000000000000000000000000000000000000000000000008152600401610abc929190612ee8565b60405180910390fd5b610ad967b456828e0f8e8e0960c01b611daf565b610aed670d566844bb31a8cf60c01b611daf565b610b0167ac1b931db620b60860c01b611daf565b610b1567404416530b3ea1ab60c01b611daf565b610b296708707d9a57b7c53960c01b611daf565b6001600760008373ffffffffffffffffffffffffffffffffffffffff1673ffffffffffffffffffffffffffffffffffffffff16815260200190815260200160002060006101000a81548160ff02191690831515021790555050565b610b9867d3c42be5e16bdc9560c01b611daf565b60008060019054906101000a900460ff16159050808015610bc95750600160008054906101000a900460ff1660ff16105b80610bf65750610bd830611db2565b158015610bf55750600160008054906101000a900460ff1660ff16145b5b610c35576040517f08c379a0000000000000000000000000000000000000000000000000000000008152600401610c2c90612f83565b60405180910390fd5b60016000806101000a81548160ff021916908360ff1602179055508015610c72576001600060016101000a81548160ff0219169083151502179055505b610c8667ce7fc71cdb9eae3860c01b611daf565b610c9a67329f341574018dd360c01b611daf565b610cae67297251f18a04ee7c60c01b611daf565b81600260006101000a81548173ffffffffffffffffffffffffffffffffffffffff021916908373ffffffffffffffffffffffffffffffffffffffff160217905550610d0367dbc5ff1b7e37b73460c01b611daf565b6001600760008473ffffffffffffffffffffffffffffffffffffffff1673ffffffffffffffffffffffffffffffffffffffff16815260200190815260200160002060006101000a81548160ff021916908315150217905550610d6f67b9cb8b63171a836e60c01b611daf565b82600460006101000a81548173ffffffffffffffffffffffffffffffffffffffff021916908373ffffffffffffffffffffffffffffffffffffffff1602179055508015610e095760008060016101000a81548160ff0219169083151502179055507f7f26b83ff96e1f2b6a682f133852f6798a09c465da95921460cefb38474024986001604051610e009190612fe8565b60405180910390a15b505050565b60056020528060005260406000206000915054906101000a900460ff1681565b6000610e4467d257e0777ed0857c60c01b611d96565b610e5867d0debb57994782e260c01b611d96565b610e6c67fb25d02c956731bb60c01b611d96565b6000610e8267305f3e9c68bad6b060c01b611d96565b469050610e99675072cd0eb5ff6d0f60c01b611d96565b610ead67bf9d228d91067cce60c01b611d96565b8091505090565b6000610eca670a17deb9bda579e960c01b611d96565b610ede67943a6dfd45a8e7b860c01b611d96565b610ef267e47197799d32c37d60c01b611d96565b6000610f2988308989604051602001610f0e9493929190613081565b60405160208183030381529060405280519060200120611dd5565b9050610f3f67f9f84b37c114e55460c01b611d96565b610f5367a39bbf534729363e60c01b611d96565b600060018285888860405160008152602001604052604051610f7894939291906130e9565b6020604051602081039080840390855afa158015610f9a573d6000803e3d6000fd5b505050602060405103519050610fba676ac9a63df9cd283460c01b611d96565b610fce67d6bcb4df129be36660c01b611d96565b610fe267a2100578929bb6f460c01b611d96565b600073ffffffffffffffffffffffffffffffffffffffff168173ffffffffffffffffffffffffffffffffffffffff1603611051576040517f08c379a00000000000000000000000000000000000000000000000000000000081526004016110489061317a565b60405180910390fd5b611065677d672cf991e3a65b60c01b611d96565b611079673548a97f24d1b1e060c01b611d96565b61108d6759346b389ef422f660c01b611d96565b8073ffffffffffffffffffffffffffffffffffffffff168a73ffffffffffffffffffffffffffffffffffffffff161492505050979650505050505050565b6110df6772b9d756d1c6555b60c01b611daf565b6110f3670f8487125a60449160c01b611daf565b61110767859e8d65d3f8c5ad60c01b611daf565b61111b67ae81740afc9298f060c01b611daf565b60076000611127611e41565b73ffffffffffffffffffffffffffffffffffffffff1673ffffffffffffffffffffffffffffffffffffffff16815260200190815260200160002060009054906101000a900460ff166111db5761118767e8fc54f6fcd14ef660c01b611daf565b61119b67dda1ccc0f9cffe2c60c01b611daf565b3360006040517f5a7bfb600000000000000000000000000000000000000000000000000000000081526004016111d292919061319a565b60405180910390fd5b6111ef67fa859c5324a9eb3060c01b611daf565b61120367d7d23955c901185060c01b611daf565b61121767f7ff91ef53a6952260c01b611daf565b61122b673890c96259181f6e60c01b611daf565b61123f6737b1be16fc1df80360c01b611daf565b61125367dfedca06283cf8ad60c01b611daf565b8451885114158015611275575061127467ffb283ef4d676bb560c01b611fe6565b5b806112ba5750835188511415801561129d575061129c6784add05cd32a00e060c01b611fe6565b5b80156112b957506112b86761e9666ce8cadabe60c01b611fe6565b5b5b806112ff575081518851141580156112e257506112e167de0d4832385b3a6c60c01b611fe6565b5b80156112fe57506112fd6716d3d90be5c565ab60c01b611fe6565b5b5b8061132857508251885114158015611327575061132667ff5d84f26a810f3060c01b611fe6565b5b5b1561138757611341679638f5643ae068cd60c01b611daf565b611355670f9945717cc3ba6a60c01b611daf565b6040517f07fbab8300000000000000000000000000000000000000000000000000000000815260040160405180910390fd5b61139b67c43432189d898fd060c01b611daf565b6113af671ad9ce8620158b1760c01b611daf565b6113c36797671eed4ea7664660c01b611daf565b6000855190506113dd67e7179151fe46205960c01b611daf565b6113f167193e7ee9ec22ea7e60c01b611daf565b60005b818110156114fd576114106795f0bceca438295c60c01b611daf565b61142467c235df2d6165bbb960c01b611daf565b6114ea8a828151811061143a576114396131c3565b5b60200260200101518a8381518110611455576114546131c3565b5b60200260200101518a8a8581518110611471576114706131c3565b5b60200260200101518a868151811061148c5761148b6131c3565b5b60200260200101518a87815181106114a7576114a66131c3565b5b60200260200101518a88815181106114c2576114c16131c3565b5b60200260200101518a89815181106114dd576114dc6131c3565b5b602002602001015161156c565b80806114f590613221565b9150506113f4565b50611512675e4600dad5fd5d0a60c01b611daf565b6115266733f6131976ad636360c01b611daf565b7fa87364a9c0c5428b6696c98226dd802d810b8b86e9e520b250fd2390fdaab2ed86868960405161155993929190613327565b60405180910390a1505050505050505050565b61158067045edfc9e80575a260c01b611daf565b611594670f8487125a60449160c01b611daf565b6115a867859e8d65d3f8c5ad60c01b611daf565b6115bc67ae81740afc9298f060c01b611daf565b600760006115c8611e41565b73ffffffffffffffffffffffffffffffffffffffff1673ffffffffffffffffffffffffffffffffffffffff16815260200190815260200160002060009054906101000a900460ff1661167c5761162867e8fc54f6fcd14ef660c01b611daf565b61163c67dda1ccc0f9cffe2c60c01b611daf565b3360006040517f5a7bfb6000000000000000000000000000000000000000000000000000000000815260040161167392919061319a565b60405180910390fd5b61169067fa859c5324a9eb3060c01b611daf565b6116a467d7d23955c901185060c01b611daf565b6116b86718e977b0b55bd8fa60c01b611daf565b6116cc674bd701d28b1b7acf60c01b611daf565b6116e06745306003ab068fe860c01b611daf565b6116f467ea21f22114fc0b5360c01b611daf565b600073ffffffffffffffffffffffffffffffffffffffff168873ffffffffffffffffffffffffffffffffffffffff16148015611740575061173f670189c15d55f163f060c01b611fe6565b5b806117af5750600073ffffffffffffffffffffffffffffffffffffffff168673ffffffffffffffffffffffffffffffffffffffff1614801561179257506117916709640438da2f524460c01b611fe6565b5b80156117ae57506117ad67a49329148e7d2b5660c01b611fe6565b5b5b806118025750600073ffffffffffffffffffffffffffffffffffffffff168773ffffffffffffffffffffffffffffffffffffffff161480156118015750611800671ecbcd4321347fac60c01b611fe6565b5b5b156118615761181b678b773014d0557ad960c01b611daf565b61182f675d55f854883ba40860c01b611daf565b6040517f0930907b00000000000000000000000000000000000000000000000000000000815260040160405180910390fd5b61187567d270e30cfc1a598060c01b611daf565b611889679137341506ddd0a260c01b611daf565b61189d67da5e547e98a87f9d60c01b611daf565b6000841480156118bd57506118bc67ab737af424d9430b60c01b611fe6565b5b8061190057506000851480156118e357506118e267a689fdd31bbc296660c01b611fe6565b5b80156118ff57506118fe674a51ce1d3fcf255b60c01b611fe6565b5b5b8061193557506000836bffffffffffffffffffffffff16148015611934575061193367c6a7ef0539628f6660c01b611fe6565b5b5b156119945761194e678c67798841f9144c60c01b611daf565b61196267162389fef72563d760c01b611daf565b6040517f7685565700000000000000000000000000000000000000000000000000000000815260040160405180910390fd5b6119a867700b10548388e74160c01b611daf565b6119bc67c3b75c3e46089b7a60c01b611daf565b6119d067aff805d31117da0d60c01b611daf565b8015611aae576119ea674b38c3ea1825e91060c01b611daf565b6119fe67cb7f4e25e5b8ab2c60c01b611daf565b611a1267655141eaa55fd29760c01b611daf565b600460009054906101000a900473ffffffffffffffffffffffffffffffffffffffff1673ffffffffffffffffffffffffffffffffffffffff166391ef38ba86868b8a88886040518763ffffffff1660e01b8152600401611a77969594939291906133bf565b600060405180830381600087803b158015611a9157600080fd5b505af1158015611aa5573d6000803e3d6000fd5b50505050611b7e565b611ac267669510008092d1d260c01b611daf565b611ad6673ef5fe5494e74ab360c01b611daf565b611aea67966657fedd3fcae460c01b611daf565b600460009054906101000a900473ffffffffffffffffffffffffffffffffffffffff1673ffffffffffffffffffffffffffffffffffffffff1663f242432a898888886040518563ffffffff1660e01b8152600401611b4b949392919061344d565b600060405180830381600087803b158015611b6557600080fd5b505af1158015611b79573d6000803e3d6000fd5b505050505b5050505050505050565b60066020528060005260406000206000915090505481565b60076020528060005260406000206000915054906101000a900460ff1681565b611bd4674f8aa211ed82d16e60c01b611daf565b611be867e3c20a630061e09960c01b611daf565b611bfc6755fca310200dd62460c01b611daf565b611c106766bd94ed27746dd060c01b611daf565b600260009054906101000a900473ffffffffffffffffffffffffffffffffffffffff1673ffffffffffffffffffffffffffffffffffffffff163373ffffffffffffffffffffffffffffffffffffffff1614611cee57611c7967961bbb5987b9fed560c01b611daf565b611c8d675e170420ccb2b1c460c01b611daf565b33600260009054906101000a900473ffffffffffffffffffffffffffffffffffffffff166040517fe0c0b609000000000000000000000000000000000000000000000000000000008152600401611ce5929190612ee8565b60405180910390fd5b611d0267b456828e0f8e8e0960c01b611daf565b611d16670d566844bb31a8cf60c01b611daf565b611d2a6719a230423e3508e560c01b611daf565b611d3e67b2df7d0ade69bb7760c01b611daf565b611d5267f16672c9db4efb7960c01b611daf565b80600260006101000a81548173ffffffffffffffffffffffffffffffffffffffff021916908373ffffffffffffffffffffffffffffffffffffffff16021790555050565b50565b60008183611da791906134a5565b905092915050565b50565b6000808273ffffffffffffffffffffffffffffffffffffffff163b119050919050565b6000611deb67743a10b4f2a7b8be60c01b611d96565b611dff67c99765e4c7e2b1c460c01b611d96565b611e1367786bca11b019730060c01b611d96565b81604051602001611e249190613551565b604051602081830303815290604052805190602001209050919050565b6000611e57674a46e46642034e6d60c01b611daf565b611e6b67242eebd69bd05e7660c01b611daf565b611e7f672674998e693f0c9d60c01b611daf565b3073ffffffffffffffffffffffffffffffffffffffff163373ffffffffffffffffffffffffffffffffffffffff1603611f9e57611ec6672cc2986f82e1d09760c01b611daf565b611eda674f19b4b3da7809fb60c01b611daf565b611eee6754af4b26fa63e7fd60c01b611daf565b600080368080601f016020809104026020016040519081016040528093929190818152602001838380828437600081840152601f19601f820116905080830192505050505050509050611f4b67c3e7e5b8ebcb3cb460c01b611daf565b611f5f6768f7ecf733da426360c01b611daf565b6000803690509050611f7b671d7e05a212885de660c01b611daf565b73ffffffffffffffffffffffffffffffffffffffff818301511692505050611fe2565b611fb267aced266a99f58ab260c01b611daf565b611fc6670d26c969cbf1e0b560c01b611daf565b611fda674fa6cb2db4eababb60c01b611daf565b339050611fe3565b5b90565b600060019050919050565b6000604051905090565b600080fd5b600080fd5b600073ffffffffffffffffffffffffffffffffffffffff82169050919050565b600061203082612005565b9050919050565b61204081612025565b811461204b57600080fd5b50565b60008135905061205d81612037565b92915050565b600080fd5b600080fd5b6000601f19601f8301169050919050565b7f4e487b7100000000000000000000000000000000000000000000000000000000600052604160045260246000fd5b6120b68261206d565b810181811067ffffffffffffffff821117156120d5576120d461207e565b5b80604052505050565b60006120e8611ff1565b90506120f482826120ad565b919050565b600067ffffffffffffffff8211156121145761211361207e565b5b61211d8261206d565b9050602081019050919050565b82818337600083830152505050565b600061214c612147846120f9565b6120de565b90508281526020810184848401111561216857612167612068565b5b61217384828561212a565b509392505050565b600082601f8301126121905761218f612063565b5b81356121a0848260208601612139565b91505092915050565b6000819050919050565b6121bc816121a9565b81146121c757600080fd5b50565b6000813590506121d9816121b3565b92915050565b600060ff82169050919050565b6121f5816121df565b811461220057600080fd5b50565b600081359050612212816121ec565b92915050565b600080600080600060a0868803121561223457612233611ffb565b5b60006122428882890161204e565b955050602086013567ffffffffffffffff81111561226357612262612000565b5b61226f8882890161217b565b9450506040612280888289016121ca565b9350506060612291888289016121ca565b92505060806122a288828901612203565b9150509295509295909350565b600081519050919050565b600082825260208201905092915050565b60005b838110156122e95780820151818401526020810190506122ce565b60008484015250505050565b6000612300826122af565b61230a81856122ba565b935061231a8185602086016122cb565b6123238161206d565b840191505092915050565b6000602082019050818103600083015261234881846122f5565b905092915050565b60006020828403121561236657612365611ffb565b5b60006123748482850161204e565b91505092915050565b61238681612025565b82525050565b60006020820190506123a1600083018461237d565b92915050565b6000819050919050565b6123ba816123a7565b82525050565b60006020820190506123d560008301846123b1565b92915050565b600080604083850312156123f2576123f1611ffb565b5b60006124008582860161204e565b92505060206124118582860161204e565b9150509250929050565b612424816123a7565b811461242f57600080fd5b50565b6000813590506124418161241b565b92915050565b60006020828403121561245d5761245c611ffb565b5b600061246b84828501612432565b91505092915050565b60008115159050919050565b61248981612474565b82525050565b60006020820190506124a46000830184612480565b92915050565b600080600080600080600060e0888a0312156124c9576124c8611ffb565b5b60006124d78a828b0161204e565b97505060206124e88a828b01612432565b96505060406124f98a828b01612432565b955050606088013567ffffffffffffffff81111561251a57612519612000565b5b6125268a828b0161217b565b94505060806125378a828b016121ca565b93505060a06125488a828b016121ca565b92505060c06125598a828b01612203565b91505092959891949750929550565b600067ffffffffffffffff8211156125835761258261207e565b5b602082029050602081019050919050565b600080fd5b60006125ac6125a784612568565b6120de565b905080838252602082019050602084028301858111156125cf576125ce612594565b5b835b818110156125f857806125e4888261204e565b8452602084019350506020810190506125d1565b5050509392505050565b600082601f83011261261757612616612063565b5b8135612627848260208601612599565b91505092915050565b600067ffffffffffffffff82111561264b5761264a61207e565b5b602082029050602081019050919050565b600061266f61266a84612630565b6120de565b9050808382526020820190506020840283018581111561269257612691612594565b5b835b818110156126bb57806126a78882612432565b845260208401935050602081019050612694565b5050509392505050565b600082601f8301126126da576126d9612063565b5b81356126ea84826020860161265c565b91505092915050565b600067ffffffffffffffff82111561270e5761270d61207e565b5b602082029050602081019050919050565b60006bffffffffffffffffffffffff82169050919050565b6127408161271f565b811461274b57600080fd5b50565b60008135905061275d81612737565b92915050565b6000612776612771846126f3565b6120de565b9050808382526020820190506020840283018581111561279957612798612594565b5b835b818110156127c257806127ae888261274e565b84526020840193505060208101905061279b565b5050509392505050565b600082601f8301126127e1576127e0612063565b5b81356127f1848260208601612763565b91505092915050565b600067ffffffffffffffff8211156128155761281461207e565b5b602082029050602081019050919050565b600067ffffffffffffffff8211156128415761284061207e565b5b61284a8261206d565b9050602081019050919050565b600061286a61286584612826565b6120de565b90508281526020810184848401111561288657612885612068565b5b61289184828561212a565b509392505050565b600082601f8301126128ae576128ad612063565b5b81356128be848260208601612857565b91505092915050565b60006128da6128d5846127fa565b6120de565b905080838252602082019050602084028301858111156128fd576128fc612594565b5b835b8181101561294457803567ffffffffffffffff81111561292257612921612063565b5b80860161292f8982612899565b855260208501945050506020810190506128ff565b5050509392505050565b600082601f83011261296357612962612063565b5b81356129738482602086016128c7565b91505092915050565b600067ffffffffffffffff8211156129975761299661207e565b5b602082029050602081019050919050565b6129b181612474565b81146129bc57600080fd5b50565b6000813590506129ce816129a8565b92915050565b60006129e76129e28461297c565b6120de565b90508083825260208201905060208402830185811115612a0a57612a09612594565b5b835b81811015612a335780612a1f88826129bf565b845260208401935050602081019050612a0c565b5050509392505050565b600082601f830112612a5257612a51612063565b5b8135612a628482602086016129d4565b91505092915050565b600080600080600080600080610100898b031215612a8c57612a8b611ffb565b5b600089013567ffffffffffffffff811115612aaa57612aa9612000565b5b612ab68b828c01612602565b985050602089013567ffffffffffffffff811115612ad757612ad6612000565b5b612ae38b828c01612602565b9750506040612af48b828c0161204e565b965050606089013567ffffffffffffffff811115612b1557612b14612000565b5b612b218b828c016126c5565b955050608089013567ffffffffffffffff811115612b4257612b41612000565b5b612b4e8b828c016126c5565b94505060a089013567ffffffffffffffff811115612b6f57612b6e612000565b5b612b7b8b828c016127cc565b93505060c089013567ffffffffffffffff811115612b9c57612b9b612000565b5b612ba88b828c0161294e565b92505060e089013567ffffffffffffffff811115612bc957612bc8612000565b5b612bd58b828c01612a3d565b9150509295985092959890939650565b600080600080600080600080610100898b031215612c0657612c05611ffb565b5b6000612c148b828c0161204e565b9850506020612c258b828c0161204e565b9750506040612c368b828c0161204e565b9650506060612c478b828c01612432565b9550506080612c588b828c01612432565b94505060a0612c698b828c0161274e565b93505060c089013567ffffffffffffffff811115612c8a57612c89612000565b5b612c968b828c01612899565b92505060e0612ca78b828c016129bf565b9150509295985092959890939650565b600082825260208201905092915050565b7f5369676e657220616e64207369676e617475726520646f206e6f74206d61746360008201527f6800000000000000000000000000000000000000000000000000000000000000602082015250565b6000612d24602183612cb7565b9150612d2f82612cc8565b604082019050919050565b60006020820190508181036000830152612d5381612d17565b9050919050565b600081905092915050565b6000612d70826122af565b612d7a8185612d5a565b9350612d8a8185602086016122cb565b80840191505092915050565b60008160601b9050919050565b6000612dae82612d96565b9050919050565b6000612dc082612da3565b9050919050565b612dd8612dd382612025565b612db5565b82525050565b6000612dea8285612d65565b9150612df68284612dc7565b6014820191508190509392505050565b6000612e128284612d65565b915081905092915050565b7f46756e6374696f6e2063616c6c206e6f74207375636365737366756c00000000600082015250565b6000612e53601c83612cb7565b9150612e5e82612e1d565b602082019050919050565b60006020820190508181036000830152612e8281612e46565b9050919050565b6000612e9482612005565b9050919050565b612ea481612e89565b82525050565b6000606082019050612ebf600083018661237d565b612ecc6020830185612e9b565b8181036040830152612ede81846122f5565b9050949350505050565b6000604082019050612efd600083018561237d565b612f0a602083018461237d565b9392505050565b7f496e697469616c697a61626c653a20636f6e747261637420697320616c72656160008201527f647920696e697469616c697a6564000000000000000000000000000000000000602082015250565b6000612f6d602e83612cb7565b9150612f7882612f11565b604082019050919050565b60006020820190508181036000830152612f9c81612f60565b9050919050565b6000819050919050565b6000819050919050565b6000612fd2612fcd612fc884612fa3565b612fad565b6121df565b9050919050565b612fe281612fb7565b82525050565b6000602082019050612ffd6000830184612fd9565b92915050565b6000819050919050565b61301e613019826123a7565b613003565b82525050565b600061303f61303a61303584612005565b612fad565b612005565b9050919050565b600061305182613024565b9050919050565b600061306382613046565b9050919050565b61307b61307682613058565b612db5565b82525050565b600061308d828761300d565b60208201915061309d828661306a565b6014820191506130ad828561300d565b6020820191506130bd8284612d65565b915081905095945050505050565b6130d4816121a9565b82525050565b6130e3816121df565b82525050565b60006080820190506130fe60008301876130cb565b61310b60208301866130da565b61311860408301856130cb565b61312560608301846130cb565b95945050505050565b7f496e76616c6964207369676e6174757265000000000000000000000000000000600082015250565b6000613164601183612cb7565b915061316f8261312e565b602082019050919050565b6000602082019050818103600083015261319381613157565b9050919050565b60006040820190506131af600083018561237d565b6131bc6020830184612480565b9392505050565b7f4e487b7100000000000000000000000000000000000000000000000000000000600052603260045260246000fd5b7f4e487b7100000000000000000000000000000000000000000000000000000000600052601160045260246000fd5b600061322c826123a7565b91507fffffffffffffffffffffffffffffffffffffffffffffffffffffffffffffffff820361325e5761325d6131f2565b5b600182019050919050565b600081519050919050565b600082825260208201905092915050565b6000819050602082019050919050565b61329e816123a7565b82525050565b60006132b08383613295565b60208301905092915050565b6000602082019050919050565b60006132d482613269565b6132de8185613274565b93506132e983613285565b8060005b8381101561331a57815161330188826132a4565b975061330c836132bc565b9250506001810190506132ed565b5085935050505092915050565b6000606082019050818103600083015261334181866132c9565b9050818103602083015261335581856132c9565b9050613364604083018461237d565b949350505050565b6133758161271f565b82525050565b600081519050919050565b60006133918261337b565b61339b8185612cb7565b93506133ab8185602086016122cb565b6133b48161206d565b840191505092915050565b600060c0820190506133d460008301896123b1565b6133e160208301886123b1565b6133ee604083018761237d565b6133fb606083018661237d565b613408608083018561336c565b81810360a083015261341a8184613386565b9050979650505050505050565b50565b60006134376000836122ba565b915061344282613427565b600082019050919050565b600060a082019050613462600083018761237d565b61346f602083018661237d565b61347c60408301856123b1565b61348960608301846123b1565b818103608083015261349a8161342a565b905095945050505050565b60006134b0826123a7565b91506134bb836123a7565b92508282019050808211156134d3576134d26131f2565b5b92915050565b600081905092915050565b7f19457468657265756d205369676e6564204d6573736167653a0a333200000000600082015250565b600061351a601c836134d9565b9150613525826134e4565b601c82019050919050565b6000819050919050565b61354b613546826121a9565b613530565b82525050565b600061355c8261350d565b9150613568828461353a565b6020820191508190509291505056fea264697066735822122013763f792b8e04bf0434ef7b836f7faf09083c2651d310233e1a79e75962d44564736f6c63430008120033","opcodes":"PUSH1 0x80 PUSH1 0x40 MSTORE CALLVALUE DUP1 ISZERO PUSH2 0x10 JUMPI PUSH1 0x0 DUP1 REVERT JUMPDEST POP PUSH2 0x35AD DUP1 PUSH2 0x20 PUSH1 0x0 CODECOPY PUSH1 0x0 RETURN INVALID PUSH1 0x80 PUSH1 0x40 MSTORE PUSH1 0x4 CALLDATASIZE LT PUSH2 0xDD JUMPI PUSH1 0x0 CALLDATALOAD PUSH1 0xE0 SHR DUP1 PUSH4 0x564B81EF GT PUSH2 0x7F JUMPI DUP1 PUSH4 0x7BDE32A5 GT PUSH2 0x59 JUMPI DUP1 PUSH4 0x7BDE32A5 EQ PUSH2 0x2C3 JUMPI DUP1 PUSH4 0xA8368F33 EQ PUSH2 0x2EC JUMPI DUP1 PUSH4 0xD1C63B21 EQ PUSH2 0x329 JUMPI DUP1 PUSH4 0xE2F273BD EQ PUSH2 0x366 JUMPI PUSH2 0xDD JUMP JUMPDEST DUP1 PUSH4 0x564B81EF EQ PUSH2 0x232 JUMPI DUP1 PUSH4 0x6281133D EQ PUSH2 0x25D JUMPI DUP1 PUSH4 0x6D7DB13C EQ PUSH2 0x29A JUMPI PUSH2 0xDD JUMP JUMPDEST DUP1 PUSH4 0x2D0335AB GT PUSH2 0xBB JUMPI DUP1 PUSH4 0x2D0335AB EQ PUSH2 0x166 JUMPI DUP1 PUSH4 0x3DA7D2ED EQ PUSH2 0x1A3 JUMPI DUP1 PUSH4 0x485CC955 EQ PUSH2 0x1CC JUMPI DUP1 PUSH4 0x4D839081 EQ PUSH2 0x1F5 JUMPI PUSH2 0xDD JUMP JUMPDEST DUP1 PUSH4 0xC53C51C EQ PUSH2 0xE2 JUMPI DUP1 PUSH4 0x1785F53C EQ PUSH2 0x112 JUMPI DUP1 PUSH4 0x29575F6A EQ PUSH2 0x13B JUMPI JUMPDEST PUSH1 0x0 DUP1 REVERT JUMPDEST PUSH2 0xFC PUSH1 0x4 DUP1 CALLDATASIZE SUB DUP2 ADD SWAP1 PUSH2 0xF7 SWAP2 SWAP1 PUSH2 0x2218 JUMP JUMPDEST PUSH2 0x38F JUMP JUMPDEST PUSH1 0x40 MLOAD PUSH2 0x109 SWAP2 SWAP1 PUSH2 0x232E JUMP JUMPDEST PUSH1 0x40 MLOAD DUP1 SWAP2 SUB SWAP1 RETURN JUMPDEST CALLVALUE DUP1 ISZERO PUSH2 0x11E JUMPI PUSH1 0x0 DUP1 REVERT JUMPDEST POP PUSH2 0x139 PUSH1 0x4 DUP1 CALLDATASIZE SUB DUP2 ADD SWAP1 PUSH2 0x134 SWAP2 SWAP1 PUSH2 0x2350 JUMP JUMPDEST PUSH2 0x713 JUMP JUMPDEST STOP JUMPDEST CALLVALUE DUP1 ISZERO PUSH2 0x147 JUMPI PUSH1 0x0 DUP1 REVERT JUMPDEST POP PUSH2 0x150 PUSH2 0x900 JUMP JUMPDEST PUSH1 0x40 MLOAD PUSH2 0x15D SWAP2 SWAP1 PUSH2 0x238C JUMP JUMPDEST PUSH1 0x40 MLOAD DUP1 SWAP2 SUB SWAP1 RETURN JUMPDEST CALLVALUE DUP1 ISZERO PUSH2 0x172 JUMPI PUSH1 0x0 DUP1 REVERT JUMPDEST POP PUSH2 0x18D PUSH1 0x4 DUP1 CALLDATASIZE SUB DUP2 ADD SWAP1 PUSH2 0x188 SWAP2 SWAP1 PUSH2 0x2350 JUMP JUMPDEST PUSH2 0x926 JUMP JUMPDEST PUSH1 0x40 MLOAD PUSH2 0x19A SWAP2 SWAP1 PUSH2 0x23C0 JUMP JUMPDEST PUSH1 0x40 MLOAD DUP1 SWAP2 SUB SWAP1 RETURN JUMPDEST CALLVALUE DUP1 ISZERO PUSH2 0x1AF JUMPI PUSH1 0x0 DUP1 REVERT JUMPDEST POP PUSH2 0x1CA PUSH1 0x4 DUP1 CALLDATASIZE SUB DUP2 ADD SWAP1 PUSH2 0x1C5 SWAP2 SWAP1 PUSH2 0x2350 JUMP JUMPDEST PUSH2 0x997 JUMP JUMPDEST STOP JUMPDEST CALLVALUE DUP1 ISZERO PUSH2 0x1D8 JUMPI PUSH1 0x0 DUP1 REVERT JUMPDEST POP PUSH2 0x1F3 PUSH1 0x4 DUP1 CALLDATASIZE SUB DUP2 ADD SWAP1 PUSH2 0x1EE SWAP2 SWAP1 PUSH2 0x23DB JUMP JUMPDEST PUSH2 0xB84 JUMP JUMPDEST STOP JUMPDEST CALLVALUE DUP1 ISZERO PUSH2 0x201 JUMPI PUSH1 0x0 DUP1 REVERT JUMPDEST POP PUSH2 0x21C PUSH1 0x4 DUP1 CALLDATASIZE SUB DUP2 ADD SWAP1 PUSH2 0x217 SWAP2 SWAP1 PUSH2 0x2447 JUMP JUMPDEST PUSH2 0xE0E JUMP JUMPDEST PUSH1 0x40 MLOAD PUSH2 0x229 SWAP2 SWAP1 PUSH2 0x248F JUMP JUMPDEST PUSH1 0x40 MLOAD DUP1 SWAP2 SUB SWAP1 RETURN JUMPDEST CALLVALUE DUP1 ISZERO PUSH2 0x23E JUMPI PUSH1 0x0 DUP1 REVERT JUMPDEST POP PUSH2 0x247 PUSH2 0xE2E JUMP JUMPDEST PUSH1 0x40 MLOAD PUSH2 0x254 SWAP2 SWAP1 PUSH2 0x23C0 JUMP JUMPDEST PUSH1 0x40 MLOAD DUP1 SWAP2 SUB SWAP1 RETURN JUMPDEST CALLVALUE DUP1 ISZERO PUSH2 0x269 JUMPI PUSH1 0x0 DUP1 REVERT JUMPDEST POP PUSH2 0x284 PUSH1 0x4 DUP1 CALLDATASIZE SUB DUP2 ADD SWAP1 PUSH2 0x27F SWAP2 SWAP1 PUSH2 0x24AA JUMP JUMPDEST PUSH2 0xEB4 JUMP JUMPDEST PUSH1 0x40 MLOAD PUSH2 0x291 SWAP2 SWAP1 PUSH2 0x248F JUMP JUMPDEST PUSH1 0x40 MLOAD DUP1 SWAP2 SUB SWAP1 RETURN JUMPDEST CALLVALUE DUP1 ISZERO PUSH2 0x2A6 JUMPI PUSH1 0x0 DUP1 REVERT JUMPDEST POP PUSH2 0x2C1 PUSH1 0x4 DUP1 CALLDATASIZE SUB DUP2 ADD SWAP1 PUSH2 0x2BC SWAP2 SWAP1 PUSH2 0x2A6B JUMP JUMPDEST PUSH2 0x10CB JUMP JUMPDEST STOP JUMPDEST CALLVALUE DUP1 ISZERO PUSH2 0x2CF JUMPI PUSH1 0x0 DUP1 REVERT JUMPDEST POP PUSH2 0x2EA PUSH1 0x4 DUP1 CALLDATASIZE SUB DUP2 ADD SWAP1 PUSH2 0x2E5 SWAP2 SWAP1 PUSH2 0x2BE5 JUMP JUMPDEST PUSH2 0x156C JUMP JUMPDEST STOP JUMPDEST CALLVALUE DUP1 ISZERO PUSH2 0x2F8 JUMPI PUSH1 0x0 DUP1 REVERT JUMPDEST POP PUSH2 0x313 PUSH1 0x4 DUP1 CALLDATASIZE SUB DUP2 ADD SWAP1 PUSH2 0x30E SWAP2 SWAP1 PUSH2 0x2447 JUMP JUMPDEST PUSH2 0x1B88 JUMP JUMPDEST PUSH1 0x40 MLOAD PUSH2 0x320 SWAP2 SWAP1 PUSH2 0x23C0 JUMP JUMPDEST PUSH1 0x40 MLOAD DUP1 SWAP2 SUB SWAP1 RETURN JUMPDEST CALLVALUE DUP1 ISZERO PUSH2 0x335 JUMPI PUSH1 0x0 DUP1 REVERT JUMPDEST POP PUSH2 0x350 PUSH1 0x4 DUP1 CALLDATASIZE SUB DUP2 ADD SWAP1 PUSH2 0x34B SWAP2 SWAP1 PUSH2 0x2350 JUMP JUMPDEST PUSH2 0x1BA0 JUMP JUMPDEST PUSH1 0x40 MLOAD PUSH2 0x35D SWAP2 SWAP1 PUSH2 0x248F JUMP JUMPDEST PUSH1 0x40 MLOAD DUP1 SWAP2 SUB SWAP1 RETURN JUMPDEST CALLVALUE DUP1 ISZERO PUSH2 0x372 JUMPI PUSH1 0x0 DUP1 REVERT JUMPDEST POP PUSH2 0x38D PUSH1 0x4 DUP1 CALLDATASIZE SUB DUP2 ADD SWAP1 PUSH2 0x388 SWAP2 SWAP1 PUSH2 0x2350 JUMP JUMPDEST PUSH2 0x1BC0 JUMP JUMPDEST STOP JUMPDEST PUSH1 0x60 PUSH2 0x3A5 PUSH8 0x513DBCE2FC90E45E PUSH1 0xC0 SHL PUSH2 0x1D96 JUMP JUMPDEST PUSH2 0x3B9 PUSH8 0x590A28232C61349D PUSH1 0xC0 SHL PUSH2 0x1D96 JUMP JUMPDEST PUSH2 0x3CD PUSH8 0x89CD2F2CB4265E8 PUSH1 0xC0 SHL PUSH2 0x1D96 JUMP JUMPDEST PUSH2 0x3E1 PUSH8 0x37FD1A78487506CD PUSH1 0xC0 SHL PUSH2 0x1D96 JUMP JUMPDEST PUSH2 0x436 DUP7 PUSH1 0x1 PUSH1 0x0 DUP10 PUSH20 0xFFFFFFFFFFFFFFFFFFFFFFFFFFFFFFFFFFFFFFFF AND PUSH20 0xFFFFFFFFFFFFFFFFFFFFFFFFFFFFFFFFFFFFFFFF AND DUP2 MSTORE PUSH1 0x20 ADD SWAP1 DUP2 MSTORE PUSH1 0x20 ADD PUSH1 0x0 KECCAK256 SLOAD PUSH2 0x42D PUSH2 0xE2E JUMP JUMPDEST DUP9 DUP9 DUP9 DUP9 PUSH2 0xEB4 JUMP JUMPDEST PUSH2 0x475 JUMPI PUSH1 0x40 MLOAD PUSH32 0x8C379A000000000000000000000000000000000000000000000000000000000 DUP2 MSTORE PUSH1 0x4 ADD PUSH2 0x46C SWAP1 PUSH2 0x2D3A JUMP JUMPDEST PUSH1 0x40 MLOAD DUP1 SWAP2 SUB SWAP1 REVERT JUMPDEST PUSH2 0x489 PUSH8 0x3FCD70263A8B2440 PUSH1 0xC0 SHL PUSH2 0x1D96 JUMP JUMPDEST PUSH2 0x49D PUSH8 0x276EB884B10ACB68 PUSH1 0xC0 SHL PUSH2 0x1D96 JUMP JUMPDEST PUSH2 0x4EF PUSH1 0x1 DUP1 PUSH1 0x0 DUP10 PUSH20 0xFFFFFFFFFFFFFFFFFFFFFFFFFFFFFFFFFFFFFFFF AND PUSH20 0xFFFFFFFFFFFFFFFFFFFFFFFFFFFFFFFFFFFFFFFF AND DUP2 MSTORE PUSH1 0x20 ADD SWAP1 DUP2 MSTORE PUSH1 0x20 ADD PUSH1 0x0 KECCAK256 SLOAD PUSH2 0x1D99 SWAP1 SWAP2 SWAP1 PUSH4 0xFFFFFFFF AND JUMP JUMPDEST PUSH1 0x1 PUSH1 0x0 DUP9 PUSH20 0xFFFFFFFFFFFFFFFFFFFFFFFFFFFFFFFFFFFFFFFF AND PUSH20 0xFFFFFFFFFFFFFFFFFFFFFFFFFFFFFFFFFFFFFFFF AND DUP2 MSTORE PUSH1 0x20 ADD SWAP1 DUP2 MSTORE PUSH1 0x20 ADD PUSH1 0x0 KECCAK256 DUP2 SWAP1 SSTORE POP PUSH2 0x546 PUSH8 0x492D088303CB6138 PUSH1 0xC0 SHL PUSH2 0x1D96 JUMP JUMPDEST PUSH2 0x55A PUSH8 0x35A89EAAEA7AEF10 PUSH1 0xC0 SHL PUSH2 0x1D96 JUMP JUMPDEST PUSH1 0x0 DUP1 ADDRESS PUSH20 0xFFFFFFFFFFFFFFFFFFFFFFFFFFFFFFFFFFFFFFFF AND DUP8 DUP10 PUSH1 0x40 MLOAD PUSH1 0x20 ADD PUSH2 0x587 SWAP3 SWAP2 SWAP1 PUSH2 0x2DDE JUMP JUMPDEST PUSH1 0x40 MLOAD PUSH1 0x20 DUP2 DUP4 SUB SUB DUP2 MSTORE SWAP1 PUSH1 0x40 MSTORE PUSH1 0x40 MLOAD PUSH2 0x5A3 SWAP2 SWAP1 PUSH2 0x2E06 JUMP JUMPDEST PUSH1 0x0 PUSH1 0x40 MLOAD DUP1 DUP4 SUB DUP2 PUSH1 0x0 DUP7 GAS CALL SWAP2 POP POP RETURNDATASIZE DUP1 PUSH1 0x0 DUP2 EQ PUSH2 0x5E0 JUMPI PUSH1 0x40 MLOAD SWAP2 POP PUSH1 0x1F NOT PUSH1 0x3F RETURNDATASIZE ADD AND DUP3 ADD PUSH1 0x40 MSTORE RETURNDATASIZE DUP3 MSTORE RETURNDATASIZE PUSH1 0x0 PUSH1 0x20 DUP5 ADD RETURNDATACOPY PUSH2 0x5E5 JUMP JUMPDEST PUSH1 0x60 SWAP2 POP JUMPDEST POP SWAP2 POP SWAP2 POP PUSH2 0x5FE PUSH8 0xF0CCC6F61AD78A20 PUSH1 0xC0 SHL PUSH2 0x1D96 JUMP JUMPDEST PUSH2 0x612 PUSH8 0xD2AF4B3097E75729 PUSH1 0xC0 SHL PUSH2 0x1D96 JUMP JUMPDEST PUSH2 0x626 PUSH8 0x7F2625B0ED9C3EBA PUSH1 0xC0 SHL PUSH2 0x1D96 JUMP JUMPDEST DUP2 PUSH2 0x666 JUMPI PUSH1 0x40 MLOAD PUSH32 0x8C379A000000000000000000000000000000000000000000000000000000000 DUP2 MSTORE PUSH1 0x4 ADD PUSH2 0x65D SWAP1 PUSH2 0x2E69 JUMP JUMPDEST PUSH1 0x40 MLOAD DUP1 SWAP2 SUB SWAP1 REVERT JUMPDEST PUSH2 0x67A PUSH8 0x2A067640DBBF31E3 PUSH1 0xC0 SHL PUSH2 0x1D96 JUMP JUMPDEST PUSH2 0x68E PUSH8 0x486D9FC4A5D7AFF2 PUSH1 0xC0 SHL PUSH2 0x1D96 JUMP JUMPDEST PUSH2 0x6A2 PUSH8 0xC422C69189914F1D PUSH1 0xC0 SHL PUSH2 0x1D96 JUMP JUMPDEST PUSH32 0x5845892132946850460BFF5A0083F71031BC5BF9AADCD40F1DE79423EAC9B10B DUP9 CALLER DUP10 PUSH1 0x40 MLOAD PUSH2 0x6D5 SWAP4 SWAP3 SWAP2 SWAP1 PUSH2 0x2EAA JUMP JUMPDEST PUSH1 0x40 MLOAD DUP1 SWAP2 SUB SWAP1 LOG1 PUSH2 0x6F1 PUSH8 0x3677B72111554500 PUSH1 0xC0 SHL PUSH2 0x1D96 JUMP JUMPDEST PUSH2 0x705 PUSH8 0xA1B9117EADE53073 PUSH1 0xC0 SHL PUSH2 0x1D96 JUMP JUMPDEST DUP1 SWAP3 POP POP POP SWAP6 SWAP5 POP POP POP POP POP JUMP JUMPDEST PUSH2 0x727 PUSH8 0x76B2023A7AF5A201 PUSH1 0xC0 SHL PUSH2 0x1DAF JUMP JUMPDEST PUSH2 0x73B PUSH8 0xE3C20A630061E099 PUSH1 0xC0 SHL PUSH2 0x1DAF JUMP JUMPDEST PUSH2 0x74F PUSH8 0x55FCA310200DD624 PUSH1 0xC0 SHL PUSH2 0x1DAF JUMP JUMPDEST PUSH2 0x763 PUSH8 0x66BD94ED27746DD0 PUSH1 0xC0 SHL PUSH2 0x1DAF JUMP JUMPDEST PUSH1 0x2 PUSH1 0x0 SWAP1 SLOAD SWAP1 PUSH2 0x100 EXP SWAP1 DIV PUSH20 0xFFFFFFFFFFFFFFFFFFFFFFFFFFFFFFFFFFFFFFFF AND PUSH20 0xFFFFFFFFFFFFFFFFFFFFFFFFFFFFFFFFFFFFFFFF AND CALLER PUSH20 0xFFFFFFFFFFFFFFFFFFFFFFFFFFFFFFFFFFFFFFFF AND EQ PUSH2 0x841 JUMPI PUSH2 0x7CC PUSH8 0x961BBB5987B9FED5 PUSH1 0xC0 SHL PUSH2 0x1DAF JUMP JUMPDEST PUSH2 0x7E0 PUSH8 0x5E170420CCB2B1C4 PUSH1 0xC0 SHL PUSH2 0x1DAF JUMP JUMPDEST CALLER PUSH1 0x2 PUSH1 0x0 SWAP1 SLOAD SWAP1 PUSH2 0x100 EXP SWAP1 DIV PUSH20 0xFFFFFFFFFFFFFFFFFFFFFFFFFFFFFFFFFFFFFFFF AND PUSH1 0x40 MLOAD PUSH32 0xE0C0B60900000000000000000000000000000000000000000000000000000000 DUP2 MSTORE PUSH1 0x4 ADD PUSH2 0x838 SWAP3 SWAP2 SWAP1 PUSH2 0x2EE8 JUMP JUMPDEST PUSH1 0x40 MLOAD DUP1 SWAP2 SUB SWAP1 REVERT JUMPDEST PUSH2 0x855 PUSH8 0xB456828E0F8E8E09 PUSH1 0xC0 SHL PUSH2 0x1DAF JUMP JUMPDEST PUSH2 0x869 PUSH8 0xD566844BB31A8CF PUSH1 0xC0 SHL PUSH2 0x1DAF JUMP JUMPDEST PUSH2 0x87D PUSH8 0x1C6C1E4EAFB1FD57 PUSH1 0xC0 SHL PUSH2 0x1DAF JUMP JUMPDEST PUSH2 0x891 PUSH8 0xF9AF2DC59C98A5DC PUSH1 0xC0 SHL PUSH2 0x1DAF JUMP JUMPDEST PUSH2 0x8A5 PUSH8 0x834114A22B786E18 PUSH1 0xC0 SHL PUSH2 0x1DAF JUMP JUMPDEST PUSH1 0x0 PUSH1 0x7 PUSH1 0x0 DUP4 PUSH20 0xFFFFFFFFFFFFFFFFFFFFFFFFFFFFFFFFFFFFFFFF AND PUSH20 0xFFFFFFFFFFFFFFFFFFFFFFFFFFFFFFFFFFFFFFFF AND DUP2 MSTORE PUSH1 0x20 ADD SWAP1 DUP2 MSTORE PUSH1 0x20 ADD PUSH1 0x0 KECCAK256 PUSH1 0x0 PUSH2 0x100 EXP DUP2 SLOAD DUP2 PUSH1 0xFF MUL NOT AND SWAP1 DUP4 ISZERO ISZERO MUL OR SWAP1 SSTORE POP POP JUMP JUMPDEST PUSH1 0x2 PUSH1 0x0 SWAP1 SLOAD SWAP1 PUSH2 0x100 EXP SWAP1 DIV PUSH20 0xFFFFFFFFFFFFFFFFFFFFFFFFFFFFFFFFFFFFFFFF AND DUP2 JUMP JUMPDEST PUSH1 0x0 PUSH2 0x93C PUSH8 0xE7B80EFBCBFAF421 PUSH1 0xC0 SHL PUSH2 0x1D96 JUMP JUMPDEST PUSH2 0x950 PUSH8 0x7DB74373AFD9A78 PUSH1 0xC0 SHL PUSH2 0x1D96 JUMP JUMPDEST PUSH1 0x1 PUSH1 0x0 DUP4 PUSH20 0xFFFFFFFFFFFFFFFFFFFFFFFFFFFFFFFFFFFFFFFF AND PUSH20 0xFFFFFFFFFFFFFFFFFFFFFFFFFFFFFFFFFFFFFFFF AND DUP2 MSTORE PUSH1 0x20 ADD SWAP1 DUP2 MSTORE PUSH1 0x20 ADD PUSH1 0x0 KECCAK256 SLOAD SWAP1 POP SWAP2 SWAP1 POP JUMP JUMPDEST PUSH2 0x9AB PUSH8 0xF76F9D61CBF927A4 PUSH1 0xC0 SHL PUSH2 0x1DAF JUMP JUMPDEST PUSH2 0x9BF PUSH8 0xE3C20A630061E099 PUSH1 0xC0 SHL PUSH2 0x1DAF JUMP JUMPDEST PUSH2 0x9D3 PUSH8 0x55FCA310200DD624 PUSH1 0xC0 SHL PUSH2 0x1DAF JUMP JUMPDEST PUSH2 0x9E7 PUSH8 0x66BD94ED27746DD0 PUSH1 0xC0 SHL PUSH2 0x1DAF JUMP JUMPDEST PUSH1 0x2 PUSH1 0x0 SWAP1 SLOAD SWAP1 PUSH2 0x100 EXP SWAP1 DIV PUSH20 0xFFFFFFFFFFFFFFFFFFFFFFFFFFFFFFFFFFFFFFFF AND PUSH20 0xFFFFFFFFFFFFFFFFFFFFFFFFFFFFFFFFFFFFFFFF AND CALLER PUSH20 0xFFFFFFFFFFFFFFFFFFFFFFFFFFFFFFFFFFFFFFFF AND EQ PUSH2 0xAC5 JUMPI PUSH2 0xA50 PUSH8 0x961BBB5987B9FED5 PUSH1 0xC0 SHL PUSH2 0x1DAF JUMP JUMPDEST PUSH2 0xA64 PUSH8 0x5E170420CCB2B1C4 PUSH1 0xC0 SHL PUSH2 0x1DAF JUMP JUMPDEST CALLER PUSH1 0x2 PUSH1 0x0 SWAP1 SLOAD SWAP1 PUSH2 0x100 EXP SWAP1 DIV PUSH20 0xFFFFFFFFFFFFFFFFFFFFFFFFFFFFFFFFFFFFFFFF AND PUSH1 0x40 MLOAD PUSH32 0xE0C0B60900000000000000000000000000000000000000000000000000000000 DUP2 MSTORE PUSH1 0x4 ADD PUSH2 0xABC SWAP3 SWAP2 SWAP1 PUSH2 0x2EE8 JUMP JUMPDEST PUSH1 0x40 MLOAD DUP1 SWAP2 SUB SWAP1 REVERT JUMPDEST PUSH2 0xAD9 PUSH8 0xB456828E0F8E8E09 PUSH1 0xC0 SHL PUSH2 0x1DAF JUMP JUMPDEST PUSH2 0xAED PUSH8 0xD566844BB31A8CF PUSH1 0xC0 SHL PUSH2 0x1DAF JUMP JUMPDEST PUSH2 0xB01 PUSH8 0xAC1B931DB620B608 PUSH1 0xC0 SHL PUSH2 0x1DAF JUMP JUMPDEST PUSH2 0xB15 PUSH8 0x404416530B3EA1AB PUSH1 0xC0 SHL PUSH2 0x1DAF JUMP JUMPDEST PUSH2 0xB29 PUSH8 0x8707D9A57B7C539 PUSH1 0xC0 SHL PUSH2 0x1DAF JUMP JUMPDEST PUSH1 0x1 PUSH1 0x7 PUSH1 0x0 DUP4 PUSH20 0xFFFFFFFFFFFFFFFFFFFFFFFFFFFFFFFFFFFFFFFF AND PUSH20 0xFFFFFFFFFFFFFFFFFFFFFFFFFFFFFFFFFFFFFFFF AND DUP2 MSTORE PUSH1 0x20 ADD SWAP1 DUP2 MSTORE PUSH1 0x20 ADD PUSH1 0x0 KECCAK256 PUSH1 0x0 PUSH2 0x100 EXP DUP2 SLOAD DUP2 PUSH1 0xFF MUL NOT AND SWAP1 DUP4 ISZERO ISZERO MUL OR SWAP1 SSTORE POP POP JUMP JUMPDEST PUSH2 0xB98 PUSH8 0xD3C42BE5E16BDC95 PUSH1 0xC0 SHL PUSH2 0x1DAF JUMP JUMPDEST PUSH1 0x0 DUP1 PUSH1 0x1 SWAP1 SLOAD SWAP1 PUSH2 0x100 EXP SWAP1 DIV PUSH1 0xFF AND ISZERO SWAP1 POP DUP1 DUP1 ISZERO PUSH2 0xBC9 JUMPI POP PUSH1 0x1 PUSH1 0x0 DUP1 SLOAD SWAP1 PUSH2 0x100 EXP SWAP1 DIV PUSH1 0xFF AND PUSH1 0xFF AND LT JUMPDEST DUP1 PUSH2 0xBF6 JUMPI POP PUSH2 0xBD8 ADDRESS PUSH2 0x1DB2 JUMP JUMPDEST ISZERO DUP1 ISZERO PUSH2 0xBF5 JUMPI POP PUSH1 0x1 PUSH1 0x0 DUP1 SLOAD SWAP1 PUSH2 0x100 EXP SWAP1 DIV PUSH1 0xFF AND PUSH1 0xFF AND EQ JUMPDEST JUMPDEST PUSH2 0xC35 JUMPI PUSH1 0x40 MLOAD PUSH32 0x8C379A000000000000000000000000000000000000000000000000000000000 DUP2 MSTORE PUSH1 0x4 ADD PUSH2 0xC2C SWAP1 PUSH2 0x2F83 JUMP JUMPDEST PUSH1 0x40 MLOAD DUP1 SWAP2 SUB SWAP1 REVERT JUMPDEST PUSH1 0x1 PUSH1 0x0 DUP1 PUSH2 0x100 EXP DUP2 SLOAD DUP2 PUSH1 0xFF MUL NOT AND SWAP1 DUP4 PUSH1 0xFF AND MUL OR SWAP1 SSTORE POP DUP1 ISZERO PUSH2 0xC72 JUMPI PUSH1 0x1 PUSH1 0x0 PUSH1 0x1 PUSH2 0x100 EXP DUP2 SLOAD DUP2 PUSH1 0xFF MUL NOT AND SWAP1 DUP4 ISZERO ISZERO MUL OR SWAP1 SSTORE POP JUMPDEST PUSH2 0xC86 PUSH8 0xCE7FC71CDB9EAE38 PUSH1 0xC0 SHL PUSH2 0x1DAF JUMP JUMPDEST PUSH2 0xC9A PUSH8 0x329F341574018DD3 PUSH1 0xC0 SHL PUSH2 0x1DAF JUMP JUMPDEST PUSH2 0xCAE PUSH8 0x297251F18A04EE7C PUSH1 0xC0 SHL PUSH2 0x1DAF JUMP JUMPDEST DUP2 PUSH1 0x2 PUSH1 0x0 PUSH2 0x100 EXP DUP2 SLOAD DUP2 PUSH20 0xFFFFFFFFFFFFFFFFFFFFFFFFFFFFFFFFFFFFFFFF MUL NOT AND SWAP1 DUP4 PUSH20 0xFFFFFFFFFFFFFFFFFFFFFFFFFFFFFFFFFFFFFFFF AND MUL OR SWAP1 SSTORE POP PUSH2 0xD03 PUSH8 0xDBC5FF1B7E37B734 PUSH1 0xC0 SHL PUSH2 0x1DAF JUMP JUMPDEST PUSH1 0x1 PUSH1 0x7 PUSH1 0x0 DUP5 PUSH20 0xFFFFFFFFFFFFFFFFFFFFFFFFFFFFFFFFFFFFFFFF AND PUSH20 0xFFFFFFFFFFFFFFFFFFFFFFFFFFFFFFFFFFFFFFFF AND DUP2 MSTORE PUSH1 0x20 ADD SWAP1 DUP2 MSTORE PUSH1 0x20 ADD PUSH1 0x0 KECCAK256 PUSH1 0x0 PUSH2 0x100 EXP DUP2 SLOAD DUP2 PUSH1 0xFF MUL NOT AND SWAP1 DUP4 ISZERO ISZERO MUL OR SWAP1 SSTORE POP PUSH2 0xD6F PUSH8 0xB9CB8B63171A836E PUSH1 0xC0 SHL PUSH2 0x1DAF JUMP JUMPDEST DUP3 PUSH1 0x4 PUSH1 0x0 PUSH2 0x100 EXP DUP2 SLOAD DUP2 PUSH20 0xFFFFFFFFFFFFFFFFFFFFFFFFFFFFFFFFFFFFFFFF MUL NOT AND SWAP1 DUP4 PUSH20 0xFFFFFFFFFFFFFFFFFFFFFFFFFFFFFFFFFFFFFFFF AND MUL OR SWAP1 SSTORE POP DUP1 ISZERO PUSH2 0xE09 JUMPI PUSH1 0x0 DUP1 PUSH1 0x1 PUSH2 0x100 EXP DUP2 SLOAD DUP2 PUSH1 0xFF MUL NOT AND SWAP1 DUP4 ISZERO ISZERO MUL OR SWAP1 SSTORE POP PUSH32 0x7F26B83FF96E1F2B6A682F133852F6798A09C465DA95921460CEFB3847402498 PUSH1 0x1 PUSH1 0x40 MLOAD PUSH2 0xE00 SWAP2 SWAP1 PUSH2 0x2FE8 JUMP JUMPDEST PUSH1 0x40 MLOAD DUP1 SWAP2 SUB SWAP1 LOG1 JUMPDEST POP POP POP JUMP JUMPDEST PUSH1 0x5 PUSH1 0x20 MSTORE DUP1 PUSH1 0x0 MSTORE PUSH1 0x40 PUSH1 0x0 KECCAK256 PUSH1 0x0 SWAP2 POP SLOAD SWAP1 PUSH2 0x100 EXP SWAP1 DIV PUSH1 0xFF AND DUP2 JUMP JUMPDEST PUSH1 0x0 PUSH2 0xE44 PUSH8 0xD257E0777ED0857C PUSH1 0xC0 SHL PUSH2 0x1D96 JUMP JUMPDEST PUSH2 0xE58 PUSH8 0xD0DEBB57994782E2 PUSH1 0xC0 SHL PUSH2 0x1D96 JUMP JUMPDEST PUSH2 0xE6C PUSH8 0xFB25D02C956731BB PUSH1 0xC0 SHL PUSH2 0x1D96 JUMP JUMPDEST PUSH1 0x0 PUSH2 0xE82 PUSH8 0x305F3E9C68BAD6B0 PUSH1 0xC0 SHL PUSH2 0x1D96 JUMP JUMPDEST CHAINID SWAP1 POP PUSH2 0xE99 PUSH8 0x5072CD0EB5FF6D0F PUSH1 0xC0 SHL PUSH2 0x1D96 JUMP JUMPDEST PUSH2 0xEAD PUSH8 0xBF9D228D91067CCE PUSH1 0xC0 SHL PUSH2 0x1D96 JUMP JUMPDEST DUP1 SWAP2 POP POP SWAP1 JUMP JUMPDEST PUSH1 0x0 PUSH2 0xECA PUSH8 0xA17DEB9BDA579E9 PUSH1 0xC0 SHL PUSH2 0x1D96 JUMP JUMPDEST PUSH2 0xEDE PUSH8 0x943A6DFD45A8E7B8 PUSH1 0xC0 SHL PUSH2 0x1D96 JUMP JUMPDEST PUSH2 0xEF2 PUSH8 0xE47197799D32C37D PUSH1 0xC0 SHL PUSH2 0x1D96 JUMP JUMPDEST PUSH1 0x0 PUSH2 0xF29 DUP9 ADDRESS DUP10 DUP10 PUSH1 0x40 MLOAD PUSH1 0x20 ADD PUSH2 0xF0E SWAP5 SWAP4 SWAP3 SWAP2 SWAP1 PUSH2 0x3081 JUMP JUMPDEST PUSH1 0x40 MLOAD PUSH1 0x20 DUP2 DUP4 SUB SUB DUP2 MSTORE SWAP1 PUSH1 0x40 MSTORE DUP1 MLOAD SWAP1 PUSH1 0x20 ADD KECCAK256 PUSH2 0x1DD5 JUMP JUMPDEST SWAP1 POP PUSH2 0xF3F PUSH8 0xF9F84B37C114E554 PUSH1 0xC0 SHL PUSH2 0x1D96 JUMP JUMPDEST PUSH2 0xF53 PUSH8 0xA39BBF534729363E PUSH1 0xC0 SHL PUSH2 0x1D96 JUMP JUMPDEST PUSH1 0x0 PUSH1 0x1 DUP3 DUP6 DUP9 DUP9 PUSH1 0x40 MLOAD PUSH1 0x0 DUP2 MSTORE PUSH1 0x20 ADD PUSH1 0x40 MSTORE PUSH1 0x40 MLOAD PUSH2 0xF78 SWAP5 SWAP4 SWAP3 SWAP2 SWAP1 PUSH2 0x30E9 JUMP JUMPDEST PUSH1 0x20 PUSH1 0x40 MLOAD PUSH1 0x20 DUP2 SUB SWAP1 DUP1 DUP5 SUB SWAP1 DUP6 GAS STATICCALL ISZERO DUP1 ISZERO PUSH2 0xF9A JUMPI RETURNDATASIZE PUSH1 0x0 DUP1 RETURNDATACOPY RETURNDATASIZE PUSH1 0x0 REVERT JUMPDEST POP POP POP PUSH1 0x20 PUSH1 0x40 MLOAD SUB MLOAD SWAP1 POP PUSH2 0xFBA PUSH8 0x6AC9A63DF9CD2834 PUSH1 0xC0 SHL PUSH2 0x1D96 JUMP JUMPDEST PUSH2 0xFCE PUSH8 0xD6BCB4DF129BE366 PUSH1 0xC0 SHL PUSH2 0x1D96 JUMP JUMPDEST PUSH2 0xFE2 PUSH8 0xA2100578929BB6F4 PUSH1 0xC0 SHL PUSH2 0x1D96 JUMP JUMPDEST PUSH1 0x0 PUSH20 0xFFFFFFFFFFFFFFFFFFFFFFFFFFFFFFFFFFFFFFFF AND DUP2 PUSH20 0xFFFFFFFFFFFFFFFFFFFFFFFFFFFFFFFFFFFFFFFF AND SUB PUSH2 0x1051 JUMPI PUSH1 0x40 MLOAD PUSH32 0x8C379A000000000000000000000000000000000000000000000000000000000 DUP2 MSTORE PUSH1 0x4 ADD PUSH2 0x1048 SWAP1 PUSH2 0x317A JUMP JUMPDEST PUSH1 0x40 MLOAD DUP1 SWAP2 SUB SWAP1 REVERT JUMPDEST PUSH2 0x1065 PUSH8 0x7D672CF991E3A65B PUSH1 0xC0 SHL PUSH2 0x1D96 JUMP JUMPDEST PUSH2 0x1079 PUSH8 0x3548A97F24D1B1E0 PUSH1 0xC0 SHL PUSH2 0x1D96 JUMP JUMPDEST PUSH2 0x108D PUSH8 0x59346B389EF422F6 PUSH1 0xC0 SHL PUSH2 0x1D96 JUMP JUMPDEST DUP1 PUSH20 0xFFFFFFFFFFFFFFFFFFFFFFFFFFFFFFFFFFFFFFFF AND DUP11 PUSH20 0xFFFFFFFFFFFFFFFFFFFFFFFFFFFFFFFFFFFFFFFF AND EQ SWAP3 POP POP POP SWAP8 SWAP7 POP POP POP POP POP POP POP JUMP JUMPDEST PUSH2 0x10DF PUSH8 0x72B9D756D1C6555B PUSH1 0xC0 SHL PUSH2 0x1DAF JUMP JUMPDEST PUSH2 0x10F3 PUSH8 0xF8487125A604491 PUSH1 0xC0 SHL PUSH2 0x1DAF JUMP JUMPDEST PUSH2 0x1107 PUSH8 0x859E8D65D3F8C5AD PUSH1 0xC0 SHL PUSH2 0x1DAF JUMP JUMPDEST PUSH2 0x111B PUSH8 0xAE81740AFC9298F0 PUSH1 0xC0 SHL PUSH2 0x1DAF JUMP JUMPDEST PUSH1 0x7 PUSH1 0x0 PUSH2 0x1127 PUSH2 0x1E41 JUMP JUMPDEST PUSH20 0xFFFFFFFFFFFFFFFFFFFFFFFFFFFFFFFFFFFFFFFF AND PUSH20 0xFFFFFFFFFFFFFFFFFFFFFFFFFFFFFFFFFFFFFFFF AND DUP2 MSTORE PUSH1 0x20 ADD SWAP1 DUP2 MSTORE PUSH1 0x20 ADD PUSH1 0x0 KECCAK256 PUSH1 0x0 SWAP1 SLOAD SWAP1 PUSH2 0x100 EXP SWAP1 DIV PUSH1 0xFF AND PUSH2 0x11DB JUMPI PUSH2 0x1187 PUSH8 0xE8FC54F6FCD14EF6 PUSH1 0xC0 SHL PUSH2 0x1DAF JUMP JUMPDEST PUSH2 0x119B PUSH8 0xDDA1CCC0F9CFFE2C PUSH1 0xC0 SHL PUSH2 0x1DAF JUMP JUMPDEST CALLER PUSH1 0x0 PUSH1 0x40 MLOAD PUSH32 0x5A7BFB6000000000000000000000000000000000000000000000000000000000 DUP2 MSTORE PUSH1 0x4 ADD PUSH2 0x11D2 SWAP3 SWAP2 SWAP1 PUSH2 0x319A JUMP JUMPDEST PUSH1 0x40 MLOAD DUP1 SWAP2 SUB SWAP1 REVERT JUMPDEST PUSH2 0x11EF PUSH8 0xFA859C5324A9EB30 PUSH1 0xC0 SHL PUSH2 0x1DAF JUMP JUMPDEST PUSH2 0x1203 PUSH8 0xD7D23955C9011850 PUSH1 0xC0 SHL PUSH2 0x1DAF JUMP JUMPDEST PUSH2 0x1217 PUSH8 0xF7FF91EF53A69522 PUSH1 0xC0 SHL PUSH2 0x1DAF JUMP JUMPDEST PUSH2 0x122B PUSH8 0x3890C96259181F6E PUSH1 0xC0 SHL PUSH2 0x1DAF JUMP JUMPDEST PUSH2 0x123F PUSH8 0x37B1BE16FC1DF803 PUSH1 0xC0 SHL PUSH2 0x1DAF JUMP JUMPDEST PUSH2 0x1253 PUSH8 0xDFEDCA06283CF8AD PUSH1 0xC0 SHL PUSH2 0x1DAF JUMP JUMPDEST DUP5 MLOAD DUP9 MLOAD EQ ISZERO DUP1 ISZERO PUSH2 0x1275 JUMPI POP PUSH2 0x1274 PUSH8 0xFFB283EF4D676BB5 PUSH1 0xC0 SHL PUSH2 0x1FE6 JUMP JUMPDEST JUMPDEST DUP1 PUSH2 0x12BA JUMPI POP DUP4 MLOAD DUP9 MLOAD EQ ISZERO DUP1 ISZERO PUSH2 0x129D JUMPI POP PUSH2 0x129C PUSH8 0x84ADD05CD32A00E0 PUSH1 0xC0 SHL PUSH2 0x1FE6 JUMP JUMPDEST JUMPDEST DUP1 ISZERO PUSH2 0x12B9 JUMPI POP PUSH2 0x12B8 PUSH8 0x61E9666CE8CADABE PUSH1 0xC0 SHL PUSH2 0x1FE6 JUMP JUMPDEST JUMPDEST JUMPDEST DUP1 PUSH2 0x12FF JUMPI POP DUP2 MLOAD DUP9 MLOAD EQ ISZERO DUP1 ISZERO PUSH2 0x12E2 JUMPI POP PUSH2 0x12E1 PUSH8 0xDE0D4832385B3A6C PUSH1 0xC0 SHL PUSH2 0x1FE6 JUMP JUMPDEST JUMPDEST DUP1 ISZERO PUSH2 0x12FE JUMPI POP PUSH2 0x12FD PUSH8 0x16D3D90BE5C565AB PUSH1 0xC0 SHL PUSH2 0x1FE6 JUMP JUMPDEST JUMPDEST JUMPDEST DUP1 PUSH2 0x1328 JUMPI POP DUP3 MLOAD DUP9 MLOAD EQ ISZERO DUP1 ISZERO PUSH2 0x1327 JUMPI POP PUSH2 0x1326 PUSH8 0xFF5D84F26A810F30 PUSH1 0xC0 SHL PUSH2 0x1FE6 JUMP JUMPDEST JUMPDEST JUMPDEST ISZERO PUSH2 0x1387 JUMPI PUSH2 0x1341 PUSH8 0x9638F5643AE068CD PUSH1 0xC0 SHL PUSH2 0x1DAF JUMP JUMPDEST PUSH2 0x1355 PUSH8 0xF9945717CC3BA6A PUSH1 0xC0 SHL PUSH2 0x1DAF JUMP JUMPDEST PUSH1 0x40 MLOAD PUSH32 0x7FBAB8300000000000000000000000000000000000000000000000000000000 DUP2 MSTORE PUSH1 0x4 ADD PUSH1 0x40 MLOAD DUP1 SWAP2 SUB SWAP1 REVERT JUMPDEST PUSH2 0x139B PUSH8 0xC43432189D898FD0 PUSH1 0xC0 SHL PUSH2 0x1DAF JUMP JUMPDEST PUSH2 0x13AF PUSH8 0x1AD9CE8620158B17 PUSH1 0xC0 SHL PUSH2 0x1DAF JUMP JUMPDEST PUSH2 0x13C3 PUSH8 0x97671EED4EA76646 PUSH1 0xC0 SHL PUSH2 0x1DAF JUMP JUMPDEST PUSH1 0x0 DUP6 MLOAD SWAP1 POP PUSH2 0x13DD PUSH8 0xE7179151FE462059 PUSH1 0xC0 SHL PUSH2 0x1DAF JUMP JUMPDEST PUSH2 0x13F1 PUSH8 0x193E7EE9EC22EA7E PUSH1 0xC0 SHL PUSH2 0x1DAF JUMP JUMPDEST PUSH1 0x0 JUMPDEST DUP2 DUP2 LT ISZERO PUSH2 0x14FD JUMPI PUSH2 0x1410 PUSH8 0x95F0BCECA438295C PUSH1 0xC0 SHL PUSH2 0x1DAF JUMP JUMPDEST PUSH2 0x1424 PUSH8 0xC235DF2D6165BBB9 PUSH1 0xC0 SHL PUSH2 0x1DAF JUMP JUMPDEST PUSH2 0x14EA DUP11 DUP3 DUP2 MLOAD DUP2 LT PUSH2 0x143A JUMPI PUSH2 0x1439 PUSH2 0x31C3 JUMP JUMPDEST JUMPDEST PUSH1 0x20 MUL PUSH1 0x20 ADD ADD MLOAD DUP11 DUP4 DUP2 MLOAD DUP2 LT PUSH2 0x1455 JUMPI PUSH2 0x1454 PUSH2 0x31C3 JUMP JUMPDEST JUMPDEST PUSH1 0x20 MUL PUSH1 0x20 ADD ADD MLOAD DUP11 DUP11 DUP6 DUP2 MLOAD DUP2 LT PUSH2 0x1471 JUMPI PUSH2 0x1470 PUSH2 0x31C3 JUMP JUMPDEST JUMPDEST PUSH1 0x20 MUL PUSH1 0x20 ADD ADD MLOAD DUP11 DUP7 DUP2 MLOAD DUP2 LT PUSH2 0x148C JUMPI PUSH2 0x148B PUSH2 0x31C3 JUMP JUMPDEST JUMPDEST PUSH1 0x20 MUL PUSH1 0x20 ADD ADD MLOAD DUP11 DUP8 DUP2 MLOAD DUP2 LT PUSH2 0x14A7 JUMPI PUSH2 0x14A6 PUSH2 0x31C3 JUMP JUMPDEST JUMPDEST PUSH1 0x20 MUL PUSH1 0x20 ADD ADD MLOAD DUP11 DUP9 DUP2 MLOAD DUP2 LT PUSH2 0x14C2 JUMPI PUSH2 0x14C1 PUSH2 0x31C3 JUMP JUMPDEST JUMPDEST PUSH1 0x20 MUL PUSH1 0x20 ADD ADD MLOAD DUP11 DUP10 DUP2 MLOAD DUP2 LT PUSH2 0x14DD JUMPI PUSH2 0x14DC PUSH2 0x31C3 JUMP JUMPDEST JUMPDEST PUSH1 0x20 MUL PUSH1 0x20 ADD ADD MLOAD PUSH2 0x156C JUMP JUMPDEST DUP1 DUP1 PUSH2 0x14F5 SWAP1 PUSH2 0x3221 JUMP JUMPDEST SWAP2 POP POP PUSH2 0x13F4 JUMP JUMPDEST POP PUSH2 0x1512 PUSH8 0x5E4600DAD5FD5D0A PUSH1 0xC0 SHL PUSH2 0x1DAF JUMP JUMPDEST PUSH2 0x1526 PUSH8 0x33F6131976AD6363 PUSH1 0xC0 SHL PUSH2 0x1DAF JUMP JUMPDEST PUSH32 0xA87364A9C0C5428B6696C98226DD802D810B8B86E9E520B250FD2390FDAAB2ED DUP7 DUP7 DUP10 PUSH1 0x40 MLOAD PUSH2 0x1559 SWAP4 SWAP3 SWAP2 SWAP1 PUSH2 0x3327 JUMP JUMPDEST PUSH1 0x40 MLOAD DUP1 SWAP2 SUB SWAP1 LOG1 POP POP POP POP POP POP POP POP POP JUMP JUMPDEST PUSH2 0x1580 PUSH8 0x45EDFC9E80575A2 PUSH1 0xC0 SHL PUSH2 0x1DAF JUMP JUMPDEST PUSH2 0x1594 PUSH8 0xF8487125A604491 PUSH1 0xC0 SHL PUSH2 0x1DAF JUMP JUMPDEST PUSH2 0x15A8 PUSH8 0x859E8D65D3F8C5AD PUSH1 0xC0 SHL PUSH2 0x1DAF JUMP JUMPDEST PUSH2 0x15BC PUSH8 0xAE81740AFC9298F0 PUSH1 0xC0 SHL PUSH2 0x1DAF JUMP JUMPDEST PUSH1 0x7 PUSH1 0x0 PUSH2 0x15C8 PUSH2 0x1E41 JUMP JUMPDEST PUSH20 0xFFFFFFFFFFFFFFFFFFFFFFFFFFFFFFFFFFFFFFFF AND PUSH20 0xFFFFFFFFFFFFFFFFFFFFFFFFFFFFFFFFFFFFFFFF AND DUP2 MSTORE PUSH1 0x20 ADD SWAP1 DUP2 MSTORE PUSH1 0x20 ADD PUSH1 0x0 KECCAK256 PUSH1 0x0 SWAP1 SLOAD SWAP1 PUSH2 0x100 EXP SWAP1 DIV PUSH1 0xFF AND PUSH2 0x167C JUMPI PUSH2 0x1628 PUSH8 0xE8FC54F6FCD14EF6 PUSH1 0xC0 SHL PUSH2 0x1DAF JUMP JUMPDEST PUSH2 0x163C PUSH8 0xDDA1CCC0F9CFFE2C PUSH1 0xC0 SHL PUSH2 0x1DAF JUMP JUMPDEST CALLER PUSH1 0x0 PUSH1 0x40 MLOAD PUSH32 0x5A7BFB6000000000000000000000000000000000000000000000000000000000 DUP2 MSTORE PUSH1 0x4 ADD PUSH2 0x1673 SWAP3 SWAP2 SWAP1 PUSH2 0x319A JUMP JUMPDEST PUSH1 0x40 MLOAD DUP1 SWAP2 SUB SWAP1 REVERT JUMPDEST PUSH2 0x1690 PUSH8 0xFA859C5324A9EB30 PUSH1 0xC0 SHL PUSH2 0x1DAF JUMP JUMPDEST PUSH2 0x16A4 PUSH8 0xD7D23955C9011850 PUSH1 0xC0 SHL PUSH2 0x1DAF JUMP JUMPDEST PUSH2 0x16B8 PUSH8 0x18E977B0B55BD8FA PUSH1 0xC0 SHL PUSH2 0x1DAF JUMP JUMPDEST PUSH2 0x16CC PUSH8 0x4BD701D28B1B7ACF PUSH1 0xC0 SHL PUSH2 0x1DAF JUMP JUMPDEST PUSH2 0x16E0 PUSH8 0x45306003AB068FE8 PUSH1 0xC0 SHL PUSH2 0x1DAF JUMP JUMPDEST PUSH2 0x16F4 PUSH8 0xEA21F22114FC0B53 PUSH1 0xC0 SHL PUSH2 0x1DAF JUMP JUMPDEST PUSH1 0x0 PUSH20 0xFFFFFFFFFFFFFFFFFFFFFFFFFFFFFFFFFFFFFFFF AND DUP9 PUSH20 0xFFFFFFFFFFFFFFFFFFFFFFFFFFFFFFFFFFFFFFFF AND EQ DUP1 ISZERO PUSH2 0x1740 JUMPI POP PUSH2 0x173F PUSH8 0x189C15D55F163F0 PUSH1 0xC0 SHL PUSH2 0x1FE6 JUMP JUMPDEST JUMPDEST DUP1 PUSH2 0x17AF JUMPI POP PUSH1 0x0 PUSH20 0xFFFFFFFFFFFFFFFFFFFFFFFFFFFFFFFFFFFFFFFF AND DUP7 PUSH20 0xFFFFFFFFFFFFFFFFFFFFFFFFFFFFFFFFFFFFFFFF AND EQ DUP1 ISZERO PUSH2 0x1792 JUMPI POP PUSH2 0x1791 PUSH8 0x9640438DA2F5244 PUSH1 0xC0 SHL PUSH2 0x1FE6 JUMP JUMPDEST JUMPDEST DUP1 ISZERO PUSH2 0x17AE JUMPI POP PUSH2 0x17AD PUSH8 0xA49329148E7D2B56 PUSH1 0xC0 SHL PUSH2 0x1FE6 JUMP JUMPDEST JUMPDEST JUMPDEST DUP1 PUSH2 0x1802 JUMPI POP PUSH1 0x0 PUSH20 0xFFFFFFFFFFFFFFFFFFFFFFFFFFFFFFFFFFFFFFFF AND DUP8 PUSH20 0xFFFFFFFFFFFFFFFFFFFFFFFFFFFFFFFFFFFFFFFF AND EQ DUP1 ISZERO PUSH2 0x1801 JUMPI POP PUSH2 0x1800 PUSH8 0x1ECBCD4321347FAC PUSH1 0xC0 SHL PUSH2 0x1FE6 JUMP JUMPDEST JUMPDEST JUMPDEST ISZERO PUSH2 0x1861 JUMPI PUSH2 0x181B PUSH8 0x8B773014D0557AD9 PUSH1 0xC0 SHL PUSH2 0x1DAF JUMP JUMPDEST PUSH2 0x182F PUSH8 0x5D55F854883BA408 PUSH1 0xC0 SHL PUSH2 0x1DAF JUMP JUMPDEST PUSH1 0x40 MLOAD PUSH32 0x930907B00000000000000000000000000000000000000000000000000000000 DUP2 MSTORE PUSH1 0x4 ADD PUSH1 0x40 MLOAD DUP1 SWAP2 SUB SWAP1 REVERT JUMPDEST PUSH2 0x1875 PUSH8 0xD270E30CFC1A5980 PUSH1 0xC0 SHL PUSH2 0x1DAF JUMP JUMPDEST PUSH2 0x1889 PUSH8 0x9137341506DDD0A2 PUSH1 0xC0 SHL PUSH2 0x1DAF JUMP JUMPDEST PUSH2 0x189D PUSH8 0xDA5E547E98A87F9D PUSH1 0xC0 SHL PUSH2 0x1DAF JUMP JUMPDEST PUSH1 0x0 DUP5 EQ DUP1 ISZERO PUSH2 0x18BD JUMPI POP PUSH2 0x18BC PUSH8 0xAB737AF424D9430B PUSH1 0xC0 SHL PUSH2 0x1FE6 JUMP JUMPDEST JUMPDEST DUP1 PUSH2 0x1900 JUMPI POP PUSH1 0x0 DUP6 EQ DUP1 ISZERO PUSH2 0x18E3 JUMPI POP PUSH2 0x18E2 PUSH8 0xA689FDD31BBC2966 PUSH1 0xC0 SHL PUSH2 0x1FE6 JUMP JUMPDEST JUMPDEST DUP1 ISZERO PUSH2 0x18FF JUMPI POP PUSH2 0x18FE PUSH8 0x4A51CE1D3FCF255B PUSH1 0xC0 SHL PUSH2 0x1FE6 JUMP JUMPDEST JUMPDEST JUMPDEST DUP1 PUSH2 0x1935 JUMPI POP PUSH1 0x0 DUP4 PUSH12 0xFFFFFFFFFFFFFFFFFFFFFFFF AND EQ DUP1 ISZERO PUSH2 0x1934 JUMPI POP PUSH2 0x1933 PUSH8 0xC6A7EF0539628F66 PUSH1 0xC0 SHL PUSH2 0x1FE6 JUMP JUMPDEST JUMPDEST JUMPDEST ISZERO PUSH2 0x1994 JUMPI PUSH2 0x194E PUSH8 0x8C67798841F9144C PUSH1 0xC0 SHL PUSH2 0x1DAF JUMP JUMPDEST PUSH2 0x1962 PUSH8 0x162389FEF72563D7 PUSH1 0xC0 SHL PUSH2 0x1DAF JUMP JUMPDEST PUSH1 0x40 MLOAD PUSH32 0x7685565700000000000000000000000000000000000000000000000000000000 DUP2 MSTORE PUSH1 0x4 ADD PUSH1 0x40 MLOAD DUP1 SWAP2 SUB SWAP1 REVERT JUMPDEST PUSH2 0x19A8 PUSH8 0x700B10548388E741 PUSH1 0xC0 SHL PUSH2 0x1DAF JUMP JUMPDEST PUSH2 0x19BC PUSH8 0xC3B75C3E46089B7A PUSH1 0xC0 SHL PUSH2 0x1DAF JUMP JUMPDEST PUSH2 0x19D0 PUSH8 0xAFF805D31117DA0D PUSH1 0xC0 SHL PUSH2 0x1DAF JUMP JUMPDEST DUP1 ISZERO PUSH2 0x1AAE JUMPI PUSH2 0x19EA PUSH8 0x4B38C3EA1825E910 PUSH1 0xC0 SHL PUSH2 0x1DAF JUMP JUMPDEST PUSH2 0x19FE PUSH8 0xCB7F4E25E5B8AB2C PUSH1 0xC0 SHL PUSH2 0x1DAF JUMP JUMPDEST PUSH2 0x1A12 PUSH8 0x655141EAA55FD297 PUSH1 0xC0 SHL PUSH2 0x1DAF JUMP JUMPDEST PUSH1 0x4 PUSH1 0x0 SWAP1 SLOAD SWAP1 PUSH2 0x100 EXP SWAP1 DIV PUSH20 0xFFFFFFFFFFFFFFFFFFFFFFFFFFFFFFFFFFFFFFFF AND PUSH20 0xFFFFFFFFFFFFFFFFFFFFFFFFFFFFFFFFFFFFFFFF AND PUSH4 0x91EF38BA DUP7 DUP7 DUP12 DUP11 DUP9 DUP9 PUSH1 0x40 MLOAD DUP8 PUSH4 0xFFFFFFFF AND PUSH1 0xE0 SHL DUP2 MSTORE PUSH1 0x4 ADD PUSH2 0x1A77 SWAP7 SWAP6 SWAP5 SWAP4 SWAP3 SWAP2 SWAP1 PUSH2 0x33BF JUMP JUMPDEST PUSH1 0x0 PUSH1 0x40 MLOAD DUP1 DUP4 SUB DUP2 PUSH1 0x0 DUP8 DUP1 EXTCODESIZE ISZERO DUP1 ISZERO PUSH2 0x1A91 JUMPI PUSH1 0x0 DUP1 REVERT JUMPDEST POP GAS CALL ISZERO DUP1 ISZERO PUSH2 0x1AA5 JUMPI RETURNDATASIZE PUSH1 0x0 DUP1 RETURNDATACOPY RETURNDATASIZE PUSH1 0x0 REVERT JUMPDEST POP POP POP POP PUSH2 0x1B7E JUMP JUMPDEST PUSH2 0x1AC2 PUSH8 0x669510008092D1D2 PUSH1 0xC0 SHL PUSH2 0x1DAF JUMP JUMPDEST PUSH2 0x1AD6 PUSH8 0x3EF5FE5494E74AB3 PUSH1 0xC0 SHL PUSH2 0x1DAF JUMP JUMPDEST PUSH2 0x1AEA PUSH8 0x966657FEDD3FCAE4 PUSH1 0xC0 SHL PUSH2 0x1DAF JUMP JUMPDEST PUSH1 0x4 PUSH1 0x0 SWAP1 SLOAD SWAP1 PUSH2 0x100 EXP SWAP1 DIV PUSH20 0xFFFFFFFFFFFFFFFFFFFFFFFFFFFFFFFFFFFFFFFF AND PUSH20 0xFFFFFFFFFFFFFFFFFFFFFFFFFFFFFFFFFFFFFFFF AND PUSH4 0xF242432A DUP10 DUP9 DUP9 DUP9 PUSH1 0x40 MLOAD DUP6 PUSH4 0xFFFFFFFF AND PUSH1 0xE0 SHL DUP2 MSTORE PUSH1 0x4 ADD PUSH2 0x1B4B SWAP5 SWAP4 SWAP3 SWAP2 SWAP1 PUSH2 0x344D JUMP JUMPDEST PUSH1 0x0 PUSH1 0x40 MLOAD DUP1 DUP4 SUB DUP2 PUSH1 0x0 DUP8 DUP1 EXTCODESIZE ISZERO DUP1 ISZERO PUSH2 0x1B65 JUMPI PUSH1 0x0 DUP1 REVERT JUMPDEST POP GAS CALL ISZERO DUP1 ISZERO PUSH2 0x1B79 JUMPI RETURNDATASIZE PUSH1 0x0 DUP1 RETURNDATACOPY RETURNDATASIZE PUSH1 0x0 REVERT JUMPDEST POP POP POP POP JUMPDEST POP POP POP POP POP POP POP POP JUMP JUMPDEST PUSH1 0x6 PUSH1 0x20 MSTORE DUP1 PUSH1 0x0 MSTORE PUSH1 0x40 PUSH1 0x0 KECCAK256 PUSH1 0x0 SWAP2 POP SWAP1 POP SLOAD DUP2 JUMP JUMPDEST PUSH1 0x7 PUSH1 0x20 MSTORE DUP1 PUSH1 0x0 MSTORE PUSH1 0x40 PUSH1 0x0 KECCAK256 PUSH1 0x0 SWAP2 POP SLOAD SWAP1 PUSH2 0x100 EXP SWAP1 DIV PUSH1 0xFF AND DUP2 JUMP JUMPDEST PUSH2 0x1BD4 PUSH8 0x4F8AA211ED82D16E PUSH1 0xC0 SHL PUSH2 0x1DAF JUMP JUMPDEST PUSH2 0x1BE8 PUSH8 0xE3C20A630061E099 PUSH1 0xC0 SHL PUSH2 0x1DAF JUMP JUMPDEST PUSH2 0x1BFC PUSH8 0x55FCA310200DD624 PUSH1 0xC0 SHL PUSH2 0x1DAF JUMP JUMPDEST PUSH2 0x1C10 PUSH8 0x66BD94ED27746DD0 PUSH1 0xC0 SHL PUSH2 0x1DAF JUMP JUMPDEST PUSH1 0x2 PUSH1 0x0 SWAP1 SLOAD SWAP1 PUSH2 0x100 EXP SWAP1 DIV PUSH20 0xFFFFFFFFFFFFFFFFFFFFFFFFFFFFFFFFFFFFFFFF AND PUSH20 0xFFFFFFFFFFFFFFFFFFFFFFFFFFFFFFFFFFFFFFFF AND CALLER PUSH20 0xFFFFFFFFFFFFFFFFFFFFFFFFFFFFFFFFFFFFFFFF AND EQ PUSH2 0x1CEE JUMPI PUSH2 0x1C79 PUSH8 0x961BBB5987B9FED5 PUSH1 0xC0 SHL PUSH2 0x1DAF JUMP JUMPDEST PUSH2 0x1C8D PUSH8 0x5E170420CCB2B1C4 PUSH1 0xC0 SHL PUSH2 0x1DAF JUMP JUMPDEST CALLER PUSH1 0x2 PUSH1 0x0 SWAP1 SLOAD SWAP1 PUSH2 0x100 EXP SWAP1 DIV PUSH20 0xFFFFFFFFFFFFFFFFFFFFFFFFFFFFFFFFFFFFFFFF AND PUSH1 0x40 MLOAD PUSH32 0xE0C0B60900000000000000000000000000000000000000000000000000000000 DUP2 MSTORE PUSH1 0x4 ADD PUSH2 0x1CE5 SWAP3 SWAP2 SWAP1 PUSH2 0x2EE8 JUMP JUMPDEST PUSH1 0x40 MLOAD DUP1 SWAP2 SUB SWAP1 REVERT JUMPDEST PUSH2 0x1D02 PUSH8 0xB456828E0F8E8E09 PUSH1 0xC0 SHL PUSH2 0x1DAF JUMP JUMPDEST PUSH2 0x1D16 PUSH8 0xD566844BB31A8CF PUSH1 0xC0 SHL PUSH2 0x1DAF JUMP JUMPDEST PUSH2 0x1D2A PUSH8 0x19A230423E3508E5 PUSH1 0xC0 SHL PUSH2 0x1DAF JUMP JUMPDEST PUSH2 0x1D3E PUSH8 0xB2DF7D0ADE69BB77 PUSH1 0xC0 SHL PUSH2 0x1DAF JUMP JUMPDEST PUSH2 0x1D52 PUSH8 0xF16672C9DB4EFB79 PUSH1 0xC0 SHL PUSH2 0x1DAF JUMP JUMPDEST DUP1 PUSH1 0x2 PUSH1 0x0 PUSH2 0x100 EXP DUP2 SLOAD DUP2 PUSH20 0xFFFFFFFFFFFFFFFFFFFFFFFFFFFFFFFFFFFFFFFF MUL NOT AND SWAP1 DUP4 PUSH20 0xFFFFFFFFFFFFFFFFFFFFFFFFFFFFFFFFFFFFFFFF AND MUL OR SWAP1 SSTORE POP POP JUMP JUMPDEST POP JUMP JUMPDEST PUSH1 0x0 DUP2 DUP4 PUSH2 0x1DA7 SWAP2 SWAP1 PUSH2 0x34A5 JUMP JUMPDEST SWAP1 POP SWAP3 SWAP2 POP POP JUMP JUMPDEST POP JUMP JUMPDEST PUSH1 0x0 DUP1 DUP3 PUSH20 0xFFFFFFFFFFFFFFFFFFFFFFFFFFFFFFFFFFFFFFFF AND EXTCODESIZE GT SWAP1 POP SWAP2 SWAP1 POP JUMP JUMPDEST PUSH1 0x0 PUSH2 0x1DEB PUSH8 0x743A10B4F2A7B8BE PUSH1 0xC0 SHL PUSH2 0x1D96 JUMP JUMPDEST PUSH2 0x1DFF PUSH8 0xC99765E4C7E2B1C4 PUSH1 0xC0 SHL PUSH2 0x1D96 JUMP JUMPDEST PUSH2 0x1E13 PUSH8 0x786BCA11B0197300 PUSH1 0xC0 SHL PUSH2 0x1D96 JUMP JUMPDEST DUP2 PUSH1 0x40 MLOAD PUSH1 0x20 ADD PUSH2 0x1E24 SWAP2 SWAP1 PUSH2 0x3551 JUMP JUMPDEST PUSH1 0x40 MLOAD PUSH1 0x20 DUP2 DUP4 SUB SUB DUP2 MSTORE SWAP1 PUSH1 0x40 MSTORE DUP1 MLOAD SWAP1 PUSH1 0x20 ADD KECCAK256 SWAP1 POP SWAP2 SWAP1 POP JUMP JUMPDEST PUSH1 0x0 PUSH2 0x1E57 PUSH8 0x4A46E46642034E6D PUSH1 0xC0 SHL PUSH2 0x1DAF JUMP JUMPDEST PUSH2 0x1E6B PUSH8 0x242EEBD69BD05E76 PUSH1 0xC0 SHL PUSH2 0x1DAF JUMP JUMPDEST PUSH2 0x1E7F PUSH8 0x2674998E693F0C9D PUSH1 0xC0 SHL PUSH2 0x1DAF JUMP JUMPDEST ADDRESS PUSH20 0xFFFFFFFFFFFFFFFFFFFFFFFFFFFFFFFFFFFFFFFF AND CALLER PUSH20 0xFFFFFFFFFFFFFFFFFFFFFFFFFFFFFFFFFFFFFFFF AND SUB PUSH2 0x1F9E JUMPI PUSH2 0x1EC6 PUSH8 0x2CC2986F82E1D097 PUSH1 0xC0 SHL PUSH2 0x1DAF JUMP JUMPDEST PUSH2 0x1EDA PUSH8 0x4F19B4B3DA7809FB PUSH1 0xC0 SHL PUSH2 0x1DAF JUMP JUMPDEST PUSH2 0x1EEE PUSH8 0x54AF4B26FA63E7FD PUSH1 0xC0 SHL PUSH2 0x1DAF JUMP JUMPDEST PUSH1 0x0 DUP1 CALLDATASIZE DUP1 DUP1 PUSH1 0x1F ADD PUSH1 0x20 DUP1 SWAP2 DIV MUL PUSH1 0x20 ADD PUSH1 0x40 MLOAD SWAP1 DUP2 ADD PUSH1 0x40 MSTORE DUP1 SWAP4 SWAP3 SWAP2 SWAP1 DUP2 DUP2 MSTORE PUSH1 0x20 ADD DUP4 DUP4 DUP1 DUP3 DUP5 CALLDATACOPY PUSH1 0x0 DUP2 DUP5 ADD MSTORE PUSH1 0x1F NOT PUSH1 0x1F DUP3 ADD AND SWAP1 POP DUP1 DUP4 ADD SWAP3 POP POP POP POP POP POP POP SWAP1 POP PUSH2 0x1F4B PUSH8 0xC3E7E5B8EBCB3CB4 PUSH1 0xC0 SHL PUSH2 0x1DAF JUMP JUMPDEST PUSH2 0x1F5F PUSH8 0x68F7ECF733DA4263 PUSH1 0xC0 SHL PUSH2 0x1DAF JUMP JUMPDEST PUSH1 0x0 DUP1 CALLDATASIZE SWAP1 POP SWAP1 POP PUSH2 0x1F7B PUSH8 0x1D7E05A212885DE6 PUSH1 0xC0 SHL PUSH2 0x1DAF JUMP JUMPDEST PUSH20 0xFFFFFFFFFFFFFFFFFFFFFFFFFFFFFFFFFFFFFFFF DUP2 DUP4 ADD MLOAD AND SWAP3 POP POP POP PUSH2 0x1FE2 JUMP JUMPDEST PUSH2 0x1FB2 PUSH8 0xACED266A99F58AB2 PUSH1 0xC0 SHL PUSH2 0x1DAF JUMP JUMPDEST PUSH2 0x1FC6 PUSH8 0xD26C969CBF1E0B5 PUSH1 0xC0 SHL PUSH2 0x1DAF JUMP JUMPDEST PUSH2 0x1FDA PUSH8 0x4FA6CB2DB4EABABB PUSH1 0xC0 SHL PUSH2 0x1DAF JUMP JUMPDEST CALLER SWAP1 POP PUSH2 0x1FE3 JUMP JUMPDEST JUMPDEST SWAP1 JUMP JUMPDEST PUSH1 0x0 PUSH1 0x1 SWAP1 POP SWAP2 SWAP1 POP JUMP JUMPDEST PUSH1 0x0 PUSH1 0x40 MLOAD SWAP1 POP SWAP1 JUMP JUMPDEST PUSH1 0x0 DUP1 REVERT JUMPDEST PUSH1 0x0 DUP1 REVERT JUMPDEST PUSH1 0x0 PUSH20 0xFFFFFFFFFFFFFFFFFFFFFFFFFFFFFFFFFFFFFFFF DUP3 AND SWAP1 POP SWAP2 SWAP1 POP JUMP JUMPDEST PUSH1 0x0 PUSH2 0x2030 DUP3 PUSH2 0x2005 JUMP JUMPDEST SWAP1 POP SWAP2 SWAP1 POP JUMP JUMPDEST PUSH2 0x2040 DUP2 PUSH2 0x2025 JUMP JUMPDEST DUP2 EQ PUSH2 0x204B JUMPI PUSH1 0x0 DUP1 REVERT JUMPDEST POP JUMP JUMPDEST PUSH1 0x0 DUP2 CALLDATALOAD SWAP1 POP PUSH2 0x205D DUP2 PUSH2 0x2037 JUMP JUMPDEST SWAP3 SWAP2 POP POP JUMP JUMPDEST PUSH1 0x0 DUP1 REVERT JUMPDEST PUSH1 0x0 DUP1 REVERT JUMPDEST PUSH1 0x0 PUSH1 0x1F NOT PUSH1 0x1F DUP4 ADD AND SWAP1 POP SWAP2 SWAP1 POP JUMP JUMPDEST PUSH32 0x4E487B7100000000000000000000000000000000000000000000000000000000 PUSH1 0x0 MSTORE PUSH1 0x41 PUSH1 0x4 MSTORE PUSH1 0x24 PUSH1 0x0 REVERT JUMPDEST PUSH2 0x20B6 DUP3 PUSH2 0x206D JUMP JUMPDEST DUP2 ADD DUP2 DUP2 LT PUSH8 0xFFFFFFFFFFFFFFFF DUP3 GT OR ISZERO PUSH2 0x20D5 JUMPI PUSH2 0x20D4 PUSH2 0x207E JUMP JUMPDEST JUMPDEST DUP1 PUSH1 0x40 MSTORE POP POP POP JUMP JUMPDEST PUSH1 0x0 PUSH2 0x20E8 PUSH2 0x1FF1 JUMP JUMPDEST SWAP1 POP PUSH2 0x20F4 DUP3 DUP3 PUSH2 0x20AD JUMP JUMPDEST SWAP2 SWAP1 POP JUMP JUMPDEST PUSH1 0x0 PUSH8 0xFFFFFFFFFFFFFFFF DUP3 GT ISZERO PUSH2 0x2114 JUMPI PUSH2 0x2113 PUSH2 0x207E JUMP JUMPDEST JUMPDEST PUSH2 0x211D DUP3 PUSH2 0x206D JUMP JUMPDEST SWAP1 POP PUSH1 0x20 DUP2 ADD SWAP1 POP SWAP2 SWAP1 POP JUMP JUMPDEST DUP3 DUP2 DUP4 CALLDATACOPY PUSH1 0x0 DUP4 DUP4 ADD MSTORE POP POP POP JUMP JUMPDEST PUSH1 0x0 PUSH2 0x214C PUSH2 0x2147 DUP5 PUSH2 0x20F9 JUMP JUMPDEST PUSH2 0x20DE JUMP JUMPDEST SWAP1 POP DUP3 DUP2 MSTORE PUSH1 0x20 DUP2 ADD DUP5 DUP5 DUP5 ADD GT ISZERO PUSH2 0x2168 JUMPI PUSH2 0x2167 PUSH2 0x2068 JUMP JUMPDEST JUMPDEST PUSH2 0x2173 DUP5 DUP3 DUP6 PUSH2 0x212A JUMP JUMPDEST POP SWAP4 SWAP3 POP POP POP JUMP JUMPDEST PUSH1 0x0 DUP3 PUSH1 0x1F DUP4 ADD SLT PUSH2 0x2190 JUMPI PUSH2 0x218F PUSH2 0x2063 JUMP JUMPDEST JUMPDEST DUP2 CALLDATALOAD PUSH2 0x21A0 DUP5 DUP3 PUSH1 0x20 DUP7 ADD PUSH2 0x2139 JUMP JUMPDEST SWAP2 POP POP SWAP3 SWAP2 POP POP JUMP JUMPDEST PUSH1 0x0 DUP2 SWAP1 POP SWAP2 SWAP1 POP JUMP JUMPDEST PUSH2 0x21BC DUP2 PUSH2 0x21A9 JUMP JUMPDEST DUP2 EQ PUSH2 0x21C7 JUMPI PUSH1 0x0 DUP1 REVERT JUMPDEST POP JUMP JUMPDEST PUSH1 0x0 DUP2 CALLDATALOAD SWAP1 POP PUSH2 0x21D9 DUP2 PUSH2 0x21B3 JUMP JUMPDEST SWAP3 SWAP2 POP POP JUMP JUMPDEST PUSH1 0x0 PUSH1 0xFF DUP3 AND SWAP1 POP SWAP2 SWAP1 POP JUMP JUMPDEST PUSH2 0x21F5 DUP2 PUSH2 0x21DF JUMP JUMPDEST DUP2 EQ PUSH2 0x2200 JUMPI PUSH1 0x0 DUP1 REVERT JUMPDEST POP JUMP JUMPDEST PUSH1 0x0 DUP2 CALLDATALOAD SWAP1 POP PUSH2 0x2212 DUP2 PUSH2 0x21EC JUMP JUMPDEST SWAP3 SWAP2 POP POP JUMP JUMPDEST PUSH1 0x0 DUP1 PUSH1 0x0 DUP1 PUSH1 0x0 PUSH1 0xA0 DUP7 DUP9 SUB SLT ISZERO PUSH2 0x2234 JUMPI PUSH2 0x2233 PUSH2 0x1FFB JUMP JUMPDEST JUMPDEST PUSH1 0x0 PUSH2 0x2242 DUP9 DUP3 DUP10 ADD PUSH2 0x204E JUMP JUMPDEST SWAP6 POP POP PUSH1 0x20 DUP7 ADD CALLDATALOAD PUSH8 0xFFFFFFFFFFFFFFFF DUP2 GT ISZERO PUSH2 0x2263 JUMPI PUSH2 0x2262 PUSH2 0x2000 JUMP JUMPDEST JUMPDEST PUSH2 0x226F DUP9 DUP3 DUP10 ADD PUSH2 0x217B JUMP JUMPDEST SWAP5 POP POP PUSH1 0x40 PUSH2 0x2280 DUP9 DUP3 DUP10 ADD PUSH2 0x21CA JUMP JUMPDEST SWAP4 POP POP PUSH1 0x60 PUSH2 0x2291 DUP9 DUP3 DUP10 ADD PUSH2 0x21CA JUMP JUMPDEST SWAP3 POP POP PUSH1 0x80 PUSH2 0x22A2 DUP9 DUP3 DUP10 ADD PUSH2 0x2203 JUMP JUMPDEST SWAP2 POP POP SWAP3 SWAP6 POP SWAP3 SWAP6 SWAP1 SWAP4 POP JUMP JUMPDEST PUSH1 0x0 DUP2 MLOAD SWAP1 POP SWAP2 SWAP1 POP JUMP JUMPDEST PUSH1 0x0 DUP3 DUP3 MSTORE PUSH1 0x20 DUP3 ADD SWAP1 POP SWAP3 SWAP2 POP POP JUMP JUMPDEST PUSH1 0x0 JUMPDEST DUP4 DUP2 LT ISZERO PUSH2 0x22E9 JUMPI DUP1 DUP3 ADD MLOAD DUP2 DUP5 ADD MSTORE PUSH1 0x20 DUP2 ADD SWAP1 POP PUSH2 0x22CE JUMP JUMPDEST PUSH1 0x0 DUP5 DUP5 ADD MSTORE POP POP POP POP JUMP JUMPDEST PUSH1 0x0 PUSH2 0x2300 DUP3 PUSH2 0x22AF JUMP JUMPDEST PUSH2 0x230A DUP2 DUP6 PUSH2 0x22BA JUMP JUMPDEST SWAP4 POP PUSH2 0x231A DUP2 DUP6 PUSH1 0x20 DUP7 ADD PUSH2 0x22CB JUMP JUMPDEST PUSH2 0x2323 DUP2 PUSH2 0x206D JUMP JUMPDEST DUP5 ADD SWAP2 POP POP SWAP3 SWAP2 POP POP JUMP JUMPDEST PUSH1 0x0 PUSH1 0x20 DUP3 ADD SWAP1 POP DUP2 DUP2 SUB PUSH1 0x0 DUP4 ADD MSTORE PUSH2 0x2348 DUP2 DUP5 PUSH2 0x22F5 JUMP JUMPDEST SWAP1 POP SWAP3 SWAP2 POP POP JUMP JUMPDEST PUSH1 0x0 PUSH1 0x20 DUP3 DUP5 SUB SLT ISZERO PUSH2 0x2366 JUMPI PUSH2 0x2365 PUSH2 0x1FFB JUMP JUMPDEST JUMPDEST PUSH1 0x0 PUSH2 0x2374 DUP5 DUP3 DUP6 ADD PUSH2 0x204E JUMP JUMPDEST SWAP2 POP POP SWAP3 SWAP2 POP POP JUMP JUMPDEST PUSH2 0x2386 DUP2 PUSH2 0x2025 JUMP JUMPDEST DUP3 MSTORE POP POP JUMP JUMPDEST PUSH1 0x0 PUSH1 0x20 DUP3 ADD SWAP1 POP PUSH2 0x23A1 PUSH1 0x0 DUP4 ADD DUP5 PUSH2 0x237D JUMP JUMPDEST SWAP3 SWAP2 POP POP JUMP JUMPDEST PUSH1 0x0 DUP2 SWAP1 POP SWAP2 SWAP1 POP JUMP JUMPDEST PUSH2 0x23BA DUP2 PUSH2 0x23A7 JUMP JUMPDEST DUP3 MSTORE POP POP JUMP JUMPDEST PUSH1 0x0 PUSH1 0x20 DUP3 ADD SWAP1 POP PUSH2 0x23D5 PUSH1 0x0 DUP4 ADD DUP5 PUSH2 0x23B1 JUMP JUMPDEST SWAP3 SWAP2 POP POP JUMP JUMPDEST PUSH1 0x0 DUP1 PUSH1 0x40 DUP4 DUP6 SUB SLT ISZERO PUSH2 0x23F2 JUMPI PUSH2 0x23F1 PUSH2 0x1FFB JUMP JUMPDEST JUMPDEST PUSH1 0x0 PUSH2 0x2400 DUP6 DUP3 DUP7 ADD PUSH2 0x204E JUMP JUMPDEST SWAP3 POP POP PUSH1 0x20 PUSH2 0x2411 DUP6 DUP3 DUP7 ADD PUSH2 0x204E JUMP JUMPDEST SWAP2 POP POP SWAP3 POP SWAP3 SWAP1 POP JUMP JUMPDEST PUSH2 0x2424 DUP2 PUSH2 0x23A7 JUMP JUMPDEST DUP2 EQ PUSH2 0x242F JUMPI PUSH1 0x0 DUP1 REVERT JUMPDEST POP JUMP JUMPDEST PUSH1 0x0 DUP2 CALLDATALOAD SWAP1 POP PUSH2 0x2441 DUP2 PUSH2 0x241B JUMP JUMPDEST SWAP3 SWAP2 POP POP JUMP JUMPDEST PUSH1 0x0 PUSH1 0x20 DUP3 DUP5 SUB SLT ISZERO PUSH2 0x245D JUMPI PUSH2 0x245C PUSH2 0x1FFB JUMP JUMPDEST JUMPDEST PUSH1 0x0 PUSH2 0x246B DUP5 DUP3 DUP6 ADD PUSH2 0x2432 JUMP JUMPDEST SWAP2 POP POP SWAP3 SWAP2 POP POP JUMP JUMPDEST PUSH1 0x0 DUP2 ISZERO ISZERO SWAP1 POP SWAP2 SWAP1 POP JUMP JUMPDEST PUSH2 0x2489 DUP2 PUSH2 0x2474 JUMP JUMPDEST DUP3 MSTORE POP POP JUMP JUMPDEST PUSH1 0x0 PUSH1 0x20 DUP3 ADD SWAP1 POP PUSH2 0x24A4 PUSH1 0x0 DUP4 ADD DUP5 PUSH2 0x2480 JUMP JUMPDEST SWAP3 SWAP2 POP POP JUMP JUMPDEST PUSH1 0x0 DUP1 PUSH1 0x0 DUP1 PUSH1 0x0 DUP1 PUSH1 0x0 PUSH1 0xE0 DUP9 DUP11 SUB SLT ISZERO PUSH2 0x24C9 JUMPI PUSH2 0x24C8 PUSH2 0x1FFB JUMP JUMPDEST JUMPDEST PUSH1 0x0 PUSH2 0x24D7 DUP11 DUP3 DUP12 ADD PUSH2 0x204E JUMP JUMPDEST SWAP8 POP POP PUSH1 0x20 PUSH2 0x24E8 DUP11 DUP3 DUP12 ADD PUSH2 0x2432 JUMP JUMPDEST SWAP7 POP POP PUSH1 0x40 PUSH2 0x24F9 DUP11 DUP3 DUP12 ADD PUSH2 0x2432 JUMP JUMPDEST SWAP6 POP POP PUSH1 0x60 DUP9 ADD CALLDATALOAD PUSH8 0xFFFFFFFFFFFFFFFF DUP2 GT ISZERO PUSH2 0x251A JUMPI PUSH2 0x2519 PUSH2 0x2000 JUMP JUMPDEST JUMPDEST PUSH2 0x2526 DUP11 DUP3 DUP12 ADD PUSH2 0x217B JUMP JUMPDEST SWAP5 POP POP PUSH1 0x80 PUSH2 0x2537 DUP11 DUP3 DUP12 ADD PUSH2 0x21CA JUMP JUMPDEST SWAP4 POP POP PUSH1 0xA0 PUSH2 0x2548 DUP11 DUP3 DUP12 ADD PUSH2 0x21CA JUMP JUMPDEST SWAP3 POP POP PUSH1 0xC0 PUSH2 0x2559 DUP11 DUP3 DUP12 ADD PUSH2 0x2203 JUMP JUMPDEST SWAP2 POP POP SWAP3 SWAP6 SWAP9 SWAP2 SWAP5 SWAP8 POP SWAP3 SWAP6 POP JUMP JUMPDEST PUSH1 0x0 PUSH8 0xFFFFFFFFFFFFFFFF DUP3 GT ISZERO PUSH2 0x2583 JUMPI PUSH2 0x2582 PUSH2 0x207E JUMP JUMPDEST JUMPDEST PUSH1 0x20 DUP3 MUL SWAP1 POP PUSH1 0x20 DUP2 ADD SWAP1 POP SWAP2 SWAP1 POP JUMP JUMPDEST PUSH1 0x0 DUP1 REVERT JUMPDEST PUSH1 0x0 PUSH2 0x25AC PUSH2 0x25A7 DUP5 PUSH2 0x2568 JUMP JUMPDEST PUSH2 0x20DE JUMP JUMPDEST SWAP1 POP DUP1 DUP4 DUP3 MSTORE PUSH1 0x20 DUP3 ADD SWAP1 POP PUSH1 0x20 DUP5 MUL DUP4 ADD DUP6 DUP2 GT ISZERO PUSH2 0x25CF JUMPI PUSH2 0x25CE PUSH2 0x2594 JUMP JUMPDEST JUMPDEST DUP4 JUMPDEST DUP2 DUP2 LT ISZERO PUSH2 0x25F8 JUMPI DUP1 PUSH2 0x25E4 DUP9 DUP3 PUSH2 0x204E JUMP JUMPDEST DUP5 MSTORE PUSH1 0x20 DUP5 ADD SWAP4 POP POP PUSH1 0x20 DUP2 ADD SWAP1 POP PUSH2 0x25D1 JUMP JUMPDEST POP POP POP SWAP4 SWAP3 POP POP POP JUMP JUMPDEST PUSH1 0x0 DUP3 PUSH1 0x1F DUP4 ADD SLT PUSH2 0x2617 JUMPI PUSH2 0x2616 PUSH2 0x2063 JUMP JUMPDEST JUMPDEST DUP2 CALLDATALOAD PUSH2 0x2627 DUP5 DUP3 PUSH1 0x20 DUP7 ADD PUSH2 0x2599 JUMP JUMPDEST SWAP2 POP POP SWAP3 SWAP2 POP POP JUMP JUMPDEST PUSH1 0x0 PUSH8 0xFFFFFFFFFFFFFFFF DUP3 GT ISZERO PUSH2 0x264B JUMPI PUSH2 0x264A PUSH2 0x207E JUMP JUMPDEST JUMPDEST PUSH1 0x20 DUP3 MUL SWAP1 POP PUSH1 0x20 DUP2 ADD SWAP1 POP SWAP2 SWAP1 POP JUMP JUMPDEST PUSH1 0x0 PUSH2 0x266F PUSH2 0x266A DUP5 PUSH2 0x2630 JUMP JUMPDEST PUSH2 0x20DE JUMP JUMPDEST SWAP1 POP DUP1 DUP4 DUP3 MSTORE PUSH1 0x20 DUP3 ADD SWAP1 POP PUSH1 0x20 DUP5 MUL DUP4 ADD DUP6 DUP2 GT ISZERO PUSH2 0x2692 JUMPI PUSH2 0x2691 PUSH2 0x2594 JUMP JUMPDEST JUMPDEST DUP4 JUMPDEST DUP2 DUP2 LT ISZERO PUSH2 0x26BB JUMPI DUP1 PUSH2 0x26A7 DUP9 DUP3 PUSH2 0x2432 JUMP JUMPDEST DUP5 MSTORE PUSH1 0x20 DUP5 ADD SWAP4 POP POP PUSH1 0x20 DUP2 ADD SWAP1 POP PUSH2 0x2694 JUMP JUMPDEST POP POP POP SWAP4 SWAP3 POP POP POP JUMP JUMPDEST PUSH1 0x0 DUP3 PUSH1 0x1F DUP4 ADD SLT PUSH2 0x26DA JUMPI PUSH2 0x26D9 PUSH2 0x2063 JUMP JUMPDEST JUMPDEST DUP2 CALLDATALOAD PUSH2 0x26EA DUP5 DUP3 PUSH1 0x20 DUP7 ADD PUSH2 0x265C JUMP JUMPDEST SWAP2 POP POP SWAP3 SWAP2 POP POP JUMP JUMPDEST PUSH1 0x0 PUSH8 0xFFFFFFFFFFFFFFFF DUP3 GT ISZERO PUSH2 0x270E JUMPI PUSH2 0x270D PUSH2 0x207E JUMP JUMPDEST JUMPDEST PUSH1 0x20 DUP3 MUL SWAP1 POP PUSH1 0x20 DUP2 ADD SWAP1 POP SWAP2 SWAP1 POP JUMP JUMPDEST PUSH1 0x0 PUSH12 0xFFFFFFFFFFFFFFFFFFFFFFFF DUP3 AND SWAP1 POP SWAP2 SWAP1 POP JUMP JUMPDEST PUSH2 0x2740 DUP2 PUSH2 0x271F JUMP JUMPDEST DUP2 EQ PUSH2 0x274B JUMPI PUSH1 0x0 DUP1 REVERT JUMPDEST POP JUMP JUMPDEST PUSH1 0x0 DUP2 CALLDATALOAD SWAP1 POP PUSH2 0x275D DUP2 PUSH2 0x2737 JUMP JUMPDEST SWAP3 SWAP2 POP POP JUMP JUMPDEST PUSH1 0x0 PUSH2 0x2776 PUSH2 0x2771 DUP5 PUSH2 0x26F3 JUMP JUMPDEST PUSH2 0x20DE JUMP JUMPDEST SWAP1 POP DUP1 DUP4 DUP3 MSTORE PUSH1 0x20 DUP3 ADD SWAP1 POP PUSH1 0x20 DUP5 MUL DUP4 ADD DUP6 DUP2 GT ISZERO PUSH2 0x2799 JUMPI PUSH2 0x2798 PUSH2 0x2594 JUMP JUMPDEST JUMPDEST DUP4 JUMPDEST DUP2 DUP2 LT ISZERO PUSH2 0x27C2 JUMPI DUP1 PUSH2 0x27AE DUP9 DUP3 PUSH2 0x274E JUMP JUMPDEST DUP5 MSTORE PUSH1 0x20 DUP5 ADD SWAP4 POP POP PUSH1 0x20 DUP2 ADD SWAP1 POP PUSH2 0x279B JUMP JUMPDEST POP POP POP SWAP4 SWAP3 POP POP POP JUMP JUMPDEST PUSH1 0x0 DUP3 PUSH1 0x1F DUP4 ADD SLT PUSH2 0x27E1 JUMPI PUSH2 0x27E0 PUSH2 0x2063 JUMP JUMPDEST JUMPDEST DUP2 CALLDATALOAD PUSH2 0x27F1 DUP5 DUP3 PUSH1 0x20 DUP7 ADD PUSH2 0x2763 JUMP JUMPDEST SWAP2 POP POP SWAP3 SWAP2 POP POP JUMP JUMPDEST PUSH1 0x0 PUSH8 0xFFFFFFFFFFFFFFFF DUP3 GT ISZERO PUSH2 0x2815 JUMPI PUSH2 0x2814 PUSH2 0x207E JUMP JUMPDEST JUMPDEST PUSH1 0x20 DUP3 MUL SWAP1 POP PUSH1 0x20 DUP2 ADD SWAP1 POP SWAP2 SWAP1 POP JUMP JUMPDEST PUSH1 0x0 PUSH8 0xFFFFFFFFFFFFFFFF DUP3 GT ISZERO PUSH2 0x2841 JUMPI PUSH2 0x2840 PUSH2 0x207E JUMP JUMPDEST JUMPDEST PUSH2 0x284A DUP3 PUSH2 0x206D JUMP JUMPDEST SWAP1 POP PUSH1 0x20 DUP2 ADD SWAP1 POP SWAP2 SWAP1 POP JUMP JUMPDEST PUSH1 0x0 PUSH2 0x286A PUSH2 0x2865 DUP5 PUSH2 0x2826 JUMP JUMPDEST PUSH2 0x20DE JUMP JUMPDEST SWAP1 POP DUP3 DUP2 MSTORE PUSH1 0x20 DUP2 ADD DUP5 DUP5 DUP5 ADD GT ISZERO PUSH2 0x2886 JUMPI PUSH2 0x2885 PUSH2 0x2068 JUMP JUMPDEST JUMPDEST PUSH2 0x2891 DUP5 DUP3 DUP6 PUSH2 0x212A JUMP JUMPDEST POP SWAP4 SWAP3 POP POP POP JUMP JUMPDEST PUSH1 0x0 DUP3 PUSH1 0x1F DUP4 ADD SLT PUSH2 0x28AE JUMPI PUSH2 0x28AD PUSH2 0x2063 JUMP JUMPDEST JUMPDEST DUP2 CALLDATALOAD PUSH2 0x28BE DUP5 DUP3 PUSH1 0x20 DUP7 ADD PUSH2 0x2857 JUMP JUMPDEST SWAP2 POP POP SWAP3 SWAP2 POP POP JUMP JUMPDEST PUSH1 0x0 PUSH2 0x28DA PUSH2 0x28D5 DUP5 PUSH2 0x27FA JUMP JUMPDEST PUSH2 0x20DE JUMP JUMPDEST SWAP1 POP DUP1 DUP4 DUP3 MSTORE PUSH1 0x20 DUP3 ADD SWAP1 POP PUSH1 0x20 DUP5 MUL DUP4 ADD DUP6 DUP2 GT ISZERO PUSH2 0x28FD JUMPI PUSH2 0x28FC PUSH2 0x2594 JUMP JUMPDEST JUMPDEST DUP4 JUMPDEST DUP2 DUP2 LT ISZERO PUSH2 0x2944 JUMPI DUP1 CALLDATALOAD PUSH8 0xFFFFFFFFFFFFFFFF DUP2 GT ISZERO PUSH2 0x2922 JUMPI PUSH2 0x2921 PUSH2 0x2063 JUMP JUMPDEST JUMPDEST DUP1 DUP7 ADD PUSH2 0x292F DUP10 DUP3 PUSH2 0x2899 JUMP JUMPDEST DUP6 MSTORE PUSH1 0x20 DUP6 ADD SWAP5 POP POP POP PUSH1 0x20 DUP2 ADD SWAP1 POP PUSH2 0x28FF JUMP JUMPDEST POP POP POP SWAP4 SWAP3 POP POP POP JUMP JUMPDEST PUSH1 0x0 DUP3 PUSH1 0x1F DUP4 ADD SLT PUSH2 0x2963 JUMPI PUSH2 0x2962 PUSH2 0x2063 JUMP JUMPDEST JUMPDEST DUP2 CALLDATALOAD PUSH2 0x2973 DUP5 DUP3 PUSH1 0x20 DUP7 ADD PUSH2 0x28C7 JUMP JUMPDEST SWAP2 POP POP SWAP3 SWAP2 POP POP JUMP JUMPDEST PUSH1 0x0 PUSH8 0xFFFFFFFFFFFFFFFF DUP3 GT ISZERO PUSH2 0x2997 JUMPI PUSH2 0x2996 PUSH2 0x207E JUMP JUMPDEST JUMPDEST PUSH1 0x20 DUP3 MUL SWAP1 POP PUSH1 0x20 DUP2 ADD SWAP1 POP SWAP2 SWAP1 POP JUMP JUMPDEST PUSH2 0x29B1 DUP2 PUSH2 0x2474 JUMP JUMPDEST DUP2 EQ PUSH2 0x29BC JUMPI PUSH1 0x0 DUP1 REVERT JUMPDEST POP JUMP JUMPDEST PUSH1 0x0 DUP2 CALLDATALOAD SWAP1 POP PUSH2 0x29CE DUP2 PUSH2 0x29A8 JUMP JUMPDEST SWAP3 SWAP2 POP POP JUMP JUMPDEST PUSH1 0x0 PUSH2 0x29E7 PUSH2 0x29E2 DUP5 PUSH2 0x297C JUMP JUMPDEST PUSH2 0x20DE JUMP JUMPDEST SWAP1 POP DUP1 DUP4 DUP3 MSTORE PUSH1 0x20 DUP3 ADD SWAP1 POP PUSH1 0x20 DUP5 MUL DUP4 ADD DUP6 DUP2 GT ISZERO PUSH2 0x2A0A JUMPI PUSH2 0x2A09 PUSH2 0x2594 JUMP JUMPDEST JUMPDEST DUP4 JUMPDEST DUP2 DUP2 LT ISZERO PUSH2 0x2A33 JUMPI DUP1 PUSH2 0x2A1F DUP9 DUP3 PUSH2 0x29BF JUMP JUMPDEST DUP5 MSTORE PUSH1 0x20 DUP5 ADD SWAP4 POP POP PUSH1 0x20 DUP2 ADD SWAP1 POP PUSH2 0x2A0C JUMP JUMPDEST POP POP POP SWAP4 SWAP3 POP POP POP JUMP JUMPDEST PUSH1 0x0 DUP3 PUSH1 0x1F DUP4 ADD SLT PUSH2 0x2A52 JUMPI PUSH2 0x2A51 PUSH2 0x2063 JUMP JUMPDEST JUMPDEST DUP2 CALLDATALOAD PUSH2 0x2A62 DUP5 DUP3 PUSH1 0x20 DUP7 ADD PUSH2 0x29D4 JUMP JUMPDEST SWAP2 POP POP SWAP3 SWAP2 POP POP JUMP JUMPDEST PUSH1 0x0 DUP1 PUSH1 0x0 DUP1 PUSH1 0x0 DUP1 PUSH1 0x0 DUP1 PUSH2 0x100 DUP10 DUP12 SUB SLT ISZERO PUSH2 0x2A8C JUMPI PUSH2 0x2A8B PUSH2 0x1FFB JUMP JUMPDEST JUMPDEST PUSH1 0x0 DUP10 ADD CALLDATALOAD PUSH8 0xFFFFFFFFFFFFFFFF DUP2 GT ISZERO PUSH2 0x2AAA JUMPI PUSH2 0x2AA9 PUSH2 0x2000 JUMP JUMPDEST JUMPDEST PUSH2 0x2AB6 DUP12 DUP3 DUP13 ADD PUSH2 0x2602 JUMP JUMPDEST SWAP9 POP POP PUSH1 0x20 DUP10 ADD CALLDATALOAD PUSH8 0xFFFFFFFFFFFFFFFF DUP2 GT ISZERO PUSH2 0x2AD7 JUMPI PUSH2 0x2AD6 PUSH2 0x2000 JUMP JUMPDEST JUMPDEST PUSH2 0x2AE3 DUP12 DUP3 DUP13 ADD PUSH2 0x2602 JUMP JUMPDEST SWAP8 POP POP PUSH1 0x40 PUSH2 0x2AF4 DUP12 DUP3 DUP13 ADD PUSH2 0x204E JUMP JUMPDEST SWAP7 POP POP PUSH1 0x60 DUP10 ADD CALLDATALOAD PUSH8 0xFFFFFFFFFFFFFFFF DUP2 GT ISZERO PUSH2 0x2B15 JUMPI PUSH2 0x2B14 PUSH2 0x2000 JUMP JUMPDEST JUMPDEST PUSH2 0x2B21 DUP12 DUP3 DUP13 ADD PUSH2 0x26C5 JUMP JUMPDEST SWAP6 POP POP PUSH1 0x80 DUP10 ADD CALLDATALOAD PUSH8 0xFFFFFFFFFFFFFFFF DUP2 GT ISZERO PUSH2 0x2B42 JUMPI PUSH2 0x2B41 PUSH2 0x2000 JUMP JUMPDEST JUMPDEST PUSH2 0x2B4E DUP12 DUP3 DUP13 ADD PUSH2 0x26C5 JUMP JUMPDEST SWAP5 POP POP PUSH1 0xA0 DUP10 ADD CALLDATALOAD PUSH8 0xFFFFFFFFFFFFFFFF DUP2 GT ISZERO PUSH2 0x2B6F JUMPI PUSH2 0x2B6E PUSH2 0x2000 JUMP JUMPDEST JUMPDEST PUSH2 0x2B7B DUP12 DUP3 DUP13 ADD PUSH2 0x27CC JUMP JUMPDEST SWAP4 POP POP PUSH1 0xC0 DUP10 ADD CALLDATALOAD PUSH8 0xFFFFFFFFFFFFFFFF DUP2 GT ISZERO PUSH2 0x2B9C JUMPI PUSH2 0x2B9B PUSH2 0x2000 JUMP JUMPDEST JUMPDEST PUSH2 0x2BA8 DUP12 DUP3 DUP13 ADD PUSH2 0x294E JUMP JUMPDEST SWAP3 POP POP PUSH1 0xE0 DUP10 ADD CALLDATALOAD PUSH8 0xFFFFFFFFFFFFFFFF DUP2 GT ISZERO PUSH2 0x2BC9 JUMPI PUSH2 0x2BC8 PUSH2 0x2000 JUMP JUMPDEST JUMPDEST PUSH2 0x2BD5 DUP12 DUP3 DUP13 ADD PUSH2 0x2A3D JUMP JUMPDEST SWAP2 POP POP SWAP3 SWAP6 SWAP9 POP SWAP3 SWAP6 SWAP9 SWAP1 SWAP4 SWAP7 POP JUMP JUMPDEST PUSH1 0x0 DUP1 PUSH1 0x0 DUP1 PUSH1 0x0 DUP1 PUSH1 0x0 DUP1 PUSH2 0x100 DUP10 DUP12 SUB SLT ISZERO PUSH2 0x2C06 JUMPI PUSH2 0x2C05 PUSH2 0x1FFB JUMP JUMPDEST JUMPDEST PUSH1 0x0 PUSH2 0x2C14 DUP12 DUP3 DUP13 ADD PUSH2 0x204E JUMP JUMPDEST SWAP9 POP POP PUSH1 0x20 PUSH2 0x2C25 DUP12 DUP3 DUP13 ADD PUSH2 0x204E JUMP JUMPDEST SWAP8 POP POP PUSH1 0x40 PUSH2 0x2C36 DUP12 DUP3 DUP13 ADD PUSH2 0x204E JUMP JUMPDEST SWAP7 POP POP PUSH1 0x60 PUSH2 0x2C47 DUP12 DUP3 DUP13 ADD PUSH2 0x2432 JUMP JUMPDEST SWAP6 POP POP PUSH1 0x80 PUSH2 0x2C58 DUP12 DUP3 DUP13 ADD PUSH2 0x2432 JUMP JUMPDEST SWAP5 POP POP PUSH1 0xA0 PUSH2 0x2C69 DUP12 DUP3 DUP13 ADD PUSH2 0x274E JUMP JUMPDEST SWAP4 POP POP PUSH1 0xC0 DUP10 ADD CALLDATALOAD PUSH8 0xFFFFFFFFFFFFFFFF DUP2 GT ISZERO PUSH2 0x2C8A JUMPI PUSH2 0x2C89 PUSH2 0x2000 JUMP JUMPDEST JUMPDEST PUSH2 0x2C96 DUP12 DUP3 DUP13 ADD PUSH2 0x2899 JUMP JUMPDEST SWAP3 POP POP PUSH1 0xE0 PUSH2 0x2CA7 DUP12 DUP3 DUP13 ADD PUSH2 0x29BF JUMP JUMPDEST SWAP2 POP POP SWAP3 SWAP6 SWAP9 POP SWAP3 SWAP6 SWAP9 SWAP1 SWAP4 SWAP7 POP JUMP JUMPDEST PUSH1 0x0 DUP3 DUP3 MSTORE PUSH1 0x20 DUP3 ADD SWAP1 POP SWAP3 SWAP2 POP POP JUMP JUMPDEST PUSH32 0x5369676E657220616E64207369676E617475726520646F206E6F74206D617463 PUSH1 0x0 DUP3 ADD MSTORE PUSH32 0x6800000000000000000000000000000000000000000000000000000000000000 PUSH1 0x20 DUP3 ADD MSTORE POP JUMP JUMPDEST PUSH1 0x0 PUSH2 0x2D24 PUSH1 0x21 DUP4 PUSH2 0x2CB7 JUMP JUMPDEST SWAP2 POP PUSH2 0x2D2F DUP3 PUSH2 0x2CC8 JUMP JUMPDEST PUSH1 0x40 DUP3 ADD SWAP1 POP SWAP2 SWAP1 POP JUMP JUMPDEST PUSH1 0x0 PUSH1 0x20 DUP3 ADD SWAP1 POP DUP2 DUP2 SUB PUSH1 0x0 DUP4 ADD MSTORE PUSH2 0x2D53 DUP2 PUSH2 0x2D17 JUMP JUMPDEST SWAP1 POP SWAP2 SWAP1 POP JUMP JUMPDEST PUSH1 0x0 DUP2 SWAP1 POP SWAP3 SWAP2 POP POP JUMP JUMPDEST PUSH1 0x0 PUSH2 0x2D70 DUP3 PUSH2 0x22AF JUMP JUMPDEST PUSH2 0x2D7A DUP2 DUP6 PUSH2 0x2D5A JUMP JUMPDEST SWAP4 POP PUSH2 0x2D8A DUP2 DUP6 PUSH1 0x20 DUP7 ADD PUSH2 0x22CB JUMP JUMPDEST DUP1 DUP5 ADD SWAP2 POP POP SWAP3 SWAP2 POP POP JUMP JUMPDEST PUSH1 0x0 DUP2 PUSH1 0x60 SHL SWAP1 POP SWAP2 SWAP1 POP JUMP JUMPDEST PUSH1 0x0 PUSH2 0x2DAE DUP3 PUSH2 0x2D96 JUMP JUMPDEST SWAP1 POP SWAP2 SWAP1 POP JUMP JUMPDEST PUSH1 0x0 PUSH2 0x2DC0 DUP3 PUSH2 0x2DA3 JUMP JUMPDEST SWAP1 POP SWAP2 SWAP1 POP JUMP JUMPDEST PUSH2 0x2DD8 PUSH2 0x2DD3 DUP3 PUSH2 0x2025 JUMP JUMPDEST PUSH2 0x2DB5 JUMP JUMPDEST DUP3 MSTORE POP POP JUMP JUMPDEST PUSH1 0x0 PUSH2 0x2DEA DUP3 DUP6 PUSH2 0x2D65 JUMP JUMPDEST SWAP2 POP PUSH2 0x2DF6 DUP3 DUP5 PUSH2 0x2DC7 JUMP JUMPDEST PUSH1 0x14 DUP3 ADD SWAP2 POP DUP2 SWAP1 POP SWAP4 SWAP3 POP POP POP JUMP JUMPDEST PUSH1 0x0 PUSH2 0x2E12 DUP3 DUP5 PUSH2 0x2D65 JUMP JUMPDEST SWAP2 POP DUP2 SWAP1 POP SWAP3 SWAP2 POP POP JUMP JUMPDEST PUSH32 0x46756E6374696F6E2063616C6C206E6F74207375636365737366756C00000000 PUSH1 0x0 DUP3 ADD MSTORE POP JUMP JUMPDEST PUSH1 0x0 PUSH2 0x2E53 PUSH1 0x1C DUP4 PUSH2 0x2CB7 JUMP JUMPDEST SWAP2 POP PUSH2 0x2E5E DUP3 PUSH2 0x2E1D JUMP JUMPDEST PUSH1 0x20 DUP3 ADD SWAP1 POP SWAP2 SWAP1 POP JUMP JUMPDEST PUSH1 0x0 PUSH1 0x20 DUP3 ADD SWAP1 POP DUP2 DUP2 SUB PUSH1 0x0 DUP4 ADD MSTORE PUSH2 0x2E82 DUP2 PUSH2 0x2E46 JUMP JUMPDEST SWAP1 POP SWAP2 SWAP1 POP JUMP JUMPDEST PUSH1 0x0 PUSH2 0x2E94 DUP3 PUSH2 0x2005 JUMP JUMPDEST SWAP1 POP SWAP2 SWAP1 POP JUMP JUMPDEST PUSH2 0x2EA4 DUP2 PUSH2 0x2E89 JUMP JUMPDEST DUP3 MSTORE POP POP JUMP JUMPDEST PUSH1 0x0 PUSH1 0x60 DUP3 ADD SWAP1 POP PUSH2 0x2EBF PUSH1 0x0 DUP4 ADD DUP7 PUSH2 0x237D JUMP JUMPDEST PUSH2 0x2ECC PUSH1 0x20 DUP4 ADD DUP6 PUSH2 0x2E9B JUMP JUMPDEST DUP2 DUP2 SUB PUSH1 0x40 DUP4 ADD MSTORE PUSH2 0x2EDE DUP2 DUP5 PUSH2 0x22F5 JUMP JUMPDEST SWAP1 POP SWAP5 SWAP4 POP POP POP POP JUMP JUMPDEST PUSH1 0x0 PUSH1 0x40 DUP3 ADD SWAP1 POP PUSH2 0x2EFD PUSH1 0x0 DUP4 ADD DUP6 PUSH2 0x237D JUMP JUMPDEST PUSH2 0x2F0A PUSH1 0x20 DUP4 ADD DUP5 PUSH2 0x237D JUMP JUMPDEST SWAP4 SWAP3 POP POP POP JUMP JUMPDEST PUSH32 0x496E697469616C697A61626C653A20636F6E747261637420697320616C726561 PUSH1 0x0 DUP3 ADD MSTORE PUSH32 0x647920696E697469616C697A6564000000000000000000000000000000000000 PUSH1 0x20 DUP3 ADD MSTORE POP JUMP JUMPDEST PUSH1 0x0 PUSH2 0x2F6D PUSH1 0x2E DUP4 PUSH2 0x2CB7 JUMP JUMPDEST SWAP2 POP PUSH2 0x2F78 DUP3 PUSH2 0x2F11 JUMP JUMPDEST PUSH1 0x40 DUP3 ADD SWAP1 POP SWAP2 SWAP1 POP JUMP JUMPDEST PUSH1 0x0 PUSH1 0x20 DUP3 ADD SWAP1 POP DUP2 DUP2 SUB PUSH1 0x0 DUP4 ADD MSTORE PUSH2 0x2F9C DUP2 PUSH2 0x2F60 JUMP JUMPDEST SWAP1 POP SWAP2 SWAP1 POP JUMP JUMPDEST PUSH1 0x0 DUP2 SWAP1 POP SWAP2 SWAP1 POP JUMP JUMPDEST PUSH1 0x0 DUP2 SWAP1 POP SWAP2 SWAP1 POP JUMP JUMPDEST PUSH1 0x0 PUSH2 0x2FD2 PUSH2 0x2FCD PUSH2 0x2FC8 DUP5 PUSH2 0x2FA3 JUMP JUMPDEST PUSH2 0x2FAD JUMP JUMPDEST PUSH2 0x21DF JUMP JUMPDEST SWAP1 POP SWAP2 SWAP1 POP JUMP JUMPDEST PUSH2 0x2FE2 DUP2 PUSH2 0x2FB7 JUMP JUMPDEST DUP3 MSTORE POP POP JUMP JUMPDEST PUSH1 0x0 PUSH1 0x20 DUP3 ADD SWAP1 POP PUSH2 0x2FFD PUSH1 0x0 DUP4 ADD DUP5 PUSH2 0x2FD9 JUMP JUMPDEST SWAP3 SWAP2 POP POP JUMP JUMPDEST PUSH1 0x0 DUP2 SWAP1 POP SWAP2 SWAP1 POP JUMP JUMPDEST PUSH2 0x301E PUSH2 0x3019 DUP3 PUSH2 0x23A7 JUMP JUMPDEST PUSH2 0x3003 JUMP JUMPDEST DUP3 MSTORE POP POP JUMP JUMPDEST PUSH1 0x0 PUSH2 0x303F PUSH2 0x303A PUSH2 0x3035 DUP5 PUSH2 0x2005 JUMP JUMPDEST PUSH2 0x2FAD JUMP JUMPDEST PUSH2 0x2005 JUMP JUMPDEST SWAP1 POP SWAP2 SWAP1 POP JUMP JUMPDEST PUSH1 0x0 PUSH2 0x3051 DUP3 PUSH2 0x3024 JUMP JUMPDEST SWAP1 POP SWAP2 SWAP1 POP JUMP JUMPDEST PUSH1 0x0 PUSH2 0x3063 DUP3 PUSH2 0x3046 JUMP JUMPDEST SWAP1 POP SWAP2 SWAP1 POP JUMP JUMPDEST PUSH2 0x307B PUSH2 0x3076 DUP3 PUSH2 0x3058 JUMP JUMPDEST PUSH2 0x2DB5 JUMP JUMPDEST DUP3 MSTORE POP POP JUMP JUMPDEST PUSH1 0x0 PUSH2 0x308D DUP3 DUP8 PUSH2 0x300D JUMP JUMPDEST PUSH1 0x20 DUP3 ADD SWAP2 POP PUSH2 0x309D DUP3 DUP7 PUSH2 0x306A JUMP JUMPDEST PUSH1 0x14 DUP3 ADD SWAP2 POP PUSH2 0x30AD DUP3 DUP6 PUSH2 0x300D JUMP JUMPDEST PUSH1 0x20 DUP3 ADD SWAP2 POP PUSH2 0x30BD DUP3 DUP5 PUSH2 0x2D65 JUMP JUMPDEST SWAP2 POP DUP2 SWAP1 POP SWAP6 SWAP5 POP POP POP POP POP JUMP JUMPDEST PUSH2 0x30D4 DUP2 PUSH2 0x21A9 JUMP JUMPDEST DUP3 MSTORE POP POP JUMP JUMPDEST PUSH2 0x30E3 DUP2 PUSH2 0x21DF JUMP JUMPDEST DUP3 MSTORE POP POP JUMP JUMPDEST PUSH1 0x0 PUSH1 0x80 DUP3 ADD SWAP1 POP PUSH2 0x30FE PUSH1 0x0 DUP4 ADD DUP8 PUSH2 0x30CB JUMP JUMPDEST PUSH2 0x310B PUSH1 0x20 DUP4 ADD DUP7 PUSH2 0x30DA JUMP JUMPDEST PUSH2 0x3118 PUSH1 0x40 DUP4 ADD DUP6 PUSH2 0x30CB JUMP JUMPDEST PUSH2 0x3125 PUSH1 0x60 DUP4 ADD DUP5 PUSH2 0x30CB JUMP JUMPDEST SWAP6 SWAP5 POP POP POP POP POP JUMP JUMPDEST PUSH32 0x496E76616C6964207369676E6174757265000000000000000000000000000000 PUSH1 0x0 DUP3 ADD MSTORE POP JUMP JUMPDEST PUSH1 0x0 PUSH2 0x3164 PUSH1 0x11 DUP4 PUSH2 0x2CB7 JUMP JUMPDEST SWAP2 POP PUSH2 0x316F DUP3 PUSH2 0x312E JUMP JUMPDEST PUSH1 0x20 DUP3 ADD SWAP1 POP SWAP2 SWAP1 POP JUMP JUMPDEST PUSH1 0x0 PUSH1 0x20 DUP3 ADD SWAP1 POP DUP2 DUP2 SUB PUSH1 0x0 DUP4 ADD MSTORE PUSH2 0x3193 DUP2 PUSH2 0x3157 JUMP JUMPDEST SWAP1 POP SWAP2 SWAP1 POP JUMP JUMPDEST PUSH1 0x0 PUSH1 0x40 DUP3 ADD SWAP1 POP PUSH2 0x31AF PUSH1 0x0 DUP4 ADD DUP6 PUSH2 0x237D JUMP JUMPDEST PUSH2 0x31BC PUSH1 0x20 DUP4 ADD DUP5 PUSH2 0x2480 JUMP JUMPDEST SWAP4 SWAP3 POP POP POP JUMP JUMPDEST PUSH32 0x4E487B7100000000000000000000000000000000000000000000000000000000 PUSH1 0x0 MSTORE PUSH1 0x32 PUSH1 0x4 MSTORE PUSH1 0x24 PUSH1 0x0 REVERT JUMPDEST PUSH32 0x4E487B7100000000000000000000000000000000000000000000000000000000 PUSH1 0x0 MSTORE PUSH1 0x11 PUSH1 0x4 MSTORE PUSH1 0x24 PUSH1 0x0 REVERT JUMPDEST PUSH1 0x0 PUSH2 0x322C DUP3 PUSH2 0x23A7 JUMP JUMPDEST SWAP2 POP PUSH32 0xFFFFFFFFFFFFFFFFFFFFFFFFFFFFFFFFFFFFFFFFFFFFFFFFFFFFFFFFFFFFFFFF DUP3 SUB PUSH2 0x325E JUMPI PUSH2 0x325D PUSH2 0x31F2 JUMP JUMPDEST JUMPDEST PUSH1 0x1 DUP3 ADD SWAP1 POP SWAP2 SWAP1 POP JUMP JUMPDEST PUSH1 0x0 DUP2 MLOAD SWAP1 POP SWAP2 SWAP1 POP JUMP JUMPDEST PUSH1 0x0 DUP3 DUP3 MSTORE PUSH1 0x20 DUP3 ADD SWAP1 POP SWAP3 SWAP2 POP POP JUMP JUMPDEST PUSH1 0x0 DUP2 SWAP1 POP PUSH1 0x20 DUP3 ADD SWAP1 POP SWAP2 SWAP1 POP JUMP JUMPDEST PUSH2 0x329E DUP2 PUSH2 0x23A7 JUMP JUMPDEST DUP3 MSTORE POP POP JUMP JUMPDEST PUSH1 0x0 PUSH2 0x32B0 DUP4 DUP4 PUSH2 0x3295 JUMP JUMPDEST PUSH1 0x20 DUP4 ADD SWAP1 POP SWAP3 SWAP2 POP POP JUMP JUMPDEST PUSH1 0x0 PUSH1 0x20 DUP3 ADD SWAP1 POP SWAP2 SWAP1 POP JUMP JUMPDEST PUSH1 0x0 PUSH2 0x32D4 DUP3 PUSH2 0x3269 JUMP JUMPDEST PUSH2 0x32DE DUP2 DUP6 PUSH2 0x3274 JUMP JUMPDEST SWAP4 POP PUSH2 0x32E9 DUP4 PUSH2 0x3285 JUMP JUMPDEST DUP1 PUSH1 0x0 JUMPDEST DUP4 DUP2 LT ISZERO PUSH2 0x331A JUMPI DUP2 MLOAD PUSH2 0x3301 DUP9 DUP3 PUSH2 0x32A4 JUMP JUMPDEST SWAP8 POP PUSH2 0x330C DUP4 PUSH2 0x32BC JUMP JUMPDEST SWAP3 POP POP PUSH1 0x1 DUP2 ADD SWAP1 POP PUSH2 0x32ED JUMP JUMPDEST POP DUP6 SWAP4 POP POP POP POP SWAP3 SWAP2 POP POP JUMP JUMPDEST PUSH1 0x0 PUSH1 0x60 DUP3 ADD SWAP1 POP DUP2 DUP2 SUB PUSH1 0x0 DUP4 ADD MSTORE PUSH2 0x3341 DUP2 DUP7 PUSH2 0x32C9 JUMP JUMPDEST SWAP1 POP DUP2 DUP2 SUB PUSH1 0x20 DUP4 ADD MSTORE PUSH2 0x3355 DUP2 DUP6 PUSH2 0x32C9 JUMP JUMPDEST SWAP1 POP PUSH2 0x3364 PUSH1 0x40 DUP4 ADD DUP5 PUSH2 0x237D JUMP JUMPDEST SWAP5 SWAP4 POP POP POP POP JUMP JUMPDEST PUSH2 0x3375 DUP2 PUSH2 0x271F JUMP JUMPDEST DUP3 MSTORE POP POP JUMP JUMPDEST PUSH1 0x0 DUP2 MLOAD SWAP1 POP SWAP2 SWAP1 POP JUMP JUMPDEST PUSH1 0x0 PUSH2 0x3391 DUP3 PUSH2 0x337B JUMP JUMPDEST PUSH2 0x339B DUP2 DUP6 PUSH2 0x2CB7 JUMP JUMPDEST SWAP4 POP PUSH2 0x33AB DUP2 DUP6 PUSH1 0x20 DUP7 ADD PUSH2 0x22CB JUMP JUMPDEST PUSH2 0x33B4 DUP2 PUSH2 0x206D JUMP JUMPDEST DUP5 ADD SWAP2 POP POP SWAP3 SWAP2 POP POP JUMP JUMPDEST PUSH1 0x0 PUSH1 0xC0 DUP3 ADD SWAP1 POP PUSH2 0x33D4 PUSH1 0x0 DUP4 ADD DUP10 PUSH2 0x23B1 JUMP JUMPDEST PUSH2 0x33E1 PUSH1 0x20 DUP4 ADD DUP9 PUSH2 0x23B1 JUMP JUMPDEST PUSH2 0x33EE PUSH1 0x40 DUP4 ADD DUP8 PUSH2 0x237D JUMP JUMPDEST PUSH2 0x33FB PUSH1 0x60 DUP4 ADD DUP7 PUSH2 0x237D JUMP JUMPDEST PUSH2 0x3408 PUSH1 0x80 DUP4 ADD DUP6 PUSH2 0x336C JUMP JUMPDEST DUP2 DUP2 SUB PUSH1 0xA0 DUP4 ADD MSTORE PUSH2 0x341A DUP2 DUP5 PUSH2 0x3386 JUMP JUMPDEST SWAP1 POP SWAP8 SWAP7 POP POP POP POP POP POP POP JUMP JUMPDEST POP JUMP JUMPDEST PUSH1 0x0 PUSH2 0x3437 PUSH1 0x0 DUP4 PUSH2 0x22BA JUMP JUMPDEST SWAP2 POP PUSH2 0x3442 DUP3 PUSH2 0x3427 JUMP JUMPDEST PUSH1 0x0 DUP3 ADD SWAP1 POP SWAP2 SWAP1 POP JUMP JUMPDEST PUSH1 0x0 PUSH1 0xA0 DUP3 ADD SWAP1 POP PUSH2 0x3462 PUSH1 0x0 DUP4 ADD DUP8 PUSH2 0x237D JUMP JUMPDEST PUSH2 0x346F PUSH1 0x20 DUP4 ADD DUP7 PUSH2 0x237D JUMP JUMPDEST PUSH2 0x347C PUSH1 0x40 DUP4 ADD DUP6 PUSH2 0x23B1 JUMP JUMPDEST PUSH2 0x3489 PUSH1 0x60 DUP4 ADD DUP5 PUSH2 0x23B1 JUMP JUMPDEST DUP2 DUP2 SUB PUSH1 0x80 DUP4 ADD MSTORE PUSH2 0x349A DUP2 PUSH2 0x342A JUMP JUMPDEST SWAP1 POP SWAP6 SWAP5 POP POP POP POP POP JUMP JUMPDEST PUSH1 0x0 PUSH2 0x34B0 DUP3 PUSH2 0x23A7 JUMP JUMPDEST SWAP2 POP PUSH2 0x34BB DUP4 PUSH2 0x23A7 JUMP JUMPDEST SWAP3 POP DUP3 DUP3 ADD SWAP1 POP DUP1 DUP3 GT ISZERO PUSH2 0x34D3 JUMPI PUSH2 0x34D2 PUSH2 0x31F2 JUMP JUMPDEST JUMPDEST SWAP3 SWAP2 POP POP JUMP JUMPDEST PUSH1 0x0 DUP2 SWAP1 POP SWAP3 SWAP2 POP POP JUMP JUMPDEST PUSH32 0x19457468657265756D205369676E6564204D6573736167653A0A333200000000 PUSH1 0x0 DUP3 ADD MSTORE POP JUMP JUMPDEST PUSH1 0x0 PUSH2 0x351A PUSH1 0x1C DUP4 PUSH2 0x34D9 JUMP JUMPDEST SWAP2 POP PUSH2 0x3525 DUP3 PUSH2 0x34E4 JUMP JUMPDEST PUSH1 0x1C DUP3 ADD SWAP1 POP SWAP2 SWAP1 POP JUMP JUMPDEST PUSH1 0x0 DUP2 SWAP1 POP SWAP2 SWAP1 POP JUMP JUMPDEST PUSH2 0x354B PUSH2 0x3546 DUP3 PUSH2 0x21A9 JUMP JUMPDEST PUSH2 0x3530 JUMP JUMPDEST DUP3 MSTORE POP POP JUMP JUMPDEST PUSH1 0x0 PUSH2 0x355C DUP3 PUSH2 0x350D JUMP JUMPDEST SWAP2 POP PUSH2 0x3568 DUP3 DUP5 PUSH2 0x353A JUMP JUMPDEST PUSH1 0x20 DUP3 ADD SWAP2 POP DUP2 SWAP1 POP SWAP3 SWAP2 POP POP JUMP INVALID LOG2 PUSH5 0x6970667358 0x22 SLT KECCAK256 SGT PUSH23 0x3F792B8E04BF0434EF7B836F7FAF09083C2651D310233E BYTE PUSH26 0xE75962D44564736F6C6343000812003300000000000000000000 "},"methodIdentifiers":{"amountLeft(uint256)":"a8368f33","assignAdmin(address)":"3da7d2ed","buyBatchNFT(address[],address[],address,uint256[],uint256[],uint96[],string[],bool[])":"6d7db13c","buyNFT(address,address,address,uint256,uint256,uint96,string,bool)":"7bde32a5","executeMetaTransaction(address,bytes,bytes32,bytes32,uint8)":"0c53c51c","getChainID()":"564b81ef","getNonce(address)":"2d0335ab","initialize(address,address)":"485cc955","isSubAdmin(address)":"d1c63b21","removeAdmin(address)":"1785f53c","superAdmin()":"29575f6a","updateAdmin(address)":"e2f273bd","usedListingCounters(uint256)":"4d839081","verify(address,uint256,uint256,bytes,bytes32,bytes32,uint8)":"6281133d"}}}}}