{"contracts/Relayer/BasicMetaTransaction.sol":{"BasicMetaTransaction":{"abi":[{"anonymous":false,"inputs":[{"indexed":false,"internalType":"address","name":"userAddress","type":"address"},{"indexed":false,"internalType":"address payable","name":"relayerAddress","type":"address"},{"indexed":false,"internalType":"bytes","name":"functionSignature","type":"bytes"}],"name":"MetaTransactionExecuted","type":"event"},{"inputs":[{"internalType":"address","name":"userAddress","type":"address"},{"internalType":"bytes","name":"functionSignature","type":"bytes"},{"internalType":"bytes32","name":"sigR","type":"bytes32"},{"internalType":"bytes32","name":"sigS","type":"bytes32"},{"internalType":"uint8","name":"sigV","type":"uint8"}],"name":"executeMetaTransaction","outputs":[{"internalType":"bytes","name":"","type":"bytes"}],"stateMutability":"payable","type":"function"},{"inputs":[],"name":"getChainID","outputs":[{"internalType":"uint256","name":"","type":"uint256"}],"stateMutability":"view","type":"function"},{"inputs":[{"internalType":"address","name":"user","type":"address"}],"name":"getNonce","outputs":[{"internalType":"uint256","name":"nonce","type":"uint256"}],"stateMutability":"view","type":"function"},{"inputs":[{"internalType":"address","name":"owner","type":"address"},{"internalType":"uint256","name":"nonce","type":"uint256"},{"internalType":"uint256","name":"chainID","type":"uint256"},{"internalType":"bytes","name":"functionSignature","type":"bytes"},{"internalType":"bytes32","name":"sigR","type":"bytes32"},{"internalType":"bytes32","name":"sigS","type":"bytes32"},{"internalType":"uint8","name":"sigV","type":"uint8"}],"name":"verify","outputs":[{"internalType":"bool","name":"","type":"bool"}],"stateMutability":"view","type":"function"}],"evm":{"bytecode":{"linkReferences":{},"object":"608060405234801561001057600080fd5b50611225806100206000396000f3fe60806040526004361061003f5760003560e01c80630c53c51c146100445780632d0335ab14610074578063564b81ef146100b15780636281133d146100dc575b600080fd5b61005e60048036038101906100599190610a54565b610119565b60405161006b9190610b6a565b60405180910390f35b34801561008057600080fd5b5061009b60048036038101906100969190610b8c565b61049b565b6040516100a89190610bd2565b60405180910390f35b3480156100bd57600080fd5b506100c661050b565b6040516100d39190610bd2565b60405180910390f35b3480156100e857600080fd5b5061010360048036038101906100fe9190610c19565b610591565b6040516101109190610cf2565b60405180910390f35b606061012f67513dbce2fc90e45e60c01b6107a8565b61014367590a28232c61349d60c01b6107a8565b61015767089cd2f2cb4265e860c01b6107a8565b61016b6737fd1a78487506cd60c01b6107a8565b6101bf866000808973ffffffffffffffffffffffffffffffffffffffff1673ffffffffffffffffffffffffffffffffffffffff168152602001908152602001600020546101b661050b565b88888888610591565b6101fe576040517f08c379a00000000000000000000000000000000000000000000000000000000081526004016101f590610d90565b60405180910390fd5b610212673fcd70263a8b244060c01b6107a8565b61022667276eb884b10acb6860c01b6107a8565b61027860016000808973ffffffffffffffffffffffffffffffffffffffff1673ffffffffffffffffffffffffffffffffffffffff168152602001908152602001600020546107ab90919063ffffffff16565b6000808873ffffffffffffffffffffffffffffffffffffffff1673ffffffffffffffffffffffffffffffffffffffff168152602001908152602001600020819055506102ce67492d088303cb613860c01b6107a8565b6102e26735a89eaaea7aef1060c01b6107a8565b6000803073ffffffffffffffffffffffffffffffffffffffff16878960405160200161030f929190610e34565b60405160208183030381529060405260405161032b9190610e5c565b6000604051808303816000865af19150503d8060008114610368576040519150601f19603f3d011682016040523d82523d6000602084013e61036d565b606091505b509150915061038667f0ccc6f61ad78a2060c01b6107a8565b61039a67d2af4b3097e7572960c01b6107a8565b6103ae677f2625b0ed9c3eba60c01b6107a8565b816103ee576040517f08c379a00000000000000000000000000000000000000000000000000000000081526004016103e590610ebf565b60405180910390fd5b610402672a067640dbbf31e360c01b6107a8565b61041667486d9fc4a5d7aff260c01b6107a8565b61042a67c422c69189914f1d60c01b6107a8565b7f5845892132946850460bff5a0083f71031bc5bf9aadcd40f1de79423eac9b10b88338960405161045d93929190610f0f565b60405180910390a1610479673677b7211155450060c01b6107a8565b61048d67a1b9117eade5307360c01b6107a8565b809250505095945050505050565b60006104b167e7b80efbcbfaf42160c01b6107a8565b6104c56707db74373afd9a7860c01b6107a8565b6000808373ffffffffffffffffffffffffffffffffffffffff1673ffffffffffffffffffffffffffffffffffffffff168152602001908152602001600020549050919050565b600061052167d257e0777ed0857c60c01b6107a8565b61053567d0debb57994782e260c01b6107a8565b61054967fb25d02c956731bb60c01b6107a8565b600061055f67305f3e9c68bad6b060c01b6107a8565b469050610576675072cd0eb5ff6d0f60c01b6107a8565b61058a67bf9d228d91067cce60c01b6107a8565b8091505090565b60006105a7670a17deb9bda579e960c01b6107a8565b6105bb67943a6dfd45a8e7b860c01b6107a8565b6105cf67e47197799d32c37d60c01b6107a8565b6000610606883089896040516020016105eb9493929190610fd5565b604051602081830303815290604052805190602001206107c1565b905061061c67f9f84b37c114e55460c01b6107a8565b61063067a39bbf534729363e60c01b6107a8565b600060018285888860405160008152602001604052604051610655949392919061103d565b6020604051602081039080840390855afa158015610677573d6000803e3d6000fd5b505050602060405103519050610697676ac9a63df9cd283460c01b6107a8565b6106ab67d6bcb4df129be36660c01b6107a8565b6106bf67a2100578929bb6f460c01b6107a8565b600073ffffffffffffffffffffffffffffffffffffffff168173ffffffffffffffffffffffffffffffffffffffff160361072e576040517f08c379a0000000000000000000000000000000000000000000000000000000008152600401610725906110ce565b60405180910390fd5b610742677d672cf991e3a65b60c01b6107a8565b610756673548a97f24d1b1e060c01b6107a8565b61076a6759346b389ef422f660c01b6107a8565b8073ffffffffffffffffffffffffffffffffffffffff168a73ffffffffffffffffffffffffffffffffffffffff161492505050979650505050505050565b50565b600081836107b9919061111d565b905092915050565b60006107d767743a10b4f2a7b8be60c01b6107a8565b6107eb67c99765e4c7e2b1c460c01b6107a8565b6107ff67786bca11b019730060c01b6107a8565b8160405160200161081091906111c9565b604051602081830303815290604052805190602001209050919050565b6000604051905090565b600080fd5b600080fd5b600073ffffffffffffffffffffffffffffffffffffffff82169050919050565b600061086c82610841565b9050919050565b61087c81610861565b811461088757600080fd5b50565b60008135905061089981610873565b92915050565b600080fd5b600080fd5b6000601f19601f8301169050919050565b7f4e487b7100000000000000000000000000000000000000000000000000000000600052604160045260246000fd5b6108f2826108a9565b810181811067ffffffffffffffff82111715610911576109106108ba565b5b80604052505050565b600061092461082d565b905061093082826108e9565b919050565b600067ffffffffffffffff8211156109505761094f6108ba565b5b610959826108a9565b9050602081019050919050565b82818337600083830152505050565b600061098861098384610935565b61091a565b9050828152602081018484840111156109a4576109a36108a4565b5b6109af848285610966565b509392505050565b600082601f8301126109cc576109cb61089f565b5b81356109dc848260208601610975565b91505092915050565b6000819050919050565b6109f8816109e5565b8114610a0357600080fd5b50565b600081359050610a15816109ef565b92915050565b600060ff82169050919050565b610a3181610a1b565b8114610a3c57600080fd5b50565b600081359050610a4e81610a28565b92915050565b600080600080600060a08688031215610a7057610a6f610837565b5b6000610a7e8882890161088a565b955050602086013567ffffffffffffffff811115610a9f57610a9e61083c565b5b610aab888289016109b7565b9450506040610abc88828901610a06565b9350506060610acd88828901610a06565b9250506080610ade88828901610a3f565b9150509295509295909350565b600081519050919050565b600082825260208201905092915050565b60005b83811015610b25578082015181840152602081019050610b0a565b60008484015250505050565b6000610b3c82610aeb565b610b468185610af6565b9350610b56818560208601610b07565b610b5f816108a9565b840191505092915050565b60006020820190508181036000830152610b848184610b31565b905092915050565b600060208284031215610ba257610ba1610837565b5b6000610bb08482850161088a565b91505092915050565b6000819050919050565b610bcc81610bb9565b82525050565b6000602082019050610be76000830184610bc3565b92915050565b610bf681610bb9565b8114610c0157600080fd5b50565b600081359050610c1381610bed565b92915050565b600080600080600080600060e0888a031215610c3857610c37610837565b5b6000610c468a828b0161088a565b9750506020610c578a828b01610c04565b9650506040610c688a828b01610c04565b955050606088013567ffffffffffffffff811115610c8957610c8861083c565b5b610c958a828b016109b7565b9450506080610ca68a828b01610a06565b93505060a0610cb78a828b01610a06565b92505060c0610cc88a828b01610a3f565b91505092959891949750929550565b60008115159050919050565b610cec81610cd7565b82525050565b6000602082019050610d076000830184610ce3565b92915050565b600082825260208201905092915050565b7f5369676e657220616e64207369676e617475726520646f206e6f74206d61746360008201527f6800000000000000000000000000000000000000000000000000000000000000602082015250565b6000610d7a602183610d0d565b9150610d8582610d1e565b604082019050919050565b60006020820190508181036000830152610da981610d6d565b9050919050565b600081905092915050565b6000610dc682610aeb565b610dd08185610db0565b9350610de0818560208601610b07565b80840191505092915050565b60008160601b9050919050565b6000610e0482610dec565b9050919050565b6000610e1682610df9565b9050919050565b610e2e610e2982610861565b610e0b565b82525050565b6000610e408285610dbb565b9150610e4c8284610e1d565b6014820191508190509392505050565b6000610e688284610dbb565b915081905092915050565b7f46756e6374696f6e2063616c6c206e6f74207375636365737366756c00000000600082015250565b6000610ea9601c83610d0d565b9150610eb482610e73565b602082019050919050565b60006020820190508181036000830152610ed881610e9c565b9050919050565b610ee881610861565b82525050565b6000610ef982610841565b9050919050565b610f0981610eee565b82525050565b6000606082019050610f246000830186610edf565b610f316020830185610f00565b8181036040830152610f438184610b31565b9050949350505050565b6000819050919050565b610f68610f6382610bb9565b610f4d565b82525050565b6000819050919050565b6000610f93610f8e610f8984610841565b610f6e565b610841565b9050919050565b6000610fa582610f78565b9050919050565b6000610fb782610f9a565b9050919050565b610fcf610fca82610fac565b610e0b565b82525050565b6000610fe18287610f57565b602082019150610ff18286610fbe565b6014820191506110018285610f57565b6020820191506110118284610dbb565b915081905095945050505050565b611028816109e5565b82525050565b61103781610a1b565b82525050565b6000608082019050611052600083018761101f565b61105f602083018661102e565b61106c604083018561101f565b611079606083018461101f565b95945050505050565b7f496e76616c6964207369676e6174757265000000000000000000000000000000600082015250565b60006110b8601183610d0d565b91506110c382611082565b602082019050919050565b600060208201905081810360008301526110e7816110ab565b9050919050565b7f4e487b7100000000000000000000000000000000000000000000000000000000600052601160045260246000fd5b600061112882610bb9565b915061113383610bb9565b925082820190508082111561114b5761114a6110ee565b5b92915050565b600081905092915050565b7f19457468657265756d205369676e6564204d6573736167653a0a333200000000600082015250565b6000611192601c83611151565b915061119d8261115c565b601c82019050919050565b6000819050919050565b6111c36111be826109e5565b6111a8565b82525050565b60006111d482611185565b91506111e082846111b2565b6020820191508190509291505056fea2646970667358221220ab974484b85991f9d0bfcbdcc1f904eb574828ff02c7e936d0c2e8d5ae82bd3d64736f6c63430008120033","opcodes":"PUSH1 0x80 PUSH1 0x40 MSTORE CALLVALUE DUP1 ISZERO PUSH2 0x10 JUMPI PUSH1 0x0 DUP1 REVERT JUMPDEST POP PUSH2 0x1225 DUP1 PUSH2 0x20 PUSH1 0x0 CODECOPY PUSH1 0x0 RETURN INVALID PUSH1 0x80 PUSH1 0x40 MSTORE PUSH1 0x4 CALLDATASIZE LT PUSH2 0x3F JUMPI PUSH1 0x0 CALLDATALOAD PUSH1 0xE0 SHR DUP1 PUSH4 0xC53C51C EQ PUSH2 0x44 JUMPI DUP1 PUSH4 0x2D0335AB EQ PUSH2 0x74 JUMPI DUP1 PUSH4 0x564B81EF EQ PUSH2 0xB1 JUMPI DUP1 PUSH4 0x6281133D EQ PUSH2 0xDC JUMPI JUMPDEST PUSH1 0x0 DUP1 REVERT JUMPDEST PUSH2 0x5E PUSH1 0x4 DUP1 CALLDATASIZE SUB DUP2 ADD SWAP1 PUSH2 0x59 SWAP2 SWAP1 PUSH2 0xA54 JUMP JUMPDEST PUSH2 0x119 JUMP JUMPDEST PUSH1 0x40 MLOAD PUSH2 0x6B SWAP2 SWAP1 PUSH2 0xB6A JUMP JUMPDEST PUSH1 0x40 MLOAD DUP1 SWAP2 SUB SWAP1 RETURN JUMPDEST CALLVALUE DUP1 ISZERO PUSH2 0x80 JUMPI PUSH1 0x0 DUP1 REVERT JUMPDEST POP PUSH2 0x9B PUSH1 0x4 DUP1 CALLDATASIZE SUB DUP2 ADD SWAP1 PUSH2 0x96 SWAP2 SWAP1 PUSH2 0xB8C JUMP JUMPDEST PUSH2 0x49B JUMP JUMPDEST PUSH1 0x40 MLOAD PUSH2 0xA8 SWAP2 SWAP1 PUSH2 0xBD2 JUMP JUMPDEST PUSH1 0x40 MLOAD DUP1 SWAP2 SUB SWAP1 RETURN JUMPDEST CALLVALUE DUP1 ISZERO PUSH2 0xBD JUMPI PUSH1 0x0 DUP1 REVERT JUMPDEST POP PUSH2 0xC6 PUSH2 0x50B JUMP JUMPDEST PUSH1 0x40 MLOAD PUSH2 0xD3 SWAP2 SWAP1 PUSH2 0xBD2 JUMP JUMPDEST PUSH1 0x40 MLOAD DUP1 SWAP2 SUB SWAP1 RETURN JUMPDEST CALLVALUE DUP1 ISZERO PUSH2 0xE8 JUMPI PUSH1 0x0 DUP1 REVERT JUMPDEST POP PUSH2 0x103 PUSH1 0x4 DUP1 CALLDATASIZE SUB DUP2 ADD SWAP1 PUSH2 0xFE SWAP2 SWAP1 PUSH2 0xC19 JUMP JUMPDEST PUSH2 0x591 JUMP JUMPDEST PUSH1 0x40 MLOAD PUSH2 0x110 SWAP2 SWAP1 PUSH2 0xCF2 JUMP JUMPDEST PUSH1 0x40 MLOAD DUP1 SWAP2 SUB SWAP1 RETURN JUMPDEST PUSH1 0x60 PUSH2 0x12F PUSH8 0x513DBCE2FC90E45E PUSH1 0xC0 SHL PUSH2 0x7A8 JUMP JUMPDEST PUSH2 0x143 PUSH8 0x590A28232C61349D PUSH1 0xC0 SHL PUSH2 0x7A8 JUMP JUMPDEST PUSH2 0x157 PUSH8 0x89CD2F2CB4265E8 PUSH1 0xC0 SHL PUSH2 0x7A8 JUMP JUMPDEST PUSH2 0x16B PUSH8 0x37FD1A78487506CD PUSH1 0xC0 SHL PUSH2 0x7A8 JUMP JUMPDEST PUSH2 0x1BF DUP7 PUSH1 0x0 DUP1 DUP10 PUSH20 0xFFFFFFFFFFFFFFFFFFFFFFFFFFFFFFFFFFFFFFFF AND PUSH20 0xFFFFFFFFFFFFFFFFFFFFFFFFFFFFFFFFFFFFFFFF AND DUP2 MSTORE PUSH1 0x20 ADD SWAP1 DUP2 MSTORE PUSH1 0x20 ADD PUSH1 0x0 KECCAK256 SLOAD PUSH2 0x1B6 PUSH2 0x50B JUMP JUMPDEST DUP9 DUP9 DUP9 DUP9 PUSH2 0x591 JUMP JUMPDEST PUSH2 0x1FE JUMPI PUSH1 0x40 MLOAD PUSH32 0x8C379A000000000000000000000000000000000000000000000000000000000 DUP2 MSTORE PUSH1 0x4 ADD PUSH2 0x1F5 SWAP1 PUSH2 0xD90 JUMP JUMPDEST PUSH1 0x40 MLOAD DUP1 SWAP2 SUB SWAP1 REVERT JUMPDEST PUSH2 0x212 PUSH8 0x3FCD70263A8B2440 PUSH1 0xC0 SHL PUSH2 0x7A8 JUMP JUMPDEST PUSH2 0x226 PUSH8 0x276EB884B10ACB68 PUSH1 0xC0 SHL PUSH2 0x7A8 JUMP JUMPDEST PUSH2 0x278 PUSH1 0x1 PUSH1 0x0 DUP1 DUP10 PUSH20 0xFFFFFFFFFFFFFFFFFFFFFFFFFFFFFFFFFFFFFFFF AND PUSH20 0xFFFFFFFFFFFFFFFFFFFFFFFFFFFFFFFFFFFFFFFF AND DUP2 MSTORE PUSH1 0x20 ADD SWAP1 DUP2 MSTORE PUSH1 0x20 ADD PUSH1 0x0 KECCAK256 SLOAD PUSH2 0x7AB SWAP1 SWAP2 SWAP1 PUSH4 0xFFFFFFFF AND JUMP JUMPDEST PUSH1 0x0 DUP1 DUP9 PUSH20 0xFFFFFFFFFFFFFFFFFFFFFFFFFFFFFFFFFFFFFFFF AND PUSH20 0xFFFFFFFFFFFFFFFFFFFFFFFFFFFFFFFFFFFFFFFF AND DUP2 MSTORE PUSH1 0x20 ADD SWAP1 DUP2 MSTORE PUSH1 0x20 ADD PUSH1 0x0 KECCAK256 DUP2 SWAP1 SSTORE POP PUSH2 0x2CE PUSH8 0x492D088303CB6138 PUSH1 0xC0 SHL PUSH2 0x7A8 JUMP JUMPDEST PUSH2 0x2E2 PUSH8 0x35A89EAAEA7AEF10 PUSH1 0xC0 SHL PUSH2 0x7A8 JUMP JUMPDEST PUSH1 0x0 DUP1 ADDRESS PUSH20 0xFFFFFFFFFFFFFFFFFFFFFFFFFFFFFFFFFFFFFFFF AND DUP8 DUP10 PUSH1 0x40 MLOAD PUSH1 0x20 ADD PUSH2 0x30F SWAP3 SWAP2 SWAP1 PUSH2 0xE34 JUMP JUMPDEST PUSH1 0x40 MLOAD PUSH1 0x20 DUP2 DUP4 SUB SUB DUP2 MSTORE SWAP1 PUSH1 0x40 MSTORE PUSH1 0x40 MLOAD PUSH2 0x32B SWAP2 SWAP1 PUSH2 0xE5C JUMP JUMPDEST PUSH1 0x0 PUSH1 0x40 MLOAD DUP1 DUP4 SUB DUP2 PUSH1 0x0 DUP7 GAS CALL SWAP2 POP POP RETURNDATASIZE DUP1 PUSH1 0x0 DUP2 EQ PUSH2 0x368 JUMPI PUSH1 0x40 MLOAD SWAP2 POP PUSH1 0x1F NOT PUSH1 0x3F RETURNDATASIZE ADD AND DUP3 ADD PUSH1 0x40 MSTORE RETURNDATASIZE DUP3 MSTORE RETURNDATASIZE PUSH1 0x0 PUSH1 0x20 DUP5 ADD RETURNDATACOPY PUSH2 0x36D JUMP JUMPDEST PUSH1 0x60 SWAP2 POP JUMPDEST POP SWAP2 POP SWAP2 POP PUSH2 0x386 PUSH8 0xF0CCC6F61AD78A20 PUSH1 0xC0 SHL PUSH2 0x7A8 JUMP JUMPDEST PUSH2 0x39A PUSH8 0xD2AF4B3097E75729 PUSH1 0xC0 SHL PUSH2 0x7A8 JUMP JUMPDEST PUSH2 0x3AE PUSH8 0x7F2625B0ED9C3EBA PUSH1 0xC0 SHL PUSH2 0x7A8 JUMP JUMPDEST DUP2 PUSH2 0x3EE JUMPI PUSH1 0x40 MLOAD PUSH32 0x8C379A000000000000000000000000000000000000000000000000000000000 DUP2 MSTORE PUSH1 0x4 ADD PUSH2 0x3E5 SWAP1 PUSH2 0xEBF JUMP JUMPDEST PUSH1 0x40 MLOAD DUP1 SWAP2 SUB SWAP1 REVERT JUMPDEST PUSH2 0x402 PUSH8 0x2A067640DBBF31E3 PUSH1 0xC0 SHL PUSH2 0x7A8 JUMP JUMPDEST PUSH2 0x416 PUSH8 0x486D9FC4A5D7AFF2 PUSH1 0xC0 SHL PUSH2 0x7A8 JUMP JUMPDEST PUSH2 0x42A PUSH8 0xC422C69189914F1D PUSH1 0xC0 SHL PUSH2 0x7A8 JUMP JUMPDEST PUSH32 0x5845892132946850460BFF5A0083F71031BC5BF9AADCD40F1DE79423EAC9B10B DUP9 CALLER DUP10 PUSH1 0x40 MLOAD PUSH2 0x45D SWAP4 SWAP3 SWAP2 SWAP1 PUSH2 0xF0F JUMP JUMPDEST PUSH1 0x40 MLOAD DUP1 SWAP2 SUB SWAP1 LOG1 PUSH2 0x479 PUSH8 0x3677B72111554500 PUSH1 0xC0 SHL PUSH2 0x7A8 JUMP JUMPDEST PUSH2 0x48D PUSH8 0xA1B9117EADE53073 PUSH1 0xC0 SHL PUSH2 0x7A8 JUMP JUMPDEST DUP1 SWAP3 POP POP POP SWAP6 SWAP5 POP POP POP POP POP JUMP JUMPDEST PUSH1 0x0 PUSH2 0x4B1 PUSH8 0xE7B80EFBCBFAF421 PUSH1 0xC0 SHL PUSH2 0x7A8 JUMP JUMPDEST PUSH2 0x4C5 PUSH8 0x7DB74373AFD9A78 PUSH1 0xC0 SHL PUSH2 0x7A8 JUMP JUMPDEST PUSH1 0x0 DUP1 DUP4 PUSH20 0xFFFFFFFFFFFFFFFFFFFFFFFFFFFFFFFFFFFFFFFF AND PUSH20 0xFFFFFFFFFFFFFFFFFFFFFFFFFFFFFFFFFFFFFFFF AND DUP2 MSTORE PUSH1 0x20 ADD SWAP1 DUP2 MSTORE PUSH1 0x20 ADD PUSH1 0x0 KECCAK256 SLOAD SWAP1 POP SWAP2 SWAP1 POP JUMP JUMPDEST PUSH1 0x0 PUSH2 0x521 PUSH8 0xD257E0777ED0857C PUSH1 0xC0 SHL PUSH2 0x7A8 JUMP JUMPDEST PUSH2 0x535 PUSH8 0xD0DEBB57994782E2 PUSH1 0xC0 SHL PUSH2 0x7A8 JUMP JUMPDEST PUSH2 0x549 PUSH8 0xFB25D02C956731BB PUSH1 0xC0 SHL PUSH2 0x7A8 JUMP JUMPDEST PUSH1 0x0 PUSH2 0x55F PUSH8 0x305F3E9C68BAD6B0 PUSH1 0xC0 SHL PUSH2 0x7A8 JUMP JUMPDEST CHAINID SWAP1 POP PUSH2 0x576 PUSH8 0x5072CD0EB5FF6D0F PUSH1 0xC0 SHL PUSH2 0x7A8 JUMP JUMPDEST PUSH2 0x58A PUSH8 0xBF9D228D91067CCE PUSH1 0xC0 SHL PUSH2 0x7A8 JUMP JUMPDEST DUP1 SWAP2 POP POP SWAP1 JUMP JUMPDEST PUSH1 0x0 PUSH2 0x5A7 PUSH8 0xA17DEB9BDA579E9 PUSH1 0xC0 SHL PUSH2 0x7A8 JUMP JUMPDEST PUSH2 0x5BB PUSH8 0x943A6DFD45A8E7B8 PUSH1 0xC0 SHL PUSH2 0x7A8 JUMP JUMPDEST PUSH2 0x5CF PUSH8 0xE47197799D32C37D PUSH1 0xC0 SHL PUSH2 0x7A8 JUMP JUMPDEST PUSH1 0x0 PUSH2 0x606 DUP9 ADDRESS DUP10 DUP10 PUSH1 0x40 MLOAD PUSH1 0x20 ADD PUSH2 0x5EB SWAP5 SWAP4 SWAP3 SWAP2 SWAP1 PUSH2 0xFD5 JUMP JUMPDEST PUSH1 0x40 MLOAD PUSH1 0x20 DUP2 DUP4 SUB SUB DUP2 MSTORE SWAP1 PUSH1 0x40 MSTORE DUP1 MLOAD SWAP1 PUSH1 0x20 ADD KECCAK256 PUSH2 0x7C1 JUMP JUMPDEST SWAP1 POP PUSH2 0x61C PUSH8 0xF9F84B37C114E554 PUSH1 0xC0 SHL PUSH2 0x7A8 JUMP JUMPDEST PUSH2 0x630 PUSH8 0xA39BBF534729363E PUSH1 0xC0 SHL PUSH2 0x7A8 JUMP JUMPDEST PUSH1 0x0 PUSH1 0x1 DUP3 DUP6 DUP9 DUP9 PUSH1 0x40 MLOAD PUSH1 0x0 DUP2 MSTORE PUSH1 0x20 ADD PUSH1 0x40 MSTORE PUSH1 0x40 MLOAD PUSH2 0x655 SWAP5 SWAP4 SWAP3 SWAP2 SWAP1 PUSH2 0x103D JUMP JUMPDEST PUSH1 0x20 PUSH1 0x40 MLOAD PUSH1 0x20 DUP2 SUB SWAP1 DUP1 DUP5 SUB SWAP1 DUP6 GAS STATICCALL ISZERO DUP1 ISZERO PUSH2 0x677 JUMPI RETURNDATASIZE PUSH1 0x0 DUP1 RETURNDATACOPY RETURNDATASIZE PUSH1 0x0 REVERT JUMPDEST POP POP POP PUSH1 0x20 PUSH1 0x40 MLOAD SUB MLOAD SWAP1 POP PUSH2 0x697 PUSH8 0x6AC9A63DF9CD2834 PUSH1 0xC0 SHL PUSH2 0x7A8 JUMP JUMPDEST PUSH2 0x6AB PUSH8 0xD6BCB4DF129BE366 PUSH1 0xC0 SHL PUSH2 0x7A8 JUMP JUMPDEST PUSH2 0x6BF PUSH8 0xA2100578929BB6F4 PUSH1 0xC0 SHL PUSH2 0x7A8 JUMP JUMPDEST PUSH1 0x0 PUSH20 0xFFFFFFFFFFFFFFFFFFFFFFFFFFFFFFFFFFFFFFFF AND DUP2 PUSH20 0xFFFFFFFFFFFFFFFFFFFFFFFFFFFFFFFFFFFFFFFF AND SUB PUSH2 0x72E JUMPI PUSH1 0x40 MLOAD PUSH32 0x8C379A000000000000000000000000000000000000000000000000000000000 DUP2 MSTORE PUSH1 0x4 ADD PUSH2 0x725 SWAP1 PUSH2 0x10CE JUMP JUMPDEST PUSH1 0x40 MLOAD DUP1 SWAP2 SUB SWAP1 REVERT JUMPDEST PUSH2 0x742 PUSH8 0x7D672CF991E3A65B PUSH1 0xC0 SHL PUSH2 0x7A8 JUMP JUMPDEST PUSH2 0x756 PUSH8 0x3548A97F24D1B1E0 PUSH1 0xC0 SHL PUSH2 0x7A8 JUMP JUMPDEST PUSH2 0x76A PUSH8 0x59346B389EF422F6 PUSH1 0xC0 SHL PUSH2 0x7A8 JUMP JUMPDEST DUP1 PUSH20 0xFFFFFFFFFFFFFFFFFFFFFFFFFFFFFFFFFFFFFFFF AND DUP11 PUSH20 0xFFFFFFFFFFFFFFFFFFFFFFFFFFFFFFFFFFFFFFFF AND EQ SWAP3 POP POP POP SWAP8 SWAP7 POP POP POP POP POP POP POP JUMP JUMPDEST POP JUMP JUMPDEST PUSH1 0x0 DUP2 DUP4 PUSH2 0x7B9 SWAP2 SWAP1 PUSH2 0x111D JUMP JUMPDEST SWAP1 POP SWAP3 SWAP2 POP POP JUMP JUMPDEST PUSH1 0x0 PUSH2 0x7D7 PUSH8 0x743A10B4F2A7B8BE PUSH1 0xC0 SHL PUSH2 0x7A8 JUMP JUMPDEST PUSH2 0x7EB PUSH8 0xC99765E4C7E2B1C4 PUSH1 0xC0 SHL PUSH2 0x7A8 JUMP JUMPDEST PUSH2 0x7FF PUSH8 0x786BCA11B0197300 PUSH1 0xC0 SHL PUSH2 0x7A8 JUMP JUMPDEST DUP2 PUSH1 0x40 MLOAD PUSH1 0x20 ADD PUSH2 0x810 SWAP2 SWAP1 PUSH2 0x11C9 JUMP JUMPDEST PUSH1 0x40 MLOAD PUSH1 0x20 DUP2 DUP4 SUB SUB DUP2 MSTORE SWAP1 PUSH1 0x40 MSTORE DUP1 MLOAD SWAP1 PUSH1 0x20 ADD KECCAK256 SWAP1 POP SWAP2 SWAP1 POP JUMP JUMPDEST PUSH1 0x0 PUSH1 0x40 MLOAD SWAP1 POP SWAP1 JUMP JUMPDEST PUSH1 0x0 DUP1 REVERT JUMPDEST PUSH1 0x0 DUP1 REVERT JUMPDEST PUSH1 0x0 PUSH20 0xFFFFFFFFFFFFFFFFFFFFFFFFFFFFFFFFFFFFFFFF DUP3 AND SWAP1 POP SWAP2 SWAP1 POP JUMP JUMPDEST PUSH1 0x0 PUSH2 0x86C DUP3 PUSH2 0x841 JUMP JUMPDEST SWAP1 POP SWAP2 SWAP1 POP JUMP JUMPDEST PUSH2 0x87C DUP2 PUSH2 0x861 JUMP JUMPDEST DUP2 EQ PUSH2 0x887 JUMPI PUSH1 0x0 DUP1 REVERT JUMPDEST POP JUMP JUMPDEST PUSH1 0x0 DUP2 CALLDATALOAD SWAP1 POP PUSH2 0x899 DUP2 PUSH2 0x873 JUMP JUMPDEST SWAP3 SWAP2 POP POP JUMP JUMPDEST PUSH1 0x0 DUP1 REVERT JUMPDEST PUSH1 0x0 DUP1 REVERT JUMPDEST PUSH1 0x0 PUSH1 0x1F NOT PUSH1 0x1F DUP4 ADD AND SWAP1 POP SWAP2 SWAP1 POP JUMP JUMPDEST PUSH32 0x4E487B7100000000000000000000000000000000000000000000000000000000 PUSH1 0x0 MSTORE PUSH1 0x41 PUSH1 0x4 MSTORE PUSH1 0x24 PUSH1 0x0 REVERT JUMPDEST PUSH2 0x8F2 DUP3 PUSH2 0x8A9 JUMP JUMPDEST DUP2 ADD DUP2 DUP2 LT PUSH8 0xFFFFFFFFFFFFFFFF DUP3 GT OR ISZERO PUSH2 0x911 JUMPI PUSH2 0x910 PUSH2 0x8BA JUMP JUMPDEST JUMPDEST DUP1 PUSH1 0x40 MSTORE POP POP POP JUMP JUMPDEST PUSH1 0x0 PUSH2 0x924 PUSH2 0x82D JUMP JUMPDEST SWAP1 POP PUSH2 0x930 DUP3 DUP3 PUSH2 0x8E9 JUMP JUMPDEST SWAP2 SWAP1 POP JUMP JUMPDEST PUSH1 0x0 PUSH8 0xFFFFFFFFFFFFFFFF DUP3 GT ISZERO PUSH2 0x950 JUMPI PUSH2 0x94F PUSH2 0x8BA JUMP JUMPDEST JUMPDEST PUSH2 0x959 DUP3 PUSH2 0x8A9 JUMP JUMPDEST SWAP1 POP PUSH1 0x20 DUP2 ADD SWAP1 POP SWAP2 SWAP1 POP JUMP JUMPDEST DUP3 DUP2 DUP4 CALLDATACOPY PUSH1 0x0 DUP4 DUP4 ADD MSTORE POP POP POP JUMP JUMPDEST PUSH1 0x0 PUSH2 0x988 PUSH2 0x983 DUP5 PUSH2 0x935 JUMP JUMPDEST PUSH2 0x91A JUMP JUMPDEST SWAP1 POP DUP3 DUP2 MSTORE PUSH1 0x20 DUP2 ADD DUP5 DUP5 DUP5 ADD GT ISZERO PUSH2 0x9A4 JUMPI PUSH2 0x9A3 PUSH2 0x8A4 JUMP JUMPDEST JUMPDEST PUSH2 0x9AF DUP5 DUP3 DUP6 PUSH2 0x966 JUMP JUMPDEST POP SWAP4 SWAP3 POP POP POP JUMP JUMPDEST PUSH1 0x0 DUP3 PUSH1 0x1F DUP4 ADD SLT PUSH2 0x9CC JUMPI PUSH2 0x9CB PUSH2 0x89F JUMP JUMPDEST JUMPDEST DUP2 CALLDATALOAD PUSH2 0x9DC DUP5 DUP3 PUSH1 0x20 DUP7 ADD PUSH2 0x975 JUMP JUMPDEST SWAP2 POP POP SWAP3 SWAP2 POP POP JUMP JUMPDEST PUSH1 0x0 DUP2 SWAP1 POP SWAP2 SWAP1 POP JUMP JUMPDEST PUSH2 0x9F8 DUP2 PUSH2 0x9E5 JUMP JUMPDEST DUP2 EQ PUSH2 0xA03 JUMPI PUSH1 0x0 DUP1 REVERT JUMPDEST POP JUMP JUMPDEST PUSH1 0x0 DUP2 CALLDATALOAD SWAP1 POP PUSH2 0xA15 DUP2 PUSH2 0x9EF JUMP JUMPDEST SWAP3 SWAP2 POP POP JUMP JUMPDEST PUSH1 0x0 PUSH1 0xFF DUP3 AND SWAP1 POP SWAP2 SWAP1 POP JUMP JUMPDEST PUSH2 0xA31 DUP2 PUSH2 0xA1B JUMP JUMPDEST DUP2 EQ PUSH2 0xA3C JUMPI PUSH1 0x0 DUP1 REVERT JUMPDEST POP JUMP JUMPDEST PUSH1 0x0 DUP2 CALLDATALOAD SWAP1 POP PUSH2 0xA4E DUP2 PUSH2 0xA28 JUMP JUMPDEST SWAP3 SWAP2 POP POP JUMP JUMPDEST PUSH1 0x0 DUP1 PUSH1 0x0 DUP1 PUSH1 0x0 PUSH1 0xA0 DUP7 DUP9 SUB SLT ISZERO PUSH2 0xA70 JUMPI PUSH2 0xA6F PUSH2 0x837 JUMP JUMPDEST JUMPDEST PUSH1 0x0 PUSH2 0xA7E DUP9 DUP3 DUP10 ADD PUSH2 0x88A JUMP JUMPDEST SWAP6 POP POP PUSH1 0x20 DUP7 ADD CALLDATALOAD PUSH8 0xFFFFFFFFFFFFFFFF DUP2 GT ISZERO PUSH2 0xA9F JUMPI PUSH2 0xA9E PUSH2 0x83C JUMP JUMPDEST JUMPDEST PUSH2 0xAAB DUP9 DUP3 DUP10 ADD PUSH2 0x9B7 JUMP JUMPDEST SWAP5 POP POP PUSH1 0x40 PUSH2 0xABC DUP9 DUP3 DUP10 ADD PUSH2 0xA06 JUMP JUMPDEST SWAP4 POP POP PUSH1 0x60 PUSH2 0xACD DUP9 DUP3 DUP10 ADD PUSH2 0xA06 JUMP JUMPDEST SWAP3 POP POP PUSH1 0x80 PUSH2 0xADE DUP9 DUP3 DUP10 ADD PUSH2 0xA3F JUMP JUMPDEST SWAP2 POP POP SWAP3 SWAP6 POP SWAP3 SWAP6 SWAP1 SWAP4 POP JUMP JUMPDEST PUSH1 0x0 DUP2 MLOAD SWAP1 POP SWAP2 SWAP1 POP JUMP JUMPDEST PUSH1 0x0 DUP3 DUP3 MSTORE PUSH1 0x20 DUP3 ADD SWAP1 POP SWAP3 SWAP2 POP POP JUMP JUMPDEST PUSH1 0x0 JUMPDEST DUP4 DUP2 LT ISZERO PUSH2 0xB25 JUMPI DUP1 DUP3 ADD MLOAD DUP2 DUP5 ADD MSTORE PUSH1 0x20 DUP2 ADD SWAP1 POP PUSH2 0xB0A JUMP JUMPDEST PUSH1 0x0 DUP5 DUP5 ADD MSTORE POP POP POP POP JUMP JUMPDEST PUSH1 0x0 PUSH2 0xB3C DUP3 PUSH2 0xAEB JUMP JUMPDEST PUSH2 0xB46 DUP2 DUP6 PUSH2 0xAF6 JUMP JUMPDEST SWAP4 POP PUSH2 0xB56 DUP2 DUP6 PUSH1 0x20 DUP7 ADD PUSH2 0xB07 JUMP JUMPDEST PUSH2 0xB5F DUP2 PUSH2 0x8A9 JUMP JUMPDEST DUP5 ADD SWAP2 POP POP SWAP3 SWAP2 POP POP JUMP JUMPDEST PUSH1 0x0 PUSH1 0x20 DUP3 ADD SWAP1 POP DUP2 DUP2 SUB PUSH1 0x0 DUP4 ADD MSTORE PUSH2 0xB84 DUP2 DUP5 PUSH2 0xB31 JUMP JUMPDEST SWAP1 POP SWAP3 SWAP2 POP POP JUMP JUMPDEST PUSH1 0x0 PUSH1 0x20 DUP3 DUP5 SUB SLT ISZERO PUSH2 0xBA2 JUMPI PUSH2 0xBA1 PUSH2 0x837 JUMP JUMPDEST JUMPDEST PUSH1 0x0 PUSH2 0xBB0 DUP5 DUP3 DUP6 ADD PUSH2 0x88A JUMP JUMPDEST SWAP2 POP POP SWAP3 SWAP2 POP POP JUMP JUMPDEST PUSH1 0x0 DUP2 SWAP1 POP SWAP2 SWAP1 POP JUMP JUMPDEST PUSH2 0xBCC DUP2 PUSH2 0xBB9 JUMP JUMPDEST DUP3 MSTORE POP POP JUMP JUMPDEST PUSH1 0x0 PUSH1 0x20 DUP3 ADD SWAP1 POP PUSH2 0xBE7 PUSH1 0x0 DUP4 ADD DUP5 PUSH2 0xBC3 JUMP JUMPDEST SWAP3 SWAP2 POP POP JUMP JUMPDEST PUSH2 0xBF6 DUP2 PUSH2 0xBB9 JUMP JUMPDEST DUP2 EQ PUSH2 0xC01 JUMPI PUSH1 0x0 DUP1 REVERT JUMPDEST POP JUMP JUMPDEST PUSH1 0x0 DUP2 CALLDATALOAD SWAP1 POP PUSH2 0xC13 DUP2 PUSH2 0xBED JUMP JUMPDEST SWAP3 SWAP2 POP POP JUMP JUMPDEST PUSH1 0x0 DUP1 PUSH1 0x0 DUP1 PUSH1 0x0 DUP1 PUSH1 0x0 PUSH1 0xE0 DUP9 DUP11 SUB SLT ISZERO PUSH2 0xC38 JUMPI PUSH2 0xC37 PUSH2 0x837 JUMP JUMPDEST JUMPDEST PUSH1 0x0 PUSH2 0xC46 DUP11 DUP3 DUP12 ADD PUSH2 0x88A JUMP JUMPDEST SWAP8 POP POP PUSH1 0x20 PUSH2 0xC57 DUP11 DUP3 DUP12 ADD PUSH2 0xC04 JUMP JUMPDEST SWAP7 POP POP PUSH1 0x40 PUSH2 0xC68 DUP11 DUP3 DUP12 ADD PUSH2 0xC04 JUMP JUMPDEST SWAP6 POP POP PUSH1 0x60 DUP9 ADD CALLDATALOAD PUSH8 0xFFFFFFFFFFFFFFFF DUP2 GT ISZERO PUSH2 0xC89 JUMPI PUSH2 0xC88 PUSH2 0x83C JUMP JUMPDEST JUMPDEST PUSH2 0xC95 DUP11 DUP3 DUP12 ADD PUSH2 0x9B7 JUMP JUMPDEST SWAP5 POP POP PUSH1 0x80 PUSH2 0xCA6 DUP11 DUP3 DUP12 ADD PUSH2 0xA06 JUMP JUMPDEST SWAP4 POP POP PUSH1 0xA0 PUSH2 0xCB7 DUP11 DUP3 DUP12 ADD PUSH2 0xA06 JUMP JUMPDEST SWAP3 POP POP PUSH1 0xC0 PUSH2 0xCC8 DUP11 DUP3 DUP12 ADD PUSH2 0xA3F JUMP JUMPDEST SWAP2 POP POP SWAP3 SWAP6 SWAP9 SWAP2 SWAP5 SWAP8 POP SWAP3 SWAP6 POP JUMP JUMPDEST PUSH1 0x0 DUP2 ISZERO ISZERO SWAP1 POP SWAP2 SWAP1 POP JUMP JUMPDEST PUSH2 0xCEC DUP2 PUSH2 0xCD7 JUMP JUMPDEST DUP3 MSTORE POP POP JUMP JUMPDEST PUSH1 0x0 PUSH1 0x20 DUP3 ADD SWAP1 POP PUSH2 0xD07 PUSH1 0x0 DUP4 ADD DUP5 PUSH2 0xCE3 JUMP JUMPDEST SWAP3 SWAP2 POP POP JUMP JUMPDEST PUSH1 0x0 DUP3 DUP3 MSTORE PUSH1 0x20 DUP3 ADD SWAP1 POP SWAP3 SWAP2 POP POP JUMP JUMPDEST PUSH32 0x5369676E657220616E64207369676E617475726520646F206E6F74206D617463 PUSH1 0x0 DUP3 ADD MSTORE PUSH32 0x6800000000000000000000000000000000000000000000000000000000000000 PUSH1 0x20 DUP3 ADD MSTORE POP JUMP JUMPDEST PUSH1 0x0 PUSH2 0xD7A PUSH1 0x21 DUP4 PUSH2 0xD0D JUMP JUMPDEST SWAP2 POP PUSH2 0xD85 DUP3 PUSH2 0xD1E JUMP JUMPDEST PUSH1 0x40 DUP3 ADD SWAP1 POP SWAP2 SWAP1 POP JUMP JUMPDEST PUSH1 0x0 PUSH1 0x20 DUP3 ADD SWAP1 POP DUP2 DUP2 SUB PUSH1 0x0 DUP4 ADD MSTORE PUSH2 0xDA9 DUP2 PUSH2 0xD6D JUMP JUMPDEST SWAP1 POP SWAP2 SWAP1 POP JUMP JUMPDEST PUSH1 0x0 DUP2 SWAP1 POP SWAP3 SWAP2 POP POP JUMP JUMPDEST PUSH1 0x0 PUSH2 0xDC6 DUP3 PUSH2 0xAEB JUMP JUMPDEST PUSH2 0xDD0 DUP2 DUP6 PUSH2 0xDB0 JUMP JUMPDEST SWAP4 POP PUSH2 0xDE0 DUP2 DUP6 PUSH1 0x20 DUP7 ADD PUSH2 0xB07 JUMP JUMPDEST DUP1 DUP5 ADD SWAP2 POP POP SWAP3 SWAP2 POP POP JUMP JUMPDEST PUSH1 0x0 DUP2 PUSH1 0x60 SHL SWAP1 POP SWAP2 SWAP1 POP JUMP JUMPDEST PUSH1 0x0 PUSH2 0xE04 DUP3 PUSH2 0xDEC JUMP JUMPDEST SWAP1 POP SWAP2 SWAP1 POP JUMP JUMPDEST PUSH1 0x0 PUSH2 0xE16 DUP3 PUSH2 0xDF9 JUMP JUMPDEST SWAP1 POP SWAP2 SWAP1 POP JUMP JUMPDEST PUSH2 0xE2E PUSH2 0xE29 DUP3 PUSH2 0x861 JUMP JUMPDEST PUSH2 0xE0B JUMP JUMPDEST DUP3 MSTORE POP POP JUMP JUMPDEST PUSH1 0x0 PUSH2 0xE40 DUP3 DUP6 PUSH2 0xDBB JUMP JUMPDEST SWAP2 POP PUSH2 0xE4C DUP3 DUP5 PUSH2 0xE1D JUMP JUMPDEST PUSH1 0x14 DUP3 ADD SWAP2 POP DUP2 SWAP1 POP SWAP4 SWAP3 POP POP POP JUMP JUMPDEST PUSH1 0x0 PUSH2 0xE68 DUP3 DUP5 PUSH2 0xDBB JUMP JUMPDEST SWAP2 POP DUP2 SWAP1 POP SWAP3 SWAP2 POP POP JUMP JUMPDEST PUSH32 0x46756E6374696F6E2063616C6C206E6F74207375636365737366756C00000000 PUSH1 0x0 DUP3 ADD MSTORE POP JUMP JUMPDEST PUSH1 0x0 PUSH2 0xEA9 PUSH1 0x1C DUP4 PUSH2 0xD0D JUMP JUMPDEST SWAP2 POP PUSH2 0xEB4 DUP3 PUSH2 0xE73 JUMP JUMPDEST PUSH1 0x20 DUP3 ADD SWAP1 POP SWAP2 SWAP1 POP JUMP JUMPDEST PUSH1 0x0 PUSH1 0x20 DUP3 ADD SWAP1 POP DUP2 DUP2 SUB PUSH1 0x0 DUP4 ADD MSTORE PUSH2 0xED8 DUP2 PUSH2 0xE9C JUMP JUMPDEST SWAP1 POP SWAP2 SWAP1 POP JUMP JUMPDEST PUSH2 0xEE8 DUP2 PUSH2 0x861 JUMP JUMPDEST DUP3 MSTORE POP POP JUMP JUMPDEST PUSH1 0x0 PUSH2 0xEF9 DUP3 PUSH2 0x841 JUMP JUMPDEST SWAP1 POP SWAP2 SWAP1 POP JUMP JUMPDEST PUSH2 0xF09 DUP2 PUSH2 0xEEE JUMP JUMPDEST DUP3 MSTORE POP POP JUMP JUMPDEST PUSH1 0x0 PUSH1 0x60 DUP3 ADD SWAP1 POP PUSH2 0xF24 PUSH1 0x0 DUP4 ADD DUP7 PUSH2 0xEDF JUMP JUMPDEST PUSH2 0xF31 PUSH1 0x20 DUP4 ADD DUP6 PUSH2 0xF00 JUMP JUMPDEST DUP2 DUP2 SUB PUSH1 0x40 DUP4 ADD MSTORE PUSH2 0xF43 DUP2 DUP5 PUSH2 0xB31 JUMP JUMPDEST SWAP1 POP SWAP5 SWAP4 POP POP POP POP JUMP JUMPDEST PUSH1 0x0 DUP2 SWAP1 POP SWAP2 SWAP1 POP JUMP JUMPDEST PUSH2 0xF68 PUSH2 0xF63 DUP3 PUSH2 0xBB9 JUMP JUMPDEST PUSH2 0xF4D JUMP JUMPDEST DUP3 MSTORE POP POP JUMP JUMPDEST PUSH1 0x0 DUP2 SWAP1 POP SWAP2 SWAP1 POP JUMP JUMPDEST PUSH1 0x0 PUSH2 0xF93 PUSH2 0xF8E PUSH2 0xF89 DUP5 PUSH2 0x841 JUMP JUMPDEST PUSH2 0xF6E JUMP JUMPDEST PUSH2 0x841 JUMP JUMPDEST SWAP1 POP SWAP2 SWAP1 POP JUMP JUMPDEST PUSH1 0x0 PUSH2 0xFA5 DUP3 PUSH2 0xF78 JUMP JUMPDEST SWAP1 POP SWAP2 SWAP1 POP JUMP JUMPDEST PUSH1 0x0 PUSH2 0xFB7 DUP3 PUSH2 0xF9A JUMP JUMPDEST SWAP1 POP SWAP2 SWAP1 POP JUMP JUMPDEST PUSH2 0xFCF PUSH2 0xFCA DUP3 PUSH2 0xFAC JUMP JUMPDEST PUSH2 0xE0B JUMP JUMPDEST DUP3 MSTORE POP POP JUMP JUMPDEST PUSH1 0x0 PUSH2 0xFE1 DUP3 DUP8 PUSH2 0xF57 JUMP JUMPDEST PUSH1 0x20 DUP3 ADD SWAP2 POP PUSH2 0xFF1 DUP3 DUP7 PUSH2 0xFBE JUMP JUMPDEST PUSH1 0x14 DUP3 ADD SWAP2 POP PUSH2 0x1001 DUP3 DUP6 PUSH2 0xF57 JUMP JUMPDEST PUSH1 0x20 DUP3 ADD SWAP2 POP PUSH2 0x1011 DUP3 DUP5 PUSH2 0xDBB JUMP JUMPDEST SWAP2 POP DUP2 SWAP1 POP SWAP6 SWAP5 POP POP POP POP POP JUMP JUMPDEST PUSH2 0x1028 DUP2 PUSH2 0x9E5 JUMP JUMPDEST DUP3 MSTORE POP POP JUMP JUMPDEST PUSH2 0x1037 DUP2 PUSH2 0xA1B JUMP JUMPDEST DUP3 MSTORE POP POP JUMP JUMPDEST PUSH1 0x0 PUSH1 0x80 DUP3 ADD SWAP1 POP PUSH2 0x1052 PUSH1 0x0 DUP4 ADD DUP8 PUSH2 0x101F JUMP JUMPDEST PUSH2 0x105F PUSH1 0x20 DUP4 ADD DUP7 PUSH2 0x102E JUMP JUMPDEST PUSH2 0x106C PUSH1 0x40 DUP4 ADD DUP6 PUSH2 0x101F JUMP JUMPDEST PUSH2 0x1079 PUSH1 0x60 DUP4 ADD DUP5 PUSH2 0x101F JUMP JUMPDEST SWAP6 SWAP5 POP POP POP POP POP JUMP JUMPDEST PUSH32 0x496E76616C6964207369676E6174757265000000000000000000000000000000 PUSH1 0x0 DUP3 ADD MSTORE POP JUMP JUMPDEST PUSH1 0x0 PUSH2 0x10B8 PUSH1 0x11 DUP4 PUSH2 0xD0D JUMP JUMPDEST SWAP2 POP PUSH2 0x10C3 DUP3 PUSH2 0x1082 JUMP JUMPDEST PUSH1 0x20 DUP3 ADD SWAP1 POP SWAP2 SWAP1 POP JUMP JUMPDEST PUSH1 0x0 PUSH1 0x20 DUP3 ADD SWAP1 POP DUP2 DUP2 SUB PUSH1 0x0 DUP4 ADD MSTORE PUSH2 0x10E7 DUP2 PUSH2 0x10AB JUMP JUMPDEST SWAP1 POP SWAP2 SWAP1 POP JUMP JUMPDEST PUSH32 0x4E487B7100000000000000000000000000000000000000000000000000000000 PUSH1 0x0 MSTORE PUSH1 0x11 PUSH1 0x4 MSTORE PUSH1 0x24 PUSH1 0x0 REVERT JUMPDEST PUSH1 0x0 PUSH2 0x1128 DUP3 PUSH2 0xBB9 JUMP JUMPDEST SWAP2 POP PUSH2 0x1133 DUP4 PUSH2 0xBB9 JUMP JUMPDEST SWAP3 POP DUP3 DUP3 ADD SWAP1 POP DUP1 DUP3 GT ISZERO PUSH2 0x114B JUMPI PUSH2 0x114A PUSH2 0x10EE JUMP JUMPDEST JUMPDEST SWAP3 SWAP2 POP POP JUMP JUMPDEST PUSH1 0x0 DUP2 SWAP1 POP SWAP3 SWAP2 POP POP JUMP JUMPDEST PUSH32 0x19457468657265756D205369676E6564204D6573736167653A0A333200000000 PUSH1 0x0 DUP3 ADD MSTORE POP JUMP JUMPDEST PUSH1 0x0 PUSH2 0x1192 PUSH1 0x1C DUP4 PUSH2 0x1151 JUMP JUMPDEST SWAP2 POP PUSH2 0x119D DUP3 PUSH2 0x115C JUMP JUMPDEST PUSH1 0x1C DUP3 ADD SWAP1 POP SWAP2 SWAP1 POP JUMP JUMPDEST PUSH1 0x0 DUP2 SWAP1 POP SWAP2 SWAP1 POP JUMP JUMPDEST PUSH2 0x11C3 PUSH2 0x11BE DUP3 PUSH2 0x9E5 JUMP JUMPDEST PUSH2 0x11A8 JUMP JUMPDEST DUP3 MSTORE POP POP JUMP JUMPDEST PUSH1 0x0 PUSH2 0x11D4 DUP3 PUSH2 0x1185 JUMP JUMPDEST SWAP2 POP PUSH2 0x11E0 DUP3 DUP5 PUSH2 0x11B2 JUMP JUMPDEST PUSH1 0x20 DUP3 ADD SWAP2 POP DUP2 SWAP1 POP SWAP3 SWAP2 POP POP JUMP INVALID LOG2 PUSH5 0x6970667358 0x22 SLT KECCAK256 0xAB SWAP8 PREVRANDAO DUP5 0xB8 MSIZE SWAP2 0xF9 0xD0 0xBF 0xCB 0xDC 0xC1 0xF9 DIV 0xEB JUMPI BASEFEE 0x28 SELFDESTRUCT MUL 0xC7 0xE9 CALLDATASIZE 0xD0 0xC2 0xE8 0xD5 0xAE DUP3 0xBD RETURNDATASIZE PUSH5 0x736F6C6343 STOP ADDMOD SLT STOP CALLER "},"methodIdentifiers":{"executeMetaTransaction(address,bytes,bytes32,bytes32,uint8)":"0c53c51c","getChainID()":"564b81ef","getNonce(address)":"2d0335ab","verify(address,uint256,uint256,bytes,bytes32,bytes32,uint8)":"6281133d"}}}}}