{
  "_format": "hh-sol-artifact-1",
  "contractName": "BasicMetaTransaction",
  "sourceName": "contracts/Relayer/BasicMetaTransaction.sol",
  "abi": [
    {
      "anonymous": false,
      "inputs": [
        {
          "indexed": false,
          "internalType": "address",
          "name": "userAddress",
          "type": "address"
        },
        {
          "indexed": false,
          "internalType": "address payable",
          "name": "relayerAddress",
          "type": "address"
        },
        {
          "indexed": false,
          "internalType": "bytes",
          "name": "functionSignature",
          "type": "bytes"
        }
      ],
      "name": "MetaTransactionExecuted",
      "type": "event"
    },
    {
      "inputs": [
        {
          "internalType": "address",
          "name": "userAddress",
          "type": "address"
        },
        {
          "internalType": "bytes",
          "name": "functionSignature",
          "type": "bytes"
        },
        {
          "internalType": "bytes32",
          "name": "sigR",
          "type": "bytes32"
        },
        {
          "internalType": "bytes32",
          "name": "sigS",
          "type": "bytes32"
        },
        {
          "internalType": "uint8",
          "name": "sigV",
          "type": "uint8"
        }
      ],
      "name": "executeMetaTransaction",
      "outputs": [
        {
          "internalType": "bytes",
          "name": "",
          "type": "bytes"
        }
      ],
      "stateMutability": "payable",
      "type": "function"
    },
    {
      "inputs": [],
      "name": "getChainID",
      "outputs": [
        {
          "internalType": "uint256",
          "name": "",
          "type": "uint256"
        }
      ],
      "stateMutability": "view",
      "type": "function"
    },
    {
      "inputs": [
        {
          "internalType": "address",
          "name": "user",
          "type": "address"
        }
      ],
      "name": "getNonce",
      "outputs": [
        {
          "internalType": "uint256",
          "name": "nonce",
          "type": "uint256"
        }
      ],
      "stateMutability": "view",
      "type": "function"
    },
    {
      "inputs": [
        {
          "internalType": "address",
          "name": "owner",
          "type": "address"
        },
        {
          "internalType": "uint256",
          "name": "nonce",
          "type": "uint256"
        },
        {
          "internalType": "uint256",
          "name": "chainID",
          "type": "uint256"
        },
        {
          "internalType": "bytes",
          "name": "functionSignature",
          "type": "bytes"
        },
        {
          "internalType": "bytes32",
          "name": "sigR",
          "type": "bytes32"
        },
        {
          "internalType": "bytes32",
          "name": "sigS",
          "type": "bytes32"
        },
        {
          "internalType": "uint8",
          "name": "sigV",
          "type": "uint8"
        }
      ],
      "name": "verify",
      "outputs": [
        {
          "internalType": "bool",
          "name": "",
          "type": "bool"
        }
      ],
      "stateMutability": "view",
      "type": "function"
    }
  ],
  "bytecode": "0x608060405234801561001057600080fd5b50611225806100206000396000f3fe60806040526004361061003f5760003560e01c80630c53c51c146100445780632d0335ab14610074578063564b81ef146100b15780636281133d146100dc575b600080fd5b61005e60048036038101906100599190610a54565b610119565b60405161006b9190610b6a565b60405180910390f35b34801561008057600080fd5b5061009b60048036038101906100969190610b8c565b61049b565b6040516100a89190610bd2565b60405180910390f35b3480156100bd57600080fd5b506100c661050b565b6040516100d39190610bd2565b60405180910390f35b3480156100e857600080fd5b5061010360048036038101906100fe9190610c19565b610591565b6040516101109190610cf2565b60405180910390f35b606061012f67513dbce2fc90e45e60c01b6107a8565b61014367590a28232c61349d60c01b6107a8565b61015767089cd2f2cb4265e860c01b6107a8565b61016b6737fd1a78487506cd60c01b6107a8565b6101bf866000808973ffffffffffffffffffffffffffffffffffffffff1673ffffffffffffffffffffffffffffffffffffffff168152602001908152602001600020546101b661050b565b88888888610591565b6101fe576040517f08c379a00000000000000000000000000000000000000000000000000000000081526004016101f590610d90565b60405180910390fd5b610212673fcd70263a8b244060c01b6107a8565b61022667276eb884b10acb6860c01b6107a8565b61027860016000808973ffffffffffffffffffffffffffffffffffffffff1673ffffffffffffffffffffffffffffffffffffffff168152602001908152602001600020546107ab90919063ffffffff16565b6000808873ffffffffffffffffffffffffffffffffffffffff1673ffffffffffffffffffffffffffffffffffffffff168152602001908152602001600020819055506102ce67492d088303cb613860c01b6107a8565b6102e26735a89eaaea7aef1060c01b6107a8565b6000803073ffffffffffffffffffffffffffffffffffffffff16878960405160200161030f929190610e34565b60405160208183030381529060405260405161032b9190610e5c565b6000604051808303816000865af19150503d8060008114610368576040519150601f19603f3d011682016040523d82523d6000602084013e61036d565b606091505b509150915061038667f0ccc6f61ad78a2060c01b6107a8565b61039a67d2af4b3097e7572960c01b6107a8565b6103ae677f2625b0ed9c3eba60c01b6107a8565b816103ee576040517f08c379a00000000000000000000000000000000000000000000000000000000081526004016103e590610ebf565b60405180910390fd5b610402672a067640dbbf31e360c01b6107a8565b61041667486d9fc4a5d7aff260c01b6107a8565b61042a67c422c69189914f1d60c01b6107a8565b7f5845892132946850460bff5a0083f71031bc5bf9aadcd40f1de79423eac9b10b88338960405161045d93929190610f0f565b60405180910390a1610479673677b7211155450060c01b6107a8565b61048d67a1b9117eade5307360c01b6107a8565b809250505095945050505050565b60006104b167e7b80efbcbfaf42160c01b6107a8565b6104c56707db74373afd9a7860c01b6107a8565b6000808373ffffffffffffffffffffffffffffffffffffffff1673ffffffffffffffffffffffffffffffffffffffff168152602001908152602001600020549050919050565b600061052167d257e0777ed0857c60c01b6107a8565b61053567d0debb57994782e260c01b6107a8565b61054967fb25d02c956731bb60c01b6107a8565b600061055f67305f3e9c68bad6b060c01b6107a8565b469050610576675072cd0eb5ff6d0f60c01b6107a8565b61058a67bf9d228d91067cce60c01b6107a8565b8091505090565b60006105a7670a17deb9bda579e960c01b6107a8565b6105bb67943a6dfd45a8e7b860c01b6107a8565b6105cf67e47197799d32c37d60c01b6107a8565b6000610606883089896040516020016105eb9493929190610fd5565b604051602081830303815290604052805190602001206107c1565b905061061c67f9f84b37c114e55460c01b6107a8565b61063067a39bbf534729363e60c01b6107a8565b600060018285888860405160008152602001604052604051610655949392919061103d565b6020604051602081039080840390855afa158015610677573d6000803e3d6000fd5b505050602060405103519050610697676ac9a63df9cd283460c01b6107a8565b6106ab67d6bcb4df129be36660c01b6107a8565b6106bf67a2100578929bb6f460c01b6107a8565b600073ffffffffffffffffffffffffffffffffffffffff168173ffffffffffffffffffffffffffffffffffffffff160361072e576040517f08c379a0000000000000000000000000000000000000000000000000000000008152600401610725906110ce565b60405180910390fd5b610742677d672cf991e3a65b60c01b6107a8565b610756673548a97f24d1b1e060c01b6107a8565b61076a6759346b389ef422f660c01b6107a8565b8073ffffffffffffffffffffffffffffffffffffffff168a73ffffffffffffffffffffffffffffffffffffffff161492505050979650505050505050565b50565b600081836107b9919061111d565b905092915050565b60006107d767743a10b4f2a7b8be60c01b6107a8565b6107eb67c99765e4c7e2b1c460c01b6107a8565b6107ff67786bca11b019730060c01b6107a8565b8160405160200161081091906111c9565b604051602081830303815290604052805190602001209050919050565b6000604051905090565b600080fd5b600080fd5b600073ffffffffffffffffffffffffffffffffffffffff82169050919050565b600061086c82610841565b9050919050565b61087c81610861565b811461088757600080fd5b50565b60008135905061089981610873565b92915050565b600080fd5b600080fd5b6000601f19601f8301169050919050565b7f4e487b7100000000000000000000000000000000000000000000000000000000600052604160045260246000fd5b6108f2826108a9565b810181811067ffffffffffffffff82111715610911576109106108ba565b5b80604052505050565b600061092461082d565b905061093082826108e9565b919050565b600067ffffffffffffffff8211156109505761094f6108ba565b5b610959826108a9565b9050602081019050919050565b82818337600083830152505050565b600061098861098384610935565b61091a565b9050828152602081018484840111156109a4576109a36108a4565b5b6109af848285610966565b509392505050565b600082601f8301126109cc576109cb61089f565b5b81356109dc848260208601610975565b91505092915050565b6000819050919050565b6109f8816109e5565b8114610a0357600080fd5b50565b600081359050610a15816109ef565b92915050565b600060ff82169050919050565b610a3181610a1b565b8114610a3c57600080fd5b50565b600081359050610a4e81610a28565b92915050565b600080600080600060a08688031215610a7057610a6f610837565b5b6000610a7e8882890161088a565b955050602086013567ffffffffffffffff811115610a9f57610a9e61083c565b5b610aab888289016109b7565b9450506040610abc88828901610a06565b9350506060610acd88828901610a06565b9250506080610ade88828901610a3f565b9150509295509295909350565b600081519050919050565b600082825260208201905092915050565b60005b83811015610b25578082015181840152602081019050610b0a565b60008484015250505050565b6000610b3c82610aeb565b610b468185610af6565b9350610b56818560208601610b07565b610b5f816108a9565b840191505092915050565b60006020820190508181036000830152610b848184610b31565b905092915050565b600060208284031215610ba257610ba1610837565b5b6000610bb08482850161088a565b91505092915050565b6000819050919050565b610bcc81610bb9565b82525050565b6000602082019050610be76000830184610bc3565b92915050565b610bf681610bb9565b8114610c0157600080fd5b50565b600081359050610c1381610bed565b92915050565b600080600080600080600060e0888a031215610c3857610c37610837565b5b6000610c468a828b0161088a565b9750506020610c578a828b01610c04565b9650506040610c688a828b01610c04565b955050606088013567ffffffffffffffff811115610c8957610c8861083c565b5b610c958a828b016109b7565b9450506080610ca68a828b01610a06565b93505060a0610cb78a828b01610a06565b92505060c0610cc88a828b01610a3f565b91505092959891949750929550565b60008115159050919050565b610cec81610cd7565b82525050565b6000602082019050610d076000830184610ce3565b92915050565b600082825260208201905092915050565b7f5369676e657220616e64207369676e617475726520646f206e6f74206d61746360008201527f6800000000000000000000000000000000000000000000000000000000000000602082015250565b6000610d7a602183610d0d565b9150610d8582610d1e565b604082019050919050565b60006020820190508181036000830152610da981610d6d565b9050919050565b600081905092915050565b6000610dc682610aeb565b610dd08185610db0565b9350610de0818560208601610b07565b80840191505092915050565b60008160601b9050919050565b6000610e0482610dec565b9050919050565b6000610e1682610df9565b9050919050565b610e2e610e2982610861565b610e0b565b82525050565b6000610e408285610dbb565b9150610e4c8284610e1d565b6014820191508190509392505050565b6000610e688284610dbb565b915081905092915050565b7f46756e6374696f6e2063616c6c206e6f74207375636365737366756c00000000600082015250565b6000610ea9601c83610d0d565b9150610eb482610e73565b602082019050919050565b60006020820190508181036000830152610ed881610e9c565b9050919050565b610ee881610861565b82525050565b6000610ef982610841565b9050919050565b610f0981610eee565b82525050565b6000606082019050610f246000830186610edf565b610f316020830185610f00565b8181036040830152610f438184610b31565b9050949350505050565b6000819050919050565b610f68610f6382610bb9565b610f4d565b82525050565b6000819050919050565b6000610f93610f8e610f8984610841565b610f6e565b610841565b9050919050565b6000610fa582610f78565b9050919050565b6000610fb782610f9a565b9050919050565b610fcf610fca82610fac565b610e0b565b82525050565b6000610fe18287610f57565b602082019150610ff18286610fbe565b6014820191506110018285610f57565b6020820191506110118284610dbb565b915081905095945050505050565b611028816109e5565b82525050565b61103781610a1b565b82525050565b6000608082019050611052600083018761101f565b61105f602083018661102e565b61106c604083018561101f565b611079606083018461101f565b95945050505050565b7f496e76616c6964207369676e6174757265000000000000000000000000000000600082015250565b60006110b8601183610d0d565b91506110c382611082565b602082019050919050565b600060208201905081810360008301526110e7816110ab565b9050919050565b7f4e487b7100000000000000000000000000000000000000000000000000000000600052601160045260246000fd5b600061112882610bb9565b915061113383610bb9565b925082820190508082111561114b5761114a6110ee565b5b92915050565b600081905092915050565b7f19457468657265756d205369676e6564204d6573736167653a0a333200000000600082015250565b6000611192601c83611151565b915061119d8261115c565b601c82019050919050565b6000819050919050565b6111c36111be826109e5565b6111a8565b82525050565b60006111d482611185565b91506111e082846111b2565b6020820191508190509291505056fea2646970667358221220ab974484b85991f9d0bfcbdcc1f904eb574828ff02c7e936d0c2e8d5ae82bd3d64736f6c63430008120033",
  "linkReferences": {},
  "deployedLinkReferences": {}
}