{
  "_format": "hh-sol-artifact-1",
  "contractName": "OwnedUpgradeabilityProxy",
  "sourceName": "contracts/OwnedUpgradeableProxy.sol",
  "abi": [
    {
      "inputs": [],
      "stateMutability": "nonpayable",
      "type": "constructor"
    },
    {
      "anonymous": false,
      "inputs": [
        {
          "indexed": false,
          "internalType": "address",
          "name": "previousOwner",
          "type": "address"
        },
        {
          "indexed": false,
          "internalType": "address",
          "name": "newOwner",
          "type": "address"
        }
      ],
      "name": "ProxyOwnershipTransferred",
      "type": "event"
    },
    {
      "anonymous": false,
      "inputs": [
        {
          "indexed": true,
          "internalType": "address",
          "name": "implementation",
          "type": "address"
        }
      ],
      "name": "Upgraded",
      "type": "event"
    },
    {
      "stateMutability": "payable",
      "type": "fallback"
    },
    {
      "inputs": [],
      "name": "implementation",
      "outputs": [
        {
          "internalType": "address",
          "name": "impl",
          "type": "address"
        }
      ],
      "stateMutability": "view",
      "type": "function"
    },
    {
      "inputs": [],
      "name": "maintenance",
      "outputs": [
        {
          "internalType": "bool",
          "name": "_maintenance",
          "type": "bool"
        }
      ],
      "stateMutability": "view",
      "type": "function"
    },
    {
      "inputs": [],
      "name": "proxyOwner",
      "outputs": [
        {
          "internalType": "address",
          "name": "owner",
          "type": "address"
        }
      ],
      "stateMutability": "view",
      "type": "function"
    },
    {
      "inputs": [
        {
          "internalType": "bool",
          "name": "_maintenance",
          "type": "bool"
        }
      ],
      "name": "setMaintenance",
      "outputs": [],
      "stateMutability": "nonpayable",
      "type": "function"
    },
    {
      "inputs": [
        {
          "internalType": "address",
          "name": "newOwner",
          "type": "address"
        }
      ],
      "name": "transferProxyOwnership",
      "outputs": [],
      "stateMutability": "nonpayable",
      "type": "function"
    },
    {
      "inputs": [
        {
          "internalType": "address",
          "name": "newImplementation",
          "type": "address"
        }
      ],
      "name": "upgradeTo",
      "outputs": [],
      "stateMutability": "nonpayable",
      "type": "function"
    },
    {
      "inputs": [
        {
          "internalType": "address",
          "name": "newImplementation",
          "type": "address"
        },
        {
          "internalType": "bytes",
          "name": "data",
          "type": "bytes"
        }
      ],
      "name": "upgradeToAndCall",
      "outputs": [],
      "stateMutability": "payable",
      "type": "function"
    },
    {
      "stateMutability": "payable",
      "type": "receive"
    }
  ],
  "bytecode": "0x60806040523480156200001157600080fd5b506200002e6763c6d673781655a960c01b6200007d60201b60201c565b6200004a67eb02a9bec6f1c92d60c01b6200007d60201b60201c565b6200006667a08a0a8a772c04df60c01b6200007d60201b60201c565b62000077336200008060201b60201c565b6200011c565b50565b6200009c67039993ab7feadc7c60c01b6200007d60201b60201c565b620000b8671dea32b6f0f0566f60c01b6200007d60201b60201c565b620000d46749a14db6efc92c2b60c01b6200007d60201b60201c565b60007fa840eb9e2aea75d352f044fb50af0661d0f0786ee056d03f5b1c91e7291fec9590506200011567232f3ad4e7bd726360c01b6200007d60201b60201c565b8181555050565b61158a806200012c6000396000f3fe6080604052600436106100745760003560e01c80635c60da1b1161004e5780635c60da1b1461014d578063612f2f37146101785780636c376cc5146101a1578063f1739cae146101cc57610097565b8063025313a2146100dd5780633659cfe6146101085780634f1ef2861461013157610097565b366100975761008d67215210560fc4777460c01b6101f5565b6100956101f8565b005b6100ab673f093e3cef4ca2e760c01b6101f5565b6100bf67ca1d96826efb1aff60c01b6101f5565b6100d367c6ce3e0a0092176160c01b6101f5565b6100db6101f8565b005b3480156100e957600080fd5b506100f2610462565b6040516100ff91906110b5565b60405180910390f35b34801561011457600080fd5b5061012f600480360381019061012a9190611110565b6104e1565b005b61014b60048036038101906101469190611283565b61063e565b005b34801561015957600080fd5b506101626108c3565b60405161016f91906110b5565b60405180910390f35b34801561018457600080fd5b5061019f600480360381019061019a9190611317565b610942565b005b3480156101ad57600080fd5b506101b6610ad3565b6040516101c39190611353565b60405180910390f35b3480156101d857600080fd5b506101f360048036038101906101ee9190611110565b610b52565b005b50565b61020c67189916bbabad608a60c01b6101f5565b6102206792f63ab75fb5d4e260c01b6101f5565b6102346715a011513f07fa1b60c01b6101f5565b61023c610ad3565b1561031f57610255670cc9ae76eed81a0d60c01b6101f5565b61026967949d856c1e4a526a60c01b6101f5565b61027d67a7f6dc98c106e9e160c01b6101f5565b6102916742fa34ccc69095e860c01b6101f5565b610299610462565b73ffffffffffffffffffffffffffffffffffffffff163373ffffffffffffffffffffffffffffffffffffffff1614610306576040517f08c379a00000000000000000000000000000000000000000000000000000000081526004016102fd906113f1565b60405180910390fd5b61031a673df5cc19e9ec684b60c01b6101f5565b610334565b610333675ba2ad9675c26b7d60c01b6101f5565b5b6103486787ee2506702d7a9160c01b6101f5565b61035c67ca071e2748480f9e60c01b6101f5565b60006103666108c3565b905061037c67894e75ebd630edb360c01b6101f5565b610390670363d88e8603d48260c01b6101f5565b6103a467b2f7545ca7e6870d60c01b6101f5565b600073ffffffffffffffffffffffffffffffffffffffff168173ffffffffffffffffffffffffffffffffffffffff1603610413576040517f08c379a000000000000000000000000000000000000000000000000000000000815260040161040a90611483565b60405180910390fd5b610427677852a2dc24352c1b60c01b6101f5565b61043b678144da87fdd72aa560c01b6101f5565b60405136600082376000803683855af43d806000843e816000811461045e578184f35b8184fd5b6000610478673eeafe8ecf22eb4260c01b6101f5565b61048c67e0aaeeb2be55e60160c01b6101f5565b6104a067e1d8894d31695c0360c01b6101f5565b60007fa840eb9e2aea75d352f044fb50af0661d0f0786ee056d03f5b1c91e7291fec9590506104d9672708e6eeb365a79860c01b6101f5565b805491505090565b6104f56722828deca5f267df60c01b6101f5565b6105096709de52b5db2a7dc660c01b6101f5565b61051d678f255373b0bc4fbd60c01b6101f5565b61053167f00c0e48eb0c84ca60c01b6101f5565b61054567cbcd4f5a6683bdbf60c01b6101f5565b61054d610462565b73ffffffffffffffffffffffffffffffffffffffff163373ffffffffffffffffffffffffffffffffffffffff16146105ba576040517f08c379a00000000000000000000000000000000000000000000000000000000081526004016105b1906113f1565b60405180910390fd5b6105ce676492ae4d3e1a0e6a60c01b6101f5565b6105e267ff9c96546047b8a060c01b6101f5565b6105f66734a76ed027bec35760c01b6101f5565b61060a6712ede752aaa15c4660c01b6101f5565b61061e67fe45642a80adb23160c01b6101f5565b6106326749803e7d725f580d60c01b6101f5565b61063b81610dd6565b50565b61065267ba725468e97c44a360c01b6101f5565b6106666709de52b5db2a7dc660c01b6101f5565b61067a678f255373b0bc4fbd60c01b6101f5565b61068e67f00c0e48eb0c84ca60c01b6101f5565b6106a267cbcd4f5a6683bdbf60c01b6101f5565b6106aa610462565b73ffffffffffffffffffffffffffffffffffffffff163373ffffffffffffffffffffffffffffffffffffffff1614610717576040517f08c379a000000000000000000000000000000000000000000000000000000000815260040161070e906113f1565b60405180910390fd5b61072b676492ae4d3e1a0e6a60c01b6101f5565b61073f67ff9c96546047b8a060c01b6101f5565b6107536768d1808bff95474b60c01b6101f5565b61076767ced49e2044789dbb60c01b6101f5565b61077b67ce574429dd773a9960c01b6101f5565b61078f67cffcbe42354ef5a860c01b6101f5565b610798826104e1565b6107ac6770e7e7f3d443700c60c01b6101f5565b6107c067066eaf6be141ebbf60c01b6101f5565b60003073ffffffffffffffffffffffffffffffffffffffff1634836040516107e89190611514565b60006040518083038185875af1925050503d8060008114610825576040519150601f19603f3d011682016040523d82523d6000602084013e61082a565b606091505b50509050610842672feadbe42bf6d7ec60c01b6101f5565b610856674e687907e523953360c01b6101f5565b61086a67b2cd0a9d92eeeb5360c01b6101f5565b806108aa576040517f08c379a00000000000000000000000000000000000000000000000000000000081526004016108a190611483565b60405180910390fd5b6108be677abcab788890d40060c01b6101f5565b505050565b60006108d9676ca04d7f908cd3b160c01b6101f5565b6108ed670bba0a526039709460c01b6101f5565b6109016781aec2aa85202e0360c01b6101f5565b60007f025beaa34bebd480d4e804fc571f1ecd9f6ac6bb44fd53bd8d562fc09c3b11c7905061093a67646a7da925d51b5360c01b6101f5565b805491505090565b6109566722be9a6a677ba82560c01b6101f5565b61096a6709de52b5db2a7dc660c01b6101f5565b61097e678f255373b0bc4fbd60c01b6101f5565b61099267f00c0e48eb0c84ca60c01b6101f5565b6109a667cbcd4f5a6683bdbf60c01b6101f5565b6109ae610462565b73ffffffffffffffffffffffffffffffffffffffff163373ffffffffffffffffffffffffffffffffffffffff1614610a1b576040517f08c379a0000000000000000000000000000000000000000000000000000000008152600401610a12906113f1565b60405180910390fd5b610a2f676492ae4d3e1a0e6a60c01b6101f5565b610a4367ff9c96546047b8a060c01b6101f5565b610a57672562e53728807ea960c01b6101f5565b610a6b67144f0a35aa64f88c60c01b6101f5565b610a7f67e0601320486e0e7660c01b6101f5565b610a93678899bded13fc1b2c60c01b6101f5565b60007fb1c4bee93542b24b1b443bd7eb1f26034cc7331cdcfc4a7ffc786ae1b6928f819050610acc67b469157de1d8035f60c01b6101f5565b8181555050565b6000610ae9671863a4c49904666d60c01b6101f5565b610afd6798428d2c865f81fa60c01b6101f5565b610b1167c3b080f4d3e99ac860c01b6101f5565b60007fb1c4bee93542b24b1b443bd7eb1f26034cc7331cdcfc4a7ffc786ae1b6928f819050610b4a678143349b09062c9760c01b6101f5565b805491505090565b610b6667f11c058b79b9698060c01b6101f5565b610b7a6709de52b5db2a7dc660c01b6101f5565b610b8e678f255373b0bc4fbd60c01b6101f5565b610ba267f00c0e48eb0c84ca60c01b6101f5565b610bb667cbcd4f5a6683bdbf60c01b6101f5565b610bbe610462565b73ffffffffffffffffffffffffffffffffffffffff163373ffffffffffffffffffffffffffffffffffffffff1614610c2b576040517f08c379a0000000000000000000000000000000000000000000000000000000008152600401610c22906113f1565b60405180910390fd5b610c3f676492ae4d3e1a0e6a60c01b6101f5565b610c5367ff9c96546047b8a060c01b6101f5565b610c6767b7ed8c5372db2b7a60c01b6101f5565b610c7b67bdc5bccb91f0008a60c01b6101f5565b610c8f675df6245b52b5d5b760c01b6101f5565b610ca3670c84fd280e4c2cde60c01b6101f5565b610cb767e23650fe6b86d20960c01b6101f5565b600073ffffffffffffffffffffffffffffffffffffffff168173ffffffffffffffffffffffffffffffffffffffff1603610d26576040517f08c379a0000000000000000000000000000000000000000000000000000000008152600401610d1d90611483565b60405180910390fd5b610d3a67aa979c6665b169fb60c01b6101f5565b610d4e67bbd61bd8d591eee260c01b6101f5565b610d62675d0e2fd0c7eb7be760c01b6101f5565b7f5a3e66efaa1e445ebd894728a69d6959842ea1e97bd79b892797106e270efcd9610d8b610462565b82604051610d9a92919061152b565b60405180910390a1610db6678d1326cf71c166cf60c01b6101f5565b610dca67722aa2ce7b00f7b860c01b6101f5565b610dd381610f7c565b50565b610dea677930f754ccfd872e60c01b6101f5565b610dfe67f890474efdcb810660c01b6101f5565b610e12673de1bef6e6a7823160c01b6101f5565b6000610e1c6108c3565b9050610e326756ec33eb7098342b60c01b6101f5565b610e4667efcb35f114d60fef60c01b6101f5565b610e5a672a77d596d6a30b8060c01b6101f5565b8173ffffffffffffffffffffffffffffffffffffffff168173ffffffffffffffffffffffffffffffffffffffff1603610ec8576040517f08c379a0000000000000000000000000000000000000000000000000000000008152600401610ebf90611483565b60405180910390fd5b610edc67219f3010ad7b447e60c01b6101f5565b610ef0673da3d5840555529360c01b6101f5565b610f046772b0b468b1ac5ee660c01b6101f5565b610f0d82610ff8565b610f216741bc7526f43ba26760c01b6101f5565b610f356740e85790988d567c60c01b6101f5565b8173ffffffffffffffffffffffffffffffffffffffff167fbc7cd75a20ee27fd9adebab32041f755214dbc6bffa90cc0225b39da2e5c2d3b60405160405180910390a25050565b610f9067039993ab7feadc7c60c01b6101f5565b610fa4671dea32b6f0f0566f60c01b6101f5565b610fb86749a14db6efc92c2b60c01b6101f5565b60007fa840eb9e2aea75d352f044fb50af0661d0f0786ee056d03f5b1c91e7291fec959050610ff167232f3ad4e7bd726360c01b6101f5565b8181555050565b61100c67d86e1526ca49f90b60c01b6101f5565b61102067a10f2988aaa27f0660c01b6101f5565b611034678ceb7180b9639cda60c01b6101f5565b60007f025beaa34bebd480d4e804fc571f1ecd9f6ac6bb44fd53bd8d562fc09c3b11c7905061106d67a13f0557236d365960c01b6101f5565b8181555050565b600073ffffffffffffffffffffffffffffffffffffffff82169050919050565b600061109f82611074565b9050919050565b6110af81611094565b82525050565b60006020820190506110ca60008301846110a6565b92915050565b6000604051905090565b600080fd5b600080fd5b6110ed81611094565b81146110f857600080fd5b50565b60008135905061110a816110e4565b92915050565b600060208284031215611126576111256110da565b5b6000611134848285016110fb565b91505092915050565b600080fd5b600080fd5b6000601f19601f8301169050919050565b7f4e487b7100000000000000000000000000000000000000000000000000000000600052604160045260246000fd5b61119082611147565b810181811067ffffffffffffffff821117156111af576111ae611158565b5b80604052505050565b60006111c26110d0565b90506111ce8282611187565b919050565b600067ffffffffffffffff8211156111ee576111ed611158565b5b6111f782611147565b9050602081019050919050565b82818337600083830152505050565b6000611226611221846111d3565b6111b8565b90508281526020810184848401111561124257611241611142565b5b61124d848285611204565b509392505050565b600082601f83011261126a5761126961113d565b5b813561127a848260208601611213565b91505092915050565b6000806040838503121561129a576112996110da565b5b60006112a8858286016110fb565b925050602083013567ffffffffffffffff8111156112c9576112c86110df565b5b6112d585828601611255565b9150509250929050565b60008115159050919050565b6112f4816112df565b81146112ff57600080fd5b50565b600081359050611311816112eb565b92915050565b60006020828403121561132d5761132c6110da565b5b600061133b84828501611302565b91505092915050565b61134d816112df565b82525050565b60006020820190506113686000830184611344565b92915050565b600082825260208201905092915050565b7f4f776e6564557067726164656162696c69747950726f78793a20464f5242494460008201527f44454e0000000000000000000000000000000000000000000000000000000000602082015250565b60006113db60238361136e565b91506113e68261137f565b604082019050919050565b6000602082019050818103600083015261140a816113ce565b9050919050565b7f4f776e6564557067726164656162696c69747950726f78793a20494e56414c4960008201527f4400000000000000000000000000000000000000000000000000000000000000602082015250565b600061146d60218361136e565b915061147882611411565b604082019050919050565b6000602082019050818103600083015261149c81611460565b9050919050565b600081519050919050565b600081905092915050565b60005b838110156114d75780820151818401526020810190506114bc565b60008484015250505050565b60006114ee826114a3565b6114f881856114ae565b93506115088185602086016114b9565b80840191505092915050565b600061152082846114e3565b915081905092915050565b600060408201905061154060008301856110a6565b61154d60208301846110a6565b939250505056fea2646970667358221220c9d75048a2cefea8e297c66e04a2ed99fc46e7f3bc4889584fae2a79068dc39a64736f6c63430008120033",
  "linkReferences": {},
  "deployedLinkReferences": {}
}