{
  "_format": "hh-sol-artifact-1",
  "contractName": "Finay",
  "sourceName": "contracts/finayNFT.sol",
  "abi": [
    {
      "inputs": [
        {
          "internalType": "address",
          "name": "_caller",
          "type": "address"
        },
        {
          "internalType": "address",
          "name": "_validCaller",
          "type": "address"
        }
      ],
      "name": "invalidCaller",
      "type": "error"
    },
    {
      "inputs": [
        {
          "internalType": "address",
          "name": "_caller",
          "type": "address"
        },
        {
          "internalType": "bool",
          "name": "_isAdmin",
          "type": "bool"
        }
      ],
      "name": "notSubAdmin",
      "type": "error"
    },
    {
      "inputs": [
        {
          "internalType": "address",
          "name": "_caller",
          "type": "address"
        },
        {
          "internalType": "address",
          "name": "_superAdmin",
          "type": "address"
        }
      ],
      "name": "notSuperAdmin",
      "type": "error"
    },
    {
      "anonymous": false,
      "inputs": [
        {
          "indexed": true,
          "internalType": "address",
          "name": "account",
          "type": "address"
        },
        {
          "indexed": true,
          "internalType": "address",
          "name": "operator",
          "type": "address"
        },
        {
          "indexed": false,
          "internalType": "bool",
          "name": "approved",
          "type": "bool"
        }
      ],
      "name": "ApprovalForAll",
      "type": "event"
    },
    {
      "anonymous": false,
      "inputs": [
        {
          "indexed": false,
          "internalType": "uint8",
          "name": "version",
          "type": "uint8"
        }
      ],
      "name": "Initialized",
      "type": "event"
    },
    {
      "anonymous": false,
      "inputs": [
        {
          "indexed": false,
          "internalType": "uint256",
          "name": "_tokenId",
          "type": "uint256"
        },
        {
          "indexed": false,
          "internalType": "uint256",
          "name": "_amount",
          "type": "uint256"
        },
        {
          "indexed": false,
          "internalType": "address",
          "name": "_buyer",
          "type": "address"
        }
      ],
      "name": "LazyMint",
      "type": "event"
    },
    {
      "anonymous": false,
      "inputs": [
        {
          "indexed": true,
          "internalType": "address",
          "name": "operator",
          "type": "address"
        },
        {
          "indexed": true,
          "internalType": "address",
          "name": "from",
          "type": "address"
        },
        {
          "indexed": true,
          "internalType": "address",
          "name": "to",
          "type": "address"
        },
        {
          "indexed": false,
          "internalType": "uint256[]",
          "name": "ids",
          "type": "uint256[]"
        },
        {
          "indexed": false,
          "internalType": "uint256[]",
          "name": "values",
          "type": "uint256[]"
        }
      ],
      "name": "TransferBatch",
      "type": "event"
    },
    {
      "anonymous": false,
      "inputs": [
        {
          "indexed": true,
          "internalType": "address",
          "name": "operator",
          "type": "address"
        },
        {
          "indexed": true,
          "internalType": "address",
          "name": "from",
          "type": "address"
        },
        {
          "indexed": true,
          "internalType": "address",
          "name": "to",
          "type": "address"
        },
        {
          "indexed": false,
          "internalType": "uint256",
          "name": "id",
          "type": "uint256"
        },
        {
          "indexed": false,
          "internalType": "uint256",
          "name": "value",
          "type": "uint256"
        }
      ],
      "name": "TransferSingle",
      "type": "event"
    },
    {
      "anonymous": false,
      "inputs": [
        {
          "indexed": false,
          "internalType": "string",
          "name": "value",
          "type": "string"
        },
        {
          "indexed": true,
          "internalType": "uint256",
          "name": "id",
          "type": "uint256"
        }
      ],
      "name": "URI",
      "type": "event"
    },
    {
      "inputs": [
        {
          "internalType": "address",
          "name": "_admin",
          "type": "address"
        }
      ],
      "name": "assignAdmin",
      "outputs": [],
      "stateMutability": "nonpayable",
      "type": "function"
    },
    {
      "inputs": [
        {
          "internalType": "address",
          "name": "account",
          "type": "address"
        },
        {
          "internalType": "uint256",
          "name": "id",
          "type": "uint256"
        }
      ],
      "name": "balanceOf",
      "outputs": [
        {
          "internalType": "uint256",
          "name": "",
          "type": "uint256"
        }
      ],
      "stateMutability": "view",
      "type": "function"
    },
    {
      "inputs": [
        {
          "internalType": "address[]",
          "name": "accounts",
          "type": "address[]"
        },
        {
          "internalType": "uint256[]",
          "name": "ids",
          "type": "uint256[]"
        }
      ],
      "name": "balanceOfBatch",
      "outputs": [
        {
          "internalType": "uint256[]",
          "name": "",
          "type": "uint256[]"
        }
      ],
      "stateMutability": "view",
      "type": "function"
    },
    {
      "inputs": [
        {
          "internalType": "string",
          "name": "__uri",
          "type": "string"
        },
        {
          "internalType": "address",
          "name": "_marketplace",
          "type": "address"
        },
        {
          "internalType": "address",
          "name": "_admin",
          "type": "address"
        }
      ],
      "name": "initialize",
      "outputs": [],
      "stateMutability": "nonpayable",
      "type": "function"
    },
    {
      "inputs": [
        {
          "internalType": "address",
          "name": "account",
          "type": "address"
        },
        {
          "internalType": "address",
          "name": "operator",
          "type": "address"
        }
      ],
      "name": "isApprovedForAll",
      "outputs": [
        {
          "internalType": "bool",
          "name": "",
          "type": "bool"
        }
      ],
      "stateMutability": "view",
      "type": "function"
    },
    {
      "inputs": [
        {
          "internalType": "address",
          "name": "",
          "type": "address"
        }
      ],
      "name": "isSubAdmin",
      "outputs": [
        {
          "internalType": "bool",
          "name": "",
          "type": "bool"
        }
      ],
      "stateMutability": "view",
      "type": "function"
    },
    {
      "inputs": [
        {
          "internalType": "uint256",
          "name": "_tokenId",
          "type": "uint256"
        },
        {
          "internalType": "uint256",
          "name": "_amount",
          "type": "uint256"
        },
        {
          "internalType": "address",
          "name": "_seller",
          "type": "address"
        },
        {
          "internalType": "address",
          "name": "_buyer",
          "type": "address"
        },
        {
          "internalType": "uint96",
          "name": "_royaltyfee",
          "type": "uint96"
        },
        {
          "internalType": "string",
          "name": "_tokenuri",
          "type": "string"
        }
      ],
      "name": "lazyMint",
      "outputs": [],
      "stateMutability": "nonpayable",
      "type": "function"
    },
    {
      "inputs": [],
      "name": "marketplace",
      "outputs": [
        {
          "internalType": "address",
          "name": "",
          "type": "address"
        }
      ],
      "stateMutability": "view",
      "type": "function"
    },
    {
      "inputs": [
        {
          "internalType": "address",
          "name": "_admin",
          "type": "address"
        }
      ],
      "name": "removeAdmin",
      "outputs": [],
      "stateMutability": "nonpayable",
      "type": "function"
    },
    {
      "inputs": [
        {
          "internalType": "uint256",
          "name": "tokenId",
          "type": "uint256"
        },
        {
          "internalType": "uint256",
          "name": "salePrice",
          "type": "uint256"
        }
      ],
      "name": "royaltyInfo",
      "outputs": [
        {
          "internalType": "address",
          "name": "",
          "type": "address"
        },
        {
          "internalType": "uint256",
          "name": "",
          "type": "uint256"
        }
      ],
      "stateMutability": "view",
      "type": "function"
    },
    {
      "inputs": [
        {
          "internalType": "address",
          "name": "from",
          "type": "address"
        },
        {
          "internalType": "address",
          "name": "to",
          "type": "address"
        },
        {
          "internalType": "uint256[]",
          "name": "ids",
          "type": "uint256[]"
        },
        {
          "internalType": "uint256[]",
          "name": "amounts",
          "type": "uint256[]"
        },
        {
          "internalType": "bytes",
          "name": "data",
          "type": "bytes"
        }
      ],
      "name": "safeBatchTransferFrom",
      "outputs": [],
      "stateMutability": "nonpayable",
      "type": "function"
    },
    {
      "inputs": [
        {
          "internalType": "address",
          "name": "recipient",
          "type": "address"
        },
        {
          "internalType": "uint256",
          "name": "id",
          "type": "uint256"
        },
        {
          "internalType": "uint256",
          "name": "amount",
          "type": "uint256"
        },
        {
          "internalType": "bytes",
          "name": "data",
          "type": "bytes"
        }
      ],
      "name": "safeMint",
      "outputs": [],
      "stateMutability": "nonpayable",
      "type": "function"
    },
    {
      "inputs": [
        {
          "internalType": "address",
          "name": "from",
          "type": "address"
        },
        {
          "internalType": "address",
          "name": "to",
          "type": "address"
        },
        {
          "internalType": "uint256",
          "name": "id",
          "type": "uint256"
        },
        {
          "internalType": "uint256",
          "name": "amount",
          "type": "uint256"
        },
        {
          "internalType": "bytes",
          "name": "data",
          "type": "bytes"
        }
      ],
      "name": "safeTransferFrom",
      "outputs": [],
      "stateMutability": "nonpayable",
      "type": "function"
    },
    {
      "inputs": [
        {
          "internalType": "address",
          "name": "operator",
          "type": "address"
        },
        {
          "internalType": "bool",
          "name": "approved",
          "type": "bool"
        }
      ],
      "name": "setApprovalForAll",
      "outputs": [],
      "stateMutability": "nonpayable",
      "type": "function"
    },
    {
      "inputs": [],
      "name": "superAdmin",
      "outputs": [
        {
          "internalType": "address",
          "name": "",
          "type": "address"
        }
      ],
      "stateMutability": "view",
      "type": "function"
    },
    {
      "inputs": [
        {
          "internalType": "bytes4",
          "name": "interfaceId",
          "type": "bytes4"
        }
      ],
      "name": "supportsInterface",
      "outputs": [
        {
          "internalType": "bool",
          "name": "",
          "type": "bool"
        }
      ],
      "stateMutability": "view",
      "type": "function"
    },
    {
      "inputs": [
        {
          "internalType": "uint256",
          "name": "",
          "type": "uint256"
        }
      ],
      "name": "tokenMinted",
      "outputs": [
        {
          "internalType": "uint256",
          "name": "",
          "type": "uint256"
        }
      ],
      "stateMutability": "view",
      "type": "function"
    },
    {
      "inputs": [
        {
          "internalType": "address",
          "name": "_admin",
          "type": "address"
        }
      ],
      "name": "updateAdmin",
      "outputs": [],
      "stateMutability": "nonpayable",
      "type": "function"
    },
    {
      "inputs": [
        {
          "internalType": "address",
          "name": "_newMarketplace",
          "type": "address"
        }
      ],
      "name": "updateMarketplace",
      "outputs": [],
      "stateMutability": "nonpayable",
      "type": "function"
    },
    {
      "inputs": [
        {
          "internalType": "uint256",
          "name": "",
          "type": "uint256"
        }
      ],
      "name": "uri",
      "outputs": [
        {
          "internalType": "string",
          "name": "",
          "type": "string"
        }
      ],
      "stateMutability": "view",
      "type": "function"
    }
  ],
  "bytecode": "0x608060405234801561001057600080fd5b50614b49806100206000396000f3fe608060405234801561001057600080fd5b506004361061012b5760003560e01c80635cfa9297116100ad578063e2f273bd11610071578063e2f273bd14610351578063e985e9c51461036d578063eb6363171461039d578063f242432a146103b9578063ff4078d3146103d55761012b565b80635cfa9297146102af57806391ef38ba146102cb578063a22cb465146102e7578063abc8c7af14610303578063d1c63b21146103215761012b565b80632a55205a116100f45780632a55205a146101fa5780632eb2c2d61461022b5780633da7d2ed14610247578063463fd1af146102635780634e1273f41461027f5761012b565b8062fdd58e1461013057806301ffc9a7146101605780630e89341c146101905780631785f53c146101c057806329575f6a146101dc575b600080fd5b61014a60048036038101906101459190612fce565b610405565b604051610157919061301d565b60405180910390f35b61017a60048036038101906101759190613090565b6104ce565b60405161018791906130d8565b60405180910390f35b6101aa60048036038101906101a591906130f3565b6105bc565b6040516101b791906131b0565b60405180910390f35b6101da60048036038101906101d591906131d2565b61068d565b005b6101e461087d565b6040516101f1919061320e565b60405180910390f35b610214600480360381019061020f9190613229565b6108a4565b604051610222929190613269565b60405180910390f35b6102456004803603810190610240919061348f565b610a8e565b005b610261600480360381019061025c91906131d2565b610b2f565b005b61027d600480360381019061027891906135ff565b610d1f565b005b61029960048036038101906102949190613731565b61100e565b6040516102a69190613867565b60405180910390f35b6102c960048036038101906102c49190613889565b611127565b005b6102e560048036038101906102e09190613950565b611320565b005b61030160048036038101906102fc9190613a25565b611729565b005b61030b61173f565b604051610318919061320e565b60405180910390f35b61033b600480360381019061033691906131d2565b611766565b60405161034891906130d8565b60405180910390f35b61036b600480360381019061036691906131d2565b611787565b005b61038760048036038101906103829190613a65565b611960565b60405161039491906130d8565b60405180910390f35b6103b760048036038101906103b291906131d2565b6119f4565b005b6103d360048036038101906103ce9190613aa5565b611bcd565b005b6103ef60048036038101906103ea91906130f3565b611c6e565b6040516103fc919061301d565b60405180910390f35b60008073ffffffffffffffffffffffffffffffffffffffff168373ffffffffffffffffffffffffffffffffffffffff1603610475576040517f08c379a000000000000000000000000000000000000000000000000000000000815260040161046c90613bae565b60405180910390fd5b6065600083815260200190815260200160002060008473ffffffffffffffffffffffffffffffffffffffff1673ffffffffffffffffffffffffffffffffffffffff16815260200190815260200160002054905092915050565b60006104e4677a104c73dae3861160c01b611c87565b6104f8678e6cbe8104d934aa60c01b611c87565b61050c678fc3b884d9c6e2c060c01b611c87565b7f2a55205a000000000000000000000000000000000000000000000000000000007bffffffffffffffffffffffffffffffffffffffffffffffffffffffff1916827bffffffffffffffffffffffffffffffffffffffffffffffffffffffff1916148015610589575061058867861e973761c73fd960c01b611c8a565b5b806105b5575061059882611c95565b80156105b457506105b36739e91cb7183cce6e60c01b611c8a565b5b5b9050919050565b60606105d2674fe5dade1393c66f60c01b611c87565b6105e6670a2f5a34e01df3bd60c01b611c87565b6105fa67a3abe07f927e06cb60c01b611c87565b61012f805461060890613bfd565b80601f016020809104026020016040519081016040528092919081815260200182805461063490613bfd565b80156106815780601f1061065657610100808354040283529160200191610681565b820191906000526020600020905b81548152906001019060200180831161066457829003601f168201915b50505050509050919050565b6106a167767c5818eb990d1660c01b611c87565b6106b56747df6132c3c1b67060c01b611c87565b6106c9679f72ff67dc7bc51460c01b611c87565b6106dd6709f9c27857ffb4d160c01b611c87565b61012d60009054906101000a900473ffffffffffffffffffffffffffffffffffffffff1673ffffffffffffffffffffffffffffffffffffffff163373ffffffffffffffffffffffffffffffffffffffff16146107bd5761074767268b32dc1840444f60c01b611c87565b61075b6725441561d542e16a60c01b611c87565b3361012d60009054906101000a900473ffffffffffffffffffffffffffffffffffffffff166040517fe0c0b6090000000000000000000000000000000000000000000000000000000081526004016107b4929190613c2e565b60405180910390fd5b6107d167d2a00f199532c97260c01b611c87565b6107e5674ee9735d3ed5a2eb60c01b611c87565b6107f9677b5f98f1cf8cbfeb60c01b611c87565b61080d677a464d14e22b704060c01b611c87565b6108216791c44eb834f0337d60c01b611c87565b600061013060008373ffffffffffffffffffffffffffffffffffffffff1673ffffffffffffffffffffffffffffffffffffffff16815260200190815260200160002060006101000a81548160ff02191690831515021790555050565b61012d60009054906101000a900473ffffffffffffffffffffffffffffffffffffffff1681565b600080600060ca60008681526020019081526020016000206040518060400160405290816000820160009054906101000a900473ffffffffffffffffffffffffffffffffffffffff1673ffffffffffffffffffffffffffffffffffffffff1673ffffffffffffffffffffffffffffffffffffffff1681526020016000820160149054906101000a90046bffffffffffffffffffffffff166bffffffffffffffffffffffff166bffffffffffffffffffffffff16815250509050600073ffffffffffffffffffffffffffffffffffffffff16816000015173ffffffffffffffffffffffffffffffffffffffff1603610a395760c96040518060400160405290816000820160009054906101000a900473ffffffffffffffffffffffffffffffffffffffff1673ffffffffffffffffffffffffffffffffffffffff1673ffffffffffffffffffffffffffffffffffffffff1681526020016000820160149054906101000a90046bffffffffffffffffffffffff166bffffffffffffffffffffffff166bffffffffffffffffffffffff168152505090505b6000610a43611d0f565b6bffffffffffffffffffffffff1682602001516bffffffffffffffffffffffff1686610a6f9190613c86565b610a799190613cf7565b90508160000151819350935050509250929050565b610a96611d19565b73ffffffffffffffffffffffffffffffffffffffff168573ffffffffffffffffffffffffffffffffffffffff161480610adc5750610adb85610ad6611d19565b611960565b5b610b1b576040517f08c379a0000000000000000000000000000000000000000000000000000000008152600401610b1290613d9a565b60405180910390fd5b610b288585858585611d21565b5050505050565b610b4367bfbfb663a44745b760c01b611c87565b610b576747df6132c3c1b67060c01b611c87565b610b6b679f72ff67dc7bc51460c01b611c87565b610b7f6709f9c27857ffb4d160c01b611c87565b61012d60009054906101000a900473ffffffffffffffffffffffffffffffffffffffff1673ffffffffffffffffffffffffffffffffffffffff163373ffffffffffffffffffffffffffffffffffffffff1614610c5f57610be967268b32dc1840444f60c01b611c87565b610bfd6725441561d542e16a60c01b611c87565b3361012d60009054906101000a900473ffffffffffffffffffffffffffffffffffffffff166040517fe0c0b609000000000000000000000000000000000000000000000000000000008152600401610c56929190613c2e565b60405180910390fd5b610c7367d2a00f199532c97260c01b611c87565b610c87674ee9735d3ed5a2eb60c01b611c87565b610c9b670f7743c677c5c07e60c01b611c87565b610caf67719fb2ae854ec58a60c01b611c87565b610cc367653efdf67b20a97660c01b611c87565b600161013060008373ffffffffffffffffffffffffffffffffffffffff1673ffffffffffffffffffffffffffffffffffffffff16815260200190815260200160002060006101000a81548160ff02191690831515021790555050565b610d3367cdc8de602ffdde2e60c01b611c87565b60008060019054906101000a900460ff16159050808015610d645750600160008054906101000a900460ff1660ff16105b80610d915750610d7330612045565b158015610d905750600160008054906101000a900460ff1660ff16145b5b610dd0576040517f08c379a0000000000000000000000000000000000000000000000000000000008152600401610dc790613e2c565b60405180910390fd5b60016000806101000a81548160ff021916908360ff1602179055508015610e0d576001600060016101000a81548160ff0219169083151502179055505b610e216722f2fd41d970e4b560c01b611c87565b610e356773346d1b1404e52760c01b611c87565b610e49673805513a98fe2d6560c01b611c87565b610e5d676b762add1a8a902260c01b611c87565b610e6684612068565b610e7a67817e847acd9c8a9760c01b611c87565b610e8e67f4d462ab0f8367b160c01b611c87565b610e966120c3565b610eaa67c64f34c7b704f7d360c01b611c87565b8261012e60006101000a81548173ffffffffffffffffffffffffffffffffffffffff021916908373ffffffffffffffffffffffffffffffffffffffff160217905550610f00673f35e56f75ac4d3460c01b611c87565b8161012d60006101000a81548173ffffffffffffffffffffffffffffffffffffffff021916908373ffffffffffffffffffffffffffffffffffffffff160217905550610f5667d6af2feb4e41b28460c01b611c87565b600161013060008473ffffffffffffffffffffffffffffffffffffffff1673ffffffffffffffffffffffffffffffffffffffff16815260200190815260200160002060006101000a81548160ff02191690831515021790555080156110085760008060016101000a81548160ff0219169083151502179055507f7f26b83ff96e1f2b6a682f133852f6798a09c465da95921460cefb38474024986001604051610fff9190613e9e565b60405180910390a15b50505050565b60608151835114611054576040517f08c379a000000000000000000000000000000000000000000000000000000000815260040161104b90613f2b565b60405180910390fd5b6000835167ffffffffffffffff81111561107157611070613297565b5b60405190808252806020026020018201604052801561109f5781602001602082028036833780820191505090505b50905060005b845181101561111c576110ec8582815181106110c4576110c3613f4b565b5b60200260200101518583815181106110df576110de613f4b565b5b6020026020010151610405565b8282815181106110ff576110fe613f4b565b5b6020026020010181815250508061111590613f7a565b90506110a5565b508091505092915050565b61113b6747011ce5655f718760c01b611c87565b61114f6747df6132c3c1b67060c01b611c87565b611163679f72ff67dc7bc51460c01b611c87565b6111776709f9c27857ffb4d160c01b611c87565b61012d60009054906101000a900473ffffffffffffffffffffffffffffffffffffffff1673ffffffffffffffffffffffffffffffffffffffff163373ffffffffffffffffffffffffffffffffffffffff1614611257576111e167268b32dc1840444f60c01b611c87565b6111f56725441561d542e16a60c01b611c87565b3361012d60009054906101000a900473ffffffffffffffffffffffffffffffffffffffff166040517fe0c0b60900000000000000000000000000000000000000000000000000000000815260040161124e929190613c2e565b60405180910390fd5b61126b67d2a00f199532c97260c01b611c87565b61127f674ee9735d3ed5a2eb60c01b611c87565b6112936778c64bd0b35c56ba60c01b611c87565b6112a767b8dd36a18266567d60c01b611c87565b6112bb67ab4a7076f5cd581660c01b611c87565b81610131600085815260200190815260200160002060008282546112df9190613fc2565b925050819055506112fa6726bd6a2016ee3d2660c01b611c87565b61130e679c7374f724d74e3e60c01b611c87565b61131a84848484612114565b50505050565b61133467ef6b9fe87a26c25060c01b611c87565b61133c6122c5565b611350679190d255ebdefa7b60c01b611c87565b61136467e6482e1d4ecc35c660c01b611c87565b611378670fa42d33e7f3446c60c01b611c87565b61138c678967037d21206c1c60c01b611c87565b61012e60009054906101000a900473ffffffffffffffffffffffffffffffffffffffff1673ffffffffffffffffffffffffffffffffffffffff163373ffffffffffffffffffffffffffffffffffffffff161415801561143a575061012d60009054906101000a900473ffffffffffffffffffffffffffffffffffffffff1673ffffffffffffffffffffffffffffffffffffffff163373ffffffffffffffffffffffffffffffffffffffff1614155b156114c95761145367e715339292cb23f960c01b611c87565b6114676717756ab500af4fe860c01b611c87565b3361012e60009054906101000a900473ffffffffffffffffffffffffffffffffffffffff166040517f262b5da70000000000000000000000000000000000000000000000000000000081526004016114c0929190613c2e565b60405180910390fd5b6114dd67586305395899dd7a60c01b611c87565b6114f1675dafbea666e3c3af60c01b611c87565b6115056743c82fd923ddbebf60c01b611c87565b61152084878760405180602001604052806000815250612114565b6115346772d176a4415e661c60c01b611c87565b6115486704c3bec50238c18660c01b611c87565b611553868584612314565b61156767704d9a676796700f60c01b611c87565b61157b675714d6aa98d6c5d060c01b611c87565b61158586826124bb565b6115996730de22e991a27bc860c01b611c87565b6115ad67653628726f8ffb0960c01b611c87565b6115dc8461012e60009054906101000a900473ffffffffffffffffffffffffffffffffffffffff166001612520565b6115f067cdc2f7bf97840ecf60c01b611c87565b84610131600088815260200190815260200160002060008282546116149190613fc2565b9250508190555061162f67f5e6250f6fc99c5a60c01b611c87565b61164367c98f629478725e8060c01b611c87565b61165f848488886040518060200160405280600081525061268c565b61167367a58e11024518bdb560c01b611c87565b61168767c46a00298829168b60c01b611c87565b6116b68361012e60009054906101000a900473ffffffffffffffffffffffffffffffffffffffff166001612520565b6116ca67023937fae7fbad5960c01b611c87565b6116de674e32c136200659b360c01b611c87565b7f4ef106d4846257c8cedad2e70211b29c8d7021e41e111654cf4cc8ebcc5577e086868560405161171193929190613ff6565b60405180910390a161172161292a565b505050505050565b61173b611734611d19565b8383612520565b5050565b61012e60009054906101000a900473ffffffffffffffffffffffffffffffffffffffff1681565b6101306020528060005260406000206000915054906101000a900460ff1681565b61179b6704a583f90bd7b33360c01b611c87565b6117af6747df6132c3c1b67060c01b611c87565b6117c3679f72ff67dc7bc51460c01b611c87565b6117d76709f9c27857ffb4d160c01b611c87565b61012d60009054906101000a900473ffffffffffffffffffffffffffffffffffffffff1673ffffffffffffffffffffffffffffffffffffffff163373ffffffffffffffffffffffffffffffffffffffff16146118b75761184167268b32dc1840444f60c01b611c87565b6118556725441561d542e16a60c01b611c87565b3361012d60009054906101000a900473ffffffffffffffffffffffffffffffffffffffff166040517fe0c0b6090000000000000000000000000000000000000000000000000000000081526004016118ae929190613c2e565b60405180910390fd5b6118cb67d2a00f199532c97260c01b611c87565b6118df674ee9735d3ed5a2eb60c01b611c87565b6118f3674bbdfa80a9fd843460c01b611c87565b6119076705fe995856374b0460c01b611c87565b61191b67bb01477519ea5c7060c01b611c87565b8061012d60006101000a81548173ffffffffffffffffffffffffffffffffffffffff021916908373ffffffffffffffffffffffffffffffffffffffff16021790555050565b6000606660008473ffffffffffffffffffffffffffffffffffffffff1673ffffffffffffffffffffffffffffffffffffffff16815260200190815260200160002060008373ffffffffffffffffffffffffffffffffffffffff1673ffffffffffffffffffffffffffffffffffffffff16815260200190815260200160002060009054906101000a900460ff16905092915050565b611a0867057d79b5ce03154460c01b611c87565b611a1c6747df6132c3c1b67060c01b611c87565b611a30679f72ff67dc7bc51460c01b611c87565b611a446709f9c27857ffb4d160c01b611c87565b61012d60009054906101000a900473ffffffffffffffffffffffffffffffffffffffff1673ffffffffffffffffffffffffffffffffffffffff163373ffffffffffffffffffffffffffffffffffffffff1614611b2457611aae67268b32dc1840444f60c01b611c87565b611ac26725441561d542e16a60c01b611c87565b3361012d60009054906101000a900473ffffffffffffffffffffffffffffffffffffffff166040517fe0c0b609000000000000000000000000000000000000000000000000000000008152600401611b1b929190613c2e565b60405180910390fd5b611b3867d2a00f199532c97260c01b611c87565b611b4c674ee9735d3ed5a2eb60c01b611c87565b611b606715762928b4a963f260c01b611c87565b611b7467c71dfa4e1f4faa2160c01b611c87565b611b88678375d4650c31a16160c01b611c87565b8061012e60006101000a81548173ffffffffffffffffffffffffffffffffffffffff021916908373ffffffffffffffffffffffffffffffffffffffff16021790555050565b611bd5611d19565b73ffffffffffffffffffffffffffffffffffffffff168573ffffffffffffffffffffffffffffffffffffffff161480611c1b5750611c1a85611c15611d19565b611960565b5b611c5a576040517f08c379a0000000000000000000000000000000000000000000000000000000008152600401611c5190613d9a565b60405180910390fd5b611c67858585858561268c565b5050505050565b6101316020528060005260406000206000915090505481565b50565b600060019050919050565b60007f2a55205a000000000000000000000000000000000000000000000000000000007bffffffffffffffffffffffffffffffffffffffffffffffffffffffff1916827bffffffffffffffffffffffffffffffffffffffffffffffffffffffff19161480611d085750611d0782612934565b5b9050919050565b6000612710905090565b600033905090565b8151835114611d65576040517f08c379a0000000000000000000000000000000000000000000000000000000008152600401611d5c9061409f565b60405180910390fd5b600073ffffffffffffffffffffffffffffffffffffffff168473ffffffffffffffffffffffffffffffffffffffff1603611dd4576040517f08c379a0000000000000000000000000000000000000000000000000000000008152600401611dcb90614131565b60405180910390fd5b6000611dde611d19565b9050611dee818787878787612a16565b60005b8451811015611fa2576000858281518110611e0f57611e0e613f4b565b5b602002602001015190506000858381518110611e2e57611e2d613f4b565b5b6020026020010151905060006065600084815260200190815260200160002060008b73ffffffffffffffffffffffffffffffffffffffff1673ffffffffffffffffffffffffffffffffffffffff16815260200190815260200160002054905081811015611ed0576040517f08c379a0000000000000000000000000000000000000000000000000000000008152600401611ec7906141c3565b60405180910390fd5b8181036065600085815260200190815260200160002060008c73ffffffffffffffffffffffffffffffffffffffff1673ffffffffffffffffffffffffffffffffffffffff16815260200190815260200160002081905550816065600085815260200190815260200160002060008b73ffffffffffffffffffffffffffffffffffffffff1673ffffffffffffffffffffffffffffffffffffffff1681526020019081526020016000206000828254611f879190613fc2565b9250508190555050505080611f9b90613f7a565b9050611df1565b508473ffffffffffffffffffffffffffffffffffffffff168673ffffffffffffffffffffffffffffffffffffffff168273ffffffffffffffffffffffffffffffffffffffff167f4a39dc06d4c0dbc64b70af90fd698a233a518aa5d07e595d983b8c0526c8f7fb87876040516120199291906141e3565b60405180910390a461202f818787878787612a1e565b61203d818787878787612a26565b505050505050565b6000808273ffffffffffffffffffffffffffffffffffffffff163b119050919050565b600060019054906101000a900460ff166120b7576040517f08c379a00000000000000000000000000000000000000000000000000000000081526004016120ae9061428c565b60405180910390fd5b6120c081612bfd565b50565b600060019054906101000a900460ff16612112576040517f08c379a00000000000000000000000000000000000000000000000000000000081526004016121099061428c565b60405180910390fd5b565b600073ffffffffffffffffffffffffffffffffffffffff168473ffffffffffffffffffffffffffffffffffffffff1603612183576040517f08c379a000000000000000000000000000000000000000000000000000000000815260040161217a9061431e565b60405180910390fd5b600061218d611d19565b9050600061219a85612c58565b905060006121a785612c58565b90506121b883600089858589612a16565b846065600088815260200190815260200160002060008973ffffffffffffffffffffffffffffffffffffffff1673ffffffffffffffffffffffffffffffffffffffff16815260200190815260200160002060008282546122189190613fc2565b925050819055508673ffffffffffffffffffffffffffffffffffffffff16600073ffffffffffffffffffffffffffffffffffffffff168473ffffffffffffffffffffffffffffffffffffffff167fc3d58168c5ae7397731d063d5bbf3d657854427343f4c083240f7aacaa2d0f62898960405161229692919061433e565b60405180910390a46122ad83600089858589612a1e565b6122bc83600089898989612cd2565b50505050505050565b600260fb540361230a576040517f08c379a0000000000000000000000000000000000000000000000000000000008152600401612301906143b3565b60405180910390fd5b600260fb81905550565b61231c611d0f565b6bffffffffffffffffffffffff16816bffffffffffffffffffffffff16111561237a576040517f08c379a000000000000000000000000000000000000000000000000000000000815260040161237190614445565b60405180910390fd5b600073ffffffffffffffffffffffffffffffffffffffff168273ffffffffffffffffffffffffffffffffffffffff16036123e9576040517f08c379a00000000000000000000000000000000000000000000000000000000081526004016123e0906144b1565b60405180910390fd5b60405180604001604052808373ffffffffffffffffffffffffffffffffffffffff168152602001826bffffffffffffffffffffffff1681525060ca600085815260200190815260200160002060008201518160000160006101000a81548173ffffffffffffffffffffffffffffffffffffffff021916908373ffffffffffffffffffffffffffffffffffffffff16021790555060208201518160000160146101000a8154816bffffffffffffffffffffffff02191690836bffffffffffffffffffffffff160217905550905050505050565b806098600084815260200190815260200160002090816124db9190614673565b50817f6bb7ff708619ba0610cba295a58592e0451dee2622938c8755667688daf3529b612507846105bc565b60405161251491906131b0565b60405180910390a25050565b8173ffffffffffffffffffffffffffffffffffffffff168373ffffffffffffffffffffffffffffffffffffffff160361258e576040517f08c379a0000000000000000000000000000000000000000000000000000000008152600401612585906147b7565b60405180910390fd5b80606660008573ffffffffffffffffffffffffffffffffffffffff1673ffffffffffffffffffffffffffffffffffffffff16815260200190815260200160002060008473ffffffffffffffffffffffffffffffffffffffff1673ffffffffffffffffffffffffffffffffffffffff16815260200190815260200160002060006101000a81548160ff0219169083151502179055508173ffffffffffffffffffffffffffffffffffffffff168373ffffffffffffffffffffffffffffffffffffffff167f17307eab39ab6107e8899845ad3d59bd9653f200f220920489ca2b5937696c318360405161267f91906130d8565b60405180910390a3505050565b600073ffffffffffffffffffffffffffffffffffffffff168473ffffffffffffffffffffffffffffffffffffffff16036126fb576040517f08c379a00000000000000000000000000000000000000000000000000000000081526004016126f290614131565b60405180910390fd5b6000612705611d19565b9050600061271285612c58565b9050600061271f85612c58565b905061272f838989858589612a16565b60006065600088815260200190815260200160002060008a73ffffffffffffffffffffffffffffffffffffffff1673ffffffffffffffffffffffffffffffffffffffff168152602001908152602001600020549050858110156127c7576040517f08c379a00000000000000000000000000000000000000000000000000000000081526004016127be906141c3565b60405180910390fd5b8581036065600089815260200190815260200160002060008b73ffffffffffffffffffffffffffffffffffffffff1673ffffffffffffffffffffffffffffffffffffffff16815260200190815260200160002081905550856065600089815260200190815260200160002060008a73ffffffffffffffffffffffffffffffffffffffff1673ffffffffffffffffffffffffffffffffffffffff168152602001908152602001600020600082825461287e9190613fc2565b925050819055508773ffffffffffffffffffffffffffffffffffffffff168973ffffffffffffffffffffffffffffffffffffffff168573ffffffffffffffffffffffffffffffffffffffff167fc3d58168c5ae7397731d063d5bbf3d657854427343f4c083240f7aacaa2d0f628a8a6040516128fb92919061433e565b60405180910390a4612911848a8a86868a612a1e565b61291f848a8a8a8a8a612cd2565b505050505050505050565b600160fb81905550565b60007fd9b67a26000000000000000000000000000000000000000000000000000000007bffffffffffffffffffffffffffffffffffffffffffffffffffffffff1916827bffffffffffffffffffffffffffffffffffffffffffffffffffffffff191614806129ff57507f0e89341c000000000000000000000000000000000000000000000000000000007bffffffffffffffffffffffffffffffffffffffffffffffffffffffff1916827bffffffffffffffffffffffffffffffffffffffffffffffffffffffff1916145b80612a0f5750612a0e82612ea9565b5b9050919050565b505050505050565b505050505050565b612a458473ffffffffffffffffffffffffffffffffffffffff16612045565b15612bf5578373ffffffffffffffffffffffffffffffffffffffff1663bc197c8187878686866040518663ffffffff1660e01b8152600401612a8b95949392919061482c565b6020604051808303816000875af1925050508015612ac757506040513d601f19601f82011682018060405250810190612ac491906148a9565b60015b612b6c57612ad36148e3565b806308c379a003612b2f5750612ae7614905565b80612af25750612b31565b806040517f08c379a0000000000000000000000000000000000000000000000000000000008152600401612b2691906131b0565b60405180910390fd5b505b6040517f08c379a0000000000000000000000000000000000000000000000000000000008152600401612b6390614a07565b60405180910390fd5b63bc197c8160e01b7bffffffffffffffffffffffffffffffffffffffffffffffffffffffff1916817bffffffffffffffffffffffffffffffffffffffffffffffffffffffff191614612bf3576040517f08c379a0000000000000000000000000000000000000000000000000000000008152600401612bea90614a99565b60405180910390fd5b505b505050505050565b600060019054906101000a900460ff16612c4c576040517f08c379a0000000000000000000000000000000000000000000000000000000008152600401612c439061428c565b60405180910390fd5b612c5581612f13565b50565b60606000600167ffffffffffffffff811115612c7757612c76613297565b5b604051908082528060200260200182016040528015612ca55781602001602082028036833780820191505090505b5090508281600081518110612cbd57612cbc613f4b565b5b60200260200101818152505080915050919050565b612cf18473ffffffffffffffffffffffffffffffffffffffff16612045565b15612ea1578373ffffffffffffffffffffffffffffffffffffffff1663f23a6e6187878686866040518663ffffffff1660e01b8152600401612d37959493929190614ab9565b6020604051808303816000875af1925050508015612d7357506040513d601f19601f82011682018060405250810190612d7091906148a9565b60015b612e1857612d7f6148e3565b806308c379a003612ddb5750612d93614905565b80612d9e5750612ddd565b806040517f08c379a0000000000000000000000000000000000000000000000000000000008152600401612dd291906131b0565b60405180910390fd5b505b6040517f08c379a0000000000000000000000000000000000000000000000000000000008152600401612e0f90614a07565b60405180910390fd5b63f23a6e6160e01b7bffffffffffffffffffffffffffffffffffffffffffffffffffffffff1916817bffffffffffffffffffffffffffffffffffffffffffffffffffffffff191614612e9f576040517f08c379a0000000000000000000000000000000000000000000000000000000008152600401612e9690614a99565b60405180910390fd5b505b505050505050565b60007f01ffc9a7000000000000000000000000000000000000000000000000000000007bffffffffffffffffffffffffffffffffffffffffffffffffffffffff1916827bffffffffffffffffffffffffffffffffffffffffffffffffffffffff1916149050919050565b8060679081612f229190614673565b5050565b6000604051905090565b600080fd5b600080fd5b600073ffffffffffffffffffffffffffffffffffffffff82169050919050565b6000612f6582612f3a565b9050919050565b612f7581612f5a565b8114612f8057600080fd5b50565b600081359050612f9281612f6c565b92915050565b6000819050919050565b612fab81612f98565b8114612fb657600080fd5b50565b600081359050612fc881612fa2565b92915050565b60008060408385031215612fe557612fe4612f30565b5b6000612ff385828601612f83565b925050602061300485828601612fb9565b9150509250929050565b61301781612f98565b82525050565b6000602082019050613032600083018461300e565b92915050565b60007fffffffff0000000000000000000000000000000000000000000000000000000082169050919050565b61306d81613038565b811461307857600080fd5b50565b60008135905061308a81613064565b92915050565b6000602082840312156130a6576130a5612f30565b5b60006130b48482850161307b565b91505092915050565b60008115159050919050565b6130d2816130bd565b82525050565b60006020820190506130ed60008301846130c9565b92915050565b60006020828403121561310957613108612f30565b5b600061311784828501612fb9565b91505092915050565b600081519050919050565b600082825260208201905092915050565b60005b8381101561315a57808201518184015260208101905061313f565b60008484015250505050565b6000601f19601f8301169050919050565b600061318282613120565b61318c818561312b565b935061319c81856020860161313c565b6131a581613166565b840191505092915050565b600060208201905081810360008301526131ca8184613177565b905092915050565b6000602082840312156131e8576131e7612f30565b5b60006131f684828501612f83565b91505092915050565b61320881612f5a565b82525050565b600060208201905061322360008301846131ff565b92915050565b600080604083850312156132405761323f612f30565b5b600061324e85828601612fb9565b925050602061325f85828601612fb9565b9150509250929050565b600060408201905061327e60008301856131ff565b61328b602083018461300e565b9392505050565b600080fd5b7f4e487b7100000000000000000000000000000000000000000000000000000000600052604160045260246000fd5b6132cf82613166565b810181811067ffffffffffffffff821117156132ee576132ed613297565b5b80604052505050565b6000613301612f26565b905061330d82826132c6565b919050565b600067ffffffffffffffff82111561332d5761332c613297565b5b602082029050602081019050919050565b600080fd5b600061335661335184613312565b6132f7565b905080838252602082019050602084028301858111156133795761337861333e565b5b835b818110156133a2578061338e8882612fb9565b84526020840193505060208101905061337b565b5050509392505050565b600082601f8301126133c1576133c0613292565b5b81356133d1848260208601613343565b91505092915050565b600080fd5b600067ffffffffffffffff8211156133fa576133f9613297565b5b61340382613166565b9050602081019050919050565b82818337600083830152505050565b600061343261342d846133df565b6132f7565b90508281526020810184848401111561344e5761344d6133da565b5b613459848285613410565b509392505050565b600082601f83011261347657613475613292565b5b813561348684826020860161341f565b91505092915050565b600080600080600060a086880312156134ab576134aa612f30565b5b60006134b988828901612f83565b95505060206134ca88828901612f83565b945050604086013567ffffffffffffffff8111156134eb576134ea612f35565b5b6134f7888289016133ac565b935050606086013567ffffffffffffffff81111561351857613517612f35565b5b613524888289016133ac565b925050608086013567ffffffffffffffff81111561354557613544612f35565b5b61355188828901613461565b9150509295509295909350565b600067ffffffffffffffff82111561357957613578613297565b5b61358282613166565b9050602081019050919050565b60006135a261359d8461355e565b6132f7565b9050828152602081018484840111156135be576135bd6133da565b5b6135c9848285613410565b509392505050565b600082601f8301126135e6576135e5613292565b5b81356135f684826020860161358f565b91505092915050565b60008060006060848603121561361857613617612f30565b5b600084013567ffffffffffffffff81111561363657613635612f35565b5b613642868287016135d1565b935050602061365386828701612f83565b925050604061366486828701612f83565b9150509250925092565b600067ffffffffffffffff82111561368957613688613297565b5b602082029050602081019050919050565b60006136ad6136a88461366e565b6132f7565b905080838252602082019050602084028301858111156136d0576136cf61333e565b5b835b818110156136f957806136e58882612f83565b8452602084019350506020810190506136d2565b5050509392505050565b600082601f83011261371857613717613292565b5b813561372884826020860161369a565b91505092915050565b6000806040838503121561374857613747612f30565b5b600083013567ffffffffffffffff81111561376657613765612f35565b5b61377285828601613703565b925050602083013567ffffffffffffffff81111561379357613792612f35565b5b61379f858286016133ac565b9150509250929050565b600081519050919050565b600082825260208201905092915050565b6000819050602082019050919050565b6137de81612f98565b82525050565b60006137f083836137d5565b60208301905092915050565b6000602082019050919050565b6000613814826137a9565b61381e81856137b4565b9350613829836137c5565b8060005b8381101561385a57815161384188826137e4565b975061384c836137fc565b92505060018101905061382d565b5085935050505092915050565b600060208201905081810360008301526138818184613809565b905092915050565b600080600080608085870312156138a3576138a2612f30565b5b60006138b187828801612f83565b94505060206138c287828801612fb9565b93505060406138d387828801612fb9565b925050606085013567ffffffffffffffff8111156138f4576138f3612f35565b5b61390087828801613461565b91505092959194509250565b60006bffffffffffffffffffffffff82169050919050565b61392d8161390c565b811461393857600080fd5b50565b60008135905061394a81613924565b92915050565b60008060008060008060c0878903121561396d5761396c612f30565b5b600061397b89828a01612fb9565b965050602061398c89828a01612fb9565b955050604061399d89828a01612f83565b94505060606139ae89828a01612f83565b93505060806139bf89828a0161393b565b92505060a087013567ffffffffffffffff8111156139e0576139df612f35565b5b6139ec89828a016135d1565b9150509295509295509295565b613a02816130bd565b8114613a0d57600080fd5b50565b600081359050613a1f816139f9565b92915050565b60008060408385031215613a3c57613a3b612f30565b5b6000613a4a85828601612f83565b9250506020613a5b85828601613a10565b9150509250929050565b60008060408385031215613a7c57613a7b612f30565b5b6000613a8a85828601612f83565b9250506020613a9b85828601612f83565b9150509250929050565b600080600080600060a08688031215613ac157613ac0612f30565b5b6000613acf88828901612f83565b9550506020613ae088828901612f83565b9450506040613af188828901612fb9565b9350506060613b0288828901612fb9565b925050608086013567ffffffffffffffff811115613b2357613b22612f35565b5b613b2f88828901613461565b9150509295509295909350565b7f455243313135353a2061646472657373207a65726f206973206e6f742061207660008201527f616c6964206f776e657200000000000000000000000000000000000000000000602082015250565b6000613b98602a8361312b565b9150613ba382613b3c565b604082019050919050565b60006020820190508181036000830152613bc781613b8b565b9050919050565b7f4e487b7100000000000000000000000000000000000000000000000000000000600052602260045260246000fd5b60006002820490506001821680613c1557607f821691505b602082108103613c2857613c27613bce565b5b50919050565b6000604082019050613c4360008301856131ff565b613c5060208301846131ff565b9392505050565b7f4e487b7100000000000000000000000000000000000000000000000000000000600052601160045260246000fd5b6000613c9182612f98565b9150613c9c83612f98565b9250828202613caa81612f98565b91508282048414831517613cc157613cc0613c57565b5b5092915050565b7f4e487b7100000000000000000000000000000000000000000000000000000000600052601260045260246000fd5b6000613d0282612f98565b9150613d0d83612f98565b925082613d1d57613d1c613cc8565b5b828204905092915050565b7f455243313135353a2063616c6c6572206973206e6f7420746f6b656e206f776e60008201527f6572206f7220617070726f766564000000000000000000000000000000000000602082015250565b6000613d84602e8361312b565b9150613d8f82613d28565b604082019050919050565b60006020820190508181036000830152613db381613d77565b9050919050565b7f496e697469616c697a61626c653a20636f6e747261637420697320616c72656160008201527f647920696e697469616c697a6564000000000000000000000000000000000000602082015250565b6000613e16602e8361312b565b9150613e2182613dba565b604082019050919050565b60006020820190508181036000830152613e4581613e09565b9050919050565b6000819050919050565b600060ff82169050919050565b6000819050919050565b6000613e88613e83613e7e84613e4c565b613e63565b613e56565b9050919050565b613e9881613e6d565b82525050565b6000602082019050613eb36000830184613e8f565b92915050565b7f455243313135353a206163636f756e747320616e6420696473206c656e67746860008201527f206d69736d617463680000000000000000000000000000000000000000000000602082015250565b6000613f1560298361312b565b9150613f2082613eb9565b604082019050919050565b60006020820190508181036000830152613f4481613f08565b9050919050565b7f4e487b7100000000000000000000000000000000000000000000000000000000600052603260045260246000fd5b6000613f8582612f98565b91507fffffffffffffffffffffffffffffffffffffffffffffffffffffffffffffffff8203613fb757613fb6613c57565b5b600182019050919050565b6000613fcd82612f98565b9150613fd883612f98565b9250828201905080821115613ff057613fef613c57565b5b92915050565b600060608201905061400b600083018661300e565b614018602083018561300e565b61402560408301846131ff565b949350505050565b7f455243313135353a2069647320616e6420616d6f756e7473206c656e6774682060008201527f6d69736d61746368000000000000000000000000000000000000000000000000602082015250565b600061408960288361312b565b91506140948261402d565b604082019050919050565b600060208201905081810360008301526140b88161407c565b9050919050565b7f455243313135353a207472616e7366657220746f20746865207a65726f20616460008201527f6472657373000000000000000000000000000000000000000000000000000000602082015250565b600061411b60258361312b565b9150614126826140bf565b604082019050919050565b6000602082019050818103600083015261414a8161410e565b9050919050565b7f455243313135353a20696e73756666696369656e742062616c616e636520666f60008201527f72207472616e7366657200000000000000000000000000000000000000000000602082015250565b60006141ad602a8361312b565b91506141b882614151565b604082019050919050565b600060208201905081810360008301526141dc816141a0565b9050919050565b600060408201905081810360008301526141fd8185613809565b905081810360208301526142118184613809565b90509392505050565b7f496e697469616c697a61626c653a20636f6e7472616374206973206e6f74206960008201527f6e697469616c697a696e67000000000000000000000000000000000000000000602082015250565b6000614276602b8361312b565b91506142818261421a565b604082019050919050565b600060208201905081810360008301526142a581614269565b9050919050565b7f455243313135353a206d696e7420746f20746865207a65726f2061646472657360008201527f7300000000000000000000000000000000000000000000000000000000000000602082015250565b600061430860218361312b565b9150614313826142ac565b604082019050919050565b60006020820190508181036000830152614337816142fb565b9050919050565b6000604082019050614353600083018561300e565b614360602083018461300e565b9392505050565b7f5265656e7472616e637947756172643a207265656e7472616e742063616c6c00600082015250565b600061439d601f8361312b565b91506143a882614367565b602082019050919050565b600060208201905081810360008301526143cc81614390565b9050919050565b7f455243323938313a20726f79616c7479206665652077696c6c2065786365656460008201527f2073616c65507269636500000000000000000000000000000000000000000000602082015250565b600061442f602a8361312b565b915061443a826143d3565b604082019050919050565b6000602082019050818103600083015261445e81614422565b9050919050565b7f455243323938313a20496e76616c696420706172616d65746572730000000000600082015250565b600061449b601b8361312b565b91506144a682614465565b602082019050919050565b600060208201905081810360008301526144ca8161448e565b9050919050565b60008190508160005260206000209050919050565b60006020601f8301049050919050565b600082821b905092915050565b6000600883026145337fffffffffffffffffffffffffffffffffffffffffffffffffffffffffffffffff826144f6565b61453d86836144f6565b95508019841693508086168417925050509392505050565b600061457061456b61456684612f98565b613e63565b612f98565b9050919050565b6000819050919050565b61458a83614555565b61459e61459682614577565b848454614503565b825550505050565b600090565b6145b36145a6565b6145be818484614581565b505050565b5b818110156145e2576145d76000826145ab565b6001810190506145c4565b5050565b601f821115614627576145f8816144d1565b614601846144e6565b81016020851015614610578190505b61462461461c856144e6565b8301826145c3565b50505b505050565b600082821c905092915050565b600061464a6000198460080261462c565b1980831691505092915050565b60006146638383614639565b9150826002028217905092915050565b61467c82613120565b67ffffffffffffffff81111561469557614694613297565b5b61469f8254613bfd565b6146aa8282856145e6565b600060209050601f8311600181146146dd57600084156146cb578287015190505b6146d58582614657565b86555061473d565b601f1984166146eb866144d1565b60005b82811015614713578489015182556001820191506020850194506020810190506146ee565b86831015614730578489015161472c601f891682614639565b8355505b6001600288020188555050505b505050505050565b7f455243313135353a2073657474696e6720617070726f76616c2073746174757360008201527f20666f722073656c660000000000000000000000000000000000000000000000602082015250565b60006147a160298361312b565b91506147ac82614745565b604082019050919050565b600060208201905081810360008301526147d081614794565b9050919050565b600081519050919050565b600082825260208201905092915050565b60006147fe826147d7565b61480881856147e2565b935061481881856020860161313c565b61482181613166565b840191505092915050565b600060a08201905061484160008301886131ff565b61484e60208301876131ff565b81810360408301526148608186613809565b905081810360608301526148748185613809565b9050818103608083015261488881846147f3565b90509695505050505050565b6000815190506148a381613064565b92915050565b6000602082840312156148bf576148be612f30565b5b60006148cd84828501614894565b91505092915050565b60008160e01c9050919050565b600060033d11156149025760046000803e6148ff6000516148d6565b90505b90565b600060443d1061499257614917612f26565b60043d036004823e80513d602482011167ffffffffffffffff8211171561493f575050614992565b808201805167ffffffffffffffff81111561495d5750505050614992565b80602083010160043d03850181111561497a575050505050614992565b614989826020018501866132c6565b82955050505050505b90565b7f455243313135353a207472616e7366657220746f206e6f6e2d4552433131353560008201527f526563656976657220696d706c656d656e746572000000000000000000000000602082015250565b60006149f160348361312b565b91506149fc82614995565b604082019050919050565b60006020820190508181036000830152614a20816149e4565b9050919050565b7f455243313135353a204552433131353552656365697665722072656a6563746560008201527f6420746f6b656e73000000000000000000000000000000000000000000000000602082015250565b6000614a8360288361312b565b9150614a8e82614a27565b604082019050919050565b60006020820190508181036000830152614ab281614a76565b9050919050565b600060a082019050614ace60008301886131ff565b614adb60208301876131ff565b614ae8604083018661300e565b614af5606083018561300e565b8181036080830152614b0781846147f3565b9050969550505050505056fea264697066735822122062e5e28888e3acc2354a55292f7c4177a1abef226cc8cab23b11baa016db5c7264736f6c63430008120033",
  "linkReferences": {},
  "deployedLinkReferences": {}
}